{
  "_format": "hh-sol-artifact-1",
  "contractName": "FractionalizedNFT",
  "sourceName": "contracts/FractionalizedNFT.sol",
  "abi": [
    {
      "inputs": [
        {
          "internalType": "address",
          "name": "defaultAdmin",
          "type": "address"
        },
        {
          "internalType": "address",
          "name": "_reserver",
          "type": "address"
        },
        {
          "internalType": "string",
          "name": "uri",
          "type": "string"
        }
      ],
      "stateMutability": "nonpayable",
      "type": "constructor"
    },
    {
      "inputs": [],
      "name": "AccessControlBadConfirmation",
      "type": "error"
    },
    {
      "inputs": [
        {
          "internalType": "address",
          "name": "account",
          "type": "address"
        },
        {
          "internalType": "bytes32",
          "name": "neededRole",
          "type": "bytes32"
        }
      ],
      "name": "AccessControlUnauthorizedAccount",
      "type": "error"
    },
    {
      "inputs": [
        {
          "internalType": "address",
          "name": "sender",
          "type": "address"
        },
        {
          "internalType": "uint256",
          "name": "balance",
          "type": "uint256"
        },
        {
          "internalType": "uint256",
          "name": "needed",
          "type": "uint256"
        },
        {
          "internalType": "uint256",
          "name": "tokenId",
          "type": "uint256"
        }
      ],
      "name": "ERC1155InsufficientBalance",
      "type": "error"
    },
    {
      "inputs": [
        {
          "internalType": "address",
          "name": "approver",
          "type": "address"
        }
      ],
      "name": "ERC1155InvalidApprover",
      "type": "error"
    },
    {
      "inputs": [
        {
          "internalType": "uint256",
          "name": "idsLength",
          "type": "uint256"
        },
        {
          "internalType": "uint256",
          "name": "valuesLength",
          "type": "uint256"
        }
      ],
      "name": "ERC1155InvalidArrayLength",
      "type": "error"
    },
    {
      "inputs": [
        {
          "internalType": "address",
          "name": "operator",
          "type": "address"
        }
      ],
      "name": "ERC1155InvalidOperator",
      "type": "error"
    },
    {
      "inputs": [
        {
          "internalType": "address",
          "name": "receiver",
          "type": "address"
        }
      ],
      "name": "ERC1155InvalidReceiver",
      "type": "error"
    },
    {
      "inputs": [
        {
          "internalType": "address",
          "name": "sender",
          "type": "address"
        }
      ],
      "name": "ERC1155InvalidSender",
      "type": "error"
    },
    {
      "inputs": [
        {
          "internalType": "address",
          "name": "operator",
          "type": "address"
        },
        {
          "internalType": "address",
          "name": "owner",
          "type": "address"
        }
      ],
      "name": "ERC1155MissingApprovalForAll",
      "type": "error"
    },
    {
      "inputs": [],
      "name": "EnforcedPause",
      "type": "error"
    },
    {
      "inputs": [],
      "name": "ExpectedPause",
      "type": "error"
    },
    {
      "anonymous": false,
      "inputs": [
        {
          "indexed": true,
          "internalType": "uint256",
          "name": "tokenId",
          "type": "uint256"
        },
        {
          "indexed": true,
          "internalType": "address",
          "name": "operator",
          "type": "address"
        },
        {
          "indexed": false,
          "internalType": "uint256",
          "name": "amount",
          "type": "uint256"
        }
      ],
      "name": "AmountApproved",
      "type": "event"
    },
    {
      "anonymous": false,
      "inputs": [
        {
          "indexed": false,
          "internalType": "uint256",
          "name": "tokenId",
          "type": "uint256"
        },
        {
          "indexed": false,
          "internalType": "address",
          "name": "from",
          "type": "address"
        },
        {
          "indexed": false,
          "internalType": "address",
          "name": "to",
          "type": "address"
        },
        {
          "indexed": false,
          "internalType": "uint256",
          "name": "amount",
          "type": "uint256"
        }
      ],
      "name": "AmountTransferred",
      "type": "event"
    },
    {
      "anonymous": false,
      "inputs": [
        {
          "indexed": true,
          "internalType": "address",
          "name": "account",
          "type": "address"
        },
        {
          "indexed": true,
          "internalType": "address",
          "name": "operator",
          "type": "address"
        },
        {
          "indexed": false,
          "internalType": "bool",
          "name": "approved",
          "type": "bool"
        }
      ],
      "name": "ApprovalForAll",
      "type": "event"
    },
    {
      "anonymous": false,
      "inputs": [
        {
          "indexed": true,
          "internalType": "uint256",
          "name": "tokenId",
          "type": "uint256"
        },
        {
          "indexed": false,
          "internalType": "address",
          "name": "account",
          "type": "address"
        }
      ],
      "name": "OwnershipRemoved",
      "type": "event"
    },
    {
      "anonymous": false,
      "inputs": [
        {
          "indexed": false,
          "internalType": "address",
          "name": "account",
          "type": "address"
        }
      ],
      "name": "Paused",
      "type": "event"
    },
    {
      "anonymous": false,
      "inputs": [
        {
          "indexed": true,
          "internalType": "bytes32",
          "name": "role",
          "type": "bytes32"
        },
        {
          "indexed": true,
          "internalType": "bytes32",
          "name": "previousAdminRole",
          "type": "bytes32"
        },
        {
          "indexed": true,
          "internalType": "bytes32",
          "name": "newAdminRole",
          "type": "bytes32"
        }
      ],
      "name": "RoleAdminChanged",
      "type": "event"
    },
    {
      "anonymous": false,
      "inputs": [
        {
          "indexed": true,
          "internalType": "bytes32",
          "name": "role",
          "type": "bytes32"
        },
        {
          "indexed": true,
          "internalType": "address",
          "name": "account",
          "type": "address"
        },
        {
          "indexed": true,
          "internalType": "address",
          "name": "sender",
          "type": "address"
        }
      ],
      "name": "RoleGranted",
      "type": "event"
    },
    {
      "anonymous": false,
      "inputs": [
        {
          "indexed": true,
          "internalType": "bytes32",
          "name": "role",
          "type": "bytes32"
        },
        {
          "indexed": true,
          "internalType": "address",
          "name": "account",
          "type": "address"
        },
        {
          "indexed": true,
          "internalType": "address",
          "name": "sender",
          "type": "address"
        }
      ],
      "name": "RoleRevoked",
      "type": "event"
    },
    {
      "anonymous": false,
      "inputs": [
        {
          "indexed": true,
          "internalType": "uint256",
          "name": "tokenId",
          "type": "uint256"
        },
        {
          "indexed": false,
          "internalType": "address",
          "name": "account",
          "type": "address"
        }
      ],
      "name": "TokenMinted",
      "type": "event"
    },
    {
      "anonymous": false,
      "inputs": [
        {
          "indexed": true,
          "internalType": "address",
          "name": "operator",
          "type": "address"
        },
        {
          "indexed": true,
          "internalType": "address",
          "name": "from",
          "type": "address"
        },
        {
          "indexed": true,
          "internalType": "address",
          "name": "to",
          "type": "address"
        },
        {
          "indexed": false,
          "internalType": "uint256[]",
          "name": "ids",
          "type": "uint256[]"
        },
        {
          "indexed": false,
          "internalType": "uint256[]",
          "name": "values",
          "type": "uint256[]"
        }
      ],
      "name": "TransferBatch",
      "type": "event"
    },
    {
      "anonymous": false,
      "inputs": [
        {
          "indexed": true,
          "internalType": "address",
          "name": "operator",
          "type": "address"
        },
        {
          "indexed": true,
          "internalType": "address",
          "name": "from",
          "type": "address"
        },
        {
          "indexed": true,
          "internalType": "address",
          "name": "to",
          "type": "address"
        },
        {
          "indexed": false,
          "internalType": "uint256",
          "name": "id",
          "type": "uint256"
        },
        {
          "indexed": false,
          "internalType": "uint256",
          "name": "value",
          "type": "uint256"
        }
      ],
      "name": "TransferSingle",
      "type": "event"
    },
    {
      "anonymous": false,
      "inputs": [
        {
          "indexed": false,
          "internalType": "string",
          "name": "value",
          "type": "string"
        },
        {
          "indexed": true,
          "internalType": "uint256",
          "name": "id",
          "type": "uint256"
        }
      ],
      "name": "URI",
      "type": "event"
    },
    {
      "anonymous": false,
      "inputs": [
        {
          "indexed": false,
          "internalType": "address",
          "name": "account",
          "type": "address"
        }
      ],
      "name": "Unpaused",
      "type": "event"
    },
    {
      "inputs": [],
      "name": "DEFAULT_ADMIN_ROLE",
      "outputs": [
        {
          "internalType": "bytes32",
          "name": "",
          "type": "bytes32"
        }
      ],
      "stateMutability": "view",
      "type": "function"
    },
    {
      "inputs": [],
      "name": "MAX_TOKEN_AMOUNT",
      "outputs": [
        {
          "internalType": "uint256",
          "name": "",
          "type": "uint256"
        }
      ],
      "stateMutability": "view",
      "type": "function"
    },
    {
      "inputs": [],
      "name": "MINTER_ROLE",
      "outputs": [
        {
          "internalType": "bytes32",
          "name": "",
          "type": "bytes32"
        }
      ],
      "stateMutability": "view",
      "type": "function"
    },
    {
      "inputs": [],
      "name": "PAUSER_ROLE",
      "outputs": [
        {
          "internalType": "bytes32",
          "name": "",
          "type": "bytes32"
        }
      ],
      "stateMutability": "view",
      "type": "function"
    },
    {
      "inputs": [],
      "name": "URI_SETTER_ROLE",
      "outputs": [
        {
          "internalType": "bytes32",
          "name": "",
          "type": "bytes32"
        }
      ],
      "stateMutability": "view",
      "type": "function"
    },
    {
      "inputs": [
        {
          "internalType": "uint256",
          "name": "tokenId",
          "type": "uint256"
        },
        {
          "internalType": "address",
          "name": "operator",
          "type": "address"
        }
      ],
      "name": "allowance",
      "outputs": [
        {
          "internalType": "uint256",
          "name": "",
          "type": "uint256"
        }
      ],
      "stateMutability": "view",
      "type": "function"
    },
    {
      "inputs": [
        {
          "internalType": "uint256",
          "name": "tokenId",
          "type": "uint256"
        },
        {
          "internalType": "address",
          "name": "operator",
          "type": "address"
        },
        {
          "internalType": "uint256",
          "name": "amount",
          "type": "uint256"
        }
      ],
      "name": "approve",
      "outputs": [],
      "stateMutability": "nonpayable",
      "type": "function"
    },
    {
      "inputs": [
        {
          "internalType": "address",
          "name": "account",
          "type": "address"
        },
        {
          "internalType": "uint256",
          "name": "id",
          "type": "uint256"
        }
      ],
      "name": "balanceOf",
      "outputs": [
        {
          "internalType": "uint256",
          "name": "",
          "type": "uint256"
        }
      ],
      "stateMutability": "view",
      "type": "function"
    },
    {
      "inputs": [
        {
          "internalType": "address[]",
          "name": "accounts",
          "type": "address[]"
        },
        {
          "internalType": "uint256[]",
          "name": "ids",
          "type": "uint256[]"
        }
      ],
      "name": "balanceOfBatch",
      "outputs": [
        {
          "internalType": "uint256[]",
          "name": "",
          "type": "uint256[]"
        }
      ],
      "stateMutability": "view",
      "type": "function"
    },
    {
      "inputs": [
        {
          "internalType": "address",
          "name": "account",
          "type": "address"
        },
        {
          "internalType": "uint256",
          "name": "id",
          "type": "uint256"
        },
        {
          "internalType": "uint256",
          "name": "value",
          "type": "uint256"
        }
      ],
      "name": "burn",
      "outputs": [],
      "stateMutability": "nonpayable",
      "type": "function"
    },
    {
      "inputs": [
        {
          "internalType": "address",
          "name": "account",
          "type": "address"
        },
        {
          "internalType": "uint256[]",
          "name": "ids",
          "type": "uint256[]"
        },
        {
          "internalType": "uint256[]",
          "name": "values",
          "type": "uint256[]"
        }
      ],
      "name": "burnBatch",
      "outputs": [],
      "stateMutability": "nonpayable",
      "type": "function"
    },
    {
      "inputs": [
        {
          "internalType": "address",
          "name": "account",
          "type": "address"
        }
      ],
      "name": "getOwnedTokens",
      "outputs": [
        {
          "internalType": "uint256[]",
          "name": "",
          "type": "uint256[]"
        }
      ],
      "stateMutability": "view",
      "type": "function"
    },
    {
      "inputs": [
        {
          "internalType": "uint256",
          "name": "tokenId",
          "type": "uint256"
        }
      ],
      "name": "getOwners",
      "outputs": [
        {
          "internalType": "address[]",
          "name": "",
          "type": "address[]"
        }
      ],
      "stateMutability": "view",
      "type": "function"
    },
    {
      "inputs": [
        {
          "internalType": "address",
          "name": "account",
          "type": "address"
        },
        {
          "internalType": "uint256",
          "name": "tokenId",
          "type": "uint256"
        }
      ],
      "name": "getOwnershipAmount",
      "outputs": [
        {
          "internalType": "uint256",
          "name": "",
          "type": "uint256"
        }
      ],
      "stateMutability": "view",
      "type": "function"
    },
    {
      "inputs": [
        {
          "internalType": "address",
          "name": "account",
          "type": "address"
        },
        {
          "internalType": "uint256",
          "name": "tokenId",
          "type": "uint256"
        }
      ],
      "name": "getOwnershipPercentage",
      "outputs": [
        {
          "internalType": "uint256",
          "name": "",
          "type": "uint256"
        }
      ],
      "stateMutability": "view",
      "type": "function"
    },
    {
      "inputs": [
        {
          "internalType": "bytes32",
          "name": "role",
          "type": "bytes32"
        }
      ],
      "name": "getRoleAdmin",
      "outputs": [
        {
          "internalType": "bytes32",
          "name": "",
          "type": "bytes32"
        }
      ],
      "stateMutability": "view",
      "type": "function"
    },
    {
      "inputs": [
        {
          "internalType": "bytes32",
          "name": "role",
          "type": "bytes32"
        },
        {
          "internalType": "address",
          "name": "account",
          "type": "address"
        }
      ],
      "name": "grantRole",
      "outputs": [],
      "stateMutability": "nonpayable",
      "type": "function"
    },
    {
      "inputs": [
        {
          "internalType": "bytes32",
          "name": "role",
          "type": "bytes32"
        },
        {
          "internalType": "address",
          "name": "account",
          "type": "address"
        }
      ],
      "name": "hasRole",
      "outputs": [
        {
          "internalType": "bool",
          "name": "",
          "type": "bool"
        }
      ],
      "stateMutability": "view",
      "type": "function"
    },
    {
      "inputs": [
        {
          "internalType": "address",
          "name": "account",
          "type": "address"
        },
        {
          "internalType": "address",
          "name": "operator",
          "type": "address"
        }
      ],
      "name": "isApprovedForAll",
      "outputs": [
        {
          "internalType": "bool",
          "name": "",
          "type": "bool"
        }
      ],
      "stateMutability": "view",
      "type": "function"
    },
    {
      "inputs": [
        {
          "internalType": "address",
          "name": "account",
          "type": "address"
        },
        {
          "internalType": "uint256",
          "name": "tokenId",
          "type": "uint256"
        },
        {
          "internalType": "bool",
          "name": "reservable",
          "type": "bool"
        },
        {
          "internalType": "bytes",
          "name": "data",
          "type": "bytes"
        }
      ],
      "name": "mint",
      "outputs": [],
      "stateMutability": "nonpayable",
      "type": "function"
    },
    {
      "inputs": [
        {
          "internalType": "address",
          "name": "account",
          "type": "address"
        },
        {
          "internalType": "uint8",
          "name": "count",
          "type": "uint8"
        },
        {
          "internalType": "uint256[]",
          "name": "tokenIds",
          "type": "uint256[]"
        },
        {
          "internalType": "bytes",
          "name": "data",
          "type": "bytes"
        }
      ],
      "name": "mintBatch",
      "outputs": [],
      "stateMutability": "nonpayable",
      "type": "function"
    },
    {
      "inputs": [
        {
          "internalType": "address",
          "name": "",
          "type": "address"
        },
        {
          "internalType": "uint256",
          "name": "",
          "type": "uint256"
        }
      ],
      "name": "ownedTokens",
      "outputs": [
        {
          "internalType": "uint256",
          "name": "",
          "type": "uint256"
        }
      ],
      "stateMutability": "view",
      "type": "function"
    },
    {
      "inputs": [
        {
          "internalType": "uint256",
          "name": "",
          "type": "uint256"
        },
        {
          "internalType": "uint256",
          "name": "",
          "type": "uint256"
        }
      ],
      "name": "owners",
      "outputs": [
        {
          "internalType": "address",
          "name": "",
          "type": "address"
        }
      ],
      "stateMutability": "view",
      "type": "function"
    },
    {
      "inputs": [
        {
          "internalType": "uint256",
          "name": "",
          "type": "uint256"
        },
        {
          "internalType": "address",
          "name": "",
          "type": "address"
        }
      ],
      "name": "ownership",
      "outputs": [
        {
          "internalType": "uint256",
          "name": "",
          "type": "uint256"
        }
      ],
      "stateMutability": "view",
      "type": "function"
    },
    {
      "inputs": [],
      "name": "pause",
      "outputs": [],
      "stateMutability": "nonpayable",
      "type": "function"
    },
    {
      "inputs": [],
      "name": "paused",
      "outputs": [
        {
          "internalType": "bool",
          "name": "",
          "type": "bool"
        }
      ],
      "stateMutability": "view",
      "type": "function"
    },
    {
      "inputs": [
        {
          "internalType": "address",
          "name": "operator",
          "type": "address"
        },
        {
          "internalType": "uint256",
          "name": "tokenId",
          "type": "uint256"
        }
      ],
      "name": "removeApproval",
      "outputs": [],
      "stateMutability": "nonpayable",
      "type": "function"
    },
    {
      "inputs": [
        {
          "internalType": "bytes32",
          "name": "role",
          "type": "bytes32"
        },
        {
          "internalType": "address",
          "name": "callerConfirmation",
          "type": "address"
        }
      ],
      "name": "renounceRole",
      "outputs": [],
      "stateMutability": "nonpayable",
      "type": "function"
    },
    {
      "inputs": [],
      "name": "reserver",
      "outputs": [
        {
          "internalType": "contract Reserver",
          "name": "",
          "type": "address"
        }
      ],
      "stateMutability": "view",
      "type": "function"
    },
    {
      "inputs": [
        {
          "internalType": "bytes32",
          "name": "role",
          "type": "bytes32"
        },
        {
          "internalType": "address",
          "name": "account",
          "type": "address"
        }
      ],
      "name": "revokeRole",
      "outputs": [],
      "stateMutability": "nonpayable",
      "type": "function"
    },
    {
      "inputs": [
        {
          "internalType": "address",
          "name": "from",
          "type": "address"
        },
        {
          "internalType": "address",
          "name": "to",
          "type": "address"
        },
        {
          "internalType": "uint256[]",
          "name": "ids",
          "type": "uint256[]"
        },
        {
          "internalType": "uint256[]",
          "name": "values",
          "type": "uint256[]"
        },
        {
          "internalType": "bytes",
          "name": "data",
          "type": "bytes"
        }
      ],
      "name": "safeBatchTransferFrom",
      "outputs": [],
      "stateMutability": "nonpayable",
      "type": "function"
    },
    {
      "inputs": [
        {
          "internalType": "address",
          "name": "from",
          "type": "address"
        },
        {
          "internalType": "address",
          "name": "to",
          "type": "address"
        },
        {
          "internalType": "uint256",
          "name": "id",
          "type": "uint256"
        },
        {
          "internalType": "uint256",
          "name": "value",
          "type": "uint256"
        },
        {
          "internalType": "bytes",
          "name": "data",
          "type": "bytes"
        }
      ],
      "name": "safeTransferFrom",
      "outputs": [],
      "stateMutability": "nonpayable",
      "type": "function"
    },
    {
      "inputs": [
        {
          "internalType": "address",
          "name": "operator",
          "type": "address"
        },
        {
          "internalType": "bool",
          "name": "approved",
          "type": "bool"
        }
      ],
      "name": "setApprovalForAll",
      "outputs": [],
      "stateMutability": "nonpayable",
      "type": "function"
    },
    {
      "inputs": [
        {
          "internalType": "address",
          "name": "_reserver",
          "type": "address"
        }
      ],
      "name": "setReserver",
      "outputs": [],
      "stateMutability": "nonpayable",
      "type": "function"
    },
    {
      "inputs": [
        {
          "internalType": "string",
          "name": "newuri",
          "type": "string"
        }
      ],
      "name": "setURI",
      "outputs": [],
      "stateMutability": "nonpayable",
      "type": "function"
    },
    {
      "inputs": [
        {
          "internalType": "bytes4",
          "name": "interfaceId",
          "type": "bytes4"
        }
      ],
      "name": "supportsInterface",
      "outputs": [
        {
          "internalType": "bool",
          "name": "",
          "type": "bool"
        }
      ],
      "stateMutability": "view",
      "type": "function"
    },
    {
      "inputs": [
        {
          "internalType": "address",
          "name": "from",
          "type": "address"
        },
        {
          "internalType": "address",
          "name": "to",
          "type": "address"
        },
        {
          "internalType": "uint256",
          "name": "tokenId",
          "type": "uint256"
        },
        {
          "internalType": "uint256",
          "name": "amount",
          "type": "uint256"
        },
        {
          "internalType": "bytes",
          "name": "data",
          "type": "bytes"
        }
      ],
      "name": "transfer",
      "outputs": [],
      "stateMutability": "nonpayable",
      "type": "function"
    },
    {
      "inputs": [
        {
          "internalType": "address",
          "name": "from",
          "type": "address"
        },
        {
          "internalType": "address",
          "name": "to",
          "type": "address"
        },
        {
          "internalType": "uint256",
          "name": "tokenId",
          "type": "uint256"
        },
        {
          "internalType": "uint256",
          "name": "amount",
          "type": "uint256"
        },
        {
          "internalType": "bytes",
          "name": "data",
          "type": "bytes"
        }
      ],
      "name": "transferFrom",
      "outputs": [],
      "stateMutability": "nonpayable",
      "type": "function"
    },
    {
      "inputs": [],
      "name": "unpause",
      "outputs": [],
      "stateMutability": "nonpayable",
      "type": "function"
    },
    {
      "inputs": [
        {
          "internalType": "uint256",
          "name": "",
          "type": "uint256"
        }
      ],
      "name": "uri",
      "outputs": [
        {
          "internalType": "string",
          "name": "",
          "type": "string"
        }
      ],
      "stateMutability": "view",
      "type": "function"
    }
  ],
  "bytecode": "0x60806040523480156200001157600080fd5b50604051620059b9380380620059b98339818101604052810190620000379190620004e2565b8062000049816200015e60201b60201c565b506000600460006101000a81548160ff0219169083151502179055506200007a6000801b846200017360201b60201c565b50620000ad7f65d7a28e3265b37a6474929f336521b332c1681b933f6cb9f3376673440d862a846200017360201b60201c565b50620000e07f9f2df0fed2c77648de5860a4cc508cd0818c85b8b8a1ab4ceeef8d981c8956a6846200017360201b60201c565b50620001137f7804d923f43a17d325d77e781528e0793b2edd9890ab45fc64efd7b4b427744c846200017360201b60201c565b5081600460016101000a81548173ffffffffffffffffffffffffffffffffffffffff021916908373ffffffffffffffffffffffffffffffffffffffff1602179055505050506200088f565b80600290816200016f9190620007a8565b5050565b60006200018783836200027760201b60201c565b6200026c5760016003600085815260200190815260200160002060000160008473ffffffffffffffffffffffffffffffffffffffff1673ffffffffffffffffffffffffffffffffffffffff16815260200190815260200160002060006101000a81548160ff02191690831515021790555062000208620002e260201b60201c565b73ffffffffffffffffffffffffffffffffffffffff168273ffffffffffffffffffffffffffffffffffffffff16847f2f8788117e7eff1d82e926ec794901d17c78024a50270940304540a733656f0d60405160405180910390a46001905062000271565b600090505b92915050565b60006003600084815260200190815260200160002060000160008373ffffffffffffffffffffffffffffffffffffffff1673ffffffffffffffffffffffffffffffffffffffff16815260200190815260200160002060009054906101000a900460ff16905092915050565b600033905090565b6000604051905090565b600080fd5b600080fd5b600073ffffffffffffffffffffffffffffffffffffffff82169050919050565b60006200032b82620002fe565b9050919050565b6200033d816200031e565b81146200034957600080fd5b50565b6000815190506200035d8162000332565b92915050565b600080fd5b600080fd5b6000601f19601f8301169050919050565b7f4e487b7100000000000000000000000000000000000000000000000000000000600052604160045260246000fd5b620003b8826200036d565b810181811067ffffffffffffffff82111715620003da57620003d96200037e565b5b80604052505050565b6000620003ef620002ea565b9050620003fd8282620003ad565b919050565b600067ffffffffffffffff82111562000420576200041f6200037e565b5b6200042b826200036d565b9050602081019050919050565b60005b83811015620004585780820151818401526020810190506200043b565b60008484015250505050565b60006200047b620004758462000402565b620003e3565b9050828152602081018484840111156200049a576200049962000368565b5b620004a784828562000438565b509392505050565b600082601f830112620004c757620004c662000363565b5b8151620004d984826020860162000464565b91505092915050565b600080600060608486031215620004fe57620004fd620002f4565b5b60006200050e868287016200034c565b935050602062000521868287016200034c565b925050604084015167ffffffffffffffff811115620005455762000544620002f9565b5b6200055386828701620004af565b9150509250925092565b600081519050919050565b7f4e487b7100000000000000000000000000000000000000000000000000000000600052602260045260246000fd5b60006002820490506001821680620005b057607f821691505b602082108103620005c657620005c562000568565b5b50919050565b60008190508160005260206000209050919050565b60006020601f8301049050919050565b600082821b905092915050565b600060088302620006307fffffffffffffffffffffffffffffffffffffffffffffffffffffffffffffffff82620005f1565b6200063c8683620005f1565b95508019841693508086168417925050509392505050565b6000819050919050565b6000819050919050565b600062000689620006836200067d8462000654565b6200065e565b62000654565b9050919050565b6000819050919050565b620006a58362000668565b620006bd620006b48262000690565b848454620005fe565b825550505050565b600090565b620006d4620006c5565b620006e18184846200069a565b505050565b5b818110156200070957620006fd600082620006ca565b600181019050620006e7565b5050565b601f82111562000758576200072281620005cc565b6200072d84620005e1565b810160208510156200073d578190505b620007556200074c85620005e1565b830182620006e6565b50505b505050565b600082821c905092915050565b60006200077d600019846008026200075d565b1980831691505092915050565b60006200079883836200076a565b9150826002028217905092915050565b620007b3826200055d565b67ffffffffffffffff811115620007cf57620007ce6200037e565b5b620007db825462000597565b620007e88282856200070d565b600060209050601f8311600181146200082057600084156200080b578287015190505b6200081785826200078a565b86555062000887565b601f1984166200083086620005cc565b60005b828110156200085a5784890151825560018201915060208501945060208101905062000833565b868310156200087a578489015162000876601f8916826200076a565b8355505b6001600288020188555050505b505050505050565b61511a806200089f6000396000f3fe608060405234801561001057600080fd5b50600436106102475760003560e01c80638456cb591161013b578063dcd315eb116100b8578063e985e9c51161007c578063e985e9c5146106fa578063ee4525d51461072a578063f242432a1461075a578063f5298aca14610776578063fe7358441461079257610247565b8063dcd315eb1461062e578063e149f0361461064c578063e345e0bc1461067c578063e62de01b146106ac578063e63ab1e9146106dc57610247565b8063a22cb465116100ff578063a22cb4651461058c578063b537b269146105a8578063d5391393146105c4578063d547741f146105e2578063d9d61655146105fe57610247565b80638456cb59146104fc5780638cb0a5111461050657806391d1485414610522578063a0a124dd14610552578063a217fddf1461056e57610247565b80632fecd4bb116101c95780635c975abb1161018d5780635c975abb1461046c578063605105f01461048a5780636b20c454146104a65780637580d920146104c25780637f345710146104de57610247565b80632fecd4bb146103b657806333764f53146103e657806336568abe146104165780633f4ba83a146104325780634e1273f41461043c57610247565b80631c320d09116102105780631c320d09146103145780631e9c2d6714610330578063248a9ca31461034e5780632eb2c2d61461037e5780632f2ff15d1461039a57610247565b8062fdd58e1461024c57806301ffc9a71461027c57806302fe5305146102ac5780630e89341c146102c8578063127217d6146102f8575b600080fd5b610266600480360381019061026191906137e1565b6107c2565b6040516102739190613830565b60405180910390f35b610296600480360381019061029191906138a3565b61081c565b6040516102a391906138eb565b60405180910390f35b6102c660048036038101906102c19190613a4c565b61082e565b005b6102e260048036038101906102dd9190613a95565b610865565b6040516102ef9190613b41565b60405180910390f35b610312600480360381019061030d9190613c04565b6108f9565b005b61032e60048036038101906103299190613d9c565b610be8565b005b610338610ec9565b6040516103459190613830565b60405180910390f35b61036860048036038101906103639190613e71565b610ecf565b6040516103759190613ead565b60405180910390f35b61039860048036038101906103939190613ec8565b610eef565b005b6103b460048036038101906103af9190613f97565b610f97565b005b6103d060048036038101906103cb91906137e1565b610fb9565b6040516103dd9190613830565b60405180910390f35b61040060048036038101906103fb9190613fd7565b611014565b60405161040d9190614026565b60405180910390f35b610430600480360381019061042b9190613f97565b611062565b005b61043a6110dd565b005b61045660048036038101906104519190614104565b611112565b604051610463919061423a565b60405180910390f35b610474611221565b60405161048191906138eb565b60405180910390f35b6104a4600480360381019061049f9190613c04565b611238565b005b6104c060048036038101906104bb919061425c565b6112a9565b005b6104dc60048036038101906104d79190614313565b611355565b005b6104e66115e1565b6040516104f39190613ead565b60405180910390f35b610504611605565b005b610520600480360381019061051b9190614396565b61163a565b005b61053c60048036038101906105379190613f97565b6118a7565b60405161054991906138eb565b60405180910390f35b61056c600480360381019061056791906143e9565b611912565b005b610576611964565b6040516105839190613ead565b60405180910390f35b6105a660048036038101906105a19190614416565b61196b565b005b6105c260048036038101906105bd91906137e1565b611981565b005b6105cc611a80565b6040516105d99190613ead565b60405180910390f35b6105fc60048036038101906105f79190613f97565b611aa4565b005b610618600480360381019061061391906143e9565b611ac6565b604051610625919061423a565b60405180910390f35b610636611b5d565b60405161064391906144b5565b60405180910390f35b610666600480360381019061066191906137e1565b611b83565b6040516106739190613830565b60405180910390f35b610696600480360381019061069191906144d0565b611bb4565b6040516106a39190613830565b60405180910390f35b6106c660048036038101906106c191906137e1565b611c12565b6040516106d39190613830565b60405180910390f35b6106e4611c86565b6040516106f19190613ead565b60405180910390f35b610714600480360381019061070f9190614510565b611caa565b60405161072191906138eb565b60405180910390f35b610744600480360381019061073f9190613a95565b611d3e565b604051610751919061460e565b60405180910390f35b610774600480360381019061076f9190613c04565b611ddf565b005b610790600480360381019061078b9190614630565b611e87565b005b6107ac60048036038101906107a791906144d0565b611f33565b6040516107b99190613830565b60405180910390f35b600080600083815260200190815260200160002060008473ffffffffffffffffffffffffffffffffffffffff1673ffffffffffffffffffffffffffffffffffffffff16815260200190815260200160002054905092915050565b600061082782611f58565b9050919050565b7f7804d923f43a17d325d77e781528e0793b2edd9890ab45fc64efd7b4b427744c61085881611fd2565b61086182611fe6565b5050565b606060028054610874906146b2565b80601f01602080910402602001604051908101604052809291908181526020018280546108a0906146b2565b80156108ed5780601f106108c2576101008083540402835291602001916108ed565b820191906000526020600020905b8154815290600101906020018083116108d057829003601f168201915b50505050509050919050565b816005600085815260200190815260200160002060008773ffffffffffffffffffffffffffffffffffffffff1673ffffffffffffffffffffffffffffffffffffffff16815260200190815260200160002054101561098c576040517f08c379a00000000000000000000000000000000000000000000000000000000081526004016109839061472f565b60405180910390fd5b816005600085815260200190815260200160002060008773ffffffffffffffffffffffffffffffffffffffff1673ffffffffffffffffffffffffffffffffffffffff16815260200190815260200160002060008282546109ec919061477e565b92505081905550610a008585858585611ddf565b816005600085815260200190815260200160002060008673ffffffffffffffffffffffffffffffffffffffff1673ffffffffffffffffffffffffffffffffffffffff1681526020019081526020016000206000828254610a6091906147b2565b9250508190555060066000848152602001908152602001600020849080600181540180825580915050600190039060005260206000200160009091909190916101000a81548173ffffffffffffffffffffffffffffffffffffffff021916908373ffffffffffffffffffffffffffffffffffffffff160217905550600760008573ffffffffffffffffffffffffffffffffffffffff1673ffffffffffffffffffffffffffffffffffffffff16815260200190815260200160002083908060018154018082558091505060019003906000526020600020016000909190919091505560006005600085815260200190815260200160002060008773ffffffffffffffffffffffffffffffffffffffff1673ffffffffffffffffffffffffffffffffffffffff1681526020019081526020016000205403610ba457610ba38386611ff9565b5b7feeb0e676a4fccb21187462c64b95d0e58742fed59dbc3a8795d8e8ff8ccfba1683868685604051610bd994939291906147e6565b60405180910390a15050505050565b7f9f2df0fed2c77648de5860a4cc508cd0818c85b8b8a1ab4ceeef8d981c8956a6610c1281611fd2565b60008460ff1667ffffffffffffffff811115610c3157610c30613921565b5b604051908082528060200260200182016040528015610c5f5781602001602082028036833780820191505090505b50905060005b8560ff168160ff161015610cab57612710828260ff1681518110610c8c57610c8b61482b565b5b6020026020010181815250508080610ca39061485a565b915050610c65565b50610cb88685838661238e565b60005b8451811015610ec057818181518110610cd757610cd661482b565b5b602002602001015160056000878481518110610cf657610cf561482b565b5b6020026020010151815260200190815260200160002060008973ffffffffffffffffffffffffffffffffffffffff1673ffffffffffffffffffffffffffffffffffffffff16815260200190815260200160002081905550600760008873ffffffffffffffffffffffffffffffffffffffff1673ffffffffffffffffffffffffffffffffffffffff168152602001908152602001600020858281518110610d9f57610d9e61482b565b5b6020026020010151908060018154018082558091505060019003906000526020600020016000909190919091505560066000868381518110610de457610de361482b565b5b60200260200101518152602001908152602001600020879080600181540180825580915050600190039060005260206000200160009091909190916101000a81548173ffffffffffffffffffffffffffffffffffffffff021916908373ffffffffffffffffffffffffffffffffffffffff160217905550848181518110610e6e57610e6d61482b565b5b60200260200101517f3a5398bda6f1f57d6c96834fa9bf02b5517bdc847d14312015a917ba421c31c988604051610ea59190614026565b60405180910390a28080610eb890614883565b915050610cbb565b50505050505050565b61271081565b600060036000838152602001908152602001600020600101549050919050565b6000610ef9612414565b90508073ffffffffffffffffffffffffffffffffffffffff168673ffffffffffffffffffffffffffffffffffffffff1614158015610f3e5750610f3c8682611caa565b155b15610f825780866040517fe237d922000000000000000000000000000000000000000000000000000000008152600401610f799291906148cb565b60405180910390fd5b610f8f868686868661241c565b505050505050565b610fa082610ecf565b610fa981611fd2565b610fb38383612514565b50505050565b60006005600083815260200190815260200160002060008473ffffffffffffffffffffffffffffffffffffffff1673ffffffffffffffffffffffffffffffffffffffff16815260200190815260200160002054905092915050565b6006602052816000526040600020818154811061103057600080fd5b906000526020600020016000915091509054906101000a900473ffffffffffffffffffffffffffffffffffffffff1681565b61106a612414565b73ffffffffffffffffffffffffffffffffffffffff168173ffffffffffffffffffffffffffffffffffffffff16146110ce576040517f6697b23200000000000000000000000000000000000000000000000000000000815260040160405180910390fd5b6110d88282612606565b505050565b7f65d7a28e3265b37a6474929f336521b332c1681b933f6cb9f3376673440d862a61110781611fd2565b61110f6126f9565b50565b6060815183511461115e57815183516040517f5b0599910000000000000000000000000000000000000000000000000000000081526004016111559291906148f4565b60405180910390fd5b6000835167ffffffffffffffff81111561117b5761117a613921565b5b6040519080825280602002602001820160405280156111a95781602001602082028036833780820191505090505b50905060005b8451811015611216576111e66111ce828761275c90919063ffffffff16565b6111e1838761277090919063ffffffff16565b6107c2565b8282815181106111f9576111f861482b565b5b6020026020010181815250508061120f90614883565b90506111af565b508091505092915050565b6000600460009054906101000a900460ff16905090565b60006112448433611bb4565b905082811015611289576040517f08c379a000000000000000000000000000000000000000000000000000000000815260040161128090614969565b60405180910390fd5b611294338585612784565b6112a186868686866108f9565b505050505050565b6112b1612414565b73ffffffffffffffffffffffffffffffffffffffff168373ffffffffffffffffffffffffffffffffffffffff16141580156112fa57506112f8836112f3612414565b611caa565b155b1561134557611307612414565b836040517fe237d92200000000000000000000000000000000000000000000000000000000815260040161133c9291906148cb565b60405180910390fd5b611350838383612845565b505050565b7f9f2df0fed2c77648de5860a4cc508cd0818c85b8b8a1ab4ceeef8d981c8956a661137f81611fd2565b821561146357600460019054906101000a900473ffffffffffffffffffffffffffffffffffffffff1673ffffffffffffffffffffffffffffffffffffffff16632228adcc856040518263ffffffff1660e01b81526004016113e09190613830565b6020604051808303816000875af11580156113ff573d6000803e3d6000fd5b505050506040513d601f19601f82011682018060405250810190611423919061499e565b611462576040517f08c379a000000000000000000000000000000000000000000000000000000000815260040161145990614a17565b60405180910390fd5b5b6114718585612710856128d9565b6127106005600086815260200190815260200160002060008773ffffffffffffffffffffffffffffffffffffffff1673ffffffffffffffffffffffffffffffffffffffff1681526020019081526020016000208190555060066000858152602001908152602001600020859080600181540180825580915050600190039060005260206000200160009091909190916101000a81548173ffffffffffffffffffffffffffffffffffffffff021916908373ffffffffffffffffffffffffffffffffffffffff160217905550600760008673ffffffffffffffffffffffffffffffffffffffff1673ffffffffffffffffffffffffffffffffffffffff168152602001908152602001600020849080600181540180825580915050600190039060005260206000200160009091909190915055837f3a5398bda6f1f57d6c96834fa9bf02b5517bdc847d14312015a917ba421c31c9866040516115d29190614026565b60405180910390a25050505050565b7f7804d923f43a17d325d77e781528e0793b2edd9890ab45fc64efd7b4b427744c81565b7f65d7a28e3265b37a6474929f336521b332c1681b933f6cb9f3376673440d862a61162f81611fd2565b611637612972565b50565b806005600085815260200190815260200160002060003373ffffffffffffffffffffffffffffffffffffffff1673ffffffffffffffffffffffffffffffffffffffff1681526020019081526020016000205410156116cd576040517f08c379a00000000000000000000000000000000000000000000000000000000081526004016116c490614969565b60405180910390fd5b8173ffffffffffffffffffffffffffffffffffffffff163373ffffffffffffffffffffffffffffffffffffffff160361173b576040517f08c379a000000000000000000000000000000000000000000000000000000000815260040161173290614a83565b60405180910390fd5b61174682600161196b565b600060086000858152602001908152602001600020905060008160010160008573ffffffffffffffffffffffffffffffffffffffff1673ffffffffffffffffffffffffffffffffffffffff168152602001908152602001600020540361180c5780600001839080600181540180825580915050600190039060005260206000200160009091909190916101000a81548173ffffffffffffffffffffffffffffffffffffffff021916908373ffffffffffffffffffffffffffffffffffffffff1602179055505b818160010160008573ffffffffffffffffffffffffffffffffffffffff1673ffffffffffffffffffffffffffffffffffffffff168152602001908152602001600020819055508273ffffffffffffffffffffffffffffffffffffffff16847f7a5c69a7c393db8f307d6fea9c8addb8c18644d1172a623792a4017298a1a582846040516118999190613830565b60405180910390a350505050565b60006003600084815260200190815260200160002060000160008373ffffffffffffffffffffffffffffffffffffffff1673ffffffffffffffffffffffffffffffffffffffff16815260200190815260200160002060009054906101000a900460ff16905092915050565b6000801b61191f81611fd2565b81600460016101000a81548173ffffffffffffffffffffffffffffffffffffffff021916908373ffffffffffffffffffffffffffffffffffffffff1602179055505050565b6000801b81565b61197d611976612414565b83836129d5565b5050565b60006005600083815260200190815260200160002060003373ffffffffffffffffffffffffffffffffffffffff1673ffffffffffffffffffffffffffffffffffffffff1681526020019081526020016000205411611a14576040517f08c379a0000000000000000000000000000000000000000000000000000000008152600401611a0b90614b15565b60405180910390fd5b6000611a208284611bb4565b905060008111611a65576040517f08c379a0000000000000000000000000000000000000000000000000000000008152600401611a5c90614b81565b60405180910390fd5b611a70838383612784565b611a7b83600061196b565b505050565b7f9f2df0fed2c77648de5860a4cc508cd0818c85b8b8a1ab4ceeef8d981c8956a681565b611aad82610ecf565b611ab681611fd2565b611ac08383612606565b50505050565b6060600760008373ffffffffffffffffffffffffffffffffffffffff1673ffffffffffffffffffffffffffffffffffffffff168152602001908152602001600020805480602002602001604051908101604052809291908181526020018280548015611b5157602002820191906000526020600020905b815481526020019060010190808311611b3d575b50505050509050919050565b600460019054906101000a900473ffffffffffffffffffffffffffffffffffffffff1681565b60076020528160005260406000208181548110611b9f57600080fd5b90600052602060002001600091509150505481565b60006008600084815260200190815260200160002060010160008373ffffffffffffffffffffffffffffffffffffffff1673ffffffffffffffffffffffffffffffffffffffff16815260200190815260200160002054905092915050565b600061271060646005600085815260200190815260200160002060008673ffffffffffffffffffffffffffffffffffffffff1673ffffffffffffffffffffffffffffffffffffffff16815260200190815260200160002054611c749190614ba1565b611c7e9190614c12565b905092915050565b7f65d7a28e3265b37a6474929f336521b332c1681b933f6cb9f3376673440d862a81565b6000600160008473ffffffffffffffffffffffffffffffffffffffff1673ffffffffffffffffffffffffffffffffffffffff16815260200190815260200160002060008373ffffffffffffffffffffffffffffffffffffffff1673ffffffffffffffffffffffffffffffffffffffff16815260200190815260200160002060009054906101000a900460ff16905092915050565b606060066000838152602001908152602001600020805480602002602001604051908101604052809291908181526020018280548015611dd357602002820191906000526020600020905b8160009054906101000a900473ffffffffffffffffffffffffffffffffffffffff1673ffffffffffffffffffffffffffffffffffffffff1681526020019060010190808311611d89575b50505050509050919050565b6000611de9612414565b90508073ffffffffffffffffffffffffffffffffffffffff168673ffffffffffffffffffffffffffffffffffffffff1614158015611e2e5750611e2c8682611caa565b155b15611e725780866040517fe237d922000000000000000000000000000000000000000000000000000000008152600401611e699291906148cb565b60405180910390fd5b611e7f8686868686612b45565b505050505050565b611e8f612414565b73ffffffffffffffffffffffffffffffffffffffff168373ffffffffffffffffffffffffffffffffffffffff1614158015611ed85750611ed683611ed1612414565b611caa565b155b15611f2357611ee5612414565b836040517fe237d922000000000000000000000000000000000000000000000000000000008152600401611f1a9291906148cb565b60405180910390fd5b611f2e838383612c50565b505050565b6005602052816000526040600020602052806000526040600020600091509150505481565b60007f7965db0b000000000000000000000000000000000000000000000000000000007bffffffffffffffffffffffffffffffffffffffffffffffffffffffff1916827bffffffffffffffffffffffffffffffffffffffffffffffffffffffff19161480611fcb5750611fca82612cf7565b5b9050919050565b611fe381611fde612414565b612dd9565b50565b8060029081611ff59190614de5565b5050565b600060066000848152602001908152602001600020905060008180549050905060005b600182612029919061477e565b81101561216b578373ffffffffffffffffffffffffffffffffffffffff1683828154811061205a5761205961482b565b5b9060005260206000200160009054906101000a900473ffffffffffffffffffffffffffffffffffffffff1673ffffffffffffffffffffffffffffffffffffffff160361215857826001836120ae919061477e565b815481106120bf576120be61482b565b5b9060005260206000200160009054906101000a900473ffffffffffffffffffffffffffffffffffffffff1660066000878152602001908152602001600020828154811061210f5761210e61482b565b5b9060005260206000200160006101000a81548173ffffffffffffffffffffffffffffffffffffffff021916908373ffffffffffffffffffffffffffffffffffffffff1602179055505b808061216390614883565b91505061201c565b506006600085815260200190815260200160002080548061218f5761218e614eb7565b5b6001900381819060005260206000200160006101000a81549073ffffffffffffffffffffffffffffffffffffffff021916905590556000600760008573ffffffffffffffffffffffffffffffffffffffff1673ffffffffffffffffffffffffffffffffffffffff168152602001908152602001600020905060008180549050905060005b600182612220919061477e565b8110156122e8578683828154811061223b5761223a61482b565b5b9060005260206000200154036122d55782600183612259919061477e565b8154811061226a5761226961482b565b5b9060005260206000200154600760008873ffffffffffffffffffffffffffffffffffffffff1673ffffffffffffffffffffffffffffffffffffffff16815260200190815260200160002082815481106122c6576122c561482b565b5b90600052602060002001819055505b80806122e090614883565b915050612213565b50600760008673ffffffffffffffffffffffffffffffffffffffff1673ffffffffffffffffffffffffffffffffffffffff16815260200190815260200160002080548061233857612337614eb7565b5b60019003818190600052602060002001600090559055857fb313f5a88a5d21dd54119393bab2baac6503d2bc1368bd7af3281737aefe94478660405161237e9190614026565b60405180910390a2505050505050565b600073ffffffffffffffffffffffffffffffffffffffff168473ffffffffffffffffffffffffffffffffffffffff16036124005760006040517f57f447ce0000000000000000000000000000000000000000000000000000000081526004016123f79190614026565b60405180910390fd5b61240e600085858585612e2a565b50505050565b600033905090565b600073ffffffffffffffffffffffffffffffffffffffff168473ffffffffffffffffffffffffffffffffffffffff160361248e5760006040517f57f447ce0000000000000000000000000000000000000000000000000000000081526004016124859190614026565b60405180910390fd5b600073ffffffffffffffffffffffffffffffffffffffff168573ffffffffffffffffffffffffffffffffffffffff16036125005760006040517f01a835140000000000000000000000000000000000000000000000000000000081526004016124f79190614026565b60405180910390fd5b61250d8585858585612e2a565b5050505050565b600061252083836118a7565b6125fb5760016003600085815260200190815260200160002060000160008473ffffffffffffffffffffffffffffffffffffffff1673ffffffffffffffffffffffffffffffffffffffff16815260200190815260200160002060006101000a81548160ff021916908315150217905550612598612414565b73ffffffffffffffffffffffffffffffffffffffff168273ffffffffffffffffffffffffffffffffffffffff16847f2f8788117e7eff1d82e926ec794901d17c78024a50270940304540a733656f0d60405160405180910390a460019050612600565b600090505b92915050565b600061261283836118a7565b156126ee5760006003600085815260200190815260200160002060000160008473ffffffffffffffffffffffffffffffffffffffff1673ffffffffffffffffffffffffffffffffffffffff16815260200190815260200160002060006101000a81548160ff02191690831515021790555061268b612414565b73ffffffffffffffffffffffffffffffffffffffff168273ffffffffffffffffffffffffffffffffffffffff16847ff6391f5c32d9c69d2a47ea670b442974b53935d1edc7fd64eb21e047a839171b60405160405180910390a4600190506126f3565b600090505b92915050565b612701612edc565b6000600460006101000a81548160ff0219169083151502179055507f5db9ee0a495bf2e6ff9c91a7834c1ba4fdd244a5e8aa4e537bd38aeae4b073aa612745612414565b6040516127529190614026565b60405180910390a1565b600060208202602084010151905092915050565b600060208202602084010151905092915050565b60006127908385611bb4565b9050818110156127d5576040517f08c379a00000000000000000000000000000000000000000000000000000000081526004016127cc90614969565b60405180910390fd5b816008600085815260200190815260200160002060010160008673ffffffffffffffffffffffffffffffffffffffff1673ffffffffffffffffffffffffffffffffffffffff1681526020019081526020016000206000828254612838919061477e565b9250508190555050505050565b600073ffffffffffffffffffffffffffffffffffffffff168373ffffffffffffffffffffffffffffffffffffffff16036128b75760006040517f01a835140000000000000000000000000000000000000000000000000000000081526004016128ae9190614026565b60405180910390fd5b6128d4836000848460405180602001604052806000815250612e2a565b505050565b600073ffffffffffffffffffffffffffffffffffffffff168473ffffffffffffffffffffffffffffffffffffffff160361294b5760006040517f57f447ce0000000000000000000000000000000000000000000000000000000081526004016129429190614026565b60405180910390fd5b6000806129588585612f1c565b9150915061296a600087848487612e2a565b505050505050565b61297a612f4c565b6001600460006101000a81548160ff0219169083151502179055507f62e78cea01bee320cd4e420270b5ea74000d11b0c9f74754ebdbfc544b05a2586129be612414565b6040516129cb9190614026565b60405180910390a1565b600073ffffffffffffffffffffffffffffffffffffffff168273ffffffffffffffffffffffffffffffffffffffff1603612a475760006040517fced3e100000000000000000000000000000000000000000000000000000000008152600401612a3e9190614026565b60405180910390fd5b80600160008573ffffffffffffffffffffffffffffffffffffffff1673ffffffffffffffffffffffffffffffffffffffff16815260200190815260200160002060008473ffffffffffffffffffffffffffffffffffffffff1673ffffffffffffffffffffffffffffffffffffffff16815260200190815260200160002060006101000a81548160ff0219169083151502179055508173ffffffffffffffffffffffffffffffffffffffff168373ffffffffffffffffffffffffffffffffffffffff167f17307eab39ab6107e8899845ad3d59bd9653f200f220920489ca2b5937696c3183604051612b3891906138eb565b60405180910390a3505050565b600073ffffffffffffffffffffffffffffffffffffffff168473ffffffffffffffffffffffffffffffffffffffff1603612bb75760006040517f57f447ce000000000000000000000000000000000000000000000000000000008152600401612bae9190614026565b60405180910390fd5b600073ffffffffffffffffffffffffffffffffffffffff168573ffffffffffffffffffffffffffffffffffffffff1603612c295760006040517f01a83514000000000000000000000000000000000000000000000000000000008152600401612c209190614026565b60405180910390fd5b600080612c368585612f1c565b91509150612c478787848487612e2a565b50505050505050565b600073ffffffffffffffffffffffffffffffffffffffff168373ffffffffffffffffffffffffffffffffffffffff1603612cc25760006040517f01a83514000000000000000000000000000000000000000000000000000000008152600401612cb99190614026565b60405180910390fd5b600080612ccf8484612f1c565b91509150612cf0856000848460405180602001604052806000815250612e2a565b5050505050565b60007fd9b67a26000000000000000000000000000000000000000000000000000000007bffffffffffffffffffffffffffffffffffffffffffffffffffffffff1916827bffffffffffffffffffffffffffffffffffffffffffffffffffffffff19161480612dc257507f0e89341c000000000000000000000000000000000000000000000000000000007bffffffffffffffffffffffffffffffffffffffffffffffffffffffff1916827bffffffffffffffffffffffffffffffffffffffffffffffffffffffff1916145b80612dd25750612dd182612f8d565b5b9050919050565b612de382826118a7565b612e265780826040517fe2517d3f000000000000000000000000000000000000000000000000000000008152600401612e1d929190614ee6565b60405180910390fd5b5050565b612e3685858585612ff7565b600073ffffffffffffffffffffffffffffffffffffffff168473ffffffffffffffffffffffffffffffffffffffff1614612ed5576000612e74612414565b90506001845103612ec4576000612e9560008661277090919063ffffffff16565b90506000612ead60008661277090919063ffffffff16565b9050612ebd838989858589613009565b5050612ed3565b612ed28187878787876131bd565b5b505b5050505050565b612ee4611221565b612f1a576040517f8dfc202b00000000000000000000000000000000000000000000000000000000815260040160405180910390fd5b565b60608060405191506001825283602083015260408201905060018152826020820152604081016040529250929050565b612f54611221565b15612f8b576040517fd93c066500000000000000000000000000000000000000000000000000000000815260040160405180910390fd5b565b60007f01ffc9a7000000000000000000000000000000000000000000000000000000007bffffffffffffffffffffffffffffffffffffffffffffffffffffffff1916827bffffffffffffffffffffffffffffffffffffffffffffffffffffffff1916149050919050565b61300384848484613371565b50505050565b60008473ffffffffffffffffffffffffffffffffffffffff163b11156131b5578373ffffffffffffffffffffffffffffffffffffffff1663f23a6e6187878686866040518663ffffffff1660e01b815260040161306a959493929190614f64565b6020604051808303816000875af19250505080156130a657506040513d601f19601f820116820180604052508101906130a39190614fd3565b60015b61312a573d80600081146130d6576040519150601f19603f3d011682016040523d82523d6000602084013e6130db565b606091505b50600081510361312257846040517f57f447ce0000000000000000000000000000000000000000000000000000000081526004016131199190614026565b60405180910390fd5b805181602001fd5b63f23a6e6160e01b7bffffffffffffffffffffffffffffffffffffffffffffffffffffffff1916817bffffffffffffffffffffffffffffffffffffffffffffffffffffffff1916146131b357846040517f57f447ce0000000000000000000000000000000000000000000000000000000081526004016131aa9190614026565b60405180910390fd5b505b505050505050565b60008473ffffffffffffffffffffffffffffffffffffffff163b1115613369578373ffffffffffffffffffffffffffffffffffffffff1663bc197c8187878686866040518663ffffffff1660e01b815260040161321e959493929190615000565b6020604051808303816000875af192505050801561325a57506040513d601f19601f820116820180604052508101906132579190614fd3565b60015b6132de573d806000811461328a576040519150601f19603f3d011682016040523d82523d6000602084013e61328f565b606091505b5060008151036132d657846040517f57f447ce0000000000000000000000000000000000000000000000000000000081526004016132cd9190614026565b60405180910390fd5b805181602001fd5b63bc197c8160e01b7bffffffffffffffffffffffffffffffffffffffffffffffffffffffff1916817bffffffffffffffffffffffffffffffffffffffffffffffffffffffff19161461336757846040517f57f447ce00000000000000000000000000000000000000000000000000000000815260040161335e9190614026565b60405180910390fd5b505b505050505050565b613379612f4c565b6133858484848461338b565b50505050565b80518251146133d557815181516040517f5b0599910000000000000000000000000000000000000000000000000000000081526004016133cc9291906148f4565b60405180910390fd5b60006133df612414565b905060005b83518110156135f4576000613402828661277090919063ffffffff16565b90506000613419838661277090919063ffffffff16565b9050600073ffffffffffffffffffffffffffffffffffffffff168873ffffffffffffffffffffffffffffffffffffffff161461354657600080600084815260200190815260200160002060008a73ffffffffffffffffffffffffffffffffffffffff1673ffffffffffffffffffffffffffffffffffffffff168152602001908152602001600020549050818110156134ee57888183856040517f03dee4c50000000000000000000000000000000000000000000000000000000081526004016134e59493929190615068565b60405180910390fd5b81810360008085815260200190815260200160002060008b73ffffffffffffffffffffffffffffffffffffffff1673ffffffffffffffffffffffffffffffffffffffff16815260200190815260200160002081905550505b600073ffffffffffffffffffffffffffffffffffffffff168773ffffffffffffffffffffffffffffffffffffffff16146135e1578060008084815260200190815260200160002060008973ffffffffffffffffffffffffffffffffffffffff1673ffffffffffffffffffffffffffffffffffffffff16815260200190815260200160002060008282546135d991906147b2565b925050819055505b5050806135ed90614883565b90506133e4565b5060018351036136b357600061361460008561277090919063ffffffff16565b9050600061362c60008561277090919063ffffffff16565b90508573ffffffffffffffffffffffffffffffffffffffff168773ffffffffffffffffffffffffffffffffffffffff168473ffffffffffffffffffffffffffffffffffffffff167fc3d58168c5ae7397731d063d5bbf3d657854427343f4c083240f7aacaa2d0f6285856040516136a49291906148f4565b60405180910390a45050613732565b8373ffffffffffffffffffffffffffffffffffffffff168573ffffffffffffffffffffffffffffffffffffffff168273ffffffffffffffffffffffffffffffffffffffff167f4a39dc06d4c0dbc64b70af90fd698a233a518aa5d07e595d983b8c0526c8f7fb86866040516137299291906150ad565b60405180910390a45b5050505050565b6000604051905090565b600080fd5b600080fd5b600073ffffffffffffffffffffffffffffffffffffffff82169050919050565b60006137788261374d565b9050919050565b6137888161376d565b811461379357600080fd5b50565b6000813590506137a58161377f565b92915050565b6000819050919050565b6137be816137ab565b81146137c957600080fd5b50565b6000813590506137db816137b5565b92915050565b600080604083850312156137f8576137f7613743565b5b600061380685828601613796565b9250506020613817858286016137cc565b9150509250929050565b61382a816137ab565b82525050565b60006020820190506138456000830184613821565b92915050565b60007fffffffff0000000000000000000000000000000000000000000000000000000082169050919050565b6138808161384b565b811461388b57600080fd5b50565b60008135905061389d81613877565b92915050565b6000602082840312156138b9576138b8613743565b5b60006138c78482850161388e565b91505092915050565b60008115159050919050565b6138e5816138d0565b82525050565b600060208201905061390060008301846138dc565b92915050565b600080fd5b600080fd5b6000601f19601f8301169050919050565b7f4e487b7100000000000000000000000000000000000000000000000000000000600052604160045260246000fd5b61395982613910565b810181811067ffffffffffffffff8211171561397857613977613921565b5b80604052505050565b600061398b613739565b90506139978282613950565b919050565b600067ffffffffffffffff8211156139b7576139b6613921565b5b6139c082613910565b9050602081019050919050565b82818337600083830152505050565b60006139ef6139ea8461399c565b613981565b905082815260208101848484011115613a0b57613a0a61390b565b5b613a168482856139cd565b509392505050565b600082601f830112613a3357613a32613906565b5b8135613a438482602086016139dc565b91505092915050565b600060208284031215613a6257613a61613743565b5b600082013567ffffffffffffffff811115613a8057613a7f613748565b5b613a8c84828501613a1e565b91505092915050565b600060208284031215613aab57613aaa613743565b5b6000613ab9848285016137cc565b91505092915050565b600081519050919050565b600082825260208201905092915050565b60005b83811015613afc578082015181840152602081019050613ae1565b60008484015250505050565b6000613b1382613ac2565b613b1d8185613acd565b9350613b2d818560208601613ade565b613b3681613910565b840191505092915050565b60006020820190508181036000830152613b5b8184613b08565b905092915050565b600067ffffffffffffffff821115613b7e57613b7d613921565b5b613b8782613910565b9050602081019050919050565b6000613ba7613ba284613b63565b613981565b905082815260208101848484011115613bc357613bc261390b565b5b613bce8482856139cd565b509392505050565b600082601f830112613beb57613bea613906565b5b8135613bfb848260208601613b94565b91505092915050565b600080600080600060a08688031215613c2057613c1f613743565b5b6000613c2e88828901613796565b9550506020613c3f88828901613796565b9450506040613c50888289016137cc565b9350506060613c61888289016137cc565b925050608086013567ffffffffffffffff811115613c8257613c81613748565b5b613c8e88828901613bd6565b9150509295509295909350565b600060ff82169050919050565b613cb181613c9b565b8114613cbc57600080fd5b50565b600081359050613cce81613ca8565b92915050565b600067ffffffffffffffff821115613cef57613cee613921565b5b602082029050602081019050919050565b600080fd5b6000613d18613d1384613cd4565b613981565b90508083825260208201905060208402830185811115613d3b57613d3a613d00565b5b835b81811015613d645780613d5088826137cc565b845260208401935050602081019050613d3d565b5050509392505050565b600082601f830112613d8357613d82613906565b5b8135613d93848260208601613d05565b91505092915050565b60008060008060808587031215613db657613db5613743565b5b6000613dc487828801613796565b9450506020613dd587828801613cbf565b935050604085013567ffffffffffffffff811115613df657613df5613748565b5b613e0287828801613d6e565b925050606085013567ffffffffffffffff811115613e2357613e22613748565b5b613e2f87828801613bd6565b91505092959194509250565b6000819050919050565b613e4e81613e3b565b8114613e5957600080fd5b50565b600081359050613e6b81613e45565b92915050565b600060208284031215613e8757613e86613743565b5b6000613e9584828501613e5c565b91505092915050565b613ea781613e3b565b82525050565b6000602082019050613ec26000830184613e9e565b92915050565b600080600080600060a08688031215613ee457613ee3613743565b5b6000613ef288828901613796565b9550506020613f0388828901613796565b945050604086013567ffffffffffffffff811115613f2457613f23613748565b5b613f3088828901613d6e565b935050606086013567ffffffffffffffff811115613f5157613f50613748565b5b613f5d88828901613d6e565b925050608086013567ffffffffffffffff811115613f7e57613f7d613748565b5b613f8a88828901613bd6565b9150509295509295909350565b60008060408385031215613fae57613fad613743565b5b6000613fbc85828601613e5c565b9250506020613fcd85828601613796565b9150509250929050565b60008060408385031215613fee57613fed613743565b5b6000613ffc858286016137cc565b925050602061400d858286016137cc565b9150509250929050565b6140208161376d565b82525050565b600060208201905061403b6000830184614017565b92915050565b600067ffffffffffffffff82111561405c5761405b613921565b5b602082029050602081019050919050565b600061408061407b84614041565b613981565b905080838252602082019050602084028301858111156140a3576140a2613d00565b5b835b818110156140cc57806140b88882613796565b8452602084019350506020810190506140a5565b5050509392505050565b600082601f8301126140eb576140ea613906565b5b81356140fb84826020860161406d565b91505092915050565b6000806040838503121561411b5761411a613743565b5b600083013567ffffffffffffffff81111561413957614138613748565b5b614145858286016140d6565b925050602083013567ffffffffffffffff81111561416657614165613748565b5b61417285828601613d6e565b9150509250929050565b600081519050919050565b600082825260208201905092915050565b6000819050602082019050919050565b6141b1816137ab565b82525050565b60006141c383836141a8565b60208301905092915050565b6000602082019050919050565b60006141e78261417c565b6141f18185614187565b93506141fc83614198565b8060005b8381101561422d57815161421488826141b7565b975061421f836141cf565b925050600181019050614200565b5085935050505092915050565b6000602082019050818103600083015261425481846141dc565b905092915050565b60008060006060848603121561427557614274613743565b5b600061428386828701613796565b935050602084013567ffffffffffffffff8111156142a4576142a3613748565b5b6142b086828701613d6e565b925050604084013567ffffffffffffffff8111156142d1576142d0613748565b5b6142dd86828701613d6e565b9150509250925092565b6142f0816138d0565b81146142fb57600080fd5b50565b60008135905061430d816142e7565b92915050565b6000806000806080858703121561432d5761432c613743565b5b600061433b87828801613796565b945050602061434c878288016137cc565b935050604061435d878288016142fe565b925050606085013567ffffffffffffffff81111561437e5761437d613748565b5b61438a87828801613bd6565b91505092959194509250565b6000806000606084860312156143af576143ae613743565b5b60006143bd868287016137cc565b93505060206143ce86828701613796565b92505060406143df868287016137cc565b9150509250925092565b6000602082840312156143ff576143fe613743565b5b600061440d84828501613796565b91505092915050565b6000806040838503121561442d5761442c613743565b5b600061443b85828601613796565b925050602061444c858286016142fe565b9150509250929050565b6000819050919050565b600061447b6144766144718461374d565b614456565b61374d565b9050919050565b600061448d82614460565b9050919050565b600061449f82614482565b9050919050565b6144af81614494565b82525050565b60006020820190506144ca60008301846144a6565b92915050565b600080604083850312156144e7576144e6613743565b5b60006144f5858286016137cc565b925050602061450685828601613796565b9150509250929050565b6000806040838503121561452757614526613743565b5b600061453585828601613796565b925050602061454685828601613796565b9150509250929050565b600081519050919050565b600082825260208201905092915050565b6000819050602082019050919050565b6145858161376d565b82525050565b6000614597838361457c565b60208301905092915050565b6000602082019050919050565b60006145bb82614550565b6145c5818561455b565b93506145d08361456c565b8060005b838110156146015781516145e8888261458b565b97506145f3836145a3565b9250506001810190506145d4565b5085935050505092915050565b6000602082019050818103600083015261462881846145b0565b905092915050565b60008060006060848603121561464957614648613743565b5b600061465786828701613796565b9350506020614668868287016137cc565b9250506040614679868287016137cc565b9150509250925092565b7f4e487b7100000000000000000000000000000000000000000000000000000000600052602260045260246000fd5b600060028204905060018216806146ca57607f821691505b6020821081036146dd576146dc614683565b5b50919050565b7f496e73756666696369656e74206f776e6572736869702062616c616e63650000600082015250565b6000614719601e83613acd565b9150614724826146e3565b602082019050919050565b600060208201905081810360008301526147488161470c565b9050919050565b7f4e487b7100000000000000000000000000000000000000000000000000000000600052601160045260246000fd5b6000614789826137ab565b9150614794836137ab565b92508282039050818111156147ac576147ab61474f565b5b92915050565b60006147bd826137ab565b91506147c8836137ab565b92508282019050808211156147e0576147df61474f565b5b92915050565b60006080820190506147fb6000830187613821565b6148086020830186614017565b6148156040830185614017565b6148226060830184613821565b95945050505050565b7f4e487b7100000000000000000000000000000000000000000000000000000000600052603260045260246000fd5b600061486582613c9b565b915060ff82036148785761487761474f565b5b600182019050919050565b600061488e826137ab565b91507fffffffffffffffffffffffffffffffffffffffffffffffffffffffffffffffff82036148c0576148bf61474f565b5b600182019050919050565b60006040820190506148e06000830185614017565b6148ed6020830184614017565b9392505050565b60006040820190506149096000830185613821565b6149166020830184613821565b9392505050565b7f496e73756666696369656e7420616c6c6f77616e636500000000000000000000600082015250565b6000614953601683613acd565b915061495e8261491d565b602082019050919050565b6000602082019050818103600083015261498281614946565b9050919050565b600081519050614998816142e7565b92915050565b6000602082840312156149b4576149b3613743565b5b60006149c284828501614989565b91505092915050565b7f4173736574206973206e6f742072657365727665642079657400000000000000600082015250565b6000614a01601983613acd565b9150614a0c826149cb565b602082019050919050565b60006020820190508181036000830152614a30816149f4565b9050919050565b7f417070726f76616c20746f2063757272656e74206f776e657200000000000000600082015250565b6000614a6d601983613acd565b9150614a7882614a37565b602082019050919050565b60006020820190508181036000830152614a9c81614a60565b9050919050565b7f496e76616c6964206f776e65727368697020616d6f756e7420746f2072656d6f60008201527f766520617070726f76616c000000000000000000000000000000000000000000602082015250565b6000614aff602b83613acd565b9150614b0a82614aa3565b604082019050919050565b60006020820190508181036000830152614b2e81614af2565b9050919050565b7f496e73756666696369656e74206f70657261746f7220616c6c6f77616e636500600082015250565b6000614b6b601f83613acd565b9150614b7682614b35565b602082019050919050565b60006020820190508181036000830152614b9a81614b5e565b9050919050565b6000614bac826137ab565b9150614bb7836137ab565b9250828202614bc5816137ab565b91508282048414831517614bdc57614bdb61474f565b5b5092915050565b7f4e487b7100000000000000000000000000000000000000000000000000000000600052601260045260246000fd5b6000614c1d826137ab565b9150614c28836137ab565b925082614c3857614c37614be3565b5b828204905092915050565b60008190508160005260206000209050919050565b60006020601f8301049050919050565b600082821b905092915050565b600060088302614ca57fffffffffffffffffffffffffffffffffffffffffffffffffffffffffffffffff82614c68565b614caf8683614c68565b95508019841693508086168417925050509392505050565b6000614ce2614cdd614cd8846137ab565b614456565b6137ab565b9050919050565b6000819050919050565b614cfc83614cc7565b614d10614d0882614ce9565b848454614c75565b825550505050565b600090565b614d25614d18565b614d30818484614cf3565b505050565b5b81811015614d5457614d49600082614d1d565b600181019050614d36565b5050565b601f821115614d9957614d6a81614c43565b614d7384614c58565b81016020851015614d82578190505b614d96614d8e85614c58565b830182614d35565b50505b505050565b600082821c905092915050565b6000614dbc60001984600802614d9e565b1980831691505092915050565b6000614dd58383614dab565b9150826002028217905092915050565b614dee82613ac2565b67ffffffffffffffff811115614e0757614e06613921565b5b614e1182546146b2565b614e1c828285614d58565b600060209050601f831160018114614e4f5760008415614e3d578287015190505b614e478582614dc9565b865550614eaf565b601f198416614e5d86614c43565b60005b82811015614e8557848901518255600182019150602085019450602081019050614e60565b86831015614ea25784890151614e9e601f891682614dab565b8355505b6001600288020188555050505b505050505050565b7f4e487b7100000000000000000000000000000000000000000000000000000000600052603160045260246000fd5b6000604082019050614efb6000830185614017565b614f086020830184613e9e565b9392505050565b600081519050919050565b600082825260208201905092915050565b6000614f3682614f0f565b614f408185614f1a565b9350614f50818560208601613ade565b614f5981613910565b840191505092915050565b600060a082019050614f796000830188614017565b614f866020830187614017565b614f936040830186613821565b614fa06060830185613821565b8181036080830152614fb28184614f2b565b90509695505050505050565b600081519050614fcd81613877565b92915050565b600060208284031215614fe957614fe8613743565b5b6000614ff784828501614fbe565b91505092915050565b600060a0820190506150156000830188614017565b6150226020830187614017565b818103604083015261503481866141dc565b9050818103606083015261504881856141dc565b9050818103608083015261505c8184614f2b565b90509695505050505050565b600060808201905061507d6000830187614017565b61508a6020830186613821565b6150976040830185613821565b6150a46060830184613821565b95945050505050565b600060408201905081810360008301526150c781856141dc565b905081810360208301526150db81846141dc565b9050939250505056fea26469706673582212204ae4591b7ae2f3cd9ca0c187657489dab62a39998cb35a2dc87c6099e6853e5d64736f6c63430008140033",
  "linkReferences": {},
  "deployedLinkReferences": {}
}