{
  "_format": "hh-sol-artifact-1",
  "contractName": "FractionalizedNFT",
  "sourceName": "contracts/FractionalizedNFT.sol",
  "abi": [
    {
      "inputs": [
        {
          "internalType": "address",
          "name": "defaultAdmin",
          "type": "address"
        },
        {
          "internalType": "address",
          "name": "_reserver",
          "type": "address"
        },
        {
          "internalType": "string",
          "name": "baseUri",
          "type": "string"
        }
      ],
      "stateMutability": "nonpayable",
      "type": "constructor"
    },
    {
      "inputs": [],
      "name": "AccessControlBadConfirmation",
      "type": "error"
    },
    {
      "inputs": [
        {
          "internalType": "address",
          "name": "account",
          "type": "address"
        },
        {
          "internalType": "bytes32",
          "name": "neededRole",
          "type": "bytes32"
        }
      ],
      "name": "AccessControlUnauthorizedAccount",
      "type": "error"
    },
    {
      "inputs": [
        {
          "internalType": "address",
          "name": "sender",
          "type": "address"
        },
        {
          "internalType": "uint256",
          "name": "balance",
          "type": "uint256"
        },
        {
          "internalType": "uint256",
          "name": "needed",
          "type": "uint256"
        },
        {
          "internalType": "uint256",
          "name": "tokenId",
          "type": "uint256"
        }
      ],
      "name": "ERC1155InsufficientBalance",
      "type": "error"
    },
    {
      "inputs": [
        {
          "internalType": "address",
          "name": "approver",
          "type": "address"
        }
      ],
      "name": "ERC1155InvalidApprover",
      "type": "error"
    },
    {
      "inputs": [
        {
          "internalType": "uint256",
          "name": "idsLength",
          "type": "uint256"
        },
        {
          "internalType": "uint256",
          "name": "valuesLength",
          "type": "uint256"
        }
      ],
      "name": "ERC1155InvalidArrayLength",
      "type": "error"
    },
    {
      "inputs": [
        {
          "internalType": "address",
          "name": "operator",
          "type": "address"
        }
      ],
      "name": "ERC1155InvalidOperator",
      "type": "error"
    },
    {
      "inputs": [
        {
          "internalType": "address",
          "name": "receiver",
          "type": "address"
        }
      ],
      "name": "ERC1155InvalidReceiver",
      "type": "error"
    },
    {
      "inputs": [
        {
          "internalType": "address",
          "name": "sender",
          "type": "address"
        }
      ],
      "name": "ERC1155InvalidSender",
      "type": "error"
    },
    {
      "inputs": [
        {
          "internalType": "address",
          "name": "operator",
          "type": "address"
        },
        {
          "internalType": "address",
          "name": "owner",
          "type": "address"
        }
      ],
      "name": "ERC1155MissingApprovalForAll",
      "type": "error"
    },
    {
      "inputs": [],
      "name": "EnforcedPause",
      "type": "error"
    },
    {
      "inputs": [],
      "name": "ExpectedPause",
      "type": "error"
    },
    {
      "anonymous": false,
      "inputs": [
        {
          "indexed": true,
          "internalType": "uint256",
          "name": "tokenId",
          "type": "uint256"
        },
        {
          "indexed": true,
          "internalType": "address",
          "name": "operator",
          "type": "address"
        },
        {
          "indexed": false,
          "internalType": "uint256",
          "name": "amount",
          "type": "uint256"
        }
      ],
      "name": "AmountApproved",
      "type": "event"
    },
    {
      "anonymous": false,
      "inputs": [
        {
          "indexed": false,
          "internalType": "uint256",
          "name": "tokenId",
          "type": "uint256"
        },
        {
          "indexed": false,
          "internalType": "address",
          "name": "from",
          "type": "address"
        },
        {
          "indexed": false,
          "internalType": "address",
          "name": "to",
          "type": "address"
        },
        {
          "indexed": false,
          "internalType": "uint256",
          "name": "amount",
          "type": "uint256"
        }
      ],
      "name": "AmountTransferred",
      "type": "event"
    },
    {
      "anonymous": false,
      "inputs": [
        {
          "indexed": true,
          "internalType": "address",
          "name": "account",
          "type": "address"
        },
        {
          "indexed": true,
          "internalType": "address",
          "name": "operator",
          "type": "address"
        },
        {
          "indexed": false,
          "internalType": "bool",
          "name": "approved",
          "type": "bool"
        }
      ],
      "name": "ApprovalForAll",
      "type": "event"
    },
    {
      "anonymous": false,
      "inputs": [
        {
          "indexed": true,
          "internalType": "uint256",
          "name": "tokenId",
          "type": "uint256"
        },
        {
          "indexed": false,
          "internalType": "address",
          "name": "account",
          "type": "address"
        }
      ],
      "name": "OwnershipRemoved",
      "type": "event"
    },
    {
      "anonymous": false,
      "inputs": [
        {
          "indexed": false,
          "internalType": "address",
          "name": "account",
          "type": "address"
        }
      ],
      "name": "Paused",
      "type": "event"
    },
    {
      "anonymous": false,
      "inputs": [
        {
          "indexed": true,
          "internalType": "bytes32",
          "name": "role",
          "type": "bytes32"
        },
        {
          "indexed": true,
          "internalType": "bytes32",
          "name": "previousAdminRole",
          "type": "bytes32"
        },
        {
          "indexed": true,
          "internalType": "bytes32",
          "name": "newAdminRole",
          "type": "bytes32"
        }
      ],
      "name": "RoleAdminChanged",
      "type": "event"
    },
    {
      "anonymous": false,
      "inputs": [
        {
          "indexed": true,
          "internalType": "bytes32",
          "name": "role",
          "type": "bytes32"
        },
        {
          "indexed": true,
          "internalType": "address",
          "name": "account",
          "type": "address"
        },
        {
          "indexed": true,
          "internalType": "address",
          "name": "sender",
          "type": "address"
        }
      ],
      "name": "RoleGranted",
      "type": "event"
    },
    {
      "anonymous": false,
      "inputs": [
        {
          "indexed": true,
          "internalType": "bytes32",
          "name": "role",
          "type": "bytes32"
        },
        {
          "indexed": true,
          "internalType": "address",
          "name": "account",
          "type": "address"
        },
        {
          "indexed": true,
          "internalType": "address",
          "name": "sender",
          "type": "address"
        }
      ],
      "name": "RoleRevoked",
      "type": "event"
    },
    {
      "anonymous": false,
      "inputs": [
        {
          "indexed": true,
          "internalType": "uint256",
          "name": "tokenId",
          "type": "uint256"
        },
        {
          "indexed": false,
          "internalType": "address",
          "name": "account",
          "type": "address"
        }
      ],
      "name": "TokenMinted",
      "type": "event"
    },
    {
      "anonymous": false,
      "inputs": [
        {
          "indexed": true,
          "internalType": "address",
          "name": "operator",
          "type": "address"
        },
        {
          "indexed": true,
          "internalType": "address",
          "name": "from",
          "type": "address"
        },
        {
          "indexed": true,
          "internalType": "address",
          "name": "to",
          "type": "address"
        },
        {
          "indexed": false,
          "internalType": "uint256[]",
          "name": "ids",
          "type": "uint256[]"
        },
        {
          "indexed": false,
          "internalType": "uint256[]",
          "name": "values",
          "type": "uint256[]"
        }
      ],
      "name": "TransferBatch",
      "type": "event"
    },
    {
      "anonymous": false,
      "inputs": [
        {
          "indexed": true,
          "internalType": "address",
          "name": "operator",
          "type": "address"
        },
        {
          "indexed": true,
          "internalType": "address",
          "name": "from",
          "type": "address"
        },
        {
          "indexed": true,
          "internalType": "address",
          "name": "to",
          "type": "address"
        },
        {
          "indexed": false,
          "internalType": "uint256",
          "name": "id",
          "type": "uint256"
        },
        {
          "indexed": false,
          "internalType": "uint256",
          "name": "value",
          "type": "uint256"
        }
      ],
      "name": "TransferSingle",
      "type": "event"
    },
    {
      "anonymous": false,
      "inputs": [
        {
          "indexed": false,
          "internalType": "string",
          "name": "value",
          "type": "string"
        },
        {
          "indexed": true,
          "internalType": "uint256",
          "name": "id",
          "type": "uint256"
        }
      ],
      "name": "URI",
      "type": "event"
    },
    {
      "anonymous": false,
      "inputs": [
        {
          "indexed": false,
          "internalType": "address",
          "name": "account",
          "type": "address"
        }
      ],
      "name": "Unpaused",
      "type": "event"
    },
    {
      "inputs": [],
      "name": "DEFAULT_ADMIN_ROLE",
      "outputs": [
        {
          "internalType": "bytes32",
          "name": "",
          "type": "bytes32"
        }
      ],
      "stateMutability": "view",
      "type": "function"
    },
    {
      "inputs": [],
      "name": "MAX_TOKEN_AMOUNT",
      "outputs": [
        {
          "internalType": "uint256",
          "name": "",
          "type": "uint256"
        }
      ],
      "stateMutability": "view",
      "type": "function"
    },
    {
      "inputs": [],
      "name": "MINTER_ROLE",
      "outputs": [
        {
          "internalType": "bytes32",
          "name": "",
          "type": "bytes32"
        }
      ],
      "stateMutability": "view",
      "type": "function"
    },
    {
      "inputs": [],
      "name": "PAUSER_ROLE",
      "outputs": [
        {
          "internalType": "bytes32",
          "name": "",
          "type": "bytes32"
        }
      ],
      "stateMutability": "view",
      "type": "function"
    },
    {
      "inputs": [],
      "name": "URI_SETTER_ROLE",
      "outputs": [
        {
          "internalType": "bytes32",
          "name": "",
          "type": "bytes32"
        }
      ],
      "stateMutability": "view",
      "type": "function"
    },
    {
      "inputs": [
        {
          "internalType": "uint256",
          "name": "tokenId",
          "type": "uint256"
        },
        {
          "internalType": "address",
          "name": "operator",
          "type": "address"
        }
      ],
      "name": "allowance",
      "outputs": [
        {
          "internalType": "uint256",
          "name": "",
          "type": "uint256"
        }
      ],
      "stateMutability": "view",
      "type": "function"
    },
    {
      "inputs": [
        {
          "internalType": "uint256",
          "name": "tokenId",
          "type": "uint256"
        },
        {
          "internalType": "address",
          "name": "operator",
          "type": "address"
        },
        {
          "internalType": "uint256",
          "name": "amount",
          "type": "uint256"
        }
      ],
      "name": "approve",
      "outputs": [],
      "stateMutability": "nonpayable",
      "type": "function"
    },
    {
      "inputs": [
        {
          "internalType": "address",
          "name": "account",
          "type": "address"
        },
        {
          "internalType": "uint256",
          "name": "id",
          "type": "uint256"
        }
      ],
      "name": "balanceOf",
      "outputs": [
        {
          "internalType": "uint256",
          "name": "",
          "type": "uint256"
        }
      ],
      "stateMutability": "view",
      "type": "function"
    },
    {
      "inputs": [
        {
          "internalType": "address[]",
          "name": "accounts",
          "type": "address[]"
        },
        {
          "internalType": "uint256[]",
          "name": "ids",
          "type": "uint256[]"
        }
      ],
      "name": "balanceOfBatch",
      "outputs": [
        {
          "internalType": "uint256[]",
          "name": "",
          "type": "uint256[]"
        }
      ],
      "stateMutability": "view",
      "type": "function"
    },
    {
      "inputs": [
        {
          "internalType": "address",
          "name": "account",
          "type": "address"
        },
        {
          "internalType": "uint256",
          "name": "id",
          "type": "uint256"
        },
        {
          "internalType": "uint256",
          "name": "value",
          "type": "uint256"
        }
      ],
      "name": "burn",
      "outputs": [],
      "stateMutability": "nonpayable",
      "type": "function"
    },
    {
      "inputs": [
        {
          "internalType": "address",
          "name": "account",
          "type": "address"
        },
        {
          "internalType": "uint256[]",
          "name": "ids",
          "type": "uint256[]"
        },
        {
          "internalType": "uint256[]",
          "name": "values",
          "type": "uint256[]"
        }
      ],
      "name": "burnBatch",
      "outputs": [],
      "stateMutability": "nonpayable",
      "type": "function"
    },
    {
      "inputs": [
        {
          "internalType": "uint256",
          "name": "tokenId",
          "type": "uint256"
        }
      ],
      "name": "getMetadata",
      "outputs": [
        {
          "internalType": "string",
          "name": "",
          "type": "string"
        }
      ],
      "stateMutability": "view",
      "type": "function"
    },
    {
      "inputs": [
        {
          "internalType": "address",
          "name": "account",
          "type": "address"
        }
      ],
      "name": "getOwnedTokens",
      "outputs": [
        {
          "internalType": "uint256[]",
          "name": "",
          "type": "uint256[]"
        }
      ],
      "stateMutability": "view",
      "type": "function"
    },
    {
      "inputs": [
        {
          "internalType": "uint256",
          "name": "tokenId",
          "type": "uint256"
        }
      ],
      "name": "getOwners",
      "outputs": [
        {
          "internalType": "address[]",
          "name": "",
          "type": "address[]"
        }
      ],
      "stateMutability": "view",
      "type": "function"
    },
    {
      "inputs": [
        {
          "internalType": "address",
          "name": "account",
          "type": "address"
        },
        {
          "internalType": "uint256",
          "name": "tokenId",
          "type": "uint256"
        }
      ],
      "name": "getOwnershipAmount",
      "outputs": [
        {
          "internalType": "uint256",
          "name": "",
          "type": "uint256"
        }
      ],
      "stateMutability": "view",
      "type": "function"
    },
    {
      "inputs": [
        {
          "internalType": "address",
          "name": "account",
          "type": "address"
        },
        {
          "internalType": "uint256",
          "name": "tokenId",
          "type": "uint256"
        }
      ],
      "name": "getOwnershipPercentage",
      "outputs": [
        {
          "internalType": "uint256",
          "name": "",
          "type": "uint256"
        }
      ],
      "stateMutability": "view",
      "type": "function"
    },
    {
      "inputs": [
        {
          "internalType": "uint256",
          "name": "tokenId",
          "type": "uint256"
        }
      ],
      "name": "getReserverPricingUSD",
      "outputs": [
        {
          "internalType": "uint256",
          "name": "",
          "type": "uint256"
        }
      ],
      "stateMutability": "view",
      "type": "function"
    },
    {
      "inputs": [
        {
          "internalType": "bytes32",
          "name": "role",
          "type": "bytes32"
        }
      ],
      "name": "getRoleAdmin",
      "outputs": [
        {
          "internalType": "bytes32",
          "name": "",
          "type": "bytes32"
        }
      ],
      "stateMutability": "view",
      "type": "function"
    },
    {
      "inputs": [
        {
          "internalType": "bytes32",
          "name": "role",
          "type": "bytes32"
        },
        {
          "internalType": "address",
          "name": "account",
          "type": "address"
        }
      ],
      "name": "grantRole",
      "outputs": [],
      "stateMutability": "nonpayable",
      "type": "function"
    },
    {
      "inputs": [
        {
          "internalType": "bytes32",
          "name": "role",
          "type": "bytes32"
        },
        {
          "internalType": "address",
          "name": "account",
          "type": "address"
        }
      ],
      "name": "hasRole",
      "outputs": [
        {
          "internalType": "bool",
          "name": "",
          "type": "bool"
        }
      ],
      "stateMutability": "view",
      "type": "function"
    },
    {
      "inputs": [
        {
          "internalType": "address",
          "name": "account",
          "type": "address"
        },
        {
          "internalType": "address",
          "name": "operator",
          "type": "address"
        }
      ],
      "name": "isApprovedForAll",
      "outputs": [
        {
          "internalType": "bool",
          "name": "",
          "type": "bool"
        }
      ],
      "stateMutability": "view",
      "type": "function"
    },
    {
      "inputs": [
        {
          "internalType": "address",
          "name": "account",
          "type": "address"
        },
        {
          "internalType": "uint256",
          "name": "tokenId",
          "type": "uint256"
        },
        {
          "internalType": "string",
          "name": "metadata",
          "type": "string"
        },
        {
          "internalType": "bool",
          "name": "reservable",
          "type": "bool"
        },
        {
          "internalType": "bytes",
          "name": "data",
          "type": "bytes"
        }
      ],
      "name": "mint",
      "outputs": [],
      "stateMutability": "nonpayable",
      "type": "function"
    },
    {
      "inputs": [],
      "name": "pause",
      "outputs": [],
      "stateMutability": "nonpayable",
      "type": "function"
    },
    {
      "inputs": [],
      "name": "paused",
      "outputs": [
        {
          "internalType": "bool",
          "name": "",
          "type": "bool"
        }
      ],
      "stateMutability": "view",
      "type": "function"
    },
    {
      "inputs": [
        {
          "internalType": "address",
          "name": "operator",
          "type": "address"
        },
        {
          "internalType": "uint256",
          "name": "tokenId",
          "type": "uint256"
        }
      ],
      "name": "removeApproval",
      "outputs": [],
      "stateMutability": "nonpayable",
      "type": "function"
    },
    {
      "inputs": [
        {
          "internalType": "bytes32",
          "name": "role",
          "type": "bytes32"
        },
        {
          "internalType": "address",
          "name": "callerConfirmation",
          "type": "address"
        }
      ],
      "name": "renounceRole",
      "outputs": [],
      "stateMutability": "nonpayable",
      "type": "function"
    },
    {
      "inputs": [
        {
          "internalType": "bytes32",
          "name": "role",
          "type": "bytes32"
        },
        {
          "internalType": "address",
          "name": "account",
          "type": "address"
        }
      ],
      "name": "revokeRole",
      "outputs": [],
      "stateMutability": "nonpayable",
      "type": "function"
    },
    {
      "inputs": [
        {
          "internalType": "address",
          "name": "from",
          "type": "address"
        },
        {
          "internalType": "address",
          "name": "to",
          "type": "address"
        },
        {
          "internalType": "uint256[]",
          "name": "ids",
          "type": "uint256[]"
        },
        {
          "internalType": "uint256[]",
          "name": "values",
          "type": "uint256[]"
        },
        {
          "internalType": "bytes",
          "name": "data",
          "type": "bytes"
        }
      ],
      "name": "safeBatchTransferFrom",
      "outputs": [],
      "stateMutability": "nonpayable",
      "type": "function"
    },
    {
      "inputs": [
        {
          "internalType": "address",
          "name": "from",
          "type": "address"
        },
        {
          "internalType": "address",
          "name": "to",
          "type": "address"
        },
        {
          "internalType": "uint256",
          "name": "id",
          "type": "uint256"
        },
        {
          "internalType": "uint256",
          "name": "value",
          "type": "uint256"
        },
        {
          "internalType": "bytes",
          "name": "data",
          "type": "bytes"
        }
      ],
      "name": "safeTransferFrom",
      "outputs": [],
      "stateMutability": "nonpayable",
      "type": "function"
    },
    {
      "inputs": [
        {
          "internalType": "address",
          "name": "operator",
          "type": "address"
        },
        {
          "internalType": "bool",
          "name": "approved",
          "type": "bool"
        }
      ],
      "name": "setApprovalForAll",
      "outputs": [],
      "stateMutability": "nonpayable",
      "type": "function"
    },
    {
      "inputs": [
        {
          "internalType": "address",
          "name": "_reserver",
          "type": "address"
        }
      ],
      "name": "setReserver",
      "outputs": [],
      "stateMutability": "nonpayable",
      "type": "function"
    },
    {
      "inputs": [
        {
          "internalType": "string",
          "name": "newuri",
          "type": "string"
        }
      ],
      "name": "setURI",
      "outputs": [],
      "stateMutability": "nonpayable",
      "type": "function"
    },
    {
      "inputs": [
        {
          "internalType": "bytes4",
          "name": "interfaceId",
          "type": "bytes4"
        }
      ],
      "name": "supportsInterface",
      "outputs": [
        {
          "internalType": "bool",
          "name": "",
          "type": "bool"
        }
      ],
      "stateMutability": "view",
      "type": "function"
    },
    {
      "inputs": [
        {
          "internalType": "address",
          "name": "from",
          "type": "address"
        },
        {
          "internalType": "address",
          "name": "to",
          "type": "address"
        },
        {
          "internalType": "uint256",
          "name": "tokenId",
          "type": "uint256"
        },
        {
          "internalType": "uint256",
          "name": "amount",
          "type": "uint256"
        },
        {
          "internalType": "bytes",
          "name": "data",
          "type": "bytes"
        }
      ],
      "name": "transfer",
      "outputs": [],
      "stateMutability": "nonpayable",
      "type": "function"
    },
    {
      "inputs": [
        {
          "internalType": "address",
          "name": "from",
          "type": "address"
        },
        {
          "internalType": "address",
          "name": "to",
          "type": "address"
        },
        {
          "internalType": "uint256",
          "name": "tokenId",
          "type": "uint256"
        },
        {
          "internalType": "uint256",
          "name": "amount",
          "type": "uint256"
        },
        {
          "internalType": "bytes",
          "name": "data",
          "type": "bytes"
        }
      ],
      "name": "transferFrom",
      "outputs": [],
      "stateMutability": "nonpayable",
      "type": "function"
    },
    {
      "inputs": [],
      "name": "unpause",
      "outputs": [],
      "stateMutability": "nonpayable",
      "type": "function"
    },
    {
      "inputs": [
        {
          "internalType": "uint256",
          "name": "tokenId",
          "type": "uint256"
        }
      ],
      "name": "uri",
      "outputs": [
        {
          "internalType": "string",
          "name": "",
          "type": "string"
        }
      ],
      "stateMutability": "view",
      "type": "function"
    }
  ],
  "bytecode": "0x60806040523480156200001157600080fd5b5060405162005735380380620057358339818101604052810190620000379190620004e2565b8062000049816200015e60201b60201c565b506000600460006101000a81548160ff0219169083151502179055506200007a6000801b846200017360201b60201c565b50620000ad7f65d7a28e3265b37a6474929f336521b332c1681b933f6cb9f3376673440d862a846200017360201b60201c565b50620000e07f9f2df0fed2c77648de5860a4cc508cd0818c85b8b8a1ab4ceeef8d981c8956a6846200017360201b60201c565b50620001137f7804d923f43a17d325d77e781528e0793b2edd9890ab45fc64efd7b4b427744c846200017360201b60201c565b5081600460016101000a81548173ffffffffffffffffffffffffffffffffffffffff021916908373ffffffffffffffffffffffffffffffffffffffff1602179055505050506200088f565b80600290816200016f9190620007a8565b5050565b60006200018783836200027760201b60201c565b6200026c5760016003600085815260200190815260200160002060000160008473ffffffffffffffffffffffffffffffffffffffff1673ffffffffffffffffffffffffffffffffffffffff16815260200190815260200160002060006101000a81548160ff02191690831515021790555062000208620002e260201b60201c565b73ffffffffffffffffffffffffffffffffffffffff168273ffffffffffffffffffffffffffffffffffffffff16847f2f8788117e7eff1d82e926ec794901d17c78024a50270940304540a733656f0d60405160405180910390a46001905062000271565b600090505b92915050565b60006003600084815260200190815260200160002060000160008373ffffffffffffffffffffffffffffffffffffffff1673ffffffffffffffffffffffffffffffffffffffff16815260200190815260200160002060009054906101000a900460ff16905092915050565b600033905090565b6000604051905090565b600080fd5b600080fd5b600073ffffffffffffffffffffffffffffffffffffffff82169050919050565b60006200032b82620002fe565b9050919050565b6200033d816200031e565b81146200034957600080fd5b50565b6000815190506200035d8162000332565b92915050565b600080fd5b600080fd5b6000601f19601f8301169050919050565b7f4e487b7100000000000000000000000000000000000000000000000000000000600052604160045260246000fd5b620003b8826200036d565b810181811067ffffffffffffffff82111715620003da57620003d96200037e565b5b80604052505050565b6000620003ef620002ea565b9050620003fd8282620003ad565b919050565b600067ffffffffffffffff82111562000420576200041f6200037e565b5b6200042b826200036d565b9050602081019050919050565b60005b83811015620004585780820151818401526020810190506200043b565b60008484015250505050565b60006200047b620004758462000402565b620003e3565b9050828152602081018484840111156200049a576200049962000368565b5b620004a784828562000438565b509392505050565b600082601f830112620004c757620004c662000363565b5b8151620004d984826020860162000464565b91505092915050565b600080600060608486031215620004fe57620004fd620002f4565b5b60006200050e868287016200034c565b935050602062000521868287016200034c565b925050604084015167ffffffffffffffff811115620005455762000544620002f9565b5b6200055386828701620004af565b9150509250925092565b600081519050919050565b7f4e487b7100000000000000000000000000000000000000000000000000000000600052602260045260246000fd5b60006002820490506001821680620005b057607f821691505b602082108103620005c657620005c562000568565b5b50919050565b60008190508160005260206000209050919050565b60006020601f8301049050919050565b600082821b905092915050565b600060088302620006307fffffffffffffffffffffffffffffffffffffffffffffffffffffffffffffffff82620005f1565b6200063c8683620005f1565b95508019841693508086168417925050509392505050565b6000819050919050565b6000819050919050565b600062000689620006836200067d8462000654565b6200065e565b62000654565b9050919050565b6000819050919050565b620006a58362000668565b620006bd620006b48262000690565b848454620005fe565b825550505050565b600090565b620006d4620006c5565b620006e18184846200069a565b505050565b5b818110156200070957620006fd600082620006ca565b600181019050620006e7565b5050565b601f82111562000758576200072281620005cc565b6200072d84620005e1565b810160208510156200073d578190505b620007556200074c85620005e1565b830182620006e6565b50505b505050565b600082821c905092915050565b60006200077d600019846008026200075d565b1980831691505092915050565b60006200079883836200076a565b9150826002028217905092915050565b620007b3826200055d565b67ffffffffffffffff811115620007cf57620007ce6200037e565b5b620007db825462000597565b620007e88282856200070d565b600060209050601f8311600181146200082057600084156200080b578287015190505b6200081785826200078a565b86555062000887565b601f1984166200083086620005cc565b60005b828110156200085a5784890151825560018201915060208501945060208101905062000833565b868310156200087a578489015162000876601f8916826200076a565b8355505b6001600288020188555050505b505050505050565b614e96806200089f6000396000f3fe608060405234801561001057600080fd5b50600436106102265760003560e01c80638456cb5911610130578063d5391393116100b8578063e63ab1e91161007c578063e63ab1e914610681578063e985e9c51461069f578063ee4525d5146106cf578063f242432a146106ff578063f5298aca1461071b57610226565b8063d5391393146105b7578063d547741f146105d5578063d9d61655146105f1578063e345e0bc14610621578063e62de01b1461065157610226565b8063a0a124dd116100ff578063a0a124dd14610515578063a217fddf14610531578063a22cb4651461054f578063a574cea41461056b578063b537b2691461059b57610226565b80638456cb591461048f5780638b12937c146104995780638cb0a511146104c957806391d14854146104e557610226565b80632fecd4bb116101b35780635c975abb116101825780635c975abb146103ff578063605105f01461041d5780636b20c454146104395780637f34571014610455578063829e47e51461047357610226565b80632fecd4bb1461037957806336568abe146103a95780633f4ba83a146103c55780634e1273f4146103cf57610226565b8063127217d6116101fa578063127217d6146102d75780631e9c2d67146102f3578063248a9ca3146103115780632eb2c2d6146103415780632f2ff15d1461035d57610226565b8062fdd58e1461022b57806301ffc9a71461025b57806302fe53051461028b5780630e89341c146102a7575b600080fd5b610245600480360381019061024091906135d0565b610737565b604051610252919061361f565b60405180910390f35b61027560048036038101906102709190613692565b610791565b60405161028291906136da565b60405180910390f35b6102a560048036038101906102a0919061383b565b6107a3565b005b6102c160048036038101906102bc9190613884565b6107da565b6040516102ce9190613930565b60405180910390f35b6102f160048036038101906102ec91906139f3565b6108b5565b005b6102fb610ba4565b604051610308919061361f565b60405180910390f35b61032b60048036038101906103269190613ac0565b610baa565b6040516103389190613afc565b60405180910390f35b61035b60048036038101906103569190613bdf565b610bca565b005b61037760048036038101906103729190613cae565b610c72565b005b610393600480360381019061038e91906135d0565b610c94565b6040516103a0919061361f565b60405180910390f35b6103c360048036038101906103be9190613cae565b610cef565b005b6103cd610d6a565b005b6103e960048036038101906103e49190613db1565b610d9f565b6040516103f69190613ee7565b60405180910390f35b610407610eae565b60405161041491906136da565b60405180910390f35b610437600480360381019061043291906139f3565b610ec5565b005b610453600480360381019061044e9190613f09565b610f36565b005b61045d610fe2565b60405161046a9190613afc565b60405180910390f35b61048d60048036038101906104889190613fc0565b611006565b005b610497611393565b005b6104b360048036038101906104ae9190613884565b6113c8565b6040516104c0919061361f565b60405180910390f35b6104e360048036038101906104de9190614073565b6113f2565b005b6104ff60048036038101906104fa9190613cae565b61165f565b60405161050c91906136da565b60405180910390f35b61052f600480360381019061052a91906140c6565b6116ca565b005b61053961171c565b6040516105469190613afc565b60405180910390f35b610569600480360381019061056491906140f3565b611723565b005b61058560048036038101906105809190613884565b611739565b6040516105929190613930565b60405180910390f35b6105b560048036038101906105b091906135d0565b6117de565b005b6105bf6118dd565b6040516105cc9190613afc565b60405180910390f35b6105ef60048036038101906105ea9190613cae565b611901565b005b61060b600480360381019061060691906140c6565b611923565b6040516106189190613ee7565b60405180910390f35b61063b60048036038101906106369190614133565b6119ba565b604051610648919061361f565b60405180910390f35b61066b600480360381019061066691906135d0565b611a18565b604051610678919061361f565b60405180910390f35b610689611a8c565b6040516106969190613afc565b60405180910390f35b6106b960048036038101906106b49190614173565b611ab0565b6040516106c691906136da565b60405180910390f35b6106e960048036038101906106e49190613884565b611b44565b6040516106f69190614271565b60405180910390f35b610719600480360381019061071491906139f3565b611be5565b005b61073560048036038101906107309190614293565b611c8d565b005b600080600083815260200190815260200160002060008473ffffffffffffffffffffffffffffffffffffffff1673ffffffffffffffffffffffffffffffffffffffff16815260200190815260200160002054905092915050565b600061079c82611d39565b9050919050565b7f7804d923f43a17d325d77e781528e0793b2edd9890ab45fc64efd7b4b427744c6107cd81611db3565b6107d682611dc7565b5050565b606060006107e86000611dda565b9050600060056000858152602001908152602001600020805461080a90614315565b80601f016020809104026020016040519081016040528092919081815260200182805461083690614315565b80156108835780601f1061085857610100808354040283529160200191610883565b820191906000526020600020905b81548152906001019060200180831161086657829003601f168201915b50505050509050818160405160200161089d929190614382565b60405160208183030381529060405292505050919050565b816007600085815260200190815260200160002060008773ffffffffffffffffffffffffffffffffffffffff1673ffffffffffffffffffffffffffffffffffffffff168152602001908152602001600020541015610948576040517f08c379a000000000000000000000000000000000000000000000000000000000815260040161093f906143f2565b60405180910390fd5b816007600085815260200190815260200160002060008773ffffffffffffffffffffffffffffffffffffffff1673ffffffffffffffffffffffffffffffffffffffff16815260200190815260200160002060008282546109a89190614441565b925050819055506109bc8585858585611be5565b816007600085815260200190815260200160002060008673ffffffffffffffffffffffffffffffffffffffff1673ffffffffffffffffffffffffffffffffffffffff1681526020019081526020016000206000828254610a1c9190614475565b9250508190555060086000848152602001908152602001600020849080600181540180825580915050600190039060005260206000200160009091909190916101000a81548173ffffffffffffffffffffffffffffffffffffffff021916908373ffffffffffffffffffffffffffffffffffffffff160217905550600960008573ffffffffffffffffffffffffffffffffffffffff1673ffffffffffffffffffffffffffffffffffffffff16815260200190815260200160002083908060018154018082558091505060019003906000526020600020016000909190919091505560006007600085815260200190815260200160002060008773ffffffffffffffffffffffffffffffffffffffff1673ffffffffffffffffffffffffffffffffffffffff1681526020019081526020016000205403610b6057610b5f8386611e6e565b5b7feeb0e676a4fccb21187462c64b95d0e58742fed59dbc3a8795d8e8ff8ccfba1683868685604051610b9594939291906144b8565b60405180910390a15050505050565b61271081565b600060036000838152602001908152602001600020600101549050919050565b6000610bd4612203565b90508073ffffffffffffffffffffffffffffffffffffffff168673ffffffffffffffffffffffffffffffffffffffff1614158015610c195750610c178682611ab0565b155b15610c5d5780866040517fe237d922000000000000000000000000000000000000000000000000000000008152600401610c549291906144fd565b60405180910390fd5b610c6a868686868661220b565b505050505050565b610c7b82610baa565b610c8481611db3565b610c8e8383612303565b50505050565b60006007600083815260200190815260200160002060008473ffffffffffffffffffffffffffffffffffffffff1673ffffffffffffffffffffffffffffffffffffffff16815260200190815260200160002054905092915050565b610cf7612203565b73ffffffffffffffffffffffffffffffffffffffff168173ffffffffffffffffffffffffffffffffffffffff1614610d5b576040517f6697b23200000000000000000000000000000000000000000000000000000000815260040160405180910390fd5b610d6582826123f5565b505050565b7f65d7a28e3265b37a6474929f336521b332c1681b933f6cb9f3376673440d862a610d9481611db3565b610d9c6124e8565b50565b60608151835114610deb57815183516040517f5b059991000000000000000000000000000000000000000000000000000000008152600401610de2929190614526565b60405180910390fd5b6000835167ffffffffffffffff811115610e0857610e07613710565b5b604051908082528060200260200182016040528015610e365781602001602082028036833780820191505090505b50905060005b8451811015610ea357610e73610e5b828761254b90919063ffffffff16565b610e6e838761255f90919063ffffffff16565b610737565b828281518110610e8657610e8561454f565b5b60200260200101818152505080610e9c9061457e565b9050610e3c565b508091505092915050565b6000600460009054906101000a900460ff16905090565b6000610ed184336119ba565b905082811015610f16576040517f08c379a0000000000000000000000000000000000000000000000000000000008152600401610f0d90614612565b60405180910390fd5b610f21338585612573565b610f2e86868686866108b5565b505050505050565b610f3e612203565b73ffffffffffffffffffffffffffffffffffffffff168373ffffffffffffffffffffffffffffffffffffffff1614158015610f875750610f8583610f80612203565b611ab0565b155b15610fd257610f94612203565b836040517fe237d922000000000000000000000000000000000000000000000000000000008152600401610fc99291906144fd565b60405180910390fd5b610fdd838383612634565b505050565b7f7804d923f43a17d325d77e781528e0793b2edd9890ab45fc64efd7b4b427744c81565b600060086000868152602001908152602001600020805490501461105f576040517f08c379a00000000000000000000000000000000000000000000000000000000081526004016110569061467e565b60405180910390fd5b81156111f457600460019054906101000a900473ffffffffffffffffffffffffffffffffffffffff1673ffffffffffffffffffffffffffffffffffffffff16632228adcc856040518263ffffffff1660e01b81526004016110c0919061361f565b602060405180830381865afa1580156110dd573d6000803e3d6000fd5b505050506040513d601f19601f8201168201806040525081019061110191906146b3565b611140576040517f08c379a00000000000000000000000000000000000000000000000000000000081526004016111379061472c565b60405180910390fd5b600460019054906101000a900473ffffffffffffffffffffffffffffffffffffffff1673ffffffffffffffffffffffffffffffffffffffff1663c58784b8856040518263ffffffff1660e01b815260040161119b919061361f565b602060405180830381865afa1580156111b8573d6000803e3d6000fd5b505050506040513d601f19601f820116820180604052508101906111dc9190614761565b60066000868152602001908152602001600020819055505b6112028585612710846126c8565b82600560008681526020019081526020016000209081611222919061493a565b506127106007600086815260200190815260200160002060008773ffffffffffffffffffffffffffffffffffffffff1673ffffffffffffffffffffffffffffffffffffffff1681526020019081526020016000208190555060086000858152602001908152602001600020859080600181540180825580915050600190039060005260206000200160009091909190916101000a81548173ffffffffffffffffffffffffffffffffffffffff021916908373ffffffffffffffffffffffffffffffffffffffff160217905550600960008673ffffffffffffffffffffffffffffffffffffffff1673ffffffffffffffffffffffffffffffffffffffff168152602001908152602001600020849080600181540180825580915050600190039060005260206000200160009091909190915055837f3a5398bda6f1f57d6c96834fa9bf02b5517bdc847d14312015a917ba421c31c9866040516113849190614a0c565b60405180910390a25050505050565b7f65d7a28e3265b37a6474929f336521b332c1681b933f6cb9f3376673440d862a6113bd81611db3565b6113c5612761565b50565b600061271060066000848152602001908152602001600020546113eb9190614a56565b9050919050565b806007600085815260200190815260200160002060003373ffffffffffffffffffffffffffffffffffffffff1673ffffffffffffffffffffffffffffffffffffffff168152602001908152602001600020541015611485576040517f08c379a000000000000000000000000000000000000000000000000000000000815260040161147c90614612565b60405180910390fd5b8173ffffffffffffffffffffffffffffffffffffffff163373ffffffffffffffffffffffffffffffffffffffff16036114f3576040517f08c379a00000000000000000000000000000000000000000000000000000000081526004016114ea90614ad3565b60405180910390fd5b6114fe826001611723565b6000600a6000858152602001908152602001600020905060008160010160008573ffffffffffffffffffffffffffffffffffffffff1673ffffffffffffffffffffffffffffffffffffffff16815260200190815260200160002054036115c45780600001839080600181540180825580915050600190039060005260206000200160009091909190916101000a81548173ffffffffffffffffffffffffffffffffffffffff021916908373ffffffffffffffffffffffffffffffffffffffff1602179055505b818160010160008573ffffffffffffffffffffffffffffffffffffffff1673ffffffffffffffffffffffffffffffffffffffff168152602001908152602001600020819055508273ffffffffffffffffffffffffffffffffffffffff16847f7a5c69a7c393db8f307d6fea9c8addb8c18644d1172a623792a4017298a1a58284604051611651919061361f565b60405180910390a350505050565b60006003600084815260200190815260200160002060000160008373ffffffffffffffffffffffffffffffffffffffff1673ffffffffffffffffffffffffffffffffffffffff16815260200190815260200160002060009054906101000a900460ff16905092915050565b6000801b6116d781611db3565b81600460016101000a81548173ffffffffffffffffffffffffffffffffffffffff021916908373ffffffffffffffffffffffffffffffffffffffff1602179055505050565b6000801b81565b61173561172e612203565b83836127c4565b5050565b606060056000838152602001908152602001600020805461175990614315565b80601f016020809104026020016040519081016040528092919081815260200182805461178590614315565b80156117d25780601f106117a7576101008083540402835291602001916117d2565b820191906000526020600020905b8154815290600101906020018083116117b557829003601f168201915b50505050509050919050565b60006007600083815260200190815260200160002060003373ffffffffffffffffffffffffffffffffffffffff1673ffffffffffffffffffffffffffffffffffffffff1681526020019081526020016000205411611871576040517f08c379a000000000000000000000000000000000000000000000000000000000815260040161186890614b65565b60405180910390fd5b600061187d82846119ba565b9050600081116118c2576040517f08c379a00000000000000000000000000000000000000000000000000000000081526004016118b990614bd1565b60405180910390fd5b6118cd838383612573565b6118d8836000611723565b505050565b7f9f2df0fed2c77648de5860a4cc508cd0818c85b8b8a1ab4ceeef8d981c8956a681565b61190a82610baa565b61191381611db3565b61191d83836123f5565b50505050565b6060600960008373ffffffffffffffffffffffffffffffffffffffff1673ffffffffffffffffffffffffffffffffffffffff1681526020019081526020016000208054806020026020016040519081016040528092919081815260200182805480156119ae57602002820191906000526020600020905b81548152602001906001019080831161199a575b50505050509050919050565b6000600a600084815260200190815260200160002060010160008373ffffffffffffffffffffffffffffffffffffffff1673ffffffffffffffffffffffffffffffffffffffff16815260200190815260200160002054905092915050565b600061271060646007600085815260200190815260200160002060008673ffffffffffffffffffffffffffffffffffffffff1673ffffffffffffffffffffffffffffffffffffffff16815260200190815260200160002054611a7a9190614bf1565b611a849190614a56565b905092915050565b7f65d7a28e3265b37a6474929f336521b332c1681b933f6cb9f3376673440d862a81565b6000600160008473ffffffffffffffffffffffffffffffffffffffff1673ffffffffffffffffffffffffffffffffffffffff16815260200190815260200160002060008373ffffffffffffffffffffffffffffffffffffffff1673ffffffffffffffffffffffffffffffffffffffff16815260200190815260200160002060009054906101000a900460ff16905092915050565b606060086000838152602001908152602001600020805480602002602001604051908101604052809291908181526020018280548015611bd957602002820191906000526020600020905b8160009054906101000a900473ffffffffffffffffffffffffffffffffffffffff1673ffffffffffffffffffffffffffffffffffffffff1681526020019060010190808311611b8f575b50505050509050919050565b6000611bef612203565b90508073ffffffffffffffffffffffffffffffffffffffff168673ffffffffffffffffffffffffffffffffffffffff1614158015611c345750611c328682611ab0565b155b15611c785780866040517fe237d922000000000000000000000000000000000000000000000000000000008152600401611c6f9291906144fd565b60405180910390fd5b611c858686868686612934565b505050505050565b611c95612203565b73ffffffffffffffffffffffffffffffffffffffff168373ffffffffffffffffffffffffffffffffffffffff1614158015611cde5750611cdc83611cd7612203565b611ab0565b155b15611d2957611ceb612203565b836040517fe237d922000000000000000000000000000000000000000000000000000000008152600401611d209291906144fd565b60405180910390fd5b611d34838383612a3f565b505050565b60007f7965db0b000000000000000000000000000000000000000000000000000000007bffffffffffffffffffffffffffffffffffffffffffffffffffffffff1916827bffffffffffffffffffffffffffffffffffffffffffffffffffffffff19161480611dac5750611dab82612ae6565b5b9050919050565b611dc481611dbf612203565b612bc8565b50565b8060029081611dd6919061493a565b5050565b606060028054611de990614315565b80601f0160208091040260200160405190810160405280929190818152602001828054611e1590614315565b8015611e625780601f10611e3757610100808354040283529160200191611e62565b820191906000526020600020905b815481529060010190602001808311611e4557829003601f168201915b50505050509050919050565b600060086000848152602001908152602001600020905060008180549050905060005b600182611e9e9190614441565b811015611fe0578373ffffffffffffffffffffffffffffffffffffffff16838281548110611ecf57611ece61454f565b5b9060005260206000200160009054906101000a900473ffffffffffffffffffffffffffffffffffffffff1673ffffffffffffffffffffffffffffffffffffffff1603611fcd5782600183611f239190614441565b81548110611f3457611f3361454f565b5b9060005260206000200160009054906101000a900473ffffffffffffffffffffffffffffffffffffffff16600860008781526020019081526020016000208281548110611f8457611f8361454f565b5b9060005260206000200160006101000a81548173ffffffffffffffffffffffffffffffffffffffff021916908373ffffffffffffffffffffffffffffffffffffffff1602179055505b8080611fd89061457e565b915050611e91565b506008600085815260200190815260200160002080548061200457612003614c33565b5b6001900381819060005260206000200160006101000a81549073ffffffffffffffffffffffffffffffffffffffff021916905590556000600960008573ffffffffffffffffffffffffffffffffffffffff1673ffffffffffffffffffffffffffffffffffffffff168152602001908152602001600020905060008180549050905060005b6001826120959190614441565b81101561215d57868382815481106120b0576120af61454f565b5b90600052602060002001540361214a57826001836120ce9190614441565b815481106120df576120de61454f565b5b9060005260206000200154600960008873ffffffffffffffffffffffffffffffffffffffff1673ffffffffffffffffffffffffffffffffffffffff168152602001908152602001600020828154811061213b5761213a61454f565b5b90600052602060002001819055505b80806121559061457e565b915050612088565b50600960008673ffffffffffffffffffffffffffffffffffffffff1673ffffffffffffffffffffffffffffffffffffffff1681526020019081526020016000208054806121ad576121ac614c33565b5b60019003818190600052602060002001600090559055857fb313f5a88a5d21dd54119393bab2baac6503d2bc1368bd7af3281737aefe9447866040516121f39190614a0c565b60405180910390a2505050505050565b600033905090565b600073ffffffffffffffffffffffffffffffffffffffff168473ffffffffffffffffffffffffffffffffffffffff160361227d5760006040517f57f447ce0000000000000000000000000000000000000000000000000000000081526004016122749190614a0c565b60405180910390fd5b600073ffffffffffffffffffffffffffffffffffffffff168573ffffffffffffffffffffffffffffffffffffffff16036122ef5760006040517f01a835140000000000000000000000000000000000000000000000000000000081526004016122e69190614a0c565b60405180910390fd5b6122fc8585858585612c19565b5050505050565b600061230f838361165f565b6123ea5760016003600085815260200190815260200160002060000160008473ffffffffffffffffffffffffffffffffffffffff1673ffffffffffffffffffffffffffffffffffffffff16815260200190815260200160002060006101000a81548160ff021916908315150217905550612387612203565b73ffffffffffffffffffffffffffffffffffffffff168273ffffffffffffffffffffffffffffffffffffffff16847f2f8788117e7eff1d82e926ec794901d17c78024a50270940304540a733656f0d60405160405180910390a4600190506123ef565b600090505b92915050565b6000612401838361165f565b156124dd5760006003600085815260200190815260200160002060000160008473ffffffffffffffffffffffffffffffffffffffff1673ffffffffffffffffffffffffffffffffffffffff16815260200190815260200160002060006101000a81548160ff02191690831515021790555061247a612203565b73ffffffffffffffffffffffffffffffffffffffff168273ffffffffffffffffffffffffffffffffffffffff16847ff6391f5c32d9c69d2a47ea670b442974b53935d1edc7fd64eb21e047a839171b60405160405180910390a4600190506124e2565b600090505b92915050565b6124f0612ccb565b6000600460006101000a81548160ff0219169083151502179055507f5db9ee0a495bf2e6ff9c91a7834c1ba4fdd244a5e8aa4e537bd38aeae4b073aa612534612203565b6040516125419190614a0c565b60405180910390a1565b600060208202602084010151905092915050565b600060208202602084010151905092915050565b600061257f83856119ba565b9050818110156125c4576040517f08c379a00000000000000000000000000000000000000000000000000000000081526004016125bb90614612565b60405180910390fd5b81600a600085815260200190815260200160002060010160008673ffffffffffffffffffffffffffffffffffffffff1673ffffffffffffffffffffffffffffffffffffffff16815260200190815260200160002060008282546126279190614441565b9250508190555050505050565b600073ffffffffffffffffffffffffffffffffffffffff168373ffffffffffffffffffffffffffffffffffffffff16036126a65760006040517f01a8351400000000000000000000000000000000000000000000000000000000815260040161269d9190614a0c565b60405180910390fd5b6126c3836000848460405180602001604052806000815250612c19565b505050565b600073ffffffffffffffffffffffffffffffffffffffff168473ffffffffffffffffffffffffffffffffffffffff160361273a5760006040517f57f447ce0000000000000000000000000000000000000000000000000000000081526004016127319190614a0c565b60405180910390fd5b6000806127478585612d0b565b91509150612759600087848487612c19565b505050505050565b612769612d3b565b6001600460006101000a81548160ff0219169083151502179055507f62e78cea01bee320cd4e420270b5ea74000d11b0c9f74754ebdbfc544b05a2586127ad612203565b6040516127ba9190614a0c565b60405180910390a1565b600073ffffffffffffffffffffffffffffffffffffffff168273ffffffffffffffffffffffffffffffffffffffff16036128365760006040517fced3e10000000000000000000000000000000000000000000000000000000000815260040161282d9190614a0c565b60405180910390fd5b80600160008573ffffffffffffffffffffffffffffffffffffffff1673ffffffffffffffffffffffffffffffffffffffff16815260200190815260200160002060008473ffffffffffffffffffffffffffffffffffffffff1673ffffffffffffffffffffffffffffffffffffffff16815260200190815260200160002060006101000a81548160ff0219169083151502179055508173ffffffffffffffffffffffffffffffffffffffff168373ffffffffffffffffffffffffffffffffffffffff167f17307eab39ab6107e8899845ad3d59bd9653f200f220920489ca2b5937696c318360405161292791906136da565b60405180910390a3505050565b600073ffffffffffffffffffffffffffffffffffffffff168473ffffffffffffffffffffffffffffffffffffffff16036129a65760006040517f57f447ce00000000000000000000000000000000000000000000000000000000815260040161299d9190614a0c565b60405180910390fd5b600073ffffffffffffffffffffffffffffffffffffffff168573ffffffffffffffffffffffffffffffffffffffff1603612a185760006040517f01a83514000000000000000000000000000000000000000000000000000000008152600401612a0f9190614a0c565b60405180910390fd5b600080612a258585612d0b565b91509150612a368787848487612c19565b50505050505050565b600073ffffffffffffffffffffffffffffffffffffffff168373ffffffffffffffffffffffffffffffffffffffff1603612ab15760006040517f01a83514000000000000000000000000000000000000000000000000000000008152600401612aa89190614a0c565b60405180910390fd5b600080612abe8484612d0b565b91509150612adf856000848460405180602001604052806000815250612c19565b5050505050565b60007fd9b67a26000000000000000000000000000000000000000000000000000000007bffffffffffffffffffffffffffffffffffffffffffffffffffffffff1916827bffffffffffffffffffffffffffffffffffffffffffffffffffffffff19161480612bb157507f0e89341c000000000000000000000000000000000000000000000000000000007bffffffffffffffffffffffffffffffffffffffffffffffffffffffff1916827bffffffffffffffffffffffffffffffffffffffffffffffffffffffff1916145b80612bc15750612bc082612d7c565b5b9050919050565b612bd2828261165f565b612c155780826040517fe2517d3f000000000000000000000000000000000000000000000000000000008152600401612c0c929190614c62565b60405180910390fd5b5050565b612c2585858585612de6565b600073ffffffffffffffffffffffffffffffffffffffff168473ffffffffffffffffffffffffffffffffffffffff1614612cc4576000612c63612203565b90506001845103612cb3576000612c8460008661255f90919063ffffffff16565b90506000612c9c60008661255f90919063ffffffff16565b9050612cac838989858589612df8565b5050612cc2565b612cc1818787878787612fac565b5b505b5050505050565b612cd3610eae565b612d09576040517f8dfc202b00000000000000000000000000000000000000000000000000000000815260040160405180910390fd5b565b60608060405191506001825283602083015260408201905060018152826020820152604081016040529250929050565b612d43610eae565b15612d7a576040517fd93c066500000000000000000000000000000000000000000000000000000000815260040160405180910390fd5b565b60007f01ffc9a7000000000000000000000000000000000000000000000000000000007bffffffffffffffffffffffffffffffffffffffffffffffffffffffff1916827bffffffffffffffffffffffffffffffffffffffffffffffffffffffff1916149050919050565b612df284848484613160565b50505050565b60008473ffffffffffffffffffffffffffffffffffffffff163b1115612fa4578373ffffffffffffffffffffffffffffffffffffffff1663f23a6e6187878686866040518663ffffffff1660e01b8152600401612e59959493929190614ce0565b6020604051808303816000875af1925050508015612e9557506040513d601f19601f82011682018060405250810190612e929190614d4f565b60015b612f19573d8060008114612ec5576040519150601f19603f3d011682016040523d82523d6000602084013e612eca565b606091505b506000815103612f1157846040517f57f447ce000000000000000000000000000000000000000000000000000000008152600401612f089190614a0c565b60405180910390fd5b805181602001fd5b63f23a6e6160e01b7bffffffffffffffffffffffffffffffffffffffffffffffffffffffff1916817bffffffffffffffffffffffffffffffffffffffffffffffffffffffff191614612fa257846040517f57f447ce000000000000000000000000000000000000000000000000000000008152600401612f999190614a0c565b60405180910390fd5b505b505050505050565b60008473ffffffffffffffffffffffffffffffffffffffff163b1115613158578373ffffffffffffffffffffffffffffffffffffffff1663bc197c8187878686866040518663ffffffff1660e01b815260040161300d959493929190614d7c565b6020604051808303816000875af192505050801561304957506040513d601f19601f820116820180604052508101906130469190614d4f565b60015b6130cd573d8060008114613079576040519150601f19603f3d011682016040523d82523d6000602084013e61307e565b606091505b5060008151036130c557846040517f57f447ce0000000000000000000000000000000000000000000000000000000081526004016130bc9190614a0c565b60405180910390fd5b805181602001fd5b63bc197c8160e01b7bffffffffffffffffffffffffffffffffffffffffffffffffffffffff1916817bffffffffffffffffffffffffffffffffffffffffffffffffffffffff19161461315657846040517f57f447ce00000000000000000000000000000000000000000000000000000000815260040161314d9190614a0c565b60405180910390fd5b505b505050505050565b613168612d3b565b6131748484848461317a565b50505050565b80518251146131c457815181516040517f5b0599910000000000000000000000000000000000000000000000000000000081526004016131bb929190614526565b60405180910390fd5b60006131ce612203565b905060005b83518110156133e35760006131f1828661255f90919063ffffffff16565b90506000613208838661255f90919063ffffffff16565b9050600073ffffffffffffffffffffffffffffffffffffffff168873ffffffffffffffffffffffffffffffffffffffff161461333557600080600084815260200190815260200160002060008a73ffffffffffffffffffffffffffffffffffffffff1673ffffffffffffffffffffffffffffffffffffffff168152602001908152602001600020549050818110156132dd57888183856040517f03dee4c50000000000000000000000000000000000000000000000000000000081526004016132d49493929190614de4565b60405180910390fd5b81810360008085815260200190815260200160002060008b73ffffffffffffffffffffffffffffffffffffffff1673ffffffffffffffffffffffffffffffffffffffff16815260200190815260200160002081905550505b600073ffffffffffffffffffffffffffffffffffffffff168773ffffffffffffffffffffffffffffffffffffffff16146133d0578060008084815260200190815260200160002060008973ffffffffffffffffffffffffffffffffffffffff1673ffffffffffffffffffffffffffffffffffffffff16815260200190815260200160002060008282546133c89190614475565b925050819055505b5050806133dc9061457e565b90506131d3565b5060018351036134a257600061340360008561255f90919063ffffffff16565b9050600061341b60008561255f90919063ffffffff16565b90508573ffffffffffffffffffffffffffffffffffffffff168773ffffffffffffffffffffffffffffffffffffffff168473ffffffffffffffffffffffffffffffffffffffff167fc3d58168c5ae7397731d063d5bbf3d657854427343f4c083240f7aacaa2d0f628585604051613493929190614526565b60405180910390a45050613521565b8373ffffffffffffffffffffffffffffffffffffffff168573ffffffffffffffffffffffffffffffffffffffff168273ffffffffffffffffffffffffffffffffffffffff167f4a39dc06d4c0dbc64b70af90fd698a233a518aa5d07e595d983b8c0526c8f7fb8686604051613518929190614e29565b60405180910390a45b5050505050565b6000604051905090565b600080fd5b600080fd5b600073ffffffffffffffffffffffffffffffffffffffff82169050919050565b60006135678261353c565b9050919050565b6135778161355c565b811461358257600080fd5b50565b6000813590506135948161356e565b92915050565b6000819050919050565b6135ad8161359a565b81146135b857600080fd5b50565b6000813590506135ca816135a4565b92915050565b600080604083850312156135e7576135e6613532565b5b60006135f585828601613585565b9250506020613606858286016135bb565b9150509250929050565b6136198161359a565b82525050565b60006020820190506136346000830184613610565b92915050565b60007fffffffff0000000000000000000000000000000000000000000000000000000082169050919050565b61366f8161363a565b811461367a57600080fd5b50565b60008135905061368c81613666565b92915050565b6000602082840312156136a8576136a7613532565b5b60006136b68482850161367d565b91505092915050565b60008115159050919050565b6136d4816136bf565b82525050565b60006020820190506136ef60008301846136cb565b92915050565b600080fd5b600080fd5b6000601f19601f8301169050919050565b7f4e487b7100000000000000000000000000000000000000000000000000000000600052604160045260246000fd5b613748826136ff565b810181811067ffffffffffffffff8211171561376757613766613710565b5b80604052505050565b600061377a613528565b9050613786828261373f565b919050565b600067ffffffffffffffff8211156137a6576137a5613710565b5b6137af826136ff565b9050602081019050919050565b82818337600083830152505050565b60006137de6137d98461378b565b613770565b9050828152602081018484840111156137fa576137f96136fa565b5b6138058482856137bc565b509392505050565b600082601f830112613822576138216136f5565b5b81356138328482602086016137cb565b91505092915050565b60006020828403121561385157613850613532565b5b600082013567ffffffffffffffff81111561386f5761386e613537565b5b61387b8482850161380d565b91505092915050565b60006020828403121561389a57613899613532565b5b60006138a8848285016135bb565b91505092915050565b600081519050919050565b600082825260208201905092915050565b60005b838110156138eb5780820151818401526020810190506138d0565b60008484015250505050565b6000613902826138b1565b61390c81856138bc565b935061391c8185602086016138cd565b613925816136ff565b840191505092915050565b6000602082019050818103600083015261394a81846138f7565b905092915050565b600067ffffffffffffffff82111561396d5761396c613710565b5b613976826136ff565b9050602081019050919050565b600061399661399184613952565b613770565b9050828152602081018484840111156139b2576139b16136fa565b5b6139bd8482856137bc565b509392505050565b600082601f8301126139da576139d96136f5565b5b81356139ea848260208601613983565b91505092915050565b600080600080600060a08688031215613a0f57613a0e613532565b5b6000613a1d88828901613585565b9550506020613a2e88828901613585565b9450506040613a3f888289016135bb565b9350506060613a50888289016135bb565b925050608086013567ffffffffffffffff811115613a7157613a70613537565b5b613a7d888289016139c5565b9150509295509295909350565b6000819050919050565b613a9d81613a8a565b8114613aa857600080fd5b50565b600081359050613aba81613a94565b92915050565b600060208284031215613ad657613ad5613532565b5b6000613ae484828501613aab565b91505092915050565b613af681613a8a565b82525050565b6000602082019050613b116000830184613aed565b92915050565b600067ffffffffffffffff821115613b3257613b31613710565b5b602082029050602081019050919050565b600080fd5b6000613b5b613b5684613b17565b613770565b90508083825260208201905060208402830185811115613b7e57613b7d613b43565b5b835b81811015613ba75780613b9388826135bb565b845260208401935050602081019050613b80565b5050509392505050565b600082601f830112613bc657613bc56136f5565b5b8135613bd6848260208601613b48565b91505092915050565b600080600080600060a08688031215613bfb57613bfa613532565b5b6000613c0988828901613585565b9550506020613c1a88828901613585565b945050604086013567ffffffffffffffff811115613c3b57613c3a613537565b5b613c4788828901613bb1565b935050606086013567ffffffffffffffff811115613c6857613c67613537565b5b613c7488828901613bb1565b925050608086013567ffffffffffffffff811115613c9557613c94613537565b5b613ca1888289016139c5565b9150509295509295909350565b60008060408385031215613cc557613cc4613532565b5b6000613cd385828601613aab565b9250506020613ce485828601613585565b9150509250929050565b600067ffffffffffffffff821115613d0957613d08613710565b5b602082029050602081019050919050565b6000613d2d613d2884613cee565b613770565b90508083825260208201905060208402830185811115613d5057613d4f613b43565b5b835b81811015613d795780613d658882613585565b845260208401935050602081019050613d52565b5050509392505050565b600082601f830112613d9857613d976136f5565b5b8135613da8848260208601613d1a565b91505092915050565b60008060408385031215613dc857613dc7613532565b5b600083013567ffffffffffffffff811115613de657613de5613537565b5b613df285828601613d83565b925050602083013567ffffffffffffffff811115613e1357613e12613537565b5b613e1f85828601613bb1565b9150509250929050565b600081519050919050565b600082825260208201905092915050565b6000819050602082019050919050565b613e5e8161359a565b82525050565b6000613e708383613e55565b60208301905092915050565b6000602082019050919050565b6000613e9482613e29565b613e9e8185613e34565b9350613ea983613e45565b8060005b83811015613eda578151613ec18882613e64565b9750613ecc83613e7c565b925050600181019050613ead565b5085935050505092915050565b60006020820190508181036000830152613f018184613e89565b905092915050565b600080600060608486031215613f2257613f21613532565b5b6000613f3086828701613585565b935050602084013567ffffffffffffffff811115613f5157613f50613537565b5b613f5d86828701613bb1565b925050604084013567ffffffffffffffff811115613f7e57613f7d613537565b5b613f8a86828701613bb1565b9150509250925092565b613f9d816136bf565b8114613fa857600080fd5b50565b600081359050613fba81613f94565b92915050565b600080600080600060a08688031215613fdc57613fdb613532565b5b6000613fea88828901613585565b9550506020613ffb888289016135bb565b945050604086013567ffffffffffffffff81111561401c5761401b613537565b5b6140288882890161380d565b935050606061403988828901613fab565b925050608086013567ffffffffffffffff81111561405a57614059613537565b5b614066888289016139c5565b9150509295509295909350565b60008060006060848603121561408c5761408b613532565b5b600061409a868287016135bb565b93505060206140ab86828701613585565b92505060406140bc868287016135bb565b9150509250925092565b6000602082840312156140dc576140db613532565b5b60006140ea84828501613585565b91505092915050565b6000806040838503121561410a57614109613532565b5b600061411885828601613585565b925050602061412985828601613fab565b9150509250929050565b6000806040838503121561414a57614149613532565b5b6000614158858286016135bb565b925050602061416985828601613585565b9150509250929050565b6000806040838503121561418a57614189613532565b5b600061419885828601613585565b92505060206141a985828601613585565b9150509250929050565b600081519050919050565b600082825260208201905092915050565b6000819050602082019050919050565b6141e88161355c565b82525050565b60006141fa83836141df565b60208301905092915050565b6000602082019050919050565b600061421e826141b3565b61422881856141be565b9350614233836141cf565b8060005b8381101561426457815161424b88826141ee565b975061425683614206565b925050600181019050614237565b5085935050505092915050565b6000602082019050818103600083015261428b8184614213565b905092915050565b6000806000606084860312156142ac576142ab613532565b5b60006142ba86828701613585565b93505060206142cb868287016135bb565b92505060406142dc868287016135bb565b9150509250925092565b7f4e487b7100000000000000000000000000000000000000000000000000000000600052602260045260246000fd5b6000600282049050600182168061432d57607f821691505b6020821081036143405761433f6142e6565b5b50919050565b600081905092915050565b600061435c826138b1565b6143668185614346565b93506143768185602086016138cd565b80840191505092915050565b600061438e8285614351565b915061439a8284614351565b91508190509392505050565b7f496e73756666696369656e74206f776e6572736869702062616c616e63650000600082015250565b60006143dc601e836138bc565b91506143e7826143a6565b602082019050919050565b6000602082019050818103600083015261440b816143cf565b9050919050565b7f4e487b7100000000000000000000000000000000000000000000000000000000600052601160045260246000fd5b600061444c8261359a565b91506144578361359a565b925082820390508181111561446f5761446e614412565b5b92915050565b60006144808261359a565b915061448b8361359a565b92508282019050808211156144a3576144a2614412565b5b92915050565b6144b28161355c565b82525050565b60006080820190506144cd6000830187613610565b6144da60208301866144a9565b6144e760408301856144a9565b6144f46060830184613610565b95945050505050565b600060408201905061451260008301856144a9565b61451f60208301846144a9565b9392505050565b600060408201905061453b6000830185613610565b6145486020830184613610565b9392505050565b7f4e487b7100000000000000000000000000000000000000000000000000000000600052603260045260246000fd5b60006145898261359a565b91507fffffffffffffffffffffffffffffffffffffffffffffffffffffffffffffffff82036145bb576145ba614412565b5b600182019050919050565b7f496e73756666696369656e7420616c6c6f77616e636500000000000000000000600082015250565b60006145fc6016836138bc565b9150614607826145c6565b602082019050919050565b6000602082019050818103600083015261462b816145ef565b9050919050565b7f496e76616c696420746f6b656e20494400000000000000000000000000000000600082015250565b60006146686010836138bc565b915061467382614632565b602082019050919050565b600060208201905081810360008301526146978161465b565b9050919050565b6000815190506146ad81613f94565b92915050565b6000602082840312156146c9576146c8613532565b5b60006146d78482850161469e565b91505092915050565b7f4173736574206973206e6f742072657365727665642079657400000000000000600082015250565b60006147166019836138bc565b9150614721826146e0565b602082019050919050565b6000602082019050818103600083015261474581614709565b9050919050565b60008151905061475b816135a4565b92915050565b60006020828403121561477757614776613532565b5b60006147858482850161474c565b91505092915050565b60008190508160005260206000209050919050565b60006020601f8301049050919050565b600082821b905092915050565b6000600883026147f07fffffffffffffffffffffffffffffffffffffffffffffffffffffffffffffffff826147b3565b6147fa86836147b3565b95508019841693508086168417925050509392505050565b6000819050919050565b600061483761483261482d8461359a565b614812565b61359a565b9050919050565b6000819050919050565b6148518361481c565b61486561485d8261483e565b8484546147c0565b825550505050565b600090565b61487a61486d565b614885818484614848565b505050565b5b818110156148a95761489e600082614872565b60018101905061488b565b5050565b601f8211156148ee576148bf8161478e565b6148c8846147a3565b810160208510156148d7578190505b6148eb6148e3856147a3565b83018261488a565b50505b505050565b600082821c905092915050565b6000614911600019846008026148f3565b1980831691505092915050565b600061492a8383614900565b9150826002028217905092915050565b614943826138b1565b67ffffffffffffffff81111561495c5761495b613710565b5b6149668254614315565b6149718282856148ad565b600060209050601f8311600181146149a45760008415614992578287015190505b61499c858261491e565b865550614a04565b601f1984166149b28661478e565b60005b828110156149da578489015182556001820191506020850194506020810190506149b5565b868310156149f757848901516149f3601f891682614900565b8355505b6001600288020188555050505b505050505050565b6000602082019050614a2160008301846144a9565b92915050565b7f4e487b7100000000000000000000000000000000000000000000000000000000600052601260045260246000fd5b6000614a618261359a565b9150614a6c8361359a565b925082614a7c57614a7b614a27565b5b828204905092915050565b7f417070726f76616c20746f2063757272656e74206f776e657200000000000000600082015250565b6000614abd6019836138bc565b9150614ac882614a87565b602082019050919050565b60006020820190508181036000830152614aec81614ab0565b9050919050565b7f496e76616c6964206f776e65727368697020616d6f756e7420746f2072656d6f60008201527f766520617070726f76616c000000000000000000000000000000000000000000602082015250565b6000614b4f602b836138bc565b9150614b5a82614af3565b604082019050919050565b60006020820190508181036000830152614b7e81614b42565b9050919050565b7f496e73756666696369656e74206f70657261746f7220616c6c6f77616e636500600082015250565b6000614bbb601f836138bc565b9150614bc682614b85565b602082019050919050565b60006020820190508181036000830152614bea81614bae565b9050919050565b6000614bfc8261359a565b9150614c078361359a565b9250828202614c158161359a565b91508282048414831517614c2c57614c2b614412565b5b5092915050565b7f4e487b7100000000000000000000000000000000000000000000000000000000600052603160045260246000fd5b6000604082019050614c7760008301856144a9565b614c846020830184613aed565b9392505050565b600081519050919050565b600082825260208201905092915050565b6000614cb282614c8b565b614cbc8185614c96565b9350614ccc8185602086016138cd565b614cd5816136ff565b840191505092915050565b600060a082019050614cf560008301886144a9565b614d0260208301876144a9565b614d0f6040830186613610565b614d1c6060830185613610565b8181036080830152614d2e8184614ca7565b90509695505050505050565b600081519050614d4981613666565b92915050565b600060208284031215614d6557614d64613532565b5b6000614d7384828501614d3a565b91505092915050565b600060a082019050614d9160008301886144a9565b614d9e60208301876144a9565b8181036040830152614db08186613e89565b90508181036060830152614dc48185613e89565b90508181036080830152614dd88184614ca7565b90509695505050505050565b6000608082019050614df960008301876144a9565b614e066020830186613610565b614e136040830185613610565b614e206060830184613610565b95945050505050565b60006040820190508181036000830152614e438185613e89565b90508181036020830152614e578184613e89565b9050939250505056fea2646970667358221220de63f5740515848dd109a00de65c881315fb9639a36f288efb541c64723b5f1264736f6c63430008140033",
  "linkReferences": {},
  "deployedLinkReferences": {}
}