{
  "_format": "hh-sol-artifact-1",
  "contractName": "FractionalizedNFT",
  "sourceName": "contracts/FractionalizedNFT.sol",
  "abi": [
    {
      "inputs": [
        {
          "internalType": "address",
          "name": "defaultAdmin",
          "type": "address"
        },
        {
          "internalType": "address",
          "name": "_reserver",
          "type": "address"
        },
        {
          "internalType": "string",
          "name": "uri",
          "type": "string"
        }
      ],
      "stateMutability": "nonpayable",
      "type": "constructor"
    },
    {
      "inputs": [],
      "name": "AccessControlBadConfirmation",
      "type": "error"
    },
    {
      "inputs": [
        {
          "internalType": "address",
          "name": "account",
          "type": "address"
        },
        {
          "internalType": "bytes32",
          "name": "neededRole",
          "type": "bytes32"
        }
      ],
      "name": "AccessControlUnauthorizedAccount",
      "type": "error"
    },
    {
      "inputs": [
        {
          "internalType": "address",
          "name": "sender",
          "type": "address"
        },
        {
          "internalType": "uint256",
          "name": "balance",
          "type": "uint256"
        },
        {
          "internalType": "uint256",
          "name": "needed",
          "type": "uint256"
        },
        {
          "internalType": "uint256",
          "name": "tokenId",
          "type": "uint256"
        }
      ],
      "name": "ERC1155InsufficientBalance",
      "type": "error"
    },
    {
      "inputs": [
        {
          "internalType": "address",
          "name": "approver",
          "type": "address"
        }
      ],
      "name": "ERC1155InvalidApprover",
      "type": "error"
    },
    {
      "inputs": [
        {
          "internalType": "uint256",
          "name": "idsLength",
          "type": "uint256"
        },
        {
          "internalType": "uint256",
          "name": "valuesLength",
          "type": "uint256"
        }
      ],
      "name": "ERC1155InvalidArrayLength",
      "type": "error"
    },
    {
      "inputs": [
        {
          "internalType": "address",
          "name": "operator",
          "type": "address"
        }
      ],
      "name": "ERC1155InvalidOperator",
      "type": "error"
    },
    {
      "inputs": [
        {
          "internalType": "address",
          "name": "receiver",
          "type": "address"
        }
      ],
      "name": "ERC1155InvalidReceiver",
      "type": "error"
    },
    {
      "inputs": [
        {
          "internalType": "address",
          "name": "sender",
          "type": "address"
        }
      ],
      "name": "ERC1155InvalidSender",
      "type": "error"
    },
    {
      "inputs": [
        {
          "internalType": "address",
          "name": "operator",
          "type": "address"
        },
        {
          "internalType": "address",
          "name": "owner",
          "type": "address"
        }
      ],
      "name": "ERC1155MissingApprovalForAll",
      "type": "error"
    },
    {
      "inputs": [],
      "name": "EnforcedPause",
      "type": "error"
    },
    {
      "inputs": [],
      "name": "ExpectedPause",
      "type": "error"
    },
    {
      "anonymous": false,
      "inputs": [
        {
          "indexed": true,
          "internalType": "uint256",
          "name": "tokenId",
          "type": "uint256"
        },
        {
          "indexed": true,
          "internalType": "address",
          "name": "operator",
          "type": "address"
        },
        {
          "indexed": false,
          "internalType": "uint256",
          "name": "amount",
          "type": "uint256"
        }
      ],
      "name": "AmountApproved",
      "type": "event"
    },
    {
      "anonymous": false,
      "inputs": [
        {
          "indexed": false,
          "internalType": "uint256",
          "name": "tokenId",
          "type": "uint256"
        },
        {
          "indexed": false,
          "internalType": "address",
          "name": "from",
          "type": "address"
        },
        {
          "indexed": false,
          "internalType": "address",
          "name": "to",
          "type": "address"
        },
        {
          "indexed": false,
          "internalType": "uint256",
          "name": "amount",
          "type": "uint256"
        }
      ],
      "name": "AmountTransferred",
      "type": "event"
    },
    {
      "anonymous": false,
      "inputs": [
        {
          "indexed": true,
          "internalType": "address",
          "name": "account",
          "type": "address"
        },
        {
          "indexed": true,
          "internalType": "address",
          "name": "operator",
          "type": "address"
        },
        {
          "indexed": false,
          "internalType": "bool",
          "name": "approved",
          "type": "bool"
        }
      ],
      "name": "ApprovalForAll",
      "type": "event"
    },
    {
      "anonymous": false,
      "inputs": [
        {
          "indexed": true,
          "internalType": "uint256",
          "name": "tokenId",
          "type": "uint256"
        },
        {
          "indexed": false,
          "internalType": "address",
          "name": "account",
          "type": "address"
        }
      ],
      "name": "OwnershipRemoved",
      "type": "event"
    },
    {
      "anonymous": false,
      "inputs": [
        {
          "indexed": false,
          "internalType": "address",
          "name": "account",
          "type": "address"
        }
      ],
      "name": "Paused",
      "type": "event"
    },
    {
      "anonymous": false,
      "inputs": [
        {
          "indexed": true,
          "internalType": "bytes32",
          "name": "role",
          "type": "bytes32"
        },
        {
          "indexed": true,
          "internalType": "bytes32",
          "name": "previousAdminRole",
          "type": "bytes32"
        },
        {
          "indexed": true,
          "internalType": "bytes32",
          "name": "newAdminRole",
          "type": "bytes32"
        }
      ],
      "name": "RoleAdminChanged",
      "type": "event"
    },
    {
      "anonymous": false,
      "inputs": [
        {
          "indexed": true,
          "internalType": "bytes32",
          "name": "role",
          "type": "bytes32"
        },
        {
          "indexed": true,
          "internalType": "address",
          "name": "account",
          "type": "address"
        },
        {
          "indexed": true,
          "internalType": "address",
          "name": "sender",
          "type": "address"
        }
      ],
      "name": "RoleGranted",
      "type": "event"
    },
    {
      "anonymous": false,
      "inputs": [
        {
          "indexed": true,
          "internalType": "bytes32",
          "name": "role",
          "type": "bytes32"
        },
        {
          "indexed": true,
          "internalType": "address",
          "name": "account",
          "type": "address"
        },
        {
          "indexed": true,
          "internalType": "address",
          "name": "sender",
          "type": "address"
        }
      ],
      "name": "RoleRevoked",
      "type": "event"
    },
    {
      "anonymous": false,
      "inputs": [
        {
          "indexed": true,
          "internalType": "uint256",
          "name": "tokenId",
          "type": "uint256"
        },
        {
          "indexed": false,
          "internalType": "address",
          "name": "account",
          "type": "address"
        }
      ],
      "name": "TokenMinted",
      "type": "event"
    },
    {
      "anonymous": false,
      "inputs": [
        {
          "indexed": true,
          "internalType": "address",
          "name": "operator",
          "type": "address"
        },
        {
          "indexed": true,
          "internalType": "address",
          "name": "from",
          "type": "address"
        },
        {
          "indexed": true,
          "internalType": "address",
          "name": "to",
          "type": "address"
        },
        {
          "indexed": false,
          "internalType": "uint256[]",
          "name": "ids",
          "type": "uint256[]"
        },
        {
          "indexed": false,
          "internalType": "uint256[]",
          "name": "values",
          "type": "uint256[]"
        }
      ],
      "name": "TransferBatch",
      "type": "event"
    },
    {
      "anonymous": false,
      "inputs": [
        {
          "indexed": true,
          "internalType": "address",
          "name": "operator",
          "type": "address"
        },
        {
          "indexed": true,
          "internalType": "address",
          "name": "from",
          "type": "address"
        },
        {
          "indexed": true,
          "internalType": "address",
          "name": "to",
          "type": "address"
        },
        {
          "indexed": false,
          "internalType": "uint256",
          "name": "id",
          "type": "uint256"
        },
        {
          "indexed": false,
          "internalType": "uint256",
          "name": "value",
          "type": "uint256"
        }
      ],
      "name": "TransferSingle",
      "type": "event"
    },
    {
      "anonymous": false,
      "inputs": [
        {
          "indexed": false,
          "internalType": "string",
          "name": "value",
          "type": "string"
        },
        {
          "indexed": true,
          "internalType": "uint256",
          "name": "id",
          "type": "uint256"
        }
      ],
      "name": "URI",
      "type": "event"
    },
    {
      "anonymous": false,
      "inputs": [
        {
          "indexed": false,
          "internalType": "address",
          "name": "account",
          "type": "address"
        }
      ],
      "name": "Unpaused",
      "type": "event"
    },
    {
      "inputs": [],
      "name": "DEFAULT_ADMIN_ROLE",
      "outputs": [
        {
          "internalType": "bytes32",
          "name": "",
          "type": "bytes32"
        }
      ],
      "stateMutability": "view",
      "type": "function"
    },
    {
      "inputs": [],
      "name": "MAX_TOKEN_AMOUNT",
      "outputs": [
        {
          "internalType": "uint256",
          "name": "",
          "type": "uint256"
        }
      ],
      "stateMutability": "view",
      "type": "function"
    },
    {
      "inputs": [],
      "name": "MINTER_ROLE",
      "outputs": [
        {
          "internalType": "bytes32",
          "name": "",
          "type": "bytes32"
        }
      ],
      "stateMutability": "view",
      "type": "function"
    },
    {
      "inputs": [],
      "name": "PAUSER_ROLE",
      "outputs": [
        {
          "internalType": "bytes32",
          "name": "",
          "type": "bytes32"
        }
      ],
      "stateMutability": "view",
      "type": "function"
    },
    {
      "inputs": [],
      "name": "URI_SETTER_ROLE",
      "outputs": [
        {
          "internalType": "bytes32",
          "name": "",
          "type": "bytes32"
        }
      ],
      "stateMutability": "view",
      "type": "function"
    },
    {
      "inputs": [
        {
          "internalType": "uint256",
          "name": "tokenId",
          "type": "uint256"
        },
        {
          "internalType": "address",
          "name": "operator",
          "type": "address"
        }
      ],
      "name": "allowance",
      "outputs": [
        {
          "internalType": "uint256",
          "name": "",
          "type": "uint256"
        }
      ],
      "stateMutability": "view",
      "type": "function"
    },
    {
      "inputs": [
        {
          "internalType": "uint256",
          "name": "tokenId",
          "type": "uint256"
        },
        {
          "internalType": "address",
          "name": "operator",
          "type": "address"
        },
        {
          "internalType": "uint256",
          "name": "amount",
          "type": "uint256"
        }
      ],
      "name": "approve",
      "outputs": [],
      "stateMutability": "nonpayable",
      "type": "function"
    },
    {
      "inputs": [
        {
          "internalType": "address",
          "name": "account",
          "type": "address"
        },
        {
          "internalType": "uint256",
          "name": "id",
          "type": "uint256"
        }
      ],
      "name": "balanceOf",
      "outputs": [
        {
          "internalType": "uint256",
          "name": "",
          "type": "uint256"
        }
      ],
      "stateMutability": "view",
      "type": "function"
    },
    {
      "inputs": [
        {
          "internalType": "address[]",
          "name": "accounts",
          "type": "address[]"
        },
        {
          "internalType": "uint256[]",
          "name": "ids",
          "type": "uint256[]"
        }
      ],
      "name": "balanceOfBatch",
      "outputs": [
        {
          "internalType": "uint256[]",
          "name": "",
          "type": "uint256[]"
        }
      ],
      "stateMutability": "view",
      "type": "function"
    },
    {
      "inputs": [
        {
          "internalType": "address",
          "name": "account",
          "type": "address"
        },
        {
          "internalType": "uint256",
          "name": "id",
          "type": "uint256"
        },
        {
          "internalType": "uint256",
          "name": "value",
          "type": "uint256"
        }
      ],
      "name": "burn",
      "outputs": [],
      "stateMutability": "nonpayable",
      "type": "function"
    },
    {
      "inputs": [
        {
          "internalType": "address",
          "name": "account",
          "type": "address"
        },
        {
          "internalType": "uint256[]",
          "name": "ids",
          "type": "uint256[]"
        },
        {
          "internalType": "uint256[]",
          "name": "values",
          "type": "uint256[]"
        }
      ],
      "name": "burnBatch",
      "outputs": [],
      "stateMutability": "nonpayable",
      "type": "function"
    },
    {
      "inputs": [
        {
          "internalType": "uint256",
          "name": "tokenId",
          "type": "uint256"
        }
      ],
      "name": "getMetadata",
      "outputs": [
        {
          "internalType": "string",
          "name": "",
          "type": "string"
        }
      ],
      "stateMutability": "view",
      "type": "function"
    },
    {
      "inputs": [
        {
          "internalType": "address",
          "name": "account",
          "type": "address"
        }
      ],
      "name": "getOwnedTokens",
      "outputs": [
        {
          "internalType": "uint256[]",
          "name": "",
          "type": "uint256[]"
        }
      ],
      "stateMutability": "view",
      "type": "function"
    },
    {
      "inputs": [
        {
          "internalType": "uint256",
          "name": "tokenId",
          "type": "uint256"
        }
      ],
      "name": "getOwners",
      "outputs": [
        {
          "internalType": "address[]",
          "name": "",
          "type": "address[]"
        }
      ],
      "stateMutability": "view",
      "type": "function"
    },
    {
      "inputs": [
        {
          "internalType": "address",
          "name": "account",
          "type": "address"
        },
        {
          "internalType": "uint256",
          "name": "tokenId",
          "type": "uint256"
        }
      ],
      "name": "getOwnershipAmount",
      "outputs": [
        {
          "internalType": "uint256",
          "name": "",
          "type": "uint256"
        }
      ],
      "stateMutability": "view",
      "type": "function"
    },
    {
      "inputs": [
        {
          "internalType": "address",
          "name": "account",
          "type": "address"
        },
        {
          "internalType": "uint256",
          "name": "tokenId",
          "type": "uint256"
        }
      ],
      "name": "getOwnershipPercentage",
      "outputs": [
        {
          "internalType": "uint256",
          "name": "",
          "type": "uint256"
        }
      ],
      "stateMutability": "view",
      "type": "function"
    },
    {
      "inputs": [
        {
          "internalType": "bytes32",
          "name": "role",
          "type": "bytes32"
        }
      ],
      "name": "getRoleAdmin",
      "outputs": [
        {
          "internalType": "bytes32",
          "name": "",
          "type": "bytes32"
        }
      ],
      "stateMutability": "view",
      "type": "function"
    },
    {
      "inputs": [
        {
          "internalType": "bytes32",
          "name": "role",
          "type": "bytes32"
        },
        {
          "internalType": "address",
          "name": "account",
          "type": "address"
        }
      ],
      "name": "grantRole",
      "outputs": [],
      "stateMutability": "nonpayable",
      "type": "function"
    },
    {
      "inputs": [
        {
          "internalType": "bytes32",
          "name": "role",
          "type": "bytes32"
        },
        {
          "internalType": "address",
          "name": "account",
          "type": "address"
        }
      ],
      "name": "hasRole",
      "outputs": [
        {
          "internalType": "bool",
          "name": "",
          "type": "bool"
        }
      ],
      "stateMutability": "view",
      "type": "function"
    },
    {
      "inputs": [
        {
          "internalType": "address",
          "name": "account",
          "type": "address"
        },
        {
          "internalType": "address",
          "name": "operator",
          "type": "address"
        }
      ],
      "name": "isApprovedForAll",
      "outputs": [
        {
          "internalType": "bool",
          "name": "",
          "type": "bool"
        }
      ],
      "stateMutability": "view",
      "type": "function"
    },
    {
      "inputs": [
        {
          "internalType": "address",
          "name": "account",
          "type": "address"
        },
        {
          "internalType": "uint256",
          "name": "tokenId",
          "type": "uint256"
        },
        {
          "internalType": "string",
          "name": "metadata",
          "type": "string"
        },
        {
          "internalType": "bool",
          "name": "reservable",
          "type": "bool"
        },
        {
          "internalType": "bytes",
          "name": "data",
          "type": "bytes"
        }
      ],
      "name": "mint",
      "outputs": [],
      "stateMutability": "nonpayable",
      "type": "function"
    },
    {
      "inputs": [
        {
          "internalType": "address",
          "name": "account",
          "type": "address"
        },
        {
          "internalType": "uint8",
          "name": "count",
          "type": "uint8"
        },
        {
          "internalType": "uint256[]",
          "name": "tokenId",
          "type": "uint256[]"
        },
        {
          "internalType": "string[]",
          "name": "metadata",
          "type": "string[]"
        },
        {
          "internalType": "bool",
          "name": "reservable",
          "type": "bool"
        },
        {
          "internalType": "bytes",
          "name": "data",
          "type": "bytes"
        }
      ],
      "name": "mintBatch",
      "outputs": [],
      "stateMutability": "nonpayable",
      "type": "function"
    },
    {
      "inputs": [],
      "name": "pause",
      "outputs": [],
      "stateMutability": "nonpayable",
      "type": "function"
    },
    {
      "inputs": [],
      "name": "paused",
      "outputs": [
        {
          "internalType": "bool",
          "name": "",
          "type": "bool"
        }
      ],
      "stateMutability": "view",
      "type": "function"
    },
    {
      "inputs": [
        {
          "internalType": "address",
          "name": "operator",
          "type": "address"
        },
        {
          "internalType": "uint256",
          "name": "tokenId",
          "type": "uint256"
        }
      ],
      "name": "removeApproval",
      "outputs": [],
      "stateMutability": "nonpayable",
      "type": "function"
    },
    {
      "inputs": [
        {
          "internalType": "bytes32",
          "name": "role",
          "type": "bytes32"
        },
        {
          "internalType": "address",
          "name": "callerConfirmation",
          "type": "address"
        }
      ],
      "name": "renounceRole",
      "outputs": [],
      "stateMutability": "nonpayable",
      "type": "function"
    },
    {
      "inputs": [
        {
          "internalType": "bytes32",
          "name": "role",
          "type": "bytes32"
        },
        {
          "internalType": "address",
          "name": "account",
          "type": "address"
        }
      ],
      "name": "revokeRole",
      "outputs": [],
      "stateMutability": "nonpayable",
      "type": "function"
    },
    {
      "inputs": [
        {
          "internalType": "address",
          "name": "from",
          "type": "address"
        },
        {
          "internalType": "address",
          "name": "to",
          "type": "address"
        },
        {
          "internalType": "uint256[]",
          "name": "ids",
          "type": "uint256[]"
        },
        {
          "internalType": "uint256[]",
          "name": "values",
          "type": "uint256[]"
        },
        {
          "internalType": "bytes",
          "name": "data",
          "type": "bytes"
        }
      ],
      "name": "safeBatchTransferFrom",
      "outputs": [],
      "stateMutability": "nonpayable",
      "type": "function"
    },
    {
      "inputs": [
        {
          "internalType": "address",
          "name": "from",
          "type": "address"
        },
        {
          "internalType": "address",
          "name": "to",
          "type": "address"
        },
        {
          "internalType": "uint256",
          "name": "id",
          "type": "uint256"
        },
        {
          "internalType": "uint256",
          "name": "value",
          "type": "uint256"
        },
        {
          "internalType": "bytes",
          "name": "data",
          "type": "bytes"
        }
      ],
      "name": "safeTransferFrom",
      "outputs": [],
      "stateMutability": "nonpayable",
      "type": "function"
    },
    {
      "inputs": [
        {
          "internalType": "address",
          "name": "operator",
          "type": "address"
        },
        {
          "internalType": "bool",
          "name": "approved",
          "type": "bool"
        }
      ],
      "name": "setApprovalForAll",
      "outputs": [],
      "stateMutability": "nonpayable",
      "type": "function"
    },
    {
      "inputs": [
        {
          "internalType": "address",
          "name": "_reserver",
          "type": "address"
        }
      ],
      "name": "setReserver",
      "outputs": [],
      "stateMutability": "nonpayable",
      "type": "function"
    },
    {
      "inputs": [
        {
          "internalType": "string",
          "name": "newuri",
          "type": "string"
        }
      ],
      "name": "setURI",
      "outputs": [],
      "stateMutability": "nonpayable",
      "type": "function"
    },
    {
      "inputs": [
        {
          "internalType": "bytes4",
          "name": "interfaceId",
          "type": "bytes4"
        }
      ],
      "name": "supportsInterface",
      "outputs": [
        {
          "internalType": "bool",
          "name": "",
          "type": "bool"
        }
      ],
      "stateMutability": "view",
      "type": "function"
    },
    {
      "inputs": [
        {
          "internalType": "address",
          "name": "from",
          "type": "address"
        },
        {
          "internalType": "address",
          "name": "to",
          "type": "address"
        },
        {
          "internalType": "uint256",
          "name": "tokenId",
          "type": "uint256"
        },
        {
          "internalType": "uint256",
          "name": "amount",
          "type": "uint256"
        },
        {
          "internalType": "bytes",
          "name": "data",
          "type": "bytes"
        }
      ],
      "name": "transfer",
      "outputs": [],
      "stateMutability": "nonpayable",
      "type": "function"
    },
    {
      "inputs": [
        {
          "internalType": "address",
          "name": "from",
          "type": "address"
        },
        {
          "internalType": "address",
          "name": "to",
          "type": "address"
        },
        {
          "internalType": "uint256",
          "name": "tokenId",
          "type": "uint256"
        },
        {
          "internalType": "uint256",
          "name": "amount",
          "type": "uint256"
        },
        {
          "internalType": "bytes",
          "name": "data",
          "type": "bytes"
        }
      ],
      "name": "transferFrom",
      "outputs": [],
      "stateMutability": "nonpayable",
      "type": "function"
    },
    {
      "inputs": [],
      "name": "unpause",
      "outputs": [],
      "stateMutability": "nonpayable",
      "type": "function"
    },
    {
      "inputs": [
        {
          "internalType": "uint256",
          "name": "",
          "type": "uint256"
        }
      ],
      "name": "uri",
      "outputs": [
        {
          "internalType": "string",
          "name": "",
          "type": "string"
        }
      ],
      "stateMutability": "view",
      "type": "function"
    }
  ],
  "bytecode": "0x60806040523480156200001157600080fd5b5060405162005b0838038062005b088339818101604052810190620000379190620004e2565b8062000049816200015e60201b60201c565b506000600460006101000a81548160ff0219169083151502179055506200007a6000801b846200017360201b60201c565b50620000ad7f65d7a28e3265b37a6474929f336521b332c1681b933f6cb9f3376673440d862a846200017360201b60201c565b50620000e07f9f2df0fed2c77648de5860a4cc508cd0818c85b8b8a1ab4ceeef8d981c8956a6846200017360201b60201c565b50620001137f7804d923f43a17d325d77e781528e0793b2edd9890ab45fc64efd7b4b427744c846200017360201b60201c565b5081600460016101000a81548173ffffffffffffffffffffffffffffffffffffffff021916908373ffffffffffffffffffffffffffffffffffffffff1602179055505050506200088f565b80600290816200016f9190620007a8565b5050565b60006200018783836200027760201b60201c565b6200026c5760016003600085815260200190815260200160002060000160008473ffffffffffffffffffffffffffffffffffffffff1673ffffffffffffffffffffffffffffffffffffffff16815260200190815260200160002060006101000a81548160ff02191690831515021790555062000208620002e260201b60201c565b73ffffffffffffffffffffffffffffffffffffffff168273ffffffffffffffffffffffffffffffffffffffff16847f2f8788117e7eff1d82e926ec794901d17c78024a50270940304540a733656f0d60405160405180910390a46001905062000271565b600090505b92915050565b60006003600084815260200190815260200160002060000160008373ffffffffffffffffffffffffffffffffffffffff1673ffffffffffffffffffffffffffffffffffffffff16815260200190815260200160002060009054906101000a900460ff16905092915050565b600033905090565b6000604051905090565b600080fd5b600080fd5b600073ffffffffffffffffffffffffffffffffffffffff82169050919050565b60006200032b82620002fe565b9050919050565b6200033d816200031e565b81146200034957600080fd5b50565b6000815190506200035d8162000332565b92915050565b600080fd5b600080fd5b6000601f19601f8301169050919050565b7f4e487b7100000000000000000000000000000000000000000000000000000000600052604160045260246000fd5b620003b8826200036d565b810181811067ffffffffffffffff82111715620003da57620003d96200037e565b5b80604052505050565b6000620003ef620002ea565b9050620003fd8282620003ad565b919050565b600067ffffffffffffffff82111562000420576200041f6200037e565b5b6200042b826200036d565b9050602081019050919050565b60005b83811015620004585780820151818401526020810190506200043b565b60008484015250505050565b60006200047b620004758462000402565b620003e3565b9050828152602081018484840111156200049a576200049962000368565b5b620004a784828562000438565b509392505050565b600082601f830112620004c757620004c662000363565b5b8151620004d984826020860162000464565b91505092915050565b600080600060608486031215620004fe57620004fd620002f4565b5b60006200050e868287016200034c565b935050602062000521868287016200034c565b925050604084015167ffffffffffffffff811115620005455762000544620002f9565b5b6200055386828701620004af565b9150509250925092565b600081519050919050565b7f4e487b7100000000000000000000000000000000000000000000000000000000600052602260045260246000fd5b60006002820490506001821680620005b057607f821691505b602082108103620005c657620005c562000568565b5b50919050565b60008190508160005260206000209050919050565b60006020601f8301049050919050565b600082821b905092915050565b600060088302620006307fffffffffffffffffffffffffffffffffffffffffffffffffffffffffffffffff82620005f1565b6200063c8683620005f1565b95508019841693508086168417925050509392505050565b6000819050919050565b6000819050919050565b600062000689620006836200067d8462000654565b6200065e565b62000654565b9050919050565b6000819050919050565b620006a58362000668565b620006bd620006b48262000690565b848454620005fe565b825550505050565b600090565b620006d4620006c5565b620006e18184846200069a565b505050565b5b818110156200070957620006fd600082620006ca565b600181019050620006e7565b5050565b601f82111562000758576200072281620005cc565b6200072d84620005e1565b810160208510156200073d578190505b620007556200074c85620005e1565b830182620006e6565b50505b505050565b600082821c905092915050565b60006200077d600019846008026200075d565b1980831691505092915050565b60006200079883836200076a565b9150826002028217905092915050565b620007b3826200055d565b67ffffffffffffffff811115620007cf57620007ce6200037e565b5b620007db825462000597565b620007e88282856200070d565b600060209050601f8311600181146200082057600084156200080b578287015190505b6200081785826200078a565b86555062000887565b601f1984166200083086620005cc565b60005b828110156200085a5784890151825560018201915060208501945060208101905062000833565b868310156200087a578489015162000876601f8916826200076a565b8355505b6001600288020188555050505b505050505050565b615269806200089f6000396000f3fe608060405234801561001057600080fd5b50600436106102265760003560e01c8063829e47e511610130578063d5391393116100b8578063e63ab1e91161007c578063e63ab1e91461066d578063e985e9c51461068b578063ee4525d5146106bb578063f242432a146106eb578063f5298aca1461070757610226565b8063d5391393146105a3578063d547741f146105c1578063d9d61655146105dd578063e345e0bc1461060d578063e62de01b1461063d57610226565b8063a0a124dd116100ff578063a0a124dd14610501578063a217fddf1461051d578063a22cb4651461053b578063a574cea414610557578063b537b2691461058757610226565b8063829e47e51461048f5780638456cb59146104ab5780638cb0a511146104b557806391d14854146104d157610226565b80632fecd4bb116101b35780635c975abb116101825780635c975abb146103ff578063605105f01461041d5780636b20c454146104395780637f34571014610455578063813f3fe91461047357610226565b80632fecd4bb1461037957806336568abe146103a95780633f4ba83a146103c55780634e1273f4146103cf57610226565b8063127217d6116101fa578063127217d6146102d75780631e9c2d67146102f3578063248a9ca3146103115780632eb2c2d6146103415780632f2ff15d1461035d57610226565b8062fdd58e1461022b57806301ffc9a71461025b57806302fe53051461028b5780630e89341c146102a7575b600080fd5b6102456004803603810190610240919061388d565b610723565b60405161025291906138dc565b60405180910390f35b6102756004803603810190610270919061394f565b61077d565b6040516102829190613997565b60405180910390f35b6102a560048036038101906102a09190613af8565b61078f565b005b6102c160048036038101906102bc9190613b41565b6107c6565b6040516102ce9190613bed565b60405180910390f35b6102f160048036038101906102ec9190613cb0565b61085a565b005b6102fb610b49565b60405161030891906138dc565b60405180910390f35b61032b60048036038101906103269190613d7d565b610b4f565b6040516103389190613db9565b60405180910390f35b61035b60048036038101906103569190613e9c565b610b6f565b005b61037760048036038101906103729190613f6b565b610c17565b005b610393600480360381019061038e919061388d565b610c39565b6040516103a091906138dc565b60405180910390f35b6103c360048036038101906103be9190613f6b565b610c94565b005b6103cd610d0f565b005b6103e960048036038101906103e4919061406e565b610d44565b6040516103f691906141a4565b60405180910390f35b610407610e53565b6040516104149190613997565b60405180910390f35b61043760048036038101906104329190613cb0565b610e6a565b005b610453600480360381019061044e91906141c6565b610edb565b005b61045d610f87565b60405161046a9190613db9565b60405180910390f35b61048d60048036038101906104889190614397565b610fab565b005b6104a960048036038101906104a49190614478565b611407565b005b6104b3611688565b005b6104cf60048036038101906104ca919061452b565b6116bd565b005b6104eb60048036038101906104e69190613f6b565b61192a565b6040516104f89190613997565b60405180910390f35b61051b6004803603810190610516919061457e565b611995565b005b6105256119e7565b6040516105329190613db9565b60405180910390f35b610555600480360381019061055091906145ab565b6119ee565b005b610571600480360381019061056c9190613b41565b611a04565b60405161057e9190613bed565b60405180910390f35b6105a1600480360381019061059c919061388d565b611aa9565b005b6105ab611ba8565b6040516105b89190613db9565b60405180910390f35b6105db60048036038101906105d69190613f6b565b611bcc565b005b6105f760048036038101906105f2919061457e565b611bee565b60405161060491906141a4565b60405180910390f35b610627600480360381019061062291906145eb565b611c85565b60405161063491906138dc565b60405180910390f35b6106576004803603810190610652919061388d565b611ce3565b60405161066491906138dc565b60405180910390f35b610675611d57565b6040516106829190613db9565b60405180910390f35b6106a560048036038101906106a0919061462b565b611d7b565b6040516106b29190613997565b60405180910390f35b6106d560048036038101906106d09190613b41565b611e0f565b6040516106e29190614729565b60405180910390f35b61070560048036038101906107009190613cb0565b611eb0565b005b610721600480360381019061071c919061474b565b611f58565b005b600080600083815260200190815260200160002060008473ffffffffffffffffffffffffffffffffffffffff1673ffffffffffffffffffffffffffffffffffffffff16815260200190815260200160002054905092915050565b600061078882612004565b9050919050565b7f7804d923f43a17d325d77e781528e0793b2edd9890ab45fc64efd7b4b427744c6107b98161207e565b6107c282612092565b5050565b6060600280546107d5906147cd565b80601f0160208091040260200160405190810160405280929190818152602001828054610801906147cd565b801561084e5780601f106108235761010080835404028352916020019161084e565b820191906000526020600020905b81548152906001019060200180831161083157829003601f168201915b50505050509050919050565b816006600085815260200190815260200160002060008773ffffffffffffffffffffffffffffffffffffffff1673ffffffffffffffffffffffffffffffffffffffff1681526020019081526020016000205410156108ed576040517f08c379a00000000000000000000000000000000000000000000000000000000081526004016108e49061484a565b60405180910390fd5b816006600085815260200190815260200160002060008773ffffffffffffffffffffffffffffffffffffffff1673ffffffffffffffffffffffffffffffffffffffff168152602001908152602001600020600082825461094d9190614899565b925050819055506109618585858585611eb0565b816006600085815260200190815260200160002060008673ffffffffffffffffffffffffffffffffffffffff1673ffffffffffffffffffffffffffffffffffffffff16815260200190815260200160002060008282546109c191906148cd565b9250508190555060076000848152602001908152602001600020849080600181540180825580915050600190039060005260206000200160009091909190916101000a81548173ffffffffffffffffffffffffffffffffffffffff021916908373ffffffffffffffffffffffffffffffffffffffff160217905550600860008573ffffffffffffffffffffffffffffffffffffffff1673ffffffffffffffffffffffffffffffffffffffff16815260200190815260200160002083908060018154018082558091505060019003906000526020600020016000909190919091505560006006600085815260200190815260200160002060008773ffffffffffffffffffffffffffffffffffffffff1673ffffffffffffffffffffffffffffffffffffffff1681526020019081526020016000205403610b0557610b0483866120a5565b5b7feeb0e676a4fccb21187462c64b95d0e58742fed59dbc3a8795d8e8ff8ccfba1683868685604051610b3a9493929190614910565b60405180910390a15050505050565b61271081565b600060036000838152602001908152602001600020600101549050919050565b6000610b7961243a565b90508073ffffffffffffffffffffffffffffffffffffffff168673ffffffffffffffffffffffffffffffffffffffff1614158015610bbe5750610bbc8682611d7b565b155b15610c025780866040517fe237d922000000000000000000000000000000000000000000000000000000008152600401610bf9929190614955565b60405180910390fd5b610c0f8686868686612442565b505050505050565b610c2082610b4f565b610c298161207e565b610c33838361253a565b50505050565b60006006600083815260200190815260200160002060008473ffffffffffffffffffffffffffffffffffffffff1673ffffffffffffffffffffffffffffffffffffffff16815260200190815260200160002054905092915050565b610c9c61243a565b73ffffffffffffffffffffffffffffffffffffffff168173ffffffffffffffffffffffffffffffffffffffff1614610d00576040517f6697b23200000000000000000000000000000000000000000000000000000000815260040160405180910390fd5b610d0a828261262c565b505050565b7f65d7a28e3265b37a6474929f336521b332c1681b933f6cb9f3376673440d862a610d398161207e565b610d4161271f565b50565b60608151835114610d9057815183516040517f5b059991000000000000000000000000000000000000000000000000000000008152600401610d8792919061497e565b60405180910390fd5b6000835167ffffffffffffffff811115610dad57610dac6139cd565b5b604051908082528060200260200182016040528015610ddb5781602001602082028036833780820191505090505b50905060005b8451811015610e4857610e18610e00828761278290919063ffffffff16565b610e13838761279690919063ffffffff16565b610723565b828281518110610e2b57610e2a6149a7565b5b60200260200101818152505080610e41906149d6565b9050610de1565b508091505092915050565b6000600460009054906101000a900460ff16905090565b6000610e768433611c85565b905082811015610ebb576040517f08c379a0000000000000000000000000000000000000000000000000000000008152600401610eb290614a6a565b60405180910390fd5b610ec63385856127aa565b610ed3868686868661085a565b505050505050565b610ee361243a565b73ffffffffffffffffffffffffffffffffffffffff168373ffffffffffffffffffffffffffffffffffffffff1614158015610f2c5750610f2a83610f2561243a565b611d7b565b155b15610f7757610f3961243a565b836040517fe237d922000000000000000000000000000000000000000000000000000000008152600401610f6e929190614955565b60405180910390fd5b610f8283838361286b565b505050565b7f7804d923f43a17d325d77e781528e0793b2edd9890ab45fc64efd7b4b427744c81565b7f9f2df0fed2c77648de5860a4cc508cd0818c85b8b8a1ab4ceeef8d981c8956a6610fd58161207e565b82156110f95760005b8660ff168160ff1610156110f757600460019054906101000a900473ffffffffffffffffffffffffffffffffffffffff1673ffffffffffffffffffffffffffffffffffffffff16632228adcc878360ff16815181106110405761103f6149a7565b5b60200260200101516040518263ffffffff1660e01b815260040161106491906138dc565b602060405180830381865afa158015611081573d6000803e3d6000fd5b505050506040513d601f19601f820116820180604052508101906110a59190614a9f565b6110e4576040517f08c379a00000000000000000000000000000000000000000000000000000000081526004016110db90614b18565b60405180910390fd5b80806110ef90614b38565b915050610fde565b505b60008660ff1667ffffffffffffffff811115611118576111176139cd565b5b6040519080825280602002602001820160405280156111465781602001602082028036833780820191505090505b50905060005b8760ff168160ff16101561119257612710828260ff1681518110611173576111726149a7565b5b602002602001018181525050808061118a90614b38565b91505061114c565b5061119f888783866128ff565b60005b86518110156113fc578181815181106111be576111bd6149a7565b5b6020026020010151600660008984815181106111dd576111dc6149a7565b5b6020026020010151815260200190815260200160002060008b73ffffffffffffffffffffffffffffffffffffffff1673ffffffffffffffffffffffffffffffffffffffff16815260200190815260200160002081905550600860008a73ffffffffffffffffffffffffffffffffffffffff1673ffffffffffffffffffffffffffffffffffffffff168152602001908152602001600020878281518110611286576112856149a7565b5b60200260200101519080600181540180825580915050600190039060005260206000200160009091909190915055600760008883815181106112cb576112ca6149a7565b5b60200260200101518152602001908152602001600020899080600181540180825580915050600190039060005260206000200160009091909190916101000a81548173ffffffffffffffffffffffffffffffffffffffff021916908373ffffffffffffffffffffffffffffffffffffffff160217905550858181518110611355576113546149a7565b5b602002602001015160056000898481518110611374576113736149a7565b5b6020026020010151815260200190815260200160002090816113969190614d0d565b508681815181106113aa576113a96149a7565b5b60200260200101517f3a5398bda6f1f57d6c96834fa9bf02b5517bdc847d14312015a917ba421c31c98a6040516113e19190614ddf565b60405180910390a280806113f4906149d6565b9150506111a2565b505050505050505050565b81156114e957600460019054906101000a900473ffffffffffffffffffffffffffffffffffffffff1673ffffffffffffffffffffffffffffffffffffffff16632228adcc856040518263ffffffff1660e01b815260040161146891906138dc565b602060405180830381865afa158015611485573d6000803e3d6000fd5b505050506040513d601f19601f820116820180604052508101906114a99190614a9f565b6114e8576040517f08c379a00000000000000000000000000000000000000000000000000000000081526004016114df90614b18565b60405180910390fd5b5b6114f7858561271084612985565b826005600086815260200190815260200160002090816115179190614d0d565b506127106006600086815260200190815260200160002060008773ffffffffffffffffffffffffffffffffffffffff1673ffffffffffffffffffffffffffffffffffffffff1681526020019081526020016000208190555060076000858152602001908152602001600020859080600181540180825580915050600190039060005260206000200160009091909190916101000a81548173ffffffffffffffffffffffffffffffffffffffff021916908373ffffffffffffffffffffffffffffffffffffffff160217905550600860008673ffffffffffffffffffffffffffffffffffffffff1673ffffffffffffffffffffffffffffffffffffffff168152602001908152602001600020849080600181540180825580915050600190039060005260206000200160009091909190915055837f3a5398bda6f1f57d6c96834fa9bf02b5517bdc847d14312015a917ba421c31c9866040516116799190614ddf565b60405180910390a25050505050565b7f65d7a28e3265b37a6474929f336521b332c1681b933f6cb9f3376673440d862a6116b28161207e565b6116ba612a1e565b50565b806006600085815260200190815260200160002060003373ffffffffffffffffffffffffffffffffffffffff1673ffffffffffffffffffffffffffffffffffffffff168152602001908152602001600020541015611750576040517f08c379a000000000000000000000000000000000000000000000000000000000815260040161174790614a6a565b60405180910390fd5b8173ffffffffffffffffffffffffffffffffffffffff163373ffffffffffffffffffffffffffffffffffffffff16036117be576040517f08c379a00000000000000000000000000000000000000000000000000000000081526004016117b590614e46565b60405180910390fd5b6117c98260016119ee565b600060096000858152602001908152602001600020905060008160010160008573ffffffffffffffffffffffffffffffffffffffff1673ffffffffffffffffffffffffffffffffffffffff168152602001908152602001600020540361188f5780600001839080600181540180825580915050600190039060005260206000200160009091909190916101000a81548173ffffffffffffffffffffffffffffffffffffffff021916908373ffffffffffffffffffffffffffffffffffffffff1602179055505b818160010160008573ffffffffffffffffffffffffffffffffffffffff1673ffffffffffffffffffffffffffffffffffffffff168152602001908152602001600020819055508273ffffffffffffffffffffffffffffffffffffffff16847f7a5c69a7c393db8f307d6fea9c8addb8c18644d1172a623792a4017298a1a5828460405161191c91906138dc565b60405180910390a350505050565b60006003600084815260200190815260200160002060000160008373ffffffffffffffffffffffffffffffffffffffff1673ffffffffffffffffffffffffffffffffffffffff16815260200190815260200160002060009054906101000a900460ff16905092915050565b6000801b6119a28161207e565b81600460016101000a81548173ffffffffffffffffffffffffffffffffffffffff021916908373ffffffffffffffffffffffffffffffffffffffff1602179055505050565b6000801b81565b611a006119f961243a565b8383612a81565b5050565b6060600560008381526020019081526020016000208054611a24906147cd565b80601f0160208091040260200160405190810160405280929190818152602001828054611a50906147cd565b8015611a9d5780601f10611a7257610100808354040283529160200191611a9d565b820191906000526020600020905b815481529060010190602001808311611a8057829003601f168201915b50505050509050919050565b60006006600083815260200190815260200160002060003373ffffffffffffffffffffffffffffffffffffffff1673ffffffffffffffffffffffffffffffffffffffff1681526020019081526020016000205411611b3c576040517f08c379a0000000000000000000000000000000000000000000000000000000008152600401611b3390614ed8565b60405180910390fd5b6000611b488284611c85565b905060008111611b8d576040517f08c379a0000000000000000000000000000000000000000000000000000000008152600401611b8490614f44565b60405180910390fd5b611b988383836127aa565b611ba38360006119ee565b505050565b7f9f2df0fed2c77648de5860a4cc508cd0818c85b8b8a1ab4ceeef8d981c8956a681565b611bd582610b4f565b611bde8161207e565b611be8838361262c565b50505050565b6060600860008373ffffffffffffffffffffffffffffffffffffffff1673ffffffffffffffffffffffffffffffffffffffff168152602001908152602001600020805480602002602001604051908101604052809291908181526020018280548015611c7957602002820191906000526020600020905b815481526020019060010190808311611c65575b50505050509050919050565b60006009600084815260200190815260200160002060010160008373ffffffffffffffffffffffffffffffffffffffff1673ffffffffffffffffffffffffffffffffffffffff16815260200190815260200160002054905092915050565b600061271060646006600085815260200190815260200160002060008673ffffffffffffffffffffffffffffffffffffffff1673ffffffffffffffffffffffffffffffffffffffff16815260200190815260200160002054611d459190614f64565b611d4f9190614fd5565b905092915050565b7f65d7a28e3265b37a6474929f336521b332c1681b933f6cb9f3376673440d862a81565b6000600160008473ffffffffffffffffffffffffffffffffffffffff1673ffffffffffffffffffffffffffffffffffffffff16815260200190815260200160002060008373ffffffffffffffffffffffffffffffffffffffff1673ffffffffffffffffffffffffffffffffffffffff16815260200190815260200160002060009054906101000a900460ff16905092915050565b606060076000838152602001908152602001600020805480602002602001604051908101604052809291908181526020018280548015611ea457602002820191906000526020600020905b8160009054906101000a900473ffffffffffffffffffffffffffffffffffffffff1673ffffffffffffffffffffffffffffffffffffffff1681526020019060010190808311611e5a575b50505050509050919050565b6000611eba61243a565b90508073ffffffffffffffffffffffffffffffffffffffff168673ffffffffffffffffffffffffffffffffffffffff1614158015611eff5750611efd8682611d7b565b155b15611f435780866040517fe237d922000000000000000000000000000000000000000000000000000000008152600401611f3a929190614955565b60405180910390fd5b611f508686868686612bf1565b505050505050565b611f6061243a565b73ffffffffffffffffffffffffffffffffffffffff168373ffffffffffffffffffffffffffffffffffffffff1614158015611fa95750611fa783611fa261243a565b611d7b565b155b15611ff457611fb661243a565b836040517fe237d922000000000000000000000000000000000000000000000000000000008152600401611feb929190614955565b60405180910390fd5b611fff838383612cfc565b505050565b60007f7965db0b000000000000000000000000000000000000000000000000000000007bffffffffffffffffffffffffffffffffffffffffffffffffffffffff1916827bffffffffffffffffffffffffffffffffffffffffffffffffffffffff19161480612077575061207682612da3565b5b9050919050565b61208f8161208a61243a565b612e85565b50565b80600290816120a19190614d0d565b5050565b600060076000848152602001908152602001600020905060008180549050905060005b6001826120d59190614899565b811015612217578373ffffffffffffffffffffffffffffffffffffffff16838281548110612106576121056149a7565b5b9060005260206000200160009054906101000a900473ffffffffffffffffffffffffffffffffffffffff1673ffffffffffffffffffffffffffffffffffffffff1603612204578260018361215a9190614899565b8154811061216b5761216a6149a7565b5b9060005260206000200160009054906101000a900473ffffffffffffffffffffffffffffffffffffffff166007600087815260200190815260200160002082815481106121bb576121ba6149a7565b5b9060005260206000200160006101000a81548173ffffffffffffffffffffffffffffffffffffffff021916908373ffffffffffffffffffffffffffffffffffffffff1602179055505b808061220f906149d6565b9150506120c8565b506007600085815260200190815260200160002080548061223b5761223a615006565b5b6001900381819060005260206000200160006101000a81549073ffffffffffffffffffffffffffffffffffffffff021916905590556000600860008573ffffffffffffffffffffffffffffffffffffffff1673ffffffffffffffffffffffffffffffffffffffff168152602001908152602001600020905060008180549050905060005b6001826122cc9190614899565b81101561239457868382815481106122e7576122e66149a7565b5b90600052602060002001540361238157826001836123059190614899565b81548110612316576123156149a7565b5b9060005260206000200154600860008873ffffffffffffffffffffffffffffffffffffffff1673ffffffffffffffffffffffffffffffffffffffff1681526020019081526020016000208281548110612372576123716149a7565b5b90600052602060002001819055505b808061238c906149d6565b9150506122bf565b50600860008673ffffffffffffffffffffffffffffffffffffffff1673ffffffffffffffffffffffffffffffffffffffff1681526020019081526020016000208054806123e4576123e3615006565b5b60019003818190600052602060002001600090559055857fb313f5a88a5d21dd54119393bab2baac6503d2bc1368bd7af3281737aefe94478660405161242a9190614ddf565b60405180910390a2505050505050565b600033905090565b600073ffffffffffffffffffffffffffffffffffffffff168473ffffffffffffffffffffffffffffffffffffffff16036124b45760006040517f57f447ce0000000000000000000000000000000000000000000000000000000081526004016124ab9190614ddf565b60405180910390fd5b600073ffffffffffffffffffffffffffffffffffffffff168573ffffffffffffffffffffffffffffffffffffffff16036125265760006040517f01a8351400000000000000000000000000000000000000000000000000000000815260040161251d9190614ddf565b60405180910390fd5b6125338585858585612ed6565b5050505050565b6000612546838361192a565b6126215760016003600085815260200190815260200160002060000160008473ffffffffffffffffffffffffffffffffffffffff1673ffffffffffffffffffffffffffffffffffffffff16815260200190815260200160002060006101000a81548160ff0219169083151502179055506125be61243a565b73ffffffffffffffffffffffffffffffffffffffff168273ffffffffffffffffffffffffffffffffffffffff16847f2f8788117e7eff1d82e926ec794901d17c78024a50270940304540a733656f0d60405160405180910390a460019050612626565b600090505b92915050565b6000612638838361192a565b156127145760006003600085815260200190815260200160002060000160008473ffffffffffffffffffffffffffffffffffffffff1673ffffffffffffffffffffffffffffffffffffffff16815260200190815260200160002060006101000a81548160ff0219169083151502179055506126b161243a565b73ffffffffffffffffffffffffffffffffffffffff168273ffffffffffffffffffffffffffffffffffffffff16847ff6391f5c32d9c69d2a47ea670b442974b53935d1edc7fd64eb21e047a839171b60405160405180910390a460019050612719565b600090505b92915050565b612727612f88565b6000600460006101000a81548160ff0219169083151502179055507f5db9ee0a495bf2e6ff9c91a7834c1ba4fdd244a5e8aa4e537bd38aeae4b073aa61276b61243a565b6040516127789190614ddf565b60405180910390a1565b600060208202602084010151905092915050565b600060208202602084010151905092915050565b60006127b68385611c85565b9050818110156127fb576040517f08c379a00000000000000000000000000000000000000000000000000000000081526004016127f290614a6a565b60405180910390fd5b816009600085815260200190815260200160002060010160008673ffffffffffffffffffffffffffffffffffffffff1673ffffffffffffffffffffffffffffffffffffffff168152602001908152602001600020600082825461285e9190614899565b9250508190555050505050565b600073ffffffffffffffffffffffffffffffffffffffff168373ffffffffffffffffffffffffffffffffffffffff16036128dd5760006040517f01a835140000000000000000000000000000000000000000000000000000000081526004016128d49190614ddf565b60405180910390fd5b6128fa836000848460405180602001604052806000815250612ed6565b505050565b600073ffffffffffffffffffffffffffffffffffffffff168473ffffffffffffffffffffffffffffffffffffffff16036129715760006040517f57f447ce0000000000000000000000000000000000000000000000000000000081526004016129689190614ddf565b60405180910390fd5b61297f600085858585612ed6565b50505050565b600073ffffffffffffffffffffffffffffffffffffffff168473ffffffffffffffffffffffffffffffffffffffff16036129f75760006040517f57f447ce0000000000000000000000000000000000000000000000000000000081526004016129ee9190614ddf565b60405180910390fd5b600080612a048585612fc8565b91509150612a16600087848487612ed6565b505050505050565b612a26612ff8565b6001600460006101000a81548160ff0219169083151502179055507f62e78cea01bee320cd4e420270b5ea74000d11b0c9f74754ebdbfc544b05a258612a6a61243a565b604051612a779190614ddf565b60405180910390a1565b600073ffffffffffffffffffffffffffffffffffffffff168273ffffffffffffffffffffffffffffffffffffffff1603612af35760006040517fced3e100000000000000000000000000000000000000000000000000000000008152600401612aea9190614ddf565b60405180910390fd5b80600160008573ffffffffffffffffffffffffffffffffffffffff1673ffffffffffffffffffffffffffffffffffffffff16815260200190815260200160002060008473ffffffffffffffffffffffffffffffffffffffff1673ffffffffffffffffffffffffffffffffffffffff16815260200190815260200160002060006101000a81548160ff0219169083151502179055508173ffffffffffffffffffffffffffffffffffffffff168373ffffffffffffffffffffffffffffffffffffffff167f17307eab39ab6107e8899845ad3d59bd9653f200f220920489ca2b5937696c3183604051612be49190613997565b60405180910390a3505050565b600073ffffffffffffffffffffffffffffffffffffffff168473ffffffffffffffffffffffffffffffffffffffff1603612c635760006040517f57f447ce000000000000000000000000000000000000000000000000000000008152600401612c5a9190614ddf565b60405180910390fd5b600073ffffffffffffffffffffffffffffffffffffffff168573ffffffffffffffffffffffffffffffffffffffff1603612cd55760006040517f01a83514000000000000000000000000000000000000000000000000000000008152600401612ccc9190614ddf565b60405180910390fd5b600080612ce28585612fc8565b91509150612cf38787848487612ed6565b50505050505050565b600073ffffffffffffffffffffffffffffffffffffffff168373ffffffffffffffffffffffffffffffffffffffff1603612d6e5760006040517f01a83514000000000000000000000000000000000000000000000000000000008152600401612d659190614ddf565b60405180910390fd5b600080612d7b8484612fc8565b91509150612d9c856000848460405180602001604052806000815250612ed6565b5050505050565b60007fd9b67a26000000000000000000000000000000000000000000000000000000007bffffffffffffffffffffffffffffffffffffffffffffffffffffffff1916827bffffffffffffffffffffffffffffffffffffffffffffffffffffffff19161480612e6e57507f0e89341c000000000000000000000000000000000000000000000000000000007bffffffffffffffffffffffffffffffffffffffffffffffffffffffff1916827bffffffffffffffffffffffffffffffffffffffffffffffffffffffff1916145b80612e7e5750612e7d82613039565b5b9050919050565b612e8f828261192a565b612ed25780826040517fe2517d3f000000000000000000000000000000000000000000000000000000008152600401612ec9929190615035565b60405180910390fd5b5050565b612ee2858585856130a3565b600073ffffffffffffffffffffffffffffffffffffffff168473ffffffffffffffffffffffffffffffffffffffff1614612f81576000612f2061243a565b90506001845103612f70576000612f4160008661279690919063ffffffff16565b90506000612f5960008661279690919063ffffffff16565b9050612f698389898585896130b5565b5050612f7f565b612f7e818787878787613269565b5b505b5050505050565b612f90610e53565b612fc6576040517f8dfc202b00000000000000000000000000000000000000000000000000000000815260040160405180910390fd5b565b60608060405191506001825283602083015260408201905060018152826020820152604081016040529250929050565b613000610e53565b15613037576040517fd93c066500000000000000000000000000000000000000000000000000000000815260040160405180910390fd5b565b60007f01ffc9a7000000000000000000000000000000000000000000000000000000007bffffffffffffffffffffffffffffffffffffffffffffffffffffffff1916827bffffffffffffffffffffffffffffffffffffffffffffffffffffffff1916149050919050565b6130af8484848461341d565b50505050565b60008473ffffffffffffffffffffffffffffffffffffffff163b1115613261578373ffffffffffffffffffffffffffffffffffffffff1663f23a6e6187878686866040518663ffffffff1660e01b81526004016131169594939291906150b3565b6020604051808303816000875af192505050801561315257506040513d601f19601f8201168201806040525081019061314f9190615122565b60015b6131d6573d8060008114613182576040519150601f19603f3d011682016040523d82523d6000602084013e613187565b606091505b5060008151036131ce57846040517f57f447ce0000000000000000000000000000000000000000000000000000000081526004016131c59190614ddf565b60405180910390fd5b805181602001fd5b63f23a6e6160e01b7bffffffffffffffffffffffffffffffffffffffffffffffffffffffff1916817bffffffffffffffffffffffffffffffffffffffffffffffffffffffff19161461325f57846040517f57f447ce0000000000000000000000000000000000000000000000000000000081526004016132569190614ddf565b60405180910390fd5b505b505050505050565b60008473ffffffffffffffffffffffffffffffffffffffff163b1115613415578373ffffffffffffffffffffffffffffffffffffffff1663bc197c8187878686866040518663ffffffff1660e01b81526004016132ca95949392919061514f565b6020604051808303816000875af192505050801561330657506040513d601f19601f820116820180604052508101906133039190615122565b60015b61338a573d8060008114613336576040519150601f19603f3d011682016040523d82523d6000602084013e61333b565b606091505b50600081510361338257846040517f57f447ce0000000000000000000000000000000000000000000000000000000081526004016133799190614ddf565b60405180910390fd5b805181602001fd5b63bc197c8160e01b7bffffffffffffffffffffffffffffffffffffffffffffffffffffffff1916817bffffffffffffffffffffffffffffffffffffffffffffffffffffffff19161461341357846040517f57f447ce00000000000000000000000000000000000000000000000000000000815260040161340a9190614ddf565b60405180910390fd5b505b505050505050565b613425612ff8565b61343184848484613437565b50505050565b805182511461348157815181516040517f5b05999100000000000000000000000000000000000000000000000000000000815260040161347892919061497e565b60405180910390fd5b600061348b61243a565b905060005b83518110156136a05760006134ae828661279690919063ffffffff16565b905060006134c5838661279690919063ffffffff16565b9050600073ffffffffffffffffffffffffffffffffffffffff168873ffffffffffffffffffffffffffffffffffffffff16146135f257600080600084815260200190815260200160002060008a73ffffffffffffffffffffffffffffffffffffffff1673ffffffffffffffffffffffffffffffffffffffff1681526020019081526020016000205490508181101561359a57888183856040517f03dee4c500000000000000000000000000000000000000000000000000000000815260040161359194939291906151b7565b60405180910390fd5b81810360008085815260200190815260200160002060008b73ffffffffffffffffffffffffffffffffffffffff1673ffffffffffffffffffffffffffffffffffffffff16815260200190815260200160002081905550505b600073ffffffffffffffffffffffffffffffffffffffff168773ffffffffffffffffffffffffffffffffffffffff161461368d578060008084815260200190815260200160002060008973ffffffffffffffffffffffffffffffffffffffff1673ffffffffffffffffffffffffffffffffffffffff168152602001908152602001600020600082825461368591906148cd565b925050819055505b505080613699906149d6565b9050613490565b50600183510361375f5760006136c060008561279690919063ffffffff16565b905060006136d860008561279690919063ffffffff16565b90508573ffffffffffffffffffffffffffffffffffffffff168773ffffffffffffffffffffffffffffffffffffffff168473ffffffffffffffffffffffffffffffffffffffff167fc3d58168c5ae7397731d063d5bbf3d657854427343f4c083240f7aacaa2d0f62858560405161375092919061497e565b60405180910390a450506137de565b8373ffffffffffffffffffffffffffffffffffffffff168573ffffffffffffffffffffffffffffffffffffffff168273ffffffffffffffffffffffffffffffffffffffff167f4a39dc06d4c0dbc64b70af90fd698a233a518aa5d07e595d983b8c0526c8f7fb86866040516137d59291906151fc565b60405180910390a45b5050505050565b6000604051905090565b600080fd5b600080fd5b600073ffffffffffffffffffffffffffffffffffffffff82169050919050565b6000613824826137f9565b9050919050565b61383481613819565b811461383f57600080fd5b50565b6000813590506138518161382b565b92915050565b6000819050919050565b61386a81613857565b811461387557600080fd5b50565b60008135905061388781613861565b92915050565b600080604083850312156138a4576138a36137ef565b5b60006138b285828601613842565b92505060206138c385828601613878565b9150509250929050565b6138d681613857565b82525050565b60006020820190506138f160008301846138cd565b92915050565b60007fffffffff0000000000000000000000000000000000000000000000000000000082169050919050565b61392c816138f7565b811461393757600080fd5b50565b60008135905061394981613923565b92915050565b600060208284031215613965576139646137ef565b5b60006139738482850161393a565b91505092915050565b60008115159050919050565b6139918161397c565b82525050565b60006020820190506139ac6000830184613988565b92915050565b600080fd5b600080fd5b6000601f19601f8301169050919050565b7f4e487b7100000000000000000000000000000000000000000000000000000000600052604160045260246000fd5b613a05826139bc565b810181811067ffffffffffffffff82111715613a2457613a236139cd565b5b80604052505050565b6000613a376137e5565b9050613a4382826139fc565b919050565b600067ffffffffffffffff821115613a6357613a626139cd565b5b613a6c826139bc565b9050602081019050919050565b82818337600083830152505050565b6000613a9b613a9684613a48565b613a2d565b905082815260208101848484011115613ab757613ab66139b7565b5b613ac2848285613a79565b509392505050565b600082601f830112613adf57613ade6139b2565b5b8135613aef848260208601613a88565b91505092915050565b600060208284031215613b0e57613b0d6137ef565b5b600082013567ffffffffffffffff811115613b2c57613b2b6137f4565b5b613b3884828501613aca565b91505092915050565b600060208284031215613b5757613b566137ef565b5b6000613b6584828501613878565b91505092915050565b600081519050919050565b600082825260208201905092915050565b60005b83811015613ba8578082015181840152602081019050613b8d565b60008484015250505050565b6000613bbf82613b6e565b613bc98185613b79565b9350613bd9818560208601613b8a565b613be2816139bc565b840191505092915050565b60006020820190508181036000830152613c078184613bb4565b905092915050565b600067ffffffffffffffff821115613c2a57613c296139cd565b5b613c33826139bc565b9050602081019050919050565b6000613c53613c4e84613c0f565b613a2d565b905082815260208101848484011115613c6f57613c6e6139b7565b5b613c7a848285613a79565b509392505050565b600082601f830112613c9757613c966139b2565b5b8135613ca7848260208601613c40565b91505092915050565b600080600080600060a08688031215613ccc57613ccb6137ef565b5b6000613cda88828901613842565b9550506020613ceb88828901613842565b9450506040613cfc88828901613878565b9350506060613d0d88828901613878565b925050608086013567ffffffffffffffff811115613d2e57613d2d6137f4565b5b613d3a88828901613c82565b9150509295509295909350565b6000819050919050565b613d5a81613d47565b8114613d6557600080fd5b50565b600081359050613d7781613d51565b92915050565b600060208284031215613d9357613d926137ef565b5b6000613da184828501613d68565b91505092915050565b613db381613d47565b82525050565b6000602082019050613dce6000830184613daa565b92915050565b600067ffffffffffffffff821115613def57613dee6139cd565b5b602082029050602081019050919050565b600080fd5b6000613e18613e1384613dd4565b613a2d565b90508083825260208201905060208402830185811115613e3b57613e3a613e00565b5b835b81811015613e645780613e508882613878565b845260208401935050602081019050613e3d565b5050509392505050565b600082601f830112613e8357613e826139b2565b5b8135613e93848260208601613e05565b91505092915050565b600080600080600060a08688031215613eb857613eb76137ef565b5b6000613ec688828901613842565b9550506020613ed788828901613842565b945050604086013567ffffffffffffffff811115613ef857613ef76137f4565b5b613f0488828901613e6e565b935050606086013567ffffffffffffffff811115613f2557613f246137f4565b5b613f3188828901613e6e565b925050608086013567ffffffffffffffff811115613f5257613f516137f4565b5b613f5e88828901613c82565b9150509295509295909350565b60008060408385031215613f8257613f816137ef565b5b6000613f9085828601613d68565b9250506020613fa185828601613842565b9150509250929050565b600067ffffffffffffffff821115613fc657613fc56139cd565b5b602082029050602081019050919050565b6000613fea613fe584613fab565b613a2d565b9050808382526020820190506020840283018581111561400d5761400c613e00565b5b835b8181101561403657806140228882613842565b84526020840193505060208101905061400f565b5050509392505050565b600082601f830112614055576140546139b2565b5b8135614065848260208601613fd7565b91505092915050565b60008060408385031215614085576140846137ef565b5b600083013567ffffffffffffffff8111156140a3576140a26137f4565b5b6140af85828601614040565b925050602083013567ffffffffffffffff8111156140d0576140cf6137f4565b5b6140dc85828601613e6e565b9150509250929050565b600081519050919050565b600082825260208201905092915050565b6000819050602082019050919050565b61411b81613857565b82525050565b600061412d8383614112565b60208301905092915050565b6000602082019050919050565b6000614151826140e6565b61415b81856140f1565b935061416683614102565b8060005b8381101561419757815161417e8882614121565b975061418983614139565b92505060018101905061416a565b5085935050505092915050565b600060208201905081810360008301526141be8184614146565b905092915050565b6000806000606084860312156141df576141de6137ef565b5b60006141ed86828701613842565b935050602084013567ffffffffffffffff81111561420e5761420d6137f4565b5b61421a86828701613e6e565b925050604084013567ffffffffffffffff81111561423b5761423a6137f4565b5b61424786828701613e6e565b9150509250925092565b600060ff82169050919050565b61426781614251565b811461427257600080fd5b50565b6000813590506142848161425e565b92915050565b600067ffffffffffffffff8211156142a5576142a46139cd565b5b602082029050602081019050919050565b60006142c96142c48461428a565b613a2d565b905080838252602082019050602084028301858111156142ec576142eb613e00565b5b835b8181101561433357803567ffffffffffffffff811115614311576143106139b2565b5b80860161431e8982613aca565b855260208501945050506020810190506142ee565b5050509392505050565b600082601f830112614352576143516139b2565b5b81356143628482602086016142b6565b91505092915050565b6143748161397c565b811461437f57600080fd5b50565b6000813590506143918161436b565b92915050565b60008060008060008060c087890312156143b4576143b36137ef565b5b60006143c289828a01613842565b96505060206143d389828a01614275565b955050604087013567ffffffffffffffff8111156143f4576143f36137f4565b5b61440089828a01613e6e565b945050606087013567ffffffffffffffff811115614421576144206137f4565b5b61442d89828a0161433d565b935050608061443e89828a01614382565b92505060a087013567ffffffffffffffff81111561445f5761445e6137f4565b5b61446b89828a01613c82565b9150509295509295509295565b600080600080600060a08688031215614494576144936137ef565b5b60006144a288828901613842565b95505060206144b388828901613878565b945050604086013567ffffffffffffffff8111156144d4576144d36137f4565b5b6144e088828901613aca565b93505060606144f188828901614382565b925050608086013567ffffffffffffffff811115614512576145116137f4565b5b61451e88828901613c82565b9150509295509295909350565b600080600060608486031215614544576145436137ef565b5b600061455286828701613878565b935050602061456386828701613842565b925050604061457486828701613878565b9150509250925092565b600060208284031215614594576145936137ef565b5b60006145a284828501613842565b91505092915050565b600080604083850312156145c2576145c16137ef565b5b60006145d085828601613842565b92505060206145e185828601614382565b9150509250929050565b60008060408385031215614602576146016137ef565b5b600061461085828601613878565b925050602061462185828601613842565b9150509250929050565b60008060408385031215614642576146416137ef565b5b600061465085828601613842565b925050602061466185828601613842565b9150509250929050565b600081519050919050565b600082825260208201905092915050565b6000819050602082019050919050565b6146a081613819565b82525050565b60006146b28383614697565b60208301905092915050565b6000602082019050919050565b60006146d68261466b565b6146e08185614676565b93506146eb83614687565b8060005b8381101561471c57815161470388826146a6565b975061470e836146be565b9250506001810190506146ef565b5085935050505092915050565b6000602082019050818103600083015261474381846146cb565b905092915050565b600080600060608486031215614764576147636137ef565b5b600061477286828701613842565b935050602061478386828701613878565b925050604061479486828701613878565b9150509250925092565b7f4e487b7100000000000000000000000000000000000000000000000000000000600052602260045260246000fd5b600060028204905060018216806147e557607f821691505b6020821081036147f8576147f761479e565b5b50919050565b7f496e73756666696369656e74206f776e6572736869702062616c616e63650000600082015250565b6000614834601e83613b79565b915061483f826147fe565b602082019050919050565b6000602082019050818103600083015261486381614827565b9050919050565b7f4e487b7100000000000000000000000000000000000000000000000000000000600052601160045260246000fd5b60006148a482613857565b91506148af83613857565b92508282039050818111156148c7576148c661486a565b5b92915050565b60006148d882613857565b91506148e383613857565b92508282019050808211156148fb576148fa61486a565b5b92915050565b61490a81613819565b82525050565b600060808201905061492560008301876138cd565b6149326020830186614901565b61493f6040830185614901565b61494c60608301846138cd565b95945050505050565b600060408201905061496a6000830185614901565b6149776020830184614901565b9392505050565b600060408201905061499360008301856138cd565b6149a060208301846138cd565b9392505050565b7f4e487b7100000000000000000000000000000000000000000000000000000000600052603260045260246000fd5b60006149e182613857565b91507fffffffffffffffffffffffffffffffffffffffffffffffffffffffffffffffff8203614a1357614a1261486a565b5b600182019050919050565b7f496e73756666696369656e7420616c6c6f77616e636500000000000000000000600082015250565b6000614a54601683613b79565b9150614a5f82614a1e565b602082019050919050565b60006020820190508181036000830152614a8381614a47565b9050919050565b600081519050614a998161436b565b92915050565b600060208284031215614ab557614ab46137ef565b5b6000614ac384828501614a8a565b91505092915050565b7f4173736574206973206e6f742072657365727665642079657400000000000000600082015250565b6000614b02601983613b79565b9150614b0d82614acc565b602082019050919050565b60006020820190508181036000830152614b3181614af5565b9050919050565b6000614b4382614251565b915060ff8203614b5657614b5561486a565b5b600182019050919050565b60008190508160005260206000209050919050565b60006020601f8301049050919050565b600082821b905092915050565b600060088302614bc37fffffffffffffffffffffffffffffffffffffffffffffffffffffffffffffffff82614b86565b614bcd8683614b86565b95508019841693508086168417925050509392505050565b6000819050919050565b6000614c0a614c05614c0084613857565b614be5565b613857565b9050919050565b6000819050919050565b614c2483614bef565b614c38614c3082614c11565b848454614b93565b825550505050565b600090565b614c4d614c40565b614c58818484614c1b565b505050565b5b81811015614c7c57614c71600082614c45565b600181019050614c5e565b5050565b601f821115614cc157614c9281614b61565b614c9b84614b76565b81016020851015614caa578190505b614cbe614cb685614b76565b830182614c5d565b50505b505050565b600082821c905092915050565b6000614ce460001984600802614cc6565b1980831691505092915050565b6000614cfd8383614cd3565b9150826002028217905092915050565b614d1682613b6e565b67ffffffffffffffff811115614d2f57614d2e6139cd565b5b614d3982546147cd565b614d44828285614c80565b600060209050601f831160018114614d775760008415614d65578287015190505b614d6f8582614cf1565b865550614dd7565b601f198416614d8586614b61565b60005b82811015614dad57848901518255600182019150602085019450602081019050614d88565b86831015614dca5784890151614dc6601f891682614cd3565b8355505b6001600288020188555050505b505050505050565b6000602082019050614df46000830184614901565b92915050565b7f417070726f76616c20746f2063757272656e74206f776e657200000000000000600082015250565b6000614e30601983613b79565b9150614e3b82614dfa565b602082019050919050565b60006020820190508181036000830152614e5f81614e23565b9050919050565b7f496e76616c6964206f776e65727368697020616d6f756e7420746f2072656d6f60008201527f766520617070726f76616c000000000000000000000000000000000000000000602082015250565b6000614ec2602b83613b79565b9150614ecd82614e66565b604082019050919050565b60006020820190508181036000830152614ef181614eb5565b9050919050565b7f496e73756666696369656e74206f70657261746f7220616c6c6f77616e636500600082015250565b6000614f2e601f83613b79565b9150614f3982614ef8565b602082019050919050565b60006020820190508181036000830152614f5d81614f21565b9050919050565b6000614f6f82613857565b9150614f7a83613857565b9250828202614f8881613857565b91508282048414831517614f9f57614f9e61486a565b5b5092915050565b7f4e487b7100000000000000000000000000000000000000000000000000000000600052601260045260246000fd5b6000614fe082613857565b9150614feb83613857565b925082614ffb57614ffa614fa6565b5b828204905092915050565b7f4e487b7100000000000000000000000000000000000000000000000000000000600052603160045260246000fd5b600060408201905061504a6000830185614901565b6150576020830184613daa565b9392505050565b600081519050919050565b600082825260208201905092915050565b60006150858261505e565b61508f8185615069565b935061509f818560208601613b8a565b6150a8816139bc565b840191505092915050565b600060a0820190506150c86000830188614901565b6150d56020830187614901565b6150e260408301866138cd565b6150ef60608301856138cd565b8181036080830152615101818461507a565b90509695505050505050565b60008151905061511c81613923565b92915050565b600060208284031215615138576151376137ef565b5b60006151468482850161510d565b91505092915050565b600060a0820190506151646000830188614901565b6151716020830187614901565b81810360408301526151838186614146565b905081810360608301526151978185614146565b905081810360808301526151ab818461507a565b90509695505050505050565b60006080820190506151cc6000830187614901565b6151d960208301866138cd565b6151e660408301856138cd565b6151f360608301846138cd565b95945050505050565b600060408201905081810360008301526152168185614146565b9050818103602083015261522a8184614146565b9050939250505056fea26469706673582212204702439fa0ab9b36950458bc9192f1cb6b37ca0ea2167cc6f44bbeceba124e7164736f6c63430008140033",
  "linkReferences": {},
  "deployedLinkReferences": {}
}