{
  "_format": "hh-sol-artifact-1",
  "contractName": "FractionalizedNFT",
  "sourceName": "contracts/FractionalizedNFT.sol",
  "abi": [
    {
      "inputs": [
        {
          "internalType": "address",
          "name": "defaultAdmin",
          "type": "address"
        },
        {
          "internalType": "string",
          "name": "uri",
          "type": "string"
        }
      ],
      "stateMutability": "nonpayable",
      "type": "constructor"
    },
    {
      "inputs": [],
      "name": "AccessControlBadConfirmation",
      "type": "error"
    },
    {
      "inputs": [
        {
          "internalType": "address",
          "name": "account",
          "type": "address"
        },
        {
          "internalType": "bytes32",
          "name": "neededRole",
          "type": "bytes32"
        }
      ],
      "name": "AccessControlUnauthorizedAccount",
      "type": "error"
    },
    {
      "inputs": [
        {
          "internalType": "address",
          "name": "sender",
          "type": "address"
        },
        {
          "internalType": "uint256",
          "name": "balance",
          "type": "uint256"
        },
        {
          "internalType": "uint256",
          "name": "needed",
          "type": "uint256"
        },
        {
          "internalType": "uint256",
          "name": "tokenId",
          "type": "uint256"
        }
      ],
      "name": "ERC1155InsufficientBalance",
      "type": "error"
    },
    {
      "inputs": [
        {
          "internalType": "address",
          "name": "approver",
          "type": "address"
        }
      ],
      "name": "ERC1155InvalidApprover",
      "type": "error"
    },
    {
      "inputs": [
        {
          "internalType": "uint256",
          "name": "idsLength",
          "type": "uint256"
        },
        {
          "internalType": "uint256",
          "name": "valuesLength",
          "type": "uint256"
        }
      ],
      "name": "ERC1155InvalidArrayLength",
      "type": "error"
    },
    {
      "inputs": [
        {
          "internalType": "address",
          "name": "operator",
          "type": "address"
        }
      ],
      "name": "ERC1155InvalidOperator",
      "type": "error"
    },
    {
      "inputs": [
        {
          "internalType": "address",
          "name": "receiver",
          "type": "address"
        }
      ],
      "name": "ERC1155InvalidReceiver",
      "type": "error"
    },
    {
      "inputs": [
        {
          "internalType": "address",
          "name": "sender",
          "type": "address"
        }
      ],
      "name": "ERC1155InvalidSender",
      "type": "error"
    },
    {
      "inputs": [
        {
          "internalType": "address",
          "name": "operator",
          "type": "address"
        },
        {
          "internalType": "address",
          "name": "owner",
          "type": "address"
        }
      ],
      "name": "ERC1155MissingApprovalForAll",
      "type": "error"
    },
    {
      "inputs": [],
      "name": "EnforcedPause",
      "type": "error"
    },
    {
      "inputs": [],
      "name": "ExpectedPause",
      "type": "error"
    },
    {
      "anonymous": false,
      "inputs": [
        {
          "indexed": true,
          "internalType": "uint256",
          "name": "tokenId",
          "type": "uint256"
        },
        {
          "indexed": true,
          "internalType": "address",
          "name": "operator",
          "type": "address"
        },
        {
          "indexed": false,
          "internalType": "uint256",
          "name": "amount",
          "type": "uint256"
        }
      ],
      "name": "AmountApproved",
      "type": "event"
    },
    {
      "anonymous": false,
      "inputs": [
        {
          "indexed": false,
          "internalType": "uint256",
          "name": "tokenId",
          "type": "uint256"
        },
        {
          "indexed": false,
          "internalType": "address",
          "name": "from",
          "type": "address"
        },
        {
          "indexed": false,
          "internalType": "address",
          "name": "to",
          "type": "address"
        },
        {
          "indexed": false,
          "internalType": "uint256",
          "name": "amount",
          "type": "uint256"
        }
      ],
      "name": "AmountTransferred",
      "type": "event"
    },
    {
      "anonymous": false,
      "inputs": [
        {
          "indexed": true,
          "internalType": "address",
          "name": "account",
          "type": "address"
        },
        {
          "indexed": true,
          "internalType": "address",
          "name": "operator",
          "type": "address"
        },
        {
          "indexed": false,
          "internalType": "bool",
          "name": "approved",
          "type": "bool"
        }
      ],
      "name": "ApprovalForAll",
      "type": "event"
    },
    {
      "anonymous": false,
      "inputs": [
        {
          "indexed": true,
          "internalType": "uint256",
          "name": "tokenId",
          "type": "uint256"
        },
        {
          "indexed": false,
          "internalType": "address",
          "name": "account",
          "type": "address"
        }
      ],
      "name": "OwnershipRemoved",
      "type": "event"
    },
    {
      "anonymous": false,
      "inputs": [
        {
          "indexed": false,
          "internalType": "address",
          "name": "account",
          "type": "address"
        }
      ],
      "name": "Paused",
      "type": "event"
    },
    {
      "anonymous": false,
      "inputs": [
        {
          "indexed": true,
          "internalType": "bytes32",
          "name": "role",
          "type": "bytes32"
        },
        {
          "indexed": true,
          "internalType": "bytes32",
          "name": "previousAdminRole",
          "type": "bytes32"
        },
        {
          "indexed": true,
          "internalType": "bytes32",
          "name": "newAdminRole",
          "type": "bytes32"
        }
      ],
      "name": "RoleAdminChanged",
      "type": "event"
    },
    {
      "anonymous": false,
      "inputs": [
        {
          "indexed": true,
          "internalType": "bytes32",
          "name": "role",
          "type": "bytes32"
        },
        {
          "indexed": true,
          "internalType": "address",
          "name": "account",
          "type": "address"
        },
        {
          "indexed": true,
          "internalType": "address",
          "name": "sender",
          "type": "address"
        }
      ],
      "name": "RoleGranted",
      "type": "event"
    },
    {
      "anonymous": false,
      "inputs": [
        {
          "indexed": true,
          "internalType": "bytes32",
          "name": "role",
          "type": "bytes32"
        },
        {
          "indexed": true,
          "internalType": "address",
          "name": "account",
          "type": "address"
        },
        {
          "indexed": true,
          "internalType": "address",
          "name": "sender",
          "type": "address"
        }
      ],
      "name": "RoleRevoked",
      "type": "event"
    },
    {
      "anonymous": false,
      "inputs": [
        {
          "indexed": true,
          "internalType": "uint256",
          "name": "tokenId",
          "type": "uint256"
        },
        {
          "indexed": false,
          "internalType": "address",
          "name": "account",
          "type": "address"
        }
      ],
      "name": "TokenMinted",
      "type": "event"
    },
    {
      "anonymous": false,
      "inputs": [
        {
          "indexed": true,
          "internalType": "address",
          "name": "operator",
          "type": "address"
        },
        {
          "indexed": true,
          "internalType": "address",
          "name": "from",
          "type": "address"
        },
        {
          "indexed": true,
          "internalType": "address",
          "name": "to",
          "type": "address"
        },
        {
          "indexed": false,
          "internalType": "uint256[]",
          "name": "ids",
          "type": "uint256[]"
        },
        {
          "indexed": false,
          "internalType": "uint256[]",
          "name": "values",
          "type": "uint256[]"
        }
      ],
      "name": "TransferBatch",
      "type": "event"
    },
    {
      "anonymous": false,
      "inputs": [
        {
          "indexed": true,
          "internalType": "address",
          "name": "operator",
          "type": "address"
        },
        {
          "indexed": true,
          "internalType": "address",
          "name": "from",
          "type": "address"
        },
        {
          "indexed": true,
          "internalType": "address",
          "name": "to",
          "type": "address"
        },
        {
          "indexed": false,
          "internalType": "uint256",
          "name": "id",
          "type": "uint256"
        },
        {
          "indexed": false,
          "internalType": "uint256",
          "name": "value",
          "type": "uint256"
        }
      ],
      "name": "TransferSingle",
      "type": "event"
    },
    {
      "anonymous": false,
      "inputs": [
        {
          "indexed": false,
          "internalType": "string",
          "name": "value",
          "type": "string"
        },
        {
          "indexed": true,
          "internalType": "uint256",
          "name": "id",
          "type": "uint256"
        }
      ],
      "name": "URI",
      "type": "event"
    },
    {
      "anonymous": false,
      "inputs": [
        {
          "indexed": false,
          "internalType": "address",
          "name": "account",
          "type": "address"
        }
      ],
      "name": "Unpaused",
      "type": "event"
    },
    {
      "inputs": [],
      "name": "DEFAULT_ADMIN_ROLE",
      "outputs": [
        {
          "internalType": "bytes32",
          "name": "",
          "type": "bytes32"
        }
      ],
      "stateMutability": "view",
      "type": "function"
    },
    {
      "inputs": [],
      "name": "MAX_TOKEN_AMOUNT",
      "outputs": [
        {
          "internalType": "uint256",
          "name": "",
          "type": "uint256"
        }
      ],
      "stateMutability": "view",
      "type": "function"
    },
    {
      "inputs": [],
      "name": "MINTER_ROLE",
      "outputs": [
        {
          "internalType": "bytes32",
          "name": "",
          "type": "bytes32"
        }
      ],
      "stateMutability": "view",
      "type": "function"
    },
    {
      "inputs": [],
      "name": "PAUSER_ROLE",
      "outputs": [
        {
          "internalType": "bytes32",
          "name": "",
          "type": "bytes32"
        }
      ],
      "stateMutability": "view",
      "type": "function"
    },
    {
      "inputs": [],
      "name": "URI_SETTER_ROLE",
      "outputs": [
        {
          "internalType": "bytes32",
          "name": "",
          "type": "bytes32"
        }
      ],
      "stateMutability": "view",
      "type": "function"
    },
    {
      "inputs": [
        {
          "internalType": "uint256",
          "name": "tokenId",
          "type": "uint256"
        },
        {
          "internalType": "address",
          "name": "operator",
          "type": "address"
        }
      ],
      "name": "allowance",
      "outputs": [
        {
          "internalType": "uint256",
          "name": "",
          "type": "uint256"
        }
      ],
      "stateMutability": "view",
      "type": "function"
    },
    {
      "inputs": [
        {
          "internalType": "uint256",
          "name": "tokenId",
          "type": "uint256"
        },
        {
          "internalType": "address",
          "name": "operator",
          "type": "address"
        },
        {
          "internalType": "uint256",
          "name": "amount",
          "type": "uint256"
        }
      ],
      "name": "approve",
      "outputs": [],
      "stateMutability": "nonpayable",
      "type": "function"
    },
    {
      "inputs": [
        {
          "internalType": "address",
          "name": "account",
          "type": "address"
        },
        {
          "internalType": "uint256",
          "name": "id",
          "type": "uint256"
        }
      ],
      "name": "balanceOf",
      "outputs": [
        {
          "internalType": "uint256",
          "name": "",
          "type": "uint256"
        }
      ],
      "stateMutability": "view",
      "type": "function"
    },
    {
      "inputs": [
        {
          "internalType": "address[]",
          "name": "accounts",
          "type": "address[]"
        },
        {
          "internalType": "uint256[]",
          "name": "ids",
          "type": "uint256[]"
        }
      ],
      "name": "balanceOfBatch",
      "outputs": [
        {
          "internalType": "uint256[]",
          "name": "",
          "type": "uint256[]"
        }
      ],
      "stateMutability": "view",
      "type": "function"
    },
    {
      "inputs": [
        {
          "internalType": "address",
          "name": "account",
          "type": "address"
        },
        {
          "internalType": "uint256",
          "name": "id",
          "type": "uint256"
        },
        {
          "internalType": "uint256",
          "name": "value",
          "type": "uint256"
        }
      ],
      "name": "burn",
      "outputs": [],
      "stateMutability": "nonpayable",
      "type": "function"
    },
    {
      "inputs": [
        {
          "internalType": "address",
          "name": "account",
          "type": "address"
        },
        {
          "internalType": "uint256[]",
          "name": "ids",
          "type": "uint256[]"
        },
        {
          "internalType": "uint256[]",
          "name": "values",
          "type": "uint256[]"
        }
      ],
      "name": "burnBatch",
      "outputs": [],
      "stateMutability": "nonpayable",
      "type": "function"
    },
    {
      "inputs": [
        {
          "internalType": "address",
          "name": "account",
          "type": "address"
        }
      ],
      "name": "getOwnedTokens",
      "outputs": [
        {
          "internalType": "uint256[]",
          "name": "",
          "type": "uint256[]"
        }
      ],
      "stateMutability": "view",
      "type": "function"
    },
    {
      "inputs": [
        {
          "internalType": "uint256",
          "name": "tokenId",
          "type": "uint256"
        }
      ],
      "name": "getOwners",
      "outputs": [
        {
          "internalType": "address[]",
          "name": "",
          "type": "address[]"
        }
      ],
      "stateMutability": "view",
      "type": "function"
    },
    {
      "inputs": [
        {
          "internalType": "address",
          "name": "account",
          "type": "address"
        },
        {
          "internalType": "uint256",
          "name": "tokenId",
          "type": "uint256"
        }
      ],
      "name": "getOwnershipAmount",
      "outputs": [
        {
          "internalType": "uint256",
          "name": "",
          "type": "uint256"
        }
      ],
      "stateMutability": "view",
      "type": "function"
    },
    {
      "inputs": [
        {
          "internalType": "address",
          "name": "account",
          "type": "address"
        },
        {
          "internalType": "uint256",
          "name": "tokenId",
          "type": "uint256"
        }
      ],
      "name": "getOwnershipPercentage",
      "outputs": [
        {
          "internalType": "uint256",
          "name": "",
          "type": "uint256"
        }
      ],
      "stateMutability": "view",
      "type": "function"
    },
    {
      "inputs": [
        {
          "internalType": "bytes32",
          "name": "role",
          "type": "bytes32"
        }
      ],
      "name": "getRoleAdmin",
      "outputs": [
        {
          "internalType": "bytes32",
          "name": "",
          "type": "bytes32"
        }
      ],
      "stateMutability": "view",
      "type": "function"
    },
    {
      "inputs": [
        {
          "internalType": "bytes32",
          "name": "role",
          "type": "bytes32"
        },
        {
          "internalType": "address",
          "name": "account",
          "type": "address"
        }
      ],
      "name": "grantRole",
      "outputs": [],
      "stateMutability": "nonpayable",
      "type": "function"
    },
    {
      "inputs": [
        {
          "internalType": "bytes32",
          "name": "role",
          "type": "bytes32"
        },
        {
          "internalType": "address",
          "name": "account",
          "type": "address"
        }
      ],
      "name": "hasRole",
      "outputs": [
        {
          "internalType": "bool",
          "name": "",
          "type": "bool"
        }
      ],
      "stateMutability": "view",
      "type": "function"
    },
    {
      "inputs": [
        {
          "internalType": "address",
          "name": "account",
          "type": "address"
        },
        {
          "internalType": "address",
          "name": "operator",
          "type": "address"
        }
      ],
      "name": "isApprovedForAll",
      "outputs": [
        {
          "internalType": "bool",
          "name": "",
          "type": "bool"
        }
      ],
      "stateMutability": "view",
      "type": "function"
    },
    {
      "inputs": [
        {
          "internalType": "address",
          "name": "account",
          "type": "address"
        },
        {
          "internalType": "bytes",
          "name": "data",
          "type": "bytes"
        }
      ],
      "name": "mint",
      "outputs": [],
      "stateMutability": "nonpayable",
      "type": "function"
    },
    {
      "inputs": [
        {
          "internalType": "address",
          "name": "account",
          "type": "address"
        },
        {
          "internalType": "uint8",
          "name": "count",
          "type": "uint8"
        },
        {
          "internalType": "bytes",
          "name": "data",
          "type": "bytes"
        }
      ],
      "name": "mintBatch",
      "outputs": [],
      "stateMutability": "nonpayable",
      "type": "function"
    },
    {
      "inputs": [
        {
          "internalType": "address",
          "name": "",
          "type": "address"
        },
        {
          "internalType": "uint256",
          "name": "",
          "type": "uint256"
        }
      ],
      "name": "ownedTokens",
      "outputs": [
        {
          "internalType": "uint256",
          "name": "",
          "type": "uint256"
        }
      ],
      "stateMutability": "view",
      "type": "function"
    },
    {
      "inputs": [
        {
          "internalType": "uint256",
          "name": "",
          "type": "uint256"
        },
        {
          "internalType": "uint256",
          "name": "",
          "type": "uint256"
        }
      ],
      "name": "owners",
      "outputs": [
        {
          "internalType": "address",
          "name": "",
          "type": "address"
        }
      ],
      "stateMutability": "view",
      "type": "function"
    },
    {
      "inputs": [
        {
          "internalType": "uint256",
          "name": "",
          "type": "uint256"
        },
        {
          "internalType": "address",
          "name": "",
          "type": "address"
        }
      ],
      "name": "ownership",
      "outputs": [
        {
          "internalType": "uint256",
          "name": "",
          "type": "uint256"
        }
      ],
      "stateMutability": "view",
      "type": "function"
    },
    {
      "inputs": [],
      "name": "pause",
      "outputs": [],
      "stateMutability": "nonpayable",
      "type": "function"
    },
    {
      "inputs": [],
      "name": "paused",
      "outputs": [
        {
          "internalType": "bool",
          "name": "",
          "type": "bool"
        }
      ],
      "stateMutability": "view",
      "type": "function"
    },
    {
      "inputs": [
        {
          "internalType": "address",
          "name": "operator",
          "type": "address"
        },
        {
          "internalType": "uint256",
          "name": "tokenId",
          "type": "uint256"
        }
      ],
      "name": "removeApproval",
      "outputs": [],
      "stateMutability": "nonpayable",
      "type": "function"
    },
    {
      "inputs": [
        {
          "internalType": "bytes32",
          "name": "role",
          "type": "bytes32"
        },
        {
          "internalType": "address",
          "name": "callerConfirmation",
          "type": "address"
        }
      ],
      "name": "renounceRole",
      "outputs": [],
      "stateMutability": "nonpayable",
      "type": "function"
    },
    {
      "inputs": [
        {
          "internalType": "bytes32",
          "name": "role",
          "type": "bytes32"
        },
        {
          "internalType": "address",
          "name": "account",
          "type": "address"
        }
      ],
      "name": "revokeRole",
      "outputs": [],
      "stateMutability": "nonpayable",
      "type": "function"
    },
    {
      "inputs": [
        {
          "internalType": "address",
          "name": "from",
          "type": "address"
        },
        {
          "internalType": "address",
          "name": "to",
          "type": "address"
        },
        {
          "internalType": "uint256[]",
          "name": "ids",
          "type": "uint256[]"
        },
        {
          "internalType": "uint256[]",
          "name": "values",
          "type": "uint256[]"
        },
        {
          "internalType": "bytes",
          "name": "data",
          "type": "bytes"
        }
      ],
      "name": "safeBatchTransferFrom",
      "outputs": [],
      "stateMutability": "nonpayable",
      "type": "function"
    },
    {
      "inputs": [
        {
          "internalType": "address",
          "name": "from",
          "type": "address"
        },
        {
          "internalType": "address",
          "name": "to",
          "type": "address"
        },
        {
          "internalType": "uint256",
          "name": "id",
          "type": "uint256"
        },
        {
          "internalType": "uint256",
          "name": "value",
          "type": "uint256"
        },
        {
          "internalType": "bytes",
          "name": "data",
          "type": "bytes"
        }
      ],
      "name": "safeTransferFrom",
      "outputs": [],
      "stateMutability": "nonpayable",
      "type": "function"
    },
    {
      "inputs": [
        {
          "internalType": "address",
          "name": "operator",
          "type": "address"
        },
        {
          "internalType": "bool",
          "name": "approved",
          "type": "bool"
        }
      ],
      "name": "setApprovalForAll",
      "outputs": [],
      "stateMutability": "nonpayable",
      "type": "function"
    },
    {
      "inputs": [
        {
          "internalType": "string",
          "name": "newuri",
          "type": "string"
        }
      ],
      "name": "setURI",
      "outputs": [],
      "stateMutability": "nonpayable",
      "type": "function"
    },
    {
      "inputs": [
        {
          "internalType": "bytes4",
          "name": "interfaceId",
          "type": "bytes4"
        }
      ],
      "name": "supportsInterface",
      "outputs": [
        {
          "internalType": "bool",
          "name": "",
          "type": "bool"
        }
      ],
      "stateMutability": "view",
      "type": "function"
    },
    {
      "inputs": [
        {
          "internalType": "address",
          "name": "from",
          "type": "address"
        },
        {
          "internalType": "address",
          "name": "to",
          "type": "address"
        },
        {
          "internalType": "uint256",
          "name": "tokenId",
          "type": "uint256"
        },
        {
          "internalType": "uint256",
          "name": "amount",
          "type": "uint256"
        },
        {
          "internalType": "bytes",
          "name": "data",
          "type": "bytes"
        }
      ],
      "name": "transfer",
      "outputs": [],
      "stateMutability": "nonpayable",
      "type": "function"
    },
    {
      "inputs": [
        {
          "internalType": "address",
          "name": "from",
          "type": "address"
        },
        {
          "internalType": "address",
          "name": "to",
          "type": "address"
        },
        {
          "internalType": "uint256",
          "name": "tokenId",
          "type": "uint256"
        },
        {
          "internalType": "uint256",
          "name": "amount",
          "type": "uint256"
        },
        {
          "internalType": "bytes",
          "name": "data",
          "type": "bytes"
        }
      ],
      "name": "transferFrom",
      "outputs": [],
      "stateMutability": "nonpayable",
      "type": "function"
    },
    {
      "inputs": [],
      "name": "unpause",
      "outputs": [],
      "stateMutability": "nonpayable",
      "type": "function"
    },
    {
      "inputs": [
        {
          "internalType": "uint256",
          "name": "",
          "type": "uint256"
        }
      ],
      "name": "uri",
      "outputs": [
        {
          "internalType": "string",
          "name": "",
          "type": "string"
        }
      ],
      "stateMutability": "view",
      "type": "function"
    }
  ],
  "bytecode": "0x60806040523480156200001157600080fd5b50604051620057ec380380620057ec83398181016040528101906200003791906200046d565b806200004981620000e960201b60201c565b506000600460006101000a81548160ff0219169083151502179055506200007a6000801b83620000fe60201b60201c565b50620000ad7f65d7a28e3265b37a6474929f336521b332c1681b933f6cb9f3376673440d862a83620000fe60201b60201c565b50620000e07f9f2df0fed2c77648de5860a4cc508cd0818c85b8b8a1ab4ceeef8d981c8956a683620000fe60201b60201c565b50505062000805565b8060029081620000fa91906200071e565b5050565b60006200011283836200020260201b60201c565b620001f75760016003600085815260200190815260200160002060000160008473ffffffffffffffffffffffffffffffffffffffff1673ffffffffffffffffffffffffffffffffffffffff16815260200190815260200160002060006101000a81548160ff021916908315150217905550620001936200026d60201b60201c565b73ffffffffffffffffffffffffffffffffffffffff168273ffffffffffffffffffffffffffffffffffffffff16847f2f8788117e7eff1d82e926ec794901d17c78024a50270940304540a733656f0d60405160405180910390a460019050620001fc565b600090505b92915050565b60006003600084815260200190815260200160002060000160008373ffffffffffffffffffffffffffffffffffffffff1673ffffffffffffffffffffffffffffffffffffffff16815260200190815260200160002060009054906101000a900460ff16905092915050565b600033905090565b6000604051905090565b600080fd5b600080fd5b600073ffffffffffffffffffffffffffffffffffffffff82169050919050565b6000620002b68262000289565b9050919050565b620002c881620002a9565b8114620002d457600080fd5b50565b600081519050620002e881620002bd565b92915050565b600080fd5b600080fd5b6000601f19601f8301169050919050565b7f4e487b7100000000000000000000000000000000000000000000000000000000600052604160045260246000fd5b6200034382620002f8565b810181811067ffffffffffffffff8211171562000365576200036462000309565b5b80604052505050565b60006200037a62000275565b905062000388828262000338565b919050565b600067ffffffffffffffff821115620003ab57620003aa62000309565b5b620003b682620002f8565b9050602081019050919050565b60005b83811015620003e3578082015181840152602081019050620003c6565b60008484015250505050565b60006200040662000400846200038d565b6200036e565b905082815260208101848484011115620004255762000424620002f3565b5b62000432848285620003c3565b509392505050565b600082601f830112620004525762000451620002ee565b5b815162000464848260208601620003ef565b91505092915050565b600080604083850312156200048757620004866200027f565b5b60006200049785828601620002d7565b925050602083015167ffffffffffffffff811115620004bb57620004ba62000284565b5b620004c9858286016200043a565b9150509250929050565b600081519050919050565b7f4e487b7100000000000000000000000000000000000000000000000000000000600052602260045260246000fd5b600060028204905060018216806200052657607f821691505b6020821081036200053c576200053b620004de565b5b50919050565b60008190508160005260206000209050919050565b60006020601f8301049050919050565b600082821b905092915050565b600060088302620005a67fffffffffffffffffffffffffffffffffffffffffffffffffffffffffffffffff8262000567565b620005b2868362000567565b95508019841693508086168417925050509392505050565b6000819050919050565b6000819050919050565b6000620005ff620005f9620005f384620005ca565b620005d4565b620005ca565b9050919050565b6000819050919050565b6200061b83620005de565b620006336200062a8262000606565b84845462000574565b825550505050565b600090565b6200064a6200063b565b6200065781848462000610565b505050565b5b818110156200067f576200067360008262000640565b6001810190506200065d565b5050565b601f821115620006ce57620006988162000542565b620006a38462000557565b81016020851015620006b3578190505b620006cb620006c28562000557565b8301826200065c565b50505b505050565b600082821c905092915050565b6000620006f360001984600802620006d3565b1980831691505092915050565b60006200070e8383620006e0565b9150826002028217905092915050565b6200072982620004d3565b67ffffffffffffffff81111562000745576200074462000309565b5b6200075182546200050d565b6200075e82828562000683565b600060209050601f83116001811462000796576000841562000781578287015190505b6200078d858262000700565b865550620007fd565b601f198416620007a68662000542565b60005b82811015620007d057848901518255600182019150602085019450602081019050620007a9565b86831015620007f05784890151620007ec601f891682620006e0565b8355505b6001600288020188555050505b505050505050565b614fd780620008156000396000f3fe608060405234801561001057600080fd5b50600436106102315760003560e01c8063850640aa11610130578063d9d61655116100b8578063e985e9c51161007c578063e985e9c5146106aa578063ee4525d5146106da578063f242432a1461070a578063f5298aca14610726578063fe7358441461074257610231565b8063d9d61655146105cc578063e149f036146105fc578063e345e0bc1461062c578063e62de01b1461065c578063e63ab1e91461068c57610231565b8063a22cb465116100ff578063a22cb4651461053e578063b510391f1461055a578063b537b26914610576578063d539139314610592578063d547741f146105b057610231565b8063850640aa146104b85780638cb0a511146104d457806391d14854146104f0578063a217fddf1461052057610231565b80632fecd4bb116101be5780635c975abb116101825780635c975abb1461043a578063605105f0146104585780636b20c454146104745780637f345710146104905780638456cb59146104ae57610231565b80632fecd4bb1461038457806333764f53146103b457806336568abe146103e45780633f4ba83a146104005780634e1273f41461040a57610231565b8063127217d611610205578063127217d6146102e25780631e9c2d67146102fe578063248a9ca31461031c5780632eb2c2d61461034c5780632f2ff15d1461036857610231565b8062fdd58e1461023657806301ffc9a71461026657806302fe5305146102965780630e89341c146102b2575b600080fd5b610250600480360381019061024b91906136b5565b610772565b60405161025d9190613704565b60405180910390f35b610280600480360381019061027b9190613777565b6107cc565b60405161028d91906137bf565b60405180910390f35b6102b060048036038101906102ab9190613920565b6107de565b005b6102cc60048036038101906102c79190613969565b610815565b6040516102d99190613a15565b60405180910390f35b6102fc60048036038101906102f79190613ad8565b6108a9565b005b610306610b98565b6040516103139190613704565b60405180910390f35b61033660048036038101906103319190613ba5565b610b9e565b6040516103439190613be1565b60405180910390f35b61036660048036038101906103619190613cc4565b610bbe565b005b610382600480360381019061037d9190613d93565b610c66565b005b61039e600480360381019061039991906136b5565b610c88565b6040516103ab9190613704565b60405180910390f35b6103ce60048036038101906103c99190613dd3565b610ce3565b6040516103db9190613e22565b60405180910390f35b6103fe60048036038101906103f99190613d93565b610d31565b005b610408610dac565b005b610424600480360381019061041f9190613f00565b610de1565b6040516104319190614036565b60405180910390f35b610442610ef0565b60405161044f91906137bf565b60405180910390f35b610472600480360381019061046d9190613ad8565b610f07565b005b61048e60048036038101906104899190614058565b610f78565b005b610498611024565b6040516104a59190613be1565b60405180910390f35b6104b6611048565b005b6104d260048036038101906104cd919061411c565b61107d565b005b6104ee60048036038101906104e9919061418b565b6113ae565b005b61050a60048036038101906105059190613d93565b611625565b60405161051791906137bf565b60405180910390f35b610528611690565b6040516105359190613be1565b60405180910390f35b6105586004803603810190610553919061420a565b611697565b005b610574600480360381019061056f919061424a565b6116ad565b005b610590600480360381019061058b91906136b5565b611886565b005b61059a61197a565b6040516105a79190613be1565b60405180910390f35b6105ca60048036038101906105c59190613d93565b61199e565b005b6105e660048036038101906105e191906142a6565b6119c0565b6040516105f39190614036565b60405180910390f35b610616600480360381019061061191906136b5565b611a57565b6040516106239190613704565b60405180910390f35b610646600480360381019061064191906142d3565b611a88565b6040516106539190613704565b60405180910390f35b610676600480360381019061067191906136b5565b611ae6565b6040516106839190613704565b60405180910390f35b610694611b5a565b6040516106a19190613be1565b60405180910390f35b6106c460048036038101906106bf9190614313565b611b7e565b6040516106d191906137bf565b60405180910390f35b6106f460048036038101906106ef9190613969565b611c12565b6040516107019190614411565b60405180910390f35b610724600480360381019061071f9190613ad8565b611cb3565b005b610740600480360381019061073b9190614433565b611d5b565b005b61075c600480360381019061075791906142d3565b611e07565b6040516107699190613704565b60405180910390f35b600080600083815260200190815260200160002060008473ffffffffffffffffffffffffffffffffffffffff1673ffffffffffffffffffffffffffffffffffffffff16815260200190815260200160002054905092915050565b60006107d782611e2c565b9050919050565b7f7804d923f43a17d325d77e781528e0793b2edd9890ab45fc64efd7b4b427744c61080881611ea6565b61081182611eba565b5050565b606060028054610824906144b5565b80601f0160208091040260200160405190810160405280929190818152602001828054610850906144b5565b801561089d5780601f106108725761010080835404028352916020019161089d565b820191906000526020600020905b81548152906001019060200180831161088057829003601f168201915b50505050509050919050565b816005600085815260200190815260200160002060008773ffffffffffffffffffffffffffffffffffffffff1673ffffffffffffffffffffffffffffffffffffffff16815260200190815260200160002054101561093c576040517f08c379a000000000000000000000000000000000000000000000000000000000815260040161093390614532565b60405180910390fd5b816005600085815260200190815260200160002060008773ffffffffffffffffffffffffffffffffffffffff1673ffffffffffffffffffffffffffffffffffffffff168152602001908152602001600020600082825461099c9190614581565b925050819055506109b08585858585611cb3565b816005600085815260200190815260200160002060008673ffffffffffffffffffffffffffffffffffffffff1673ffffffffffffffffffffffffffffffffffffffff1681526020019081526020016000206000828254610a1091906145b5565b9250508190555060066000848152602001908152602001600020849080600181540180825580915050600190039060005260206000200160009091909190916101000a81548173ffffffffffffffffffffffffffffffffffffffff021916908373ffffffffffffffffffffffffffffffffffffffff160217905550600760008573ffffffffffffffffffffffffffffffffffffffff1673ffffffffffffffffffffffffffffffffffffffff16815260200190815260200160002083908060018154018082558091505060019003906000526020600020016000909190919091505560006005600085815260200190815260200160002060008773ffffffffffffffffffffffffffffffffffffffff1673ffffffffffffffffffffffffffffffffffffffff1681526020019081526020016000205403610b5457610b538386611ecd565b5b7feeb0e676a4fccb21187462c64b95d0e58742fed59dbc3a8795d8e8ff8ccfba1683868685604051610b8994939291906145e9565b60405180910390a15050505050565b61271081565b600060036000838152602001908152602001600020600101549050919050565b6000610bc8612262565b90508073ffffffffffffffffffffffffffffffffffffffff168673ffffffffffffffffffffffffffffffffffffffff1614158015610c0d5750610c0b8682611b7e565b155b15610c515780866040517fe237d922000000000000000000000000000000000000000000000000000000008152600401610c4892919061462e565b60405180910390fd5b610c5e868686868661226a565b505050505050565b610c6f82610b9e565b610c7881611ea6565b610c828383612362565b50505050565b60006005600083815260200190815260200160002060008473ffffffffffffffffffffffffffffffffffffffff1673ffffffffffffffffffffffffffffffffffffffff16815260200190815260200160002054905092915050565b60066020528160005260406000208181548110610cff57600080fd5b906000526020600020016000915091509054906101000a900473ffffffffffffffffffffffffffffffffffffffff1681565b610d39612262565b73ffffffffffffffffffffffffffffffffffffffff168173ffffffffffffffffffffffffffffffffffffffff1614610d9d576040517f6697b23200000000000000000000000000000000000000000000000000000000815260040160405180910390fd5b610da78282612454565b505050565b7f65d7a28e3265b37a6474929f336521b332c1681b933f6cb9f3376673440d862a610dd681611ea6565b610dde612547565b50565b60608151835114610e2d57815183516040517f5b059991000000000000000000000000000000000000000000000000000000008152600401610e24929190614657565b60405180910390fd5b6000835167ffffffffffffffff811115610e4a57610e496137f5565b5b604051908082528060200260200182016040528015610e785781602001602082028036833780820191505090505b50905060005b8451811015610ee557610eb5610e9d82876125aa90919063ffffffff16565b610eb083876125be90919063ffffffff16565b610772565b828281518110610ec857610ec7614680565b5b60200260200101818152505080610ede906146af565b9050610e7e565b508091505092915050565b6000600460009054906101000a900460ff16905090565b6000610f138433611a88565b905082811015610f58576040517f08c379a0000000000000000000000000000000000000000000000000000000008152600401610f4f90614743565b60405180910390fd5b610f633385856125d2565b610f7086868686866108a9565b505050505050565b610f80612262565b73ffffffffffffffffffffffffffffffffffffffff168373ffffffffffffffffffffffffffffffffffffffff1614158015610fc95750610fc783610fc2612262565b611b7e565b155b1561101457610fd6612262565b836040517fe237d92200000000000000000000000000000000000000000000000000000000815260040161100b92919061462e565b60405180910390fd5b61101f838383612693565b505050565b7f7804d923f43a17d325d77e781528e0793b2edd9890ab45fc64efd7b4b427744c81565b7f65d7a28e3265b37a6474929f336521b332c1681b933f6cb9f3376673440d862a61107281611ea6565b61107a612727565b50565b7f9f2df0fed2c77648de5860a4cc508cd0818c85b8b8a1ab4ceeef8d981c8956a66110a781611ea6565b60008360ff1667ffffffffffffffff8111156110c6576110c56137f5565b5b6040519080825280602002602001820160405280156110f45781602001602082028036833780820191505090505b50905060008460ff1667ffffffffffffffff811115611116576111156137f5565b5b6040519080825280602002602001820160405280156111445781602001602082028036833780820191505090505b50905060005b8560ff168160ff1610156111e2578685428360405160200161116f9493929190614849565b6040516020818303038152906040528051906020012060001c838260ff168151811061119e5761119d614680565b5b602002602001018181525050612710828260ff16815181106111c3576111c2614680565b5b60200260200101818152505080806111da90614893565b91505061114a565b506111ef8683838761278a565b60005b82518110156113a55781818151811061120e5761120d614680565b5b60200260200101516005600085848151811061122d5761122c614680565b5b6020026020010151815260200190815260200160002060008973ffffffffffffffffffffffffffffffffffffffff1673ffffffffffffffffffffffffffffffffffffffff16815260200190815260200160002081905550600760008873ffffffffffffffffffffffffffffffffffffffff1673ffffffffffffffffffffffffffffffffffffffff1681526020019081526020016000208382815181106112d6576112d5614680565b5b602002602001015190806001815401808255809150506001900390600052602060002001600090919091909150556006600084838151811061131b5761131a614680565b5b60200260200101518152602001908152602001600020879080600181540180825580915050600190039060005260206000200160009091909190916101000a81548173ffffffffffffffffffffffffffffffffffffffff021916908373ffffffffffffffffffffffffffffffffffffffff160217905550808061139d906146af565b9150506111f2565b50505050505050565b806005600085815260200190815260200160002060003373ffffffffffffffffffffffffffffffffffffffff1673ffffffffffffffffffffffffffffffffffffffff168152602001908152602001600020541015611441576040517f08c379a000000000000000000000000000000000000000000000000000000000815260040161143890614743565b60405180910390fd5b8173ffffffffffffffffffffffffffffffffffffffff163373ffffffffffffffffffffffffffffffffffffffff16036114af576040517f08c379a00000000000000000000000000000000000000000000000000000000081526004016114a690614908565b60405180910390fd5b61271081036114c4576114c3826001611697565b5b600060086000858152602001908152602001600020905060008160010160008573ffffffffffffffffffffffffffffffffffffffff1673ffffffffffffffffffffffffffffffffffffffff168152602001908152602001600020540361158a5780600001839080600181540180825580915050600190039060005260206000200160009091909190916101000a81548173ffffffffffffffffffffffffffffffffffffffff021916908373ffffffffffffffffffffffffffffffffffffffff1602179055505b818160010160008573ffffffffffffffffffffffffffffffffffffffff1673ffffffffffffffffffffffffffffffffffffffff168152602001908152602001600020819055508273ffffffffffffffffffffffffffffffffffffffff16847f7a5c69a7c393db8f307d6fea9c8addb8c18644d1172a623792a4017298a1a582846040516116179190613704565b60405180910390a350505050565b60006003600084815260200190815260200160002060000160008373ffffffffffffffffffffffffffffffffffffffff1673ffffffffffffffffffffffffffffffffffffffff16815260200190815260200160002060009054906101000a900460ff16905092915050565b6000801b81565b6116a96116a2612262565b8383612810565b5050565b7f9f2df0fed2c77648de5860a4cc508cd0818c85b8b8a1ab4ceeef8d981c8956a66116d781611ea6565b60008383426040516020016116ee93929190614928565b6040516020818303038152906040528051906020012060001c9050611717848261271086612980565b6127106005600083815260200190815260200160002060008673ffffffffffffffffffffffffffffffffffffffff1673ffffffffffffffffffffffffffffffffffffffff1681526020019081526020016000208190555060066000828152602001908152602001600020849080600181540180825580915050600190039060005260206000200160009091909190916101000a81548173ffffffffffffffffffffffffffffffffffffffff021916908373ffffffffffffffffffffffffffffffffffffffff160217905550600760008573ffffffffffffffffffffffffffffffffffffffff1673ffffffffffffffffffffffffffffffffffffffff168152602001908152602001600020819080600181540180825580915050600190039060005260206000200160009091909190915055807f3a5398bda6f1f57d6c96834fa9bf02b5517bdc847d14312015a917ba421c31c9856040516118789190613e22565b60405180910390a250505050565b60006005600083815260200190815260200160002060003373ffffffffffffffffffffffffffffffffffffffff1673ffffffffffffffffffffffffffffffffffffffff1681526020019081526020016000205411611919576040517f08c379a0000000000000000000000000000000000000000000000000000000008152600401611910906149d3565b60405180910390fd5b60006119258284611a88565b90506000811161196a576040517f08c379a000000000000000000000000000000000000000000000000000000000815260040161196190614a3f565b60405180910390fd5b6119758383836125d2565b505050565b7f9f2df0fed2c77648de5860a4cc508cd0818c85b8b8a1ab4ceeef8d981c8956a681565b6119a782610b9e565b6119b081611ea6565b6119ba8383612454565b50505050565b6060600760008373ffffffffffffffffffffffffffffffffffffffff1673ffffffffffffffffffffffffffffffffffffffff168152602001908152602001600020805480602002602001604051908101604052809291908181526020018280548015611a4b57602002820191906000526020600020905b815481526020019060010190808311611a37575b50505050509050919050565b60076020528160005260406000208181548110611a7357600080fd5b90600052602060002001600091509150505481565b60006008600084815260200190815260200160002060010160008373ffffffffffffffffffffffffffffffffffffffff1673ffffffffffffffffffffffffffffffffffffffff16815260200190815260200160002054905092915050565b600061271060646005600085815260200190815260200160002060008673ffffffffffffffffffffffffffffffffffffffff1673ffffffffffffffffffffffffffffffffffffffff16815260200190815260200160002054611b489190614a5f565b611b529190614ad0565b905092915050565b7f65d7a28e3265b37a6474929f336521b332c1681b933f6cb9f3376673440d862a81565b6000600160008473ffffffffffffffffffffffffffffffffffffffff1673ffffffffffffffffffffffffffffffffffffffff16815260200190815260200160002060008373ffffffffffffffffffffffffffffffffffffffff1673ffffffffffffffffffffffffffffffffffffffff16815260200190815260200160002060009054906101000a900460ff16905092915050565b606060066000838152602001908152602001600020805480602002602001604051908101604052809291908181526020018280548015611ca757602002820191906000526020600020905b8160009054906101000a900473ffffffffffffffffffffffffffffffffffffffff1673ffffffffffffffffffffffffffffffffffffffff1681526020019060010190808311611c5d575b50505050509050919050565b6000611cbd612262565b90508073ffffffffffffffffffffffffffffffffffffffff168673ffffffffffffffffffffffffffffffffffffffff1614158015611d025750611d008682611b7e565b155b15611d465780866040517fe237d922000000000000000000000000000000000000000000000000000000008152600401611d3d92919061462e565b60405180910390fd5b611d538686868686612a19565b505050505050565b611d63612262565b73ffffffffffffffffffffffffffffffffffffffff168373ffffffffffffffffffffffffffffffffffffffff1614158015611dac5750611daa83611da5612262565b611b7e565b155b15611df757611db9612262565b836040517fe237d922000000000000000000000000000000000000000000000000000000008152600401611dee92919061462e565b60405180910390fd5b611e02838383612b24565b505050565b6005602052816000526040600020602052806000526040600020600091509150505481565b60007f7965db0b000000000000000000000000000000000000000000000000000000007bffffffffffffffffffffffffffffffffffffffffffffffffffffffff1916827bffffffffffffffffffffffffffffffffffffffffffffffffffffffff19161480611e9f5750611e9e82612bcb565b5b9050919050565b611eb781611eb2612262565b612cad565b50565b8060029081611ec99190614cad565b5050565b600060066000848152602001908152602001600020905060008180549050905060005b600182611efd9190614581565b81101561203f578373ffffffffffffffffffffffffffffffffffffffff16838281548110611f2e57611f2d614680565b5b9060005260206000200160009054906101000a900473ffffffffffffffffffffffffffffffffffffffff1673ffffffffffffffffffffffffffffffffffffffff160361202c5782600183611f829190614581565b81548110611f9357611f92614680565b5b9060005260206000200160009054906101000a900473ffffffffffffffffffffffffffffffffffffffff16600660008781526020019081526020016000208281548110611fe357611fe2614680565b5b9060005260206000200160006101000a81548173ffffffffffffffffffffffffffffffffffffffff021916908373ffffffffffffffffffffffffffffffffffffffff1602179055505b8080612037906146af565b915050611ef0565b506006600085815260200190815260200160002080548061206357612062614d7f565b5b6001900381819060005260206000200160006101000a81549073ffffffffffffffffffffffffffffffffffffffff021916905590556000600760008573ffffffffffffffffffffffffffffffffffffffff1673ffffffffffffffffffffffffffffffffffffffff168152602001908152602001600020905060008180549050905060005b6001826120f49190614581565b8110156121bc578683828154811061210f5761210e614680565b5b9060005260206000200154036121a9578260018361212d9190614581565b8154811061213e5761213d614680565b5b9060005260206000200154600760008873ffffffffffffffffffffffffffffffffffffffff1673ffffffffffffffffffffffffffffffffffffffff168152602001908152602001600020828154811061219a57612199614680565b5b90600052602060002001819055505b80806121b4906146af565b9150506120e7565b50600760008673ffffffffffffffffffffffffffffffffffffffff1673ffffffffffffffffffffffffffffffffffffffff16815260200190815260200160002080548061220c5761220b614d7f565b5b60019003818190600052602060002001600090559055857fb313f5a88a5d21dd54119393bab2baac6503d2bc1368bd7af3281737aefe9447866040516122529190613e22565b60405180910390a2505050505050565b600033905090565b600073ffffffffffffffffffffffffffffffffffffffff168473ffffffffffffffffffffffffffffffffffffffff16036122dc5760006040517f57f447ce0000000000000000000000000000000000000000000000000000000081526004016122d39190613e22565b60405180910390fd5b600073ffffffffffffffffffffffffffffffffffffffff168573ffffffffffffffffffffffffffffffffffffffff160361234e5760006040517f01a835140000000000000000000000000000000000000000000000000000000081526004016123459190613e22565b60405180910390fd5b61235b8585858585612cfe565b5050505050565b600061236e8383611625565b6124495760016003600085815260200190815260200160002060000160008473ffffffffffffffffffffffffffffffffffffffff1673ffffffffffffffffffffffffffffffffffffffff16815260200190815260200160002060006101000a81548160ff0219169083151502179055506123e6612262565b73ffffffffffffffffffffffffffffffffffffffff168273ffffffffffffffffffffffffffffffffffffffff16847f2f8788117e7eff1d82e926ec794901d17c78024a50270940304540a733656f0d60405160405180910390a46001905061244e565b600090505b92915050565b60006124608383611625565b1561253c5760006003600085815260200190815260200160002060000160008473ffffffffffffffffffffffffffffffffffffffff1673ffffffffffffffffffffffffffffffffffffffff16815260200190815260200160002060006101000a81548160ff0219169083151502179055506124d9612262565b73ffffffffffffffffffffffffffffffffffffffff168273ffffffffffffffffffffffffffffffffffffffff16847ff6391f5c32d9c69d2a47ea670b442974b53935d1edc7fd64eb21e047a839171b60405160405180910390a460019050612541565b600090505b92915050565b61254f612db0565b6000600460006101000a81548160ff0219169083151502179055507f5db9ee0a495bf2e6ff9c91a7834c1ba4fdd244a5e8aa4e537bd38aeae4b073aa612593612262565b6040516125a09190613e22565b60405180910390a1565b600060208202602084010151905092915050565b600060208202602084010151905092915050565b60006125de8385611a88565b905081811015612623576040517f08c379a000000000000000000000000000000000000000000000000000000000815260040161261a90614743565b60405180910390fd5b816008600085815260200190815260200160002060010160008673ffffffffffffffffffffffffffffffffffffffff1673ffffffffffffffffffffffffffffffffffffffff16815260200190815260200160002060008282546126869190614581565b9250508190555050505050565b600073ffffffffffffffffffffffffffffffffffffffff168373ffffffffffffffffffffffffffffffffffffffff16036127055760006040517f01a835140000000000000000000000000000000000000000000000000000000081526004016126fc9190613e22565b60405180910390fd5b612722836000848460405180602001604052806000815250612cfe565b505050565b61272f612df0565b6001600460006101000a81548160ff0219169083151502179055507f62e78cea01bee320cd4e420270b5ea74000d11b0c9f74754ebdbfc544b05a258612773612262565b6040516127809190613e22565b60405180910390a1565b600073ffffffffffffffffffffffffffffffffffffffff168473ffffffffffffffffffffffffffffffffffffffff16036127fc5760006040517f57f447ce0000000000000000000000000000000000000000000000000000000081526004016127f39190613e22565b60405180910390fd5b61280a600085858585612cfe565b50505050565b600073ffffffffffffffffffffffffffffffffffffffff168273ffffffffffffffffffffffffffffffffffffffff16036128825760006040517fced3e1000000000000000000000000000000000000000000000000000000000081526004016128799190613e22565b60405180910390fd5b80600160008573ffffffffffffffffffffffffffffffffffffffff1673ffffffffffffffffffffffffffffffffffffffff16815260200190815260200160002060008473ffffffffffffffffffffffffffffffffffffffff1673ffffffffffffffffffffffffffffffffffffffff16815260200190815260200160002060006101000a81548160ff0219169083151502179055508173ffffffffffffffffffffffffffffffffffffffff168373ffffffffffffffffffffffffffffffffffffffff167f17307eab39ab6107e8899845ad3d59bd9653f200f220920489ca2b5937696c318360405161297391906137bf565b60405180910390a3505050565b600073ffffffffffffffffffffffffffffffffffffffff168473ffffffffffffffffffffffffffffffffffffffff16036129f25760006040517f57f447ce0000000000000000000000000000000000000000000000000000000081526004016129e99190613e22565b60405180910390fd5b6000806129ff8585612e31565b91509150612a11600087848487612cfe565b505050505050565b600073ffffffffffffffffffffffffffffffffffffffff168473ffffffffffffffffffffffffffffffffffffffff1603612a8b5760006040517f57f447ce000000000000000000000000000000000000000000000000000000008152600401612a829190613e22565b60405180910390fd5b600073ffffffffffffffffffffffffffffffffffffffff168573ffffffffffffffffffffffffffffffffffffffff1603612afd5760006040517f01a83514000000000000000000000000000000000000000000000000000000008152600401612af49190613e22565b60405180910390fd5b600080612b0a8585612e31565b91509150612b1b8787848487612cfe565b50505050505050565b600073ffffffffffffffffffffffffffffffffffffffff168373ffffffffffffffffffffffffffffffffffffffff1603612b965760006040517f01a83514000000000000000000000000000000000000000000000000000000008152600401612b8d9190613e22565b60405180910390fd5b600080612ba38484612e31565b91509150612bc4856000848460405180602001604052806000815250612cfe565b5050505050565b60007fd9b67a26000000000000000000000000000000000000000000000000000000007bffffffffffffffffffffffffffffffffffffffffffffffffffffffff1916827bffffffffffffffffffffffffffffffffffffffffffffffffffffffff19161480612c9657507f0e89341c000000000000000000000000000000000000000000000000000000007bffffffffffffffffffffffffffffffffffffffffffffffffffffffff1916827bffffffffffffffffffffffffffffffffffffffffffffffffffffffff1916145b80612ca65750612ca582612e61565b5b9050919050565b612cb78282611625565b612cfa5780826040517fe2517d3f000000000000000000000000000000000000000000000000000000008152600401612cf1929190614dae565b60405180910390fd5b5050565b612d0a85858585612ecb565b600073ffffffffffffffffffffffffffffffffffffffff168473ffffffffffffffffffffffffffffffffffffffff1614612da9576000612d48612262565b90506001845103612d98576000612d696000866125be90919063ffffffff16565b90506000612d816000866125be90919063ffffffff16565b9050612d91838989858589612edd565b5050612da7565b612da6818787878787613091565b5b505b5050505050565b612db8610ef0565b612dee576040517f8dfc202b00000000000000000000000000000000000000000000000000000000815260040160405180910390fd5b565b612df8610ef0565b15612e2f576040517fd93c066500000000000000000000000000000000000000000000000000000000815260040160405180910390fd5b565b60608060405191506001825283602083015260408201905060018152826020820152604081016040529250929050565b60007f01ffc9a7000000000000000000000000000000000000000000000000000000007bffffffffffffffffffffffffffffffffffffffffffffffffffffffff1916827bffffffffffffffffffffffffffffffffffffffffffffffffffffffff1916149050919050565b612ed784848484613245565b50505050565b60008473ffffffffffffffffffffffffffffffffffffffff163b1115613089578373ffffffffffffffffffffffffffffffffffffffff1663f23a6e6187878686866040518663ffffffff1660e01b8152600401612f3e959493929190614e21565b6020604051808303816000875af1925050508015612f7a57506040513d601f19601f82011682018060405250810190612f779190614e90565b60015b612ffe573d8060008114612faa576040519150601f19603f3d011682016040523d82523d6000602084013e612faf565b606091505b506000815103612ff657846040517f57f447ce000000000000000000000000000000000000000000000000000000008152600401612fed9190613e22565b60405180910390fd5b805181602001fd5b63f23a6e6160e01b7bffffffffffffffffffffffffffffffffffffffffffffffffffffffff1916817bffffffffffffffffffffffffffffffffffffffffffffffffffffffff19161461308757846040517f57f447ce00000000000000000000000000000000000000000000000000000000815260040161307e9190613e22565b60405180910390fd5b505b505050505050565b60008473ffffffffffffffffffffffffffffffffffffffff163b111561323d578373ffffffffffffffffffffffffffffffffffffffff1663bc197c8187878686866040518663ffffffff1660e01b81526004016130f2959493929190614ebd565b6020604051808303816000875af192505050801561312e57506040513d601f19601f8201168201806040525081019061312b9190614e90565b60015b6131b2573d806000811461315e576040519150601f19603f3d011682016040523d82523d6000602084013e613163565b606091505b5060008151036131aa57846040517f57f447ce0000000000000000000000000000000000000000000000000000000081526004016131a19190613e22565b60405180910390fd5b805181602001fd5b63bc197c8160e01b7bffffffffffffffffffffffffffffffffffffffffffffffffffffffff1916817bffffffffffffffffffffffffffffffffffffffffffffffffffffffff19161461323b57846040517f57f447ce0000000000000000000000000000000000000000000000000000000081526004016132329190613e22565b60405180910390fd5b505b505050505050565b61324d612df0565b6132598484848461325f565b50505050565b80518251146132a957815181516040517f5b0599910000000000000000000000000000000000000000000000000000000081526004016132a0929190614657565b60405180910390fd5b60006132b3612262565b905060005b83518110156134c85760006132d682866125be90919063ffffffff16565b905060006132ed83866125be90919063ffffffff16565b9050600073ffffffffffffffffffffffffffffffffffffffff168873ffffffffffffffffffffffffffffffffffffffff161461341a57600080600084815260200190815260200160002060008a73ffffffffffffffffffffffffffffffffffffffff1673ffffffffffffffffffffffffffffffffffffffff168152602001908152602001600020549050818110156133c257888183856040517f03dee4c50000000000000000000000000000000000000000000000000000000081526004016133b99493929190614f25565b60405180910390fd5b81810360008085815260200190815260200160002060008b73ffffffffffffffffffffffffffffffffffffffff1673ffffffffffffffffffffffffffffffffffffffff16815260200190815260200160002081905550505b600073ffffffffffffffffffffffffffffffffffffffff168773ffffffffffffffffffffffffffffffffffffffff16146134b5578060008084815260200190815260200160002060008973ffffffffffffffffffffffffffffffffffffffff1673ffffffffffffffffffffffffffffffffffffffff16815260200190815260200160002060008282546134ad91906145b5565b925050819055505b5050806134c1906146af565b90506132b8565b5060018351036135875760006134e86000856125be90919063ffffffff16565b905060006135006000856125be90919063ffffffff16565b90508573ffffffffffffffffffffffffffffffffffffffff168773ffffffffffffffffffffffffffffffffffffffff168473ffffffffffffffffffffffffffffffffffffffff167fc3d58168c5ae7397731d063d5bbf3d657854427343f4c083240f7aacaa2d0f628585604051613578929190614657565b60405180910390a45050613606565b8373ffffffffffffffffffffffffffffffffffffffff168573ffffffffffffffffffffffffffffffffffffffff168273ffffffffffffffffffffffffffffffffffffffff167f4a39dc06d4c0dbc64b70af90fd698a233a518aa5d07e595d983b8c0526c8f7fb86866040516135fd929190614f6a565b60405180910390a45b5050505050565b6000604051905090565b600080fd5b600080fd5b600073ffffffffffffffffffffffffffffffffffffffff82169050919050565b600061364c82613621565b9050919050565b61365c81613641565b811461366757600080fd5b50565b60008135905061367981613653565b92915050565b6000819050919050565b6136928161367f565b811461369d57600080fd5b50565b6000813590506136af81613689565b92915050565b600080604083850312156136cc576136cb613617565b5b60006136da8582860161366a565b92505060206136eb858286016136a0565b9150509250929050565b6136fe8161367f565b82525050565b600060208201905061371960008301846136f5565b92915050565b60007fffffffff0000000000000000000000000000000000000000000000000000000082169050919050565b6137548161371f565b811461375f57600080fd5b50565b6000813590506137718161374b565b92915050565b60006020828403121561378d5761378c613617565b5b600061379b84828501613762565b91505092915050565b60008115159050919050565b6137b9816137a4565b82525050565b60006020820190506137d460008301846137b0565b92915050565b600080fd5b600080fd5b6000601f19601f8301169050919050565b7f4e487b7100000000000000000000000000000000000000000000000000000000600052604160045260246000fd5b61382d826137e4565b810181811067ffffffffffffffff8211171561384c5761384b6137f5565b5b80604052505050565b600061385f61360d565b905061386b8282613824565b919050565b600067ffffffffffffffff82111561388b5761388a6137f5565b5b613894826137e4565b9050602081019050919050565b82818337600083830152505050565b60006138c36138be84613870565b613855565b9050828152602081018484840111156138df576138de6137df565b5b6138ea8482856138a1565b509392505050565b600082601f830112613907576139066137da565b5b81356139178482602086016138b0565b91505092915050565b60006020828403121561393657613935613617565b5b600082013567ffffffffffffffff8111156139545761395361361c565b5b613960848285016138f2565b91505092915050565b60006020828403121561397f5761397e613617565b5b600061398d848285016136a0565b91505092915050565b600081519050919050565b600082825260208201905092915050565b60005b838110156139d05780820151818401526020810190506139b5565b60008484015250505050565b60006139e782613996565b6139f181856139a1565b9350613a018185602086016139b2565b613a0a816137e4565b840191505092915050565b60006020820190508181036000830152613a2f81846139dc565b905092915050565b600067ffffffffffffffff821115613a5257613a516137f5565b5b613a5b826137e4565b9050602081019050919050565b6000613a7b613a7684613a37565b613855565b905082815260208101848484011115613a9757613a966137df565b5b613aa28482856138a1565b509392505050565b600082601f830112613abf57613abe6137da565b5b8135613acf848260208601613a68565b91505092915050565b600080600080600060a08688031215613af457613af3613617565b5b6000613b028882890161366a565b9550506020613b138882890161366a565b9450506040613b24888289016136a0565b9350506060613b35888289016136a0565b925050608086013567ffffffffffffffff811115613b5657613b5561361c565b5b613b6288828901613aaa565b9150509295509295909350565b6000819050919050565b613b8281613b6f565b8114613b8d57600080fd5b50565b600081359050613b9f81613b79565b92915050565b600060208284031215613bbb57613bba613617565b5b6000613bc984828501613b90565b91505092915050565b613bdb81613b6f565b82525050565b6000602082019050613bf66000830184613bd2565b92915050565b600067ffffffffffffffff821115613c1757613c166137f5565b5b602082029050602081019050919050565b600080fd5b6000613c40613c3b84613bfc565b613855565b90508083825260208201905060208402830185811115613c6357613c62613c28565b5b835b81811015613c8c5780613c7888826136a0565b845260208401935050602081019050613c65565b5050509392505050565b600082601f830112613cab57613caa6137da565b5b8135613cbb848260208601613c2d565b91505092915050565b600080600080600060a08688031215613ce057613cdf613617565b5b6000613cee8882890161366a565b9550506020613cff8882890161366a565b945050604086013567ffffffffffffffff811115613d2057613d1f61361c565b5b613d2c88828901613c96565b935050606086013567ffffffffffffffff811115613d4d57613d4c61361c565b5b613d5988828901613c96565b925050608086013567ffffffffffffffff811115613d7a57613d7961361c565b5b613d8688828901613aaa565b9150509295509295909350565b60008060408385031215613daa57613da9613617565b5b6000613db885828601613b90565b9250506020613dc98582860161366a565b9150509250929050565b60008060408385031215613dea57613de9613617565b5b6000613df8858286016136a0565b9250506020613e09858286016136a0565b9150509250929050565b613e1c81613641565b82525050565b6000602082019050613e376000830184613e13565b92915050565b600067ffffffffffffffff821115613e5857613e576137f5565b5b602082029050602081019050919050565b6000613e7c613e7784613e3d565b613855565b90508083825260208201905060208402830185811115613e9f57613e9e613c28565b5b835b81811015613ec85780613eb4888261366a565b845260208401935050602081019050613ea1565b5050509392505050565b600082601f830112613ee757613ee66137da565b5b8135613ef7848260208601613e69565b91505092915050565b60008060408385031215613f1757613f16613617565b5b600083013567ffffffffffffffff811115613f3557613f3461361c565b5b613f4185828601613ed2565b925050602083013567ffffffffffffffff811115613f6257613f6161361c565b5b613f6e85828601613c96565b9150509250929050565b600081519050919050565b600082825260208201905092915050565b6000819050602082019050919050565b613fad8161367f565b82525050565b6000613fbf8383613fa4565b60208301905092915050565b6000602082019050919050565b6000613fe382613f78565b613fed8185613f83565b9350613ff883613f94565b8060005b838110156140295781516140108882613fb3565b975061401b83613fcb565b925050600181019050613ffc565b5085935050505092915050565b600060208201905081810360008301526140508184613fd8565b905092915050565b60008060006060848603121561407157614070613617565b5b600061407f8682870161366a565b935050602084013567ffffffffffffffff8111156140a05761409f61361c565b5b6140ac86828701613c96565b925050604084013567ffffffffffffffff8111156140cd576140cc61361c565b5b6140d986828701613c96565b9150509250925092565b600060ff82169050919050565b6140f9816140e3565b811461410457600080fd5b50565b600081359050614116816140f0565b92915050565b60008060006060848603121561413557614134613617565b5b60006141438682870161366a565b935050602061415486828701614107565b925050604084013567ffffffffffffffff8111156141755761417461361c565b5b61418186828701613aaa565b9150509250925092565b6000806000606084860312156141a4576141a3613617565b5b60006141b2868287016136a0565b93505060206141c38682870161366a565b92505060406141d4868287016136a0565b9150509250925092565b6141e7816137a4565b81146141f257600080fd5b50565b600081359050614204816141de565b92915050565b6000806040838503121561422157614220613617565b5b600061422f8582860161366a565b9250506020614240858286016141f5565b9150509250929050565b6000806040838503121561426157614260613617565b5b600061426f8582860161366a565b925050602083013567ffffffffffffffff8111156142905761428f61361c565b5b61429c85828601613aaa565b9150509250929050565b6000602082840312156142bc576142bb613617565b5b60006142ca8482850161366a565b91505092915050565b600080604083850312156142ea576142e9613617565b5b60006142f8858286016136a0565b92505060206143098582860161366a565b9150509250929050565b6000806040838503121561432a57614329613617565b5b60006143388582860161366a565b92505060206143498582860161366a565b9150509250929050565b600081519050919050565b600082825260208201905092915050565b6000819050602082019050919050565b61438881613641565b82525050565b600061439a838361437f565b60208301905092915050565b6000602082019050919050565b60006143be82614353565b6143c8818561435e565b93506143d38361436f565b8060005b838110156144045781516143eb888261438e565b97506143f6836143a6565b9250506001810190506143d7565b5085935050505092915050565b6000602082019050818103600083015261442b81846143b3565b905092915050565b60008060006060848603121561444c5761444b613617565b5b600061445a8682870161366a565b935050602061446b868287016136a0565b925050604061447c868287016136a0565b9150509250925092565b7f4e487b7100000000000000000000000000000000000000000000000000000000600052602260045260246000fd5b600060028204905060018216806144cd57607f821691505b6020821081036144e0576144df614486565b5b50919050565b7f496e73756666696369656e74206f776e6572736869702062616c616e63650000600082015250565b600061451c601e836139a1565b9150614527826144e6565b602082019050919050565b6000602082019050818103600083015261454b8161450f565b9050919050565b7f4e487b7100000000000000000000000000000000000000000000000000000000600052601160045260246000fd5b600061458c8261367f565b91506145978361367f565b92508282039050818111156145af576145ae614552565b5b92915050565b60006145c08261367f565b91506145cb8361367f565b92508282019050808211156145e3576145e2614552565b5b92915050565b60006080820190506145fe60008301876136f5565b61460b6020830186613e13565b6146186040830185613e13565b61462560608301846136f5565b95945050505050565b60006040820190506146436000830185613e13565b6146506020830184613e13565b9392505050565b600060408201905061466c60008301856136f5565b61467960208301846136f5565b9392505050565b7f4e487b7100000000000000000000000000000000000000000000000000000000600052603260045260246000fd5b60006146ba8261367f565b91507fffffffffffffffffffffffffffffffffffffffffffffffffffffffffffffffff82036146ec576146eb614552565b5b600182019050919050565b7f496e73756666696369656e7420616c6c6f77616e636500000000000000000000600082015250565b600061472d6016836139a1565b9150614738826146f7565b602082019050919050565b6000602082019050818103600083015261475c81614720565b9050919050565b60008160601b9050919050565b600061477b82614763565b9050919050565b600061478d82614770565b9050919050565b6147a56147a082613641565b614782565b82525050565b600081519050919050565b600081905092915050565b60006147cc826147ab565b6147d681856147b6565b93506147e68185602086016139b2565b80840191505092915050565b6000819050919050565b61480d6148088261367f565b6147f2565b82525050565b60008160f81b9050919050565b600061482b82614813565b9050919050565b61484361483e826140e3565b614820565b82525050565b60006148558287614794565b60148201915061486582866147c1565b915061487182856147fc565b6020820191506148818284614832565b60018201915081905095945050505050565b600061489e826140e3565b915060ff82036148b1576148b0614552565b5b600182019050919050565b7f417070726f76616c20746f2063757272656e74206f776e657200000000000000600082015250565b60006148f26019836139a1565b91506148fd826148bc565b602082019050919050565b60006020820190508181036000830152614921816148e5565b9050919050565b60006149348286614794565b60148201915061494482856147c1565b915061495082846147fc565b602082019150819050949350505050565b7f496e76616c6964206f776e65727368697020616d6f756e7420746f2072656d6f60008201527f766520617070726f76616c000000000000000000000000000000000000000000602082015250565b60006149bd602b836139a1565b91506149c882614961565b604082019050919050565b600060208201905081810360008301526149ec816149b0565b9050919050565b7f496e73756666696369656e74206f70657261746f7220616c6c6f77616e636500600082015250565b6000614a29601f836139a1565b9150614a34826149f3565b602082019050919050565b60006020820190508181036000830152614a5881614a1c565b9050919050565b6000614a6a8261367f565b9150614a758361367f565b9250828202614a838161367f565b91508282048414831517614a9a57614a99614552565b5b5092915050565b7f4e487b7100000000000000000000000000000000000000000000000000000000600052601260045260246000fd5b6000614adb8261367f565b9150614ae68361367f565b925082614af657614af5614aa1565b5b828204905092915050565b60008190508160005260206000209050919050565b60006020601f8301049050919050565b600082821b905092915050565b600060088302614b637fffffffffffffffffffffffffffffffffffffffffffffffffffffffffffffffff82614b26565b614b6d8683614b26565b95508019841693508086168417925050509392505050565b6000819050919050565b6000614baa614ba5614ba08461367f565b614b85565b61367f565b9050919050565b6000819050919050565b614bc483614b8f565b614bd8614bd082614bb1565b848454614b33565b825550505050565b600090565b614bed614be0565b614bf8818484614bbb565b505050565b5b81811015614c1c57614c11600082614be5565b600181019050614bfe565b5050565b601f821115614c6157614c3281614b01565b614c3b84614b16565b81016020851015614c4a578190505b614c5e614c5685614b16565b830182614bfd565b50505b505050565b600082821c905092915050565b6000614c8460001984600802614c66565b1980831691505092915050565b6000614c9d8383614c73565b9150826002028217905092915050565b614cb682613996565b67ffffffffffffffff811115614ccf57614cce6137f5565b5b614cd982546144b5565b614ce4828285614c20565b600060209050601f831160018114614d175760008415614d05578287015190505b614d0f8582614c91565b865550614d77565b601f198416614d2586614b01565b60005b82811015614d4d57848901518255600182019150602085019450602081019050614d28565b86831015614d6a5784890151614d66601f891682614c73565b8355505b6001600288020188555050505b505050505050565b7f4e487b7100000000000000000000000000000000000000000000000000000000600052603160045260246000fd5b6000604082019050614dc36000830185613e13565b614dd06020830184613bd2565b9392505050565b600082825260208201905092915050565b6000614df3826147ab565b614dfd8185614dd7565b9350614e0d8185602086016139b2565b614e16816137e4565b840191505092915050565b600060a082019050614e366000830188613e13565b614e436020830187613e13565b614e5060408301866136f5565b614e5d60608301856136f5565b8181036080830152614e6f8184614de8565b90509695505050505050565b600081519050614e8a8161374b565b92915050565b600060208284031215614ea657614ea5613617565b5b6000614eb484828501614e7b565b91505092915050565b600060a082019050614ed26000830188613e13565b614edf6020830187613e13565b8181036040830152614ef18186613fd8565b90508181036060830152614f058185613fd8565b90508181036080830152614f198184614de8565b90509695505050505050565b6000608082019050614f3a6000830187613e13565b614f4760208301866136f5565b614f5460408301856136f5565b614f6160608301846136f5565b95945050505050565b60006040820190508181036000830152614f848185613fd8565b90508181036020830152614f988184613fd8565b9050939250505056fea2646970667358221220458a2c95ed4b5eaa0796db806e6e26d8fd95afadf95c8db8ffd21e464876128d64736f6c63430008140033",
  "linkReferences": {},
  "deployedLinkReferences": {}
}