{
  "_format": "hh-sol-artifact-1",
  "contractName": "MarketPlace",
  "sourceName": "contracts/MarketPlace.sol",
  "abi": [
    {
      "inputs": [
        {
          "internalType": "address",
          "name": "_fractionalizedNFT",
          "type": "address"
        },
        {
          "internalType": "address",
          "name": "_matic",
          "type": "address"
        }
      ],
      "stateMutability": "nonpayable",
      "type": "constructor"
    },
    {
      "inputs": [
        {
          "internalType": "address",
          "name": "owner",
          "type": "address"
        }
      ],
      "name": "OwnableInvalidOwner",
      "type": "error"
    },
    {
      "inputs": [
        {
          "internalType": "address",
          "name": "account",
          "type": "address"
        }
      ],
      "name": "OwnableUnauthorizedAccount",
      "type": "error"
    },
    {
      "inputs": [],
      "name": "ReentrancyGuardReentrantCall",
      "type": "error"
    },
    {
      "anonymous": false,
      "inputs": [
        {
          "indexed": true,
          "internalType": "address",
          "name": "previousOwner",
          "type": "address"
        },
        {
          "indexed": true,
          "internalType": "address",
          "name": "newOwner",
          "type": "address"
        }
      ],
      "name": "OwnershipTransferred",
      "type": "event"
    },
    {
      "anonymous": false,
      "inputs": [
        {
          "indexed": true,
          "internalType": "uint256",
          "name": "tokenId",
          "type": "uint256"
        },
        {
          "indexed": true,
          "internalType": "address",
          "name": "seller",
          "type": "address"
        },
        {
          "indexed": false,
          "internalType": "uint256",
          "name": "amount",
          "type": "uint256"
        },
        {
          "indexed": false,
          "internalType": "uint256",
          "name": "price",
          "type": "uint256"
        }
      ],
      "name": "TokenListed",
      "type": "event"
    },
    {
      "anonymous": false,
      "inputs": [
        {
          "indexed": true,
          "internalType": "uint256",
          "name": "tokenId",
          "type": "uint256"
        }
      ],
      "name": "TokenRemovedFromSale",
      "type": "event"
    },
    {
      "anonymous": false,
      "inputs": [
        {
          "indexed": true,
          "internalType": "uint256",
          "name": "tokenId",
          "type": "uint256"
        },
        {
          "indexed": true,
          "internalType": "address",
          "name": "from",
          "type": "address"
        },
        {
          "indexed": true,
          "internalType": "address",
          "name": "to",
          "type": "address"
        },
        {
          "indexed": false,
          "internalType": "uint256",
          "name": "amount",
          "type": "uint256"
        }
      ],
      "name": "TokenSold",
      "type": "event"
    },
    {
      "inputs": [
        {
          "internalType": "uint256",
          "name": "tokenId",
          "type": "uint256"
        },
        {
          "internalType": "uint256",
          "name": "amount",
          "type": "uint256"
        },
        {
          "internalType": "bytes",
          "name": "data",
          "type": "bytes"
        }
      ],
      "name": "buyToken",
      "outputs": [],
      "stateMutability": "nonpayable",
      "type": "function"
    },
    {
      "inputs": [
        {
          "internalType": "uint256",
          "name": "tokenId",
          "type": "uint256"
        },
        {
          "internalType": "uint256",
          "name": "amount",
          "type": "uint256"
        },
        {
          "internalType": "uint256",
          "name": "price",
          "type": "uint256"
        }
      ],
      "name": "listTokenForSale",
      "outputs": [],
      "stateMutability": "nonpayable",
      "type": "function"
    },
    {
      "inputs": [
        {
          "internalType": "uint256",
          "name": "",
          "type": "uint256"
        }
      ],
      "name": "listedTokens",
      "outputs": [
        {
          "internalType": "address",
          "name": "seller",
          "type": "address"
        },
        {
          "internalType": "uint256",
          "name": "tokenId",
          "type": "uint256"
        },
        {
          "internalType": "uint256",
          "name": "amount",
          "type": "uint256"
        },
        {
          "internalType": "uint256",
          "name": "price",
          "type": "uint256"
        }
      ],
      "stateMutability": "view",
      "type": "function"
    },
    {
      "inputs": [],
      "name": "owner",
      "outputs": [
        {
          "internalType": "address",
          "name": "",
          "type": "address"
        }
      ],
      "stateMutability": "view",
      "type": "function"
    },
    {
      "inputs": [
        {
          "internalType": "uint256",
          "name": "tokenId",
          "type": "uint256"
        }
      ],
      "name": "removeTokenFromSale",
      "outputs": [],
      "stateMutability": "nonpayable",
      "type": "function"
    },
    {
      "inputs": [],
      "name": "renounceOwnership",
      "outputs": [],
      "stateMutability": "nonpayable",
      "type": "function"
    },
    {
      "inputs": [
        {
          "internalType": "address",
          "name": "newOwner",
          "type": "address"
        }
      ],
      "name": "transferOwnership",
      "outputs": [],
      "stateMutability": "nonpayable",
      "type": "function"
    }
  ],
  "bytecode": "0x60806040523480156200001157600080fd5b5060405162001a6838038062001a6883398181016040528101906200003791906200027e565b33600073ffffffffffffffffffffffffffffffffffffffff168173ffffffffffffffffffffffffffffffffffffffff1603620000ad5760006040517f1e4fbdf7000000000000000000000000000000000000000000000000000000008152600401620000a49190620002d6565b60405180910390fd5b620000be816200015060201b60201c565b506001808190555081600260006101000a81548173ffffffffffffffffffffffffffffffffffffffff021916908373ffffffffffffffffffffffffffffffffffffffff16021790555080600360006101000a81548173ffffffffffffffffffffffffffffffffffffffff021916908373ffffffffffffffffffffffffffffffffffffffff1602179055505050620002f3565b60008060009054906101000a900473ffffffffffffffffffffffffffffffffffffffff169050816000806101000a81548173ffffffffffffffffffffffffffffffffffffffff021916908373ffffffffffffffffffffffffffffffffffffffff1602179055508173ffffffffffffffffffffffffffffffffffffffff168173ffffffffffffffffffffffffffffffffffffffff167f8be0079c531659141344cd1fd0a4f28419497f9722a3daafe3b4186f6b6457e060405160405180910390a35050565b600080fd5b600073ffffffffffffffffffffffffffffffffffffffff82169050919050565b6000620002468262000219565b9050919050565b620002588162000239565b81146200026457600080fd5b50565b60008151905062000278816200024d565b92915050565b6000806040838503121562000298576200029762000214565b5b6000620002a88582860162000267565b9250506020620002bb8582860162000267565b9150509250929050565b620002d08162000239565b82525050565b6000602082019050620002ed6000830184620002c5565b92915050565b61176580620003036000396000f3fe608060405234801561001057600080fd5b506004361061007d5760003560e01c80637273cc021161005b5780637273cc02146100db5780638da5cb5b146100f7578063e8cdea1114610115578063f2fde38b146101315761007d565b80635a9d1ac3146100825780635fe287b9146100b5578063715018a6146100d1575b600080fd5b61009c60048036038101906100979190610d91565b61014d565b6040516100ac9493929190610e0e565b60405180910390f35b6100cf60048036038101906100ca9190610f99565b61019d565b005b6100d9610639565b005b6100f560048036038101906100f09190611008565b61064d565b005b6100ff610913565b60405161010c919061105b565b60405180910390f35b61012f600480360381019061012a9190610d91565b61093c565b005b61014b600480360381019061014691906110a2565b610a77565b005b60046020528060005260406000206000915090508060000160009054906101000a900473ffffffffffffffffffffffffffffffffffffffff16908060010154908060020154908060030154905084565b6101a5610afd565b600082116101e8576040517f08c379a00000000000000000000000000000000000000000000000000000000081526004016101df9061112c565b60405180910390fd5b60006004600085815260200190815260200160002090508281600201541015610246576040517f08c379a000000000000000000000000000000000000000000000000000000000815260040161023d906111be565b60405180910390fd5b6000838260030154610258919061120d565b905080600360009054906101000a900473ffffffffffffffffffffffffffffffffffffffff1673ffffffffffffffffffffffffffffffffffffffff166370a08231336040518263ffffffff1660e01b81526004016102b6919061105b565b602060405180830381865afa1580156102d3573d6000803e3d6000fd5b505050506040513d601f19601f820116820180604052508101906102f79190611264565b1015610338576040517f08c379a000000000000000000000000000000000000000000000000000000000815260040161032f906112dd565b60405180910390fd5b600360009054906101000a900473ffffffffffffffffffffffffffffffffffffffff1673ffffffffffffffffffffffffffffffffffffffff166323b872dd338460000160009054906101000a900473ffffffffffffffffffffffffffffffffffffffff16846040518463ffffffff1660e01b81526004016103bb939291906112fd565b6020604051808303816000875af11580156103da573d6000803e3d6000fd5b505050506040513d601f19601f820116820180604052508101906103fe919061136c565b61043d576040517f08c379a0000000000000000000000000000000000000000000000000000000008152600401610434906113e5565b60405180910390fd5b600260009054906101000a900473ffffffffffffffffffffffffffffffffffffffff1673ffffffffffffffffffffffffffffffffffffffff1663605105f08360000160009054906101000a900473ffffffffffffffffffffffffffffffffffffffff16338888886040518663ffffffff1660e01b81526004016104c4959493929190611484565b600060405180830381600087803b1580156104de57600080fd5b505af11580156104f2573d6000803e3d6000fd5b505050508382600201600082825461050a91906114de565b925050819055503373ffffffffffffffffffffffffffffffffffffffff168260000160009054906101000a900473ffffffffffffffffffffffffffffffffffffffff1673ffffffffffffffffffffffffffffffffffffffff16867f3d5eb834b5d6cadc063c171c3f25f60bca8ea892ba9db25342278927d0af9556876040516105939190611512565b60405180910390a4600082600201540361062a5760046000868152602001908152602001600020600080820160006101000a81549073ffffffffffffffffffffffffffffffffffffffff02191690556001820160009055600282016000905560038201600090555050847fccd0b7af52bf5f08ec6781299e66283301e612d1ca1ffceab3579a6364073c3060405160405180910390a25b5050610634610b43565b505050565b610641610b4c565b61064b6000610bd3565b565b610655610afd565b60008211610698576040517f08c379a000000000000000000000000000000000000000000000000000000000815260040161068f9061112c565b60405180910390fd5b600081116106db576040517f08c379a00000000000000000000000000000000000000000000000000000000081526004016106d290611579565b60405180910390fd5b6106e483610c97565b610723576040517f08c379a000000000000000000000000000000000000000000000000000000000815260040161071a906115e5565b60405180910390fd5b81600260009054906101000a900473ffffffffffffffffffffffffffffffffffffffff1673ffffffffffffffffffffffffffffffffffffffff16632fecd4bb33866040518363ffffffff1660e01b8152600401610781929190611605565b602060405180830381865afa15801561079e573d6000803e3d6000fd5b505050506040513d601f19601f820116820180604052508101906107c29190611264565b1015610803576040517f08c379a00000000000000000000000000000000000000000000000000000000081526004016107fa9061167a565b60405180910390fd5b60405180608001604052803373ffffffffffffffffffffffffffffffffffffffff168152602001848152602001838152602001828152506004600085815260200190815260200160002060008201518160000160006101000a81548173ffffffffffffffffffffffffffffffffffffffff021916908373ffffffffffffffffffffffffffffffffffffffff1602179055506020820151816001015560408201518160020155606082015181600301559050503373ffffffffffffffffffffffffffffffffffffffff16837f2428821d20d9a8080d99a3d335d478f0546d90a0376be12c52a6d600f15586bf84846040516108fe92919061169a565b60405180910390a361090e610b43565b505050565b60008060009054906101000a900473ffffffffffffffffffffffffffffffffffffffff16905090565b610944610afd565b803373ffffffffffffffffffffffffffffffffffffffff166004600083815260200190815260200160002060000160009054906101000a900473ffffffffffffffffffffffffffffffffffffffff1673ffffffffffffffffffffffffffffffffffffffff16146109e9576040517f08c379a00000000000000000000000000000000000000000000000000000000081526004016109e09061170f565b60405180910390fd5b60046000838152602001908152602001600020600080820160006101000a81549073ffffffffffffffffffffffffffffffffffffffff02191690556001820160009055600282016000905560038201600090555050817fccd0b7af52bf5f08ec6781299e66283301e612d1ca1ffceab3579a6364073c3060405160405180910390a250610a74610b43565b50565b610a7f610b4c565b600073ffffffffffffffffffffffffffffffffffffffff168173ffffffffffffffffffffffffffffffffffffffff1603610af15760006040517f1e4fbdf7000000000000000000000000000000000000000000000000000000008152600401610ae8919061105b565b60405180910390fd5b610afa81610bd3565b50565b600260015403610b39576040517f3ee5aeb500000000000000000000000000000000000000000000000000000000815260040160405180910390fd5b6002600181905550565b60018081905550565b610b54610d3f565b73ffffffffffffffffffffffffffffffffffffffff16610b72610913565b73ffffffffffffffffffffffffffffffffffffffff1614610bd157610b95610d3f565b6040517f118cdaa7000000000000000000000000000000000000000000000000000000008152600401610bc8919061105b565b60405180910390fd5b565b60008060009054906101000a900473ffffffffffffffffffffffffffffffffffffffff169050816000806101000a81548173ffffffffffffffffffffffffffffffffffffffff021916908373ffffffffffffffffffffffffffffffffffffffff1602179055508173ffffffffffffffffffffffffffffffffffffffff168173ffffffffffffffffffffffffffffffffffffffff167f8be0079c531659141344cd1fd0a4f28419497f9722a3daafe3b4186f6b6457e060405160405180910390a35050565b600080600260009054906101000a900473ffffffffffffffffffffffffffffffffffffffff1673ffffffffffffffffffffffffffffffffffffffff1662fdd58e33856040518363ffffffff1660e01b8152600401610cf6929190611605565b602060405180830381865afa158015610d13573d6000803e3d6000fd5b505050506040513d601f19601f82011682018060405250810190610d379190611264565b119050919050565b600033905090565b6000604051905090565b600080fd5b600080fd5b6000819050919050565b610d6e81610d5b565b8114610d7957600080fd5b50565b600081359050610d8b81610d65565b92915050565b600060208284031215610da757610da6610d51565b5b6000610db584828501610d7c565b91505092915050565b600073ffffffffffffffffffffffffffffffffffffffff82169050919050565b6000610de982610dbe565b9050919050565b610df981610dde565b82525050565b610e0881610d5b565b82525050565b6000608082019050610e236000830187610df0565b610e306020830186610dff565b610e3d6040830185610dff565b610e4a6060830184610dff565b95945050505050565b600080fd5b600080fd5b6000601f19601f8301169050919050565b7f4e487b7100000000000000000000000000000000000000000000000000000000600052604160045260246000fd5b610ea682610e5d565b810181811067ffffffffffffffff82111715610ec557610ec4610e6e565b5b80604052505050565b6000610ed8610d47565b9050610ee48282610e9d565b919050565b600067ffffffffffffffff821115610f0457610f03610e6e565b5b610f0d82610e5d565b9050602081019050919050565b82818337600083830152505050565b6000610f3c610f3784610ee9565b610ece565b905082815260208101848484011115610f5857610f57610e58565b5b610f63848285610f1a565b509392505050565b600082601f830112610f8057610f7f610e53565b5b8135610f90848260208601610f29565b91505092915050565b600080600060608486031215610fb257610fb1610d51565b5b6000610fc086828701610d7c565b9350506020610fd186828701610d7c565b925050604084013567ffffffffffffffff811115610ff257610ff1610d56565b5b610ffe86828701610f6b565b9150509250925092565b60008060006060848603121561102157611020610d51565b5b600061102f86828701610d7c565b935050602061104086828701610d7c565b925050604061105186828701610d7c565b9150509250925092565b60006020820190506110706000830184610df0565b92915050565b61107f81610dde565b811461108a57600080fd5b50565b60008135905061109c81611076565b92915050565b6000602082840312156110b8576110b7610d51565b5b60006110c68482850161108d565b91505092915050565b600082825260208201905092915050565b7f416d6f756e74206d7573742062652067726561746572207468616e207a65726f600082015250565b60006111166020836110cf565b9150611121826110e0565b602082019050919050565b6000602082019050818103600083015261114581611109565b9050919050565b7f4e6f7420656e6f75676820746f6b656e7320617661696c61626c6520666f722060008201527f73616c6500000000000000000000000000000000000000000000000000000000602082015250565b60006111a86024836110cf565b91506111b38261114c565b604082019050919050565b600060208201905081810360008301526111d78161119b565b9050919050565b7f4e487b7100000000000000000000000000000000000000000000000000000000600052601160045260246000fd5b600061121882610d5b565b915061122383610d5b565b925082820261123181610d5b565b91508282048414831517611248576112476111de565b5b5092915050565b60008151905061125e81610d65565b92915050565b60006020828403121561127a57611279610d51565b5b60006112888482850161124f565b91505092915050565b7f496e73756666696369656e742062757965722062616c616e6365000000000000600082015250565b60006112c7601a836110cf565b91506112d282611291565b602082019050919050565b600060208201905081810360008301526112f6816112ba565b9050919050565b60006060820190506113126000830186610df0565b61131f6020830185610df0565b61132c6040830184610dff565b949350505050565b60008115159050919050565b61134981611334565b811461135457600080fd5b50565b60008151905061136681611340565b92915050565b60006020828403121561138257611381610d51565b5b600061139084828501611357565b91505092915050565b7f546f6b656e207472616e73666572206661696c65640000000000000000000000600082015250565b60006113cf6015836110cf565b91506113da82611399565b602082019050919050565b600060208201905081810360008301526113fe816113c2565b9050919050565b600081519050919050565b600082825260208201905092915050565b60005b8381101561143f578082015181840152602081019050611424565b60008484015250505050565b600061145682611405565b6114608185611410565b9350611470818560208601611421565b61147981610e5d565b840191505092915050565b600060a0820190506114996000830188610df0565b6114a66020830187610df0565b6114b36040830186610dff565b6114c06060830185610dff565b81810360808301526114d2818461144b565b90509695505050505050565b60006114e982610d5b565b91506114f483610d5b565b925082820390508181111561150c5761150b6111de565b5b92915050565b60006020820190506115276000830184610dff565b92915050565b7f5072696365206d7573742062652067726561746572207468616e207a65726f00600082015250565b6000611563601f836110cf565b915061156e8261152d565b602082019050919050565b6000602082019050818103600083015261159281611556565b9050919050565b7f546f6b656e206d757374206265206672616374696f6e616c697a656400000000600082015250565b60006115cf601c836110cf565b91506115da82611599565b602082019050919050565b600060208201905081810360008301526115fe816115c2565b9050919050565b600060408201905061161a6000830185610df0565b6116276020830184610dff565b9392505050565b7f496e73756666696369656e74206f776e65727368697000000000000000000000600082015250565b60006116646016836110cf565b915061166f8261162e565b602082019050919050565b6000602082019050818103600083015261169381611657565b9050919050565b60006040820190506116af6000830185610dff565b6116bc6020830184610dff565b9392505050565b7f4e6f74207468652073656c6c6572000000000000000000000000000000000000600082015250565b60006116f9600e836110cf565b9150611704826116c3565b602082019050919050565b60006020820190508181036000830152611728816116ec565b905091905056fea26469706673582212205d5bafdcb55a8ef47a26f01a8942afe2bc6723e2cf79f11976182d6afe02f21a64736f6c63430008140033",
  "linkReferences": {},
  "deployedLinkReferences": {}
}