{
  "_format": "hh-sol-artifact-1",
  "contractName": "MarketPlace",
  "sourceName": "contracts/MarketPlace.sol",
  "abi": [
    {
      "inputs": [
        {
          "internalType": "address",
          "name": "_fractionalizedNFT",
          "type": "address"
        },
        {
          "internalType": "address",
          "name": "_matic",
          "type": "address"
        }
      ],
      "stateMutability": "nonpayable",
      "type": "constructor"
    },
    {
      "inputs": [
        {
          "internalType": "address",
          "name": "owner",
          "type": "address"
        }
      ],
      "name": "OwnableInvalidOwner",
      "type": "error"
    },
    {
      "inputs": [
        {
          "internalType": "address",
          "name": "account",
          "type": "address"
        }
      ],
      "name": "OwnableUnauthorizedAccount",
      "type": "error"
    },
    {
      "inputs": [],
      "name": "ReentrancyGuardReentrantCall",
      "type": "error"
    },
    {
      "anonymous": false,
      "inputs": [
        {
          "indexed": true,
          "internalType": "address",
          "name": "previousOwner",
          "type": "address"
        },
        {
          "indexed": true,
          "internalType": "address",
          "name": "newOwner",
          "type": "address"
        }
      ],
      "name": "OwnershipTransferred",
      "type": "event"
    },
    {
      "anonymous": false,
      "inputs": [
        {
          "indexed": true,
          "internalType": "uint256",
          "name": "tokenId",
          "type": "uint256"
        },
        {
          "indexed": true,
          "internalType": "address",
          "name": "seller",
          "type": "address"
        },
        {
          "indexed": false,
          "internalType": "uint256",
          "name": "amount",
          "type": "uint256"
        },
        {
          "indexed": false,
          "internalType": "uint256",
          "name": "price",
          "type": "uint256"
        }
      ],
      "name": "TokenListed",
      "type": "event"
    },
    {
      "anonymous": false,
      "inputs": [
        {
          "indexed": true,
          "internalType": "uint256",
          "name": "tokenId",
          "type": "uint256"
        }
      ],
      "name": "TokenRemovedFromSale",
      "type": "event"
    },
    {
      "anonymous": false,
      "inputs": [
        {
          "indexed": true,
          "internalType": "uint256",
          "name": "tokenId",
          "type": "uint256"
        },
        {
          "indexed": true,
          "internalType": "address",
          "name": "from",
          "type": "address"
        },
        {
          "indexed": true,
          "internalType": "address",
          "name": "to",
          "type": "address"
        },
        {
          "indexed": false,
          "internalType": "uint256",
          "name": "amount",
          "type": "uint256"
        }
      ],
      "name": "TokenSold",
      "type": "event"
    },
    {
      "inputs": [
        {
          "internalType": "uint256",
          "name": "tokenId",
          "type": "uint256"
        },
        {
          "internalType": "uint256",
          "name": "amount",
          "type": "uint256"
        },
        {
          "internalType": "bytes",
          "name": "data",
          "type": "bytes"
        }
      ],
      "name": "buyToken",
      "outputs": [],
      "stateMutability": "nonpayable",
      "type": "function"
    },
    {
      "inputs": [
        {
          "internalType": "uint256",
          "name": "tokenId",
          "type": "uint256"
        },
        {
          "internalType": "uint256",
          "name": "amount",
          "type": "uint256"
        },
        {
          "internalType": "uint256",
          "name": "price",
          "type": "uint256"
        }
      ],
      "name": "listTokenForSale",
      "outputs": [],
      "stateMutability": "nonpayable",
      "type": "function"
    },
    {
      "inputs": [],
      "name": "owner",
      "outputs": [
        {
          "internalType": "address",
          "name": "",
          "type": "address"
        }
      ],
      "stateMutability": "view",
      "type": "function"
    },
    {
      "inputs": [
        {
          "internalType": "uint256",
          "name": "tokenId",
          "type": "uint256"
        }
      ],
      "name": "removeTokenFromSale",
      "outputs": [],
      "stateMutability": "nonpayable",
      "type": "function"
    },
    {
      "inputs": [],
      "name": "renounceOwnership",
      "outputs": [],
      "stateMutability": "nonpayable",
      "type": "function"
    },
    {
      "inputs": [
        {
          "internalType": "address",
          "name": "newOwner",
          "type": "address"
        }
      ],
      "name": "transferOwnership",
      "outputs": [],
      "stateMutability": "nonpayable",
      "type": "function"
    }
  ],
  "bytecode": "0x60806040523480156200001157600080fd5b50604051620019853803806200198583398181016040528101906200003791906200027e565b33600073ffffffffffffffffffffffffffffffffffffffff168173ffffffffffffffffffffffffffffffffffffffff1603620000ad5760006040517f1e4fbdf7000000000000000000000000000000000000000000000000000000008152600401620000a49190620002d6565b60405180910390fd5b620000be816200015060201b60201c565b506001808190555081600260006101000a81548173ffffffffffffffffffffffffffffffffffffffff021916908373ffffffffffffffffffffffffffffffffffffffff16021790555080600360006101000a81548173ffffffffffffffffffffffffffffffffffffffff021916908373ffffffffffffffffffffffffffffffffffffffff1602179055505050620002f3565b60008060009054906101000a900473ffffffffffffffffffffffffffffffffffffffff169050816000806101000a81548173ffffffffffffffffffffffffffffffffffffffff021916908373ffffffffffffffffffffffffffffffffffffffff1602179055508173ffffffffffffffffffffffffffffffffffffffff168173ffffffffffffffffffffffffffffffffffffffff167f8be0079c531659141344cd1fd0a4f28419497f9722a3daafe3b4186f6b6457e060405160405180910390a35050565b600080fd5b600073ffffffffffffffffffffffffffffffffffffffff82169050919050565b6000620002468262000219565b9050919050565b620002588162000239565b81146200026457600080fd5b50565b60008151905062000278816200024d565b92915050565b6000806040838503121562000298576200029762000214565b5b6000620002a88582860162000267565b9250506020620002bb8582860162000267565b9150509250929050565b620002d08162000239565b82525050565b6000602082019050620002ed6000830184620002c5565b92915050565b61168280620003036000396000f3fe608060405234801561001057600080fd5b50600436106100625760003560e01c80635fe287b914610067578063715018a6146100835780637273cc021461008d5780638da5cb5b146100a9578063e8cdea11146100c7578063f2fde38b146100e3575b600080fd5b610081600480360381019061007c9190610e39565b6100ff565b005b61008b61059b565b005b6100a760048036038101906100a29190610ea8565b6105af565b005b6100b1610875565b6040516100be9190610f3c565b60405180910390f35b6100e160048036038101906100dc9190610f57565b61089e565b005b6100fd60048036038101906100f89190610fb0565b6109d9565b005b610107610a5f565b6000821161014a576040517f08c379a00000000000000000000000000000000000000000000000000000000081526004016101419061103a565b60405180910390fd5b600060046000858152602001908152602001600020905082816002015410156101a8576040517f08c379a000000000000000000000000000000000000000000000000000000000815260040161019f906110cc565b60405180910390fd5b60008382600301546101ba919061111b565b905080600360009054906101000a900473ffffffffffffffffffffffffffffffffffffffff1673ffffffffffffffffffffffffffffffffffffffff166370a08231336040518263ffffffff1660e01b81526004016102189190610f3c565b602060405180830381865afa158015610235573d6000803e3d6000fd5b505050506040513d601f19601f820116820180604052508101906102599190611172565b101561029a576040517f08c379a0000000000000000000000000000000000000000000000000000000008152600401610291906111eb565b60405180910390fd5b600360009054906101000a900473ffffffffffffffffffffffffffffffffffffffff1673ffffffffffffffffffffffffffffffffffffffff166323b872dd338460000160009054906101000a900473ffffffffffffffffffffffffffffffffffffffff16846040518463ffffffff1660e01b815260040161031d9392919061121a565b6020604051808303816000875af115801561033c573d6000803e3d6000fd5b505050506040513d601f19601f820116820180604052508101906103609190611289565b61039f576040517f08c379a000000000000000000000000000000000000000000000000000000000815260040161039690611302565b60405180910390fd5b600260009054906101000a900473ffffffffffffffffffffffffffffffffffffffff1673ffffffffffffffffffffffffffffffffffffffff1663605105f08360000160009054906101000a900473ffffffffffffffffffffffffffffffffffffffff16338888886040518663ffffffff1660e01b81526004016104269594939291906113a1565b600060405180830381600087803b15801561044057600080fd5b505af1158015610454573d6000803e3d6000fd5b505050508382600201600082825461046c91906113fb565b925050819055503373ffffffffffffffffffffffffffffffffffffffff168260000160009054906101000a900473ffffffffffffffffffffffffffffffffffffffff1673ffffffffffffffffffffffffffffffffffffffff16867f3d5eb834b5d6cadc063c171c3f25f60bca8ea892ba9db25342278927d0af9556876040516104f5919061142f565b60405180910390a4600082600201540361058c5760046000868152602001908152602001600020600080820160006101000a81549073ffffffffffffffffffffffffffffffffffffffff02191690556001820160009055600282016000905560038201600090555050847fccd0b7af52bf5f08ec6781299e66283301e612d1ca1ffceab3579a6364073c3060405160405180910390a25b5050610596610aa5565b505050565b6105a3610aae565b6105ad6000610b35565b565b6105b7610a5f565b600082116105fa576040517f08c379a00000000000000000000000000000000000000000000000000000000081526004016105f19061103a565b60405180910390fd5b6000811161063d576040517f08c379a000000000000000000000000000000000000000000000000000000000815260040161063490611496565b60405180910390fd5b61064683610bf9565b610685576040517f08c379a000000000000000000000000000000000000000000000000000000000815260040161067c90611502565b60405180910390fd5b81600260009054906101000a900473ffffffffffffffffffffffffffffffffffffffff1673ffffffffffffffffffffffffffffffffffffffff16632fecd4bb33866040518363ffffffff1660e01b81526004016106e3929190611522565b602060405180830381865afa158015610700573d6000803e3d6000fd5b505050506040513d601f19601f820116820180604052508101906107249190611172565b1015610765576040517f08c379a000000000000000000000000000000000000000000000000000000000815260040161075c90611597565b60405180910390fd5b60405180608001604052803373ffffffffffffffffffffffffffffffffffffffff168152602001848152602001838152602001828152506004600085815260200190815260200160002060008201518160000160006101000a81548173ffffffffffffffffffffffffffffffffffffffff021916908373ffffffffffffffffffffffffffffffffffffffff1602179055506020820151816001015560408201518160020155606082015181600301559050503373ffffffffffffffffffffffffffffffffffffffff16837f2428821d20d9a8080d99a3d335d478f0546d90a0376be12c52a6d600f15586bf84846040516108609291906115b7565b60405180910390a3610870610aa5565b505050565b60008060009054906101000a900473ffffffffffffffffffffffffffffffffffffffff16905090565b6108a6610a5f565b803373ffffffffffffffffffffffffffffffffffffffff166004600083815260200190815260200160002060000160009054906101000a900473ffffffffffffffffffffffffffffffffffffffff1673ffffffffffffffffffffffffffffffffffffffff161461094b576040517f08c379a00000000000000000000000000000000000000000000000000000000081526004016109429061162c565b60405180910390fd5b60046000838152602001908152602001600020600080820160006101000a81549073ffffffffffffffffffffffffffffffffffffffff02191690556001820160009055600282016000905560038201600090555050817fccd0b7af52bf5f08ec6781299e66283301e612d1ca1ffceab3579a6364073c3060405160405180910390a2506109d6610aa5565b50565b6109e1610aae565b600073ffffffffffffffffffffffffffffffffffffffff168173ffffffffffffffffffffffffffffffffffffffff1603610a535760006040517f1e4fbdf7000000000000000000000000000000000000000000000000000000008152600401610a4a9190610f3c565b60405180910390fd5b610a5c81610b35565b50565b600260015403610a9b576040517f3ee5aeb500000000000000000000000000000000000000000000000000000000815260040160405180910390fd5b6002600181905550565b60018081905550565b610ab6610ca1565b73ffffffffffffffffffffffffffffffffffffffff16610ad4610875565b73ffffffffffffffffffffffffffffffffffffffff1614610b3357610af7610ca1565b6040517f118cdaa7000000000000000000000000000000000000000000000000000000008152600401610b2a9190610f3c565b60405180910390fd5b565b60008060009054906101000a900473ffffffffffffffffffffffffffffffffffffffff169050816000806101000a81548173ffffffffffffffffffffffffffffffffffffffff021916908373ffffffffffffffffffffffffffffffffffffffff1602179055508173ffffffffffffffffffffffffffffffffffffffff168173ffffffffffffffffffffffffffffffffffffffff167f8be0079c531659141344cd1fd0a4f28419497f9722a3daafe3b4186f6b6457e060405160405180910390a35050565b600080600260009054906101000a900473ffffffffffffffffffffffffffffffffffffffff1673ffffffffffffffffffffffffffffffffffffffff1662fdd58e33856040518363ffffffff1660e01b8152600401610c58929190611522565b602060405180830381865afa158015610c75573d6000803e3d6000fd5b505050506040513d601f19601f82011682018060405250810190610c999190611172565b119050919050565b600033905090565b6000604051905090565b600080fd5b600080fd5b6000819050919050565b610cd081610cbd565b8114610cdb57600080fd5b50565b600081359050610ced81610cc7565b92915050565b600080fd5b600080fd5b6000601f19601f8301169050919050565b7f4e487b7100000000000000000000000000000000000000000000000000000000600052604160045260246000fd5b610d4682610cfd565b810181811067ffffffffffffffff82111715610d6557610d64610d0e565b5b80604052505050565b6000610d78610ca9565b9050610d848282610d3d565b919050565b600067ffffffffffffffff821115610da457610da3610d0e565b5b610dad82610cfd565b9050602081019050919050565b82818337600083830152505050565b6000610ddc610dd784610d89565b610d6e565b905082815260208101848484011115610df857610df7610cf8565b5b610e03848285610dba565b509392505050565b600082601f830112610e2057610e1f610cf3565b5b8135610e30848260208601610dc9565b91505092915050565b600080600060608486031215610e5257610e51610cb3565b5b6000610e6086828701610cde565b9350506020610e7186828701610cde565b925050604084013567ffffffffffffffff811115610e9257610e91610cb8565b5b610e9e86828701610e0b565b9150509250925092565b600080600060608486031215610ec157610ec0610cb3565b5b6000610ecf86828701610cde565b9350506020610ee086828701610cde565b9250506040610ef186828701610cde565b9150509250925092565b600073ffffffffffffffffffffffffffffffffffffffff82169050919050565b6000610f2682610efb565b9050919050565b610f3681610f1b565b82525050565b6000602082019050610f516000830184610f2d565b92915050565b600060208284031215610f6d57610f6c610cb3565b5b6000610f7b84828501610cde565b91505092915050565b610f8d81610f1b565b8114610f9857600080fd5b50565b600081359050610faa81610f84565b92915050565b600060208284031215610fc657610fc5610cb3565b5b6000610fd484828501610f9b565b91505092915050565b600082825260208201905092915050565b7f416d6f756e74206d7573742062652067726561746572207468616e207a65726f600082015250565b6000611024602083610fdd565b915061102f82610fee565b602082019050919050565b6000602082019050818103600083015261105381611017565b9050919050565b7f4e6f7420656e6f75676820746f6b656e7320617661696c61626c6520666f722060008201527f73616c6500000000000000000000000000000000000000000000000000000000602082015250565b60006110b6602483610fdd565b91506110c18261105a565b604082019050919050565b600060208201905081810360008301526110e5816110a9565b9050919050565b7f4e487b7100000000000000000000000000000000000000000000000000000000600052601160045260246000fd5b600061112682610cbd565b915061113183610cbd565b925082820261113f81610cbd565b91508282048414831517611156576111556110ec565b5b5092915050565b60008151905061116c81610cc7565b92915050565b60006020828403121561118857611187610cb3565b5b60006111968482850161115d565b91505092915050565b7f496e73756666696369656e742062757965722062616c616e6365000000000000600082015250565b60006111d5601a83610fdd565b91506111e08261119f565b602082019050919050565b60006020820190508181036000830152611204816111c8565b9050919050565b61121481610cbd565b82525050565b600060608201905061122f6000830186610f2d565b61123c6020830185610f2d565b611249604083018461120b565b949350505050565b60008115159050919050565b61126681611251565b811461127157600080fd5b50565b6000815190506112838161125d565b92915050565b60006020828403121561129f5761129e610cb3565b5b60006112ad84828501611274565b91505092915050565b7f546f6b656e207472616e73666572206661696c65640000000000000000000000600082015250565b60006112ec601583610fdd565b91506112f7826112b6565b602082019050919050565b6000602082019050818103600083015261131b816112df565b9050919050565b600081519050919050565b600082825260208201905092915050565b60005b8381101561135c578082015181840152602081019050611341565b60008484015250505050565b600061137382611322565b61137d818561132d565b935061138d81856020860161133e565b61139681610cfd565b840191505092915050565b600060a0820190506113b66000830188610f2d565b6113c36020830187610f2d565b6113d0604083018661120b565b6113dd606083018561120b565b81810360808301526113ef8184611368565b90509695505050505050565b600061140682610cbd565b915061141183610cbd565b9250828203905081811115611429576114286110ec565b5b92915050565b6000602082019050611444600083018461120b565b92915050565b7f5072696365206d7573742062652067726561746572207468616e207a65726f00600082015250565b6000611480601f83610fdd565b915061148b8261144a565b602082019050919050565b600060208201905081810360008301526114af81611473565b9050919050565b7f546f6b656e206d757374206265206672616374696f6e616c697a656400000000600082015250565b60006114ec601c83610fdd565b91506114f7826114b6565b602082019050919050565b6000602082019050818103600083015261151b816114df565b9050919050565b60006040820190506115376000830185610f2d565b611544602083018461120b565b9392505050565b7f496e73756666696369656e74206f776e65727368697000000000000000000000600082015250565b6000611581601683610fdd565b915061158c8261154b565b602082019050919050565b600060208201905081810360008301526115b081611574565b9050919050565b60006040820190506115cc600083018561120b565b6115d9602083018461120b565b9392505050565b7f4e6f74207468652073656c6c6572000000000000000000000000000000000000600082015250565b6000611616600e83610fdd565b9150611621826115e0565b602082019050919050565b6000602082019050818103600083015261164581611609565b905091905056fea2646970667358221220e0d551932168471afc5b6ed8e4b59120e6bb5ca1f4256467b601e7cb9a24436164736f6c63430008140033",
  "linkReferences": {},
  "deployedLinkReferences": {}
}