{
  "_format": "hh-sol-artifact-1",
  "contractName": "MarketPlace",
  "sourceName": "contracts/MarketPlace.sol",
  "abi": [
    {
      "inputs": [
        {
          "internalType": "address",
          "name": "_fractionalizedNFT",
          "type": "address"
        },
        {
          "internalType": "address",
          "name": "_matic",
          "type": "address"
        }
      ],
      "stateMutability": "nonpayable",
      "type": "constructor"
    },
    {
      "inputs": [
        {
          "internalType": "address",
          "name": "owner",
          "type": "address"
        }
      ],
      "name": "OwnableInvalidOwner",
      "type": "error"
    },
    {
      "inputs": [
        {
          "internalType": "address",
          "name": "account",
          "type": "address"
        }
      ],
      "name": "OwnableUnauthorizedAccount",
      "type": "error"
    },
    {
      "inputs": [],
      "name": "ReentrancyGuardReentrantCall",
      "type": "error"
    },
    {
      "anonymous": false,
      "inputs": [
        {
          "indexed": true,
          "internalType": "address",
          "name": "previousOwner",
          "type": "address"
        },
        {
          "indexed": true,
          "internalType": "address",
          "name": "newOwner",
          "type": "address"
        }
      ],
      "name": "OwnershipTransferred",
      "type": "event"
    },
    {
      "anonymous": false,
      "inputs": [
        {
          "indexed": true,
          "internalType": "uint256",
          "name": "tokenId",
          "type": "uint256"
        },
        {
          "indexed": true,
          "internalType": "address",
          "name": "seller",
          "type": "address"
        },
        {
          "indexed": false,
          "internalType": "uint256",
          "name": "amount",
          "type": "uint256"
        },
        {
          "indexed": false,
          "internalType": "uint256",
          "name": "price",
          "type": "uint256"
        }
      ],
      "name": "TokenListed",
      "type": "event"
    },
    {
      "anonymous": false,
      "inputs": [
        {
          "indexed": true,
          "internalType": "uint256",
          "name": "tokenId",
          "type": "uint256"
        }
      ],
      "name": "TokenRemovedFromSale",
      "type": "event"
    },
    {
      "anonymous": false,
      "inputs": [
        {
          "indexed": true,
          "internalType": "uint256",
          "name": "tokenId",
          "type": "uint256"
        },
        {
          "indexed": true,
          "internalType": "address",
          "name": "from",
          "type": "address"
        },
        {
          "indexed": true,
          "internalType": "address",
          "name": "to",
          "type": "address"
        },
        {
          "indexed": false,
          "internalType": "uint256",
          "name": "amount",
          "type": "uint256"
        }
      ],
      "name": "TokenSold",
      "type": "event"
    },
    {
      "inputs": [
        {
          "internalType": "uint256",
          "name": "tokenId",
          "type": "uint256"
        },
        {
          "internalType": "uint256",
          "name": "amount",
          "type": "uint256"
        },
        {
          "internalType": "bytes",
          "name": "data",
          "type": "bytes"
        }
      ],
      "name": "buyToken",
      "outputs": [],
      "stateMutability": "nonpayable",
      "type": "function"
    },
    {
      "inputs": [
        {
          "internalType": "uint256",
          "name": "tokenId",
          "type": "uint256"
        },
        {
          "internalType": "uint256",
          "name": "amount",
          "type": "uint256"
        },
        {
          "internalType": "uint256",
          "name": "price",
          "type": "uint256"
        }
      ],
      "name": "listTokenForSale",
      "outputs": [],
      "stateMutability": "nonpayable",
      "type": "function"
    },
    {
      "inputs": [
        {
          "internalType": "uint256",
          "name": "",
          "type": "uint256"
        }
      ],
      "name": "listedTokens",
      "outputs": [
        {
          "internalType": "address",
          "name": "seller",
          "type": "address"
        },
        {
          "internalType": "uint256",
          "name": "tokenId",
          "type": "uint256"
        },
        {
          "internalType": "uint256",
          "name": "amount",
          "type": "uint256"
        },
        {
          "internalType": "uint256",
          "name": "price",
          "type": "uint256"
        }
      ],
      "stateMutability": "view",
      "type": "function"
    },
    {
      "inputs": [],
      "name": "owner",
      "outputs": [
        {
          "internalType": "address",
          "name": "",
          "type": "address"
        }
      ],
      "stateMutability": "view",
      "type": "function"
    },
    {
      "inputs": [
        {
          "internalType": "uint256",
          "name": "tokenId",
          "type": "uint256"
        }
      ],
      "name": "removeTokenFromSale",
      "outputs": [],
      "stateMutability": "nonpayable",
      "type": "function"
    },
    {
      "inputs": [],
      "name": "renounceOwnership",
      "outputs": [],
      "stateMutability": "nonpayable",
      "type": "function"
    },
    {
      "inputs": [
        {
          "internalType": "address",
          "name": "newOwner",
          "type": "address"
        }
      ],
      "name": "transferOwnership",
      "outputs": [],
      "stateMutability": "nonpayable",
      "type": "function"
    }
  ],
  "bytecode": "0x60806040523480156200001157600080fd5b5060405162001b8638038062001b8683398181016040528101906200003791906200027e565b33600073ffffffffffffffffffffffffffffffffffffffff168173ffffffffffffffffffffffffffffffffffffffff1603620000ad5760006040517f1e4fbdf7000000000000000000000000000000000000000000000000000000008152600401620000a49190620002d6565b60405180910390fd5b620000be816200015060201b60201c565b506001808190555081600260006101000a81548173ffffffffffffffffffffffffffffffffffffffff021916908373ffffffffffffffffffffffffffffffffffffffff16021790555080600360006101000a81548173ffffffffffffffffffffffffffffffffffffffff021916908373ffffffffffffffffffffffffffffffffffffffff1602179055505050620002f3565b60008060009054906101000a900473ffffffffffffffffffffffffffffffffffffffff169050816000806101000a81548173ffffffffffffffffffffffffffffffffffffffff021916908373ffffffffffffffffffffffffffffffffffffffff1602179055508173ffffffffffffffffffffffffffffffffffffffff168173ffffffffffffffffffffffffffffffffffffffff167f8be0079c531659141344cd1fd0a4f28419497f9722a3daafe3b4186f6b6457e060405160405180910390a35050565b600080fd5b600073ffffffffffffffffffffffffffffffffffffffff82169050919050565b6000620002468262000219565b9050919050565b620002588162000239565b81146200026457600080fd5b50565b60008151905062000278816200024d565b92915050565b6000806040838503121562000298576200029762000214565b5b6000620002a88582860162000267565b9250506020620002bb8582860162000267565b9150509250929050565b620002d08162000239565b82525050565b6000602082019050620002ed6000830184620002c5565b92915050565b61188380620003036000396000f3fe608060405234801561001057600080fd5b506004361061007d5760003560e01c80637273cc021161005b5780637273cc02146100db5780638da5cb5b146100f7578063e8cdea1114610115578063f2fde38b146101315761007d565b80635a9d1ac3146100825780635fe287b9146100b5578063715018a6146100d1575b600080fd5b61009c60048036038101906100979190610eaf565b61014d565b6040516100ac9493929190610f2c565b60405180910390f35b6100cf60048036038101906100ca91906110b7565b61019d565b005b6100d9610637565b005b6100f560048036038101906100f09190611126565b61064b565b005b6100ff6109a2565b60405161010c9190611179565b60405180910390f35b61012f600480360381019061012a9190610eaf565b6109cb565b005b61014b600480360381019061014691906111c0565b610b95565b005b60046020528060005260406000206000915090508060000160009054906101000a900473ffffffffffffffffffffffffffffffffffffffff16908060010154908060020154908060030154905084565b6101a5610c1b565b600082116101e8576040517f08c379a00000000000000000000000000000000000000000000000000000000081526004016101df9061124a565b60405180910390fd5b60006004600085815260200190815260200160002090508281600201541015610246576040517f08c379a000000000000000000000000000000000000000000000000000000000815260040161023d906112dc565b60405180910390fd5b6000838260030154610258919061132b565b905080600360009054906101000a900473ffffffffffffffffffffffffffffffffffffffff1673ffffffffffffffffffffffffffffffffffffffff166370a08231336040518263ffffffff1660e01b81526004016102b69190611179565b602060405180830381865afa1580156102d3573d6000803e3d6000fd5b505050506040513d601f19601f820116820180604052508101906102f79190611382565b1015610338576040517f08c379a000000000000000000000000000000000000000000000000000000000815260040161032f906113fb565b60405180910390fd5b600360009054906101000a900473ffffffffffffffffffffffffffffffffffffffff1673ffffffffffffffffffffffffffffffffffffffff1663a9059cbb8360000160009054906101000a900473ffffffffffffffffffffffffffffffffffffffff16836040518363ffffffff1660e01b81526004016103b992919061141b565b6020604051808303816000875af11580156103d8573d6000803e3d6000fd5b505050506040513d601f19601f820116820180604052508101906103fc919061147c565b61043b576040517f08c379a0000000000000000000000000000000000000000000000000000000008152600401610432906114f5565b60405180910390fd5b600260009054906101000a900473ffffffffffffffffffffffffffffffffffffffff1673ffffffffffffffffffffffffffffffffffffffff1663605105f08360000160009054906101000a900473ffffffffffffffffffffffffffffffffffffffff16338888886040518663ffffffff1660e01b81526004016104c2959493929190611594565b600060405180830381600087803b1580156104dc57600080fd5b505af11580156104f0573d6000803e3d6000fd5b505050508382600201600082825461050891906115ee565b925050819055503373ffffffffffffffffffffffffffffffffffffffff168260000160009054906101000a900473ffffffffffffffffffffffffffffffffffffffff1673ffffffffffffffffffffffffffffffffffffffff16867f3d5eb834b5d6cadc063c171c3f25f60bca8ea892ba9db25342278927d0af9556876040516105919190611622565b60405180910390a460008260020154036106285760046000868152602001908152602001600020600080820160006101000a81549073ffffffffffffffffffffffffffffffffffffffff02191690556001820160009055600282016000905560038201600090555050847fccd0b7af52bf5f08ec6781299e66283301e612d1ca1ffceab3579a6364073c3060405160405180910390a25b5050610632610c61565b505050565b61063f610c6a565b6106496000610cf1565b565b610653610c1b565b60008211610696576040517f08c379a000000000000000000000000000000000000000000000000000000000815260040161068d9061124a565b60405180910390fd5b600081116106d9576040517f08c379a00000000000000000000000000000000000000000000000000000000081526004016106d090611689565b60405180910390fd5b6106e283610db5565b610721576040517f08c379a0000000000000000000000000000000000000000000000000000000008152600401610718906116f5565b60405180910390fd5b81600260009054906101000a900473ffffffffffffffffffffffffffffffffffffffff1673ffffffffffffffffffffffffffffffffffffffff16632fecd4bb33866040518363ffffffff1660e01b815260040161077f92919061141b565b602060405180830381865afa15801561079c573d6000803e3d6000fd5b505050506040513d601f19601f820116820180604052508101906107c09190611382565b1015610801576040517f08c379a00000000000000000000000000000000000000000000000000000000081526004016107f890611761565b60405180910390fd5b600260009054906101000a900473ffffffffffffffffffffffffffffffffffffffff1673ffffffffffffffffffffffffffffffffffffffff16638cb0a5118430856040518463ffffffff1660e01b815260040161086093929190611781565b600060405180830381600087803b15801561087a57600080fd5b505af115801561088e573d6000803e3d6000fd5b5050505060405180608001604052803373ffffffffffffffffffffffffffffffffffffffff168152602001848152602001838152602001828152506004600085815260200190815260200160002060008201518160000160006101000a81548173ffffffffffffffffffffffffffffffffffffffff021916908373ffffffffffffffffffffffffffffffffffffffff1602179055506020820151816001015560408201518160020155606082015181600301559050503373ffffffffffffffffffffffffffffffffffffffff16837f2428821d20d9a8080d99a3d335d478f0546d90a0376be12c52a6d600f15586bf848460405161098d9291906117b8565b60405180910390a361099d610c61565b505050565b60008060009054906101000a900473ffffffffffffffffffffffffffffffffffffffff16905090565b6109d3610c1b565b803373ffffffffffffffffffffffffffffffffffffffff166004600083815260200190815260200160002060000160009054906101000a900473ffffffffffffffffffffffffffffffffffffffff1673ffffffffffffffffffffffffffffffffffffffff1614610a78576040517f08c379a0000000000000000000000000000000000000000000000000000000008152600401610a6f9061182d565b60405180910390fd5b60046000838152602001908152602001600020600080820160006101000a81549073ffffffffffffffffffffffffffffffffffffffff02191690556001820160009055600282016000905560038201600090555050600260009054906101000a900473ffffffffffffffffffffffffffffffffffffffff1673ffffffffffffffffffffffffffffffffffffffff1663b537b26930846040518363ffffffff1660e01b8152600401610b2a92919061141b565b600060405180830381600087803b158015610b4457600080fd5b505af1158015610b58573d6000803e3d6000fd5b50505050817fccd0b7af52bf5f08ec6781299e66283301e612d1ca1ffceab3579a6364073c3060405160405180910390a250610b92610c61565b50565b610b9d610c6a565b600073ffffffffffffffffffffffffffffffffffffffff168173ffffffffffffffffffffffffffffffffffffffff1603610c0f5760006040517f1e4fbdf7000000000000000000000000000000000000000000000000000000008152600401610c069190611179565b60405180910390fd5b610c1881610cf1565b50565b600260015403610c57576040517f3ee5aeb500000000000000000000000000000000000000000000000000000000815260040160405180910390fd5b6002600181905550565b60018081905550565b610c72610e5d565b73ffffffffffffffffffffffffffffffffffffffff16610c906109a2565b73ffffffffffffffffffffffffffffffffffffffff1614610cef57610cb3610e5d565b6040517f118cdaa7000000000000000000000000000000000000000000000000000000008152600401610ce69190611179565b60405180910390fd5b565b60008060009054906101000a900473ffffffffffffffffffffffffffffffffffffffff169050816000806101000a81548173ffffffffffffffffffffffffffffffffffffffff021916908373ffffffffffffffffffffffffffffffffffffffff1602179055508173ffffffffffffffffffffffffffffffffffffffff168173ffffffffffffffffffffffffffffffffffffffff167f8be0079c531659141344cd1fd0a4f28419497f9722a3daafe3b4186f6b6457e060405160405180910390a35050565b600080600260009054906101000a900473ffffffffffffffffffffffffffffffffffffffff1673ffffffffffffffffffffffffffffffffffffffff1662fdd58e33856040518363ffffffff1660e01b8152600401610e1492919061141b565b602060405180830381865afa158015610e31573d6000803e3d6000fd5b505050506040513d601f19601f82011682018060405250810190610e559190611382565b119050919050565b600033905090565b6000604051905090565b600080fd5b600080fd5b6000819050919050565b610e8c81610e79565b8114610e9757600080fd5b50565b600081359050610ea981610e83565b92915050565b600060208284031215610ec557610ec4610e6f565b5b6000610ed384828501610e9a565b91505092915050565b600073ffffffffffffffffffffffffffffffffffffffff82169050919050565b6000610f0782610edc565b9050919050565b610f1781610efc565b82525050565b610f2681610e79565b82525050565b6000608082019050610f416000830187610f0e565b610f4e6020830186610f1d565b610f5b6040830185610f1d565b610f686060830184610f1d565b95945050505050565b600080fd5b600080fd5b6000601f19601f8301169050919050565b7f4e487b7100000000000000000000000000000000000000000000000000000000600052604160045260246000fd5b610fc482610f7b565b810181811067ffffffffffffffff82111715610fe357610fe2610f8c565b5b80604052505050565b6000610ff6610e65565b90506110028282610fbb565b919050565b600067ffffffffffffffff82111561102257611021610f8c565b5b61102b82610f7b565b9050602081019050919050565b82818337600083830152505050565b600061105a61105584611007565b610fec565b90508281526020810184848401111561107657611075610f76565b5b611081848285611038565b509392505050565b600082601f83011261109e5761109d610f71565b5b81356110ae848260208601611047565b91505092915050565b6000806000606084860312156110d0576110cf610e6f565b5b60006110de86828701610e9a565b93505060206110ef86828701610e9a565b925050604084013567ffffffffffffffff8111156111105761110f610e74565b5b61111c86828701611089565b9150509250925092565b60008060006060848603121561113f5761113e610e6f565b5b600061114d86828701610e9a565b935050602061115e86828701610e9a565b925050604061116f86828701610e9a565b9150509250925092565b600060208201905061118e6000830184610f0e565b92915050565b61119d81610efc565b81146111a857600080fd5b50565b6000813590506111ba81611194565b92915050565b6000602082840312156111d6576111d5610e6f565b5b60006111e4848285016111ab565b91505092915050565b600082825260208201905092915050565b7f416d6f756e74206d7573742062652067726561746572207468616e207a65726f600082015250565b60006112346020836111ed565b915061123f826111fe565b602082019050919050565b6000602082019050818103600083015261126381611227565b9050919050565b7f4e6f7420656e6f75676820746f6b656e7320617661696c61626c6520666f722060008201527f73616c6500000000000000000000000000000000000000000000000000000000602082015250565b60006112c66024836111ed565b91506112d18261126a565b604082019050919050565b600060208201905081810360008301526112f5816112b9565b9050919050565b7f4e487b7100000000000000000000000000000000000000000000000000000000600052601160045260246000fd5b600061133682610e79565b915061134183610e79565b925082820261134f81610e79565b91508282048414831517611366576113656112fc565b5b5092915050565b60008151905061137c81610e83565b92915050565b60006020828403121561139857611397610e6f565b5b60006113a68482850161136d565b91505092915050565b7f496e73756666696369656e742062757965722062616c616e6365000000000000600082015250565b60006113e5601a836111ed565b91506113f0826113af565b602082019050919050565b60006020820190508181036000830152611414816113d8565b9050919050565b60006040820190506114306000830185610f0e565b61143d6020830184610f1d565b9392505050565b60008115159050919050565b61145981611444565b811461146457600080fd5b50565b60008151905061147681611450565b92915050565b60006020828403121561149257611491610e6f565b5b60006114a084828501611467565b91505092915050565b7f546f6b656e207472616e73666572206661696c65640000000000000000000000600082015250565b60006114df6015836111ed565b91506114ea826114a9565b602082019050919050565b6000602082019050818103600083015261150e816114d2565b9050919050565b600081519050919050565b600082825260208201905092915050565b60005b8381101561154f578082015181840152602081019050611534565b60008484015250505050565b600061156682611515565b6115708185611520565b9350611580818560208601611531565b61158981610f7b565b840191505092915050565b600060a0820190506115a96000830188610f0e565b6115b66020830187610f0e565b6115c36040830186610f1d565b6115d06060830185610f1d565b81810360808301526115e2818461155b565b90509695505050505050565b60006115f982610e79565b915061160483610e79565b925082820390508181111561161c5761161b6112fc565b5b92915050565b60006020820190506116376000830184610f1d565b92915050565b7f5072696365206d7573742062652067726561746572207468616e207a65726f00600082015250565b6000611673601f836111ed565b915061167e8261163d565b602082019050919050565b600060208201905081810360008301526116a281611666565b9050919050565b7f546f6b656e206d757374206265206672616374696f6e616c697a656400000000600082015250565b60006116df601c836111ed565b91506116ea826116a9565b602082019050919050565b6000602082019050818103600083015261170e816116d2565b9050919050565b7f496e73756666696369656e74206f776e65727368697000000000000000000000600082015250565b600061174b6016836111ed565b915061175682611715565b602082019050919050565b6000602082019050818103600083015261177a8161173e565b9050919050565b60006060820190506117966000830186610f1d565b6117a36020830185610f0e565b6117b06040830184610f1d565b949350505050565b60006040820190506117cd6000830185610f1d565b6117da6020830184610f1d565b9392505050565b7f4e6f74207468652073656c6c6572000000000000000000000000000000000000600082015250565b6000611817600e836111ed565b9150611822826117e1565b602082019050919050565b600060208201905081810360008301526118468161180a565b905091905056fea2646970667358221220c0349b206f9b0141aadcb8b50d9a3644f91ed86f522584207995153d7b0f7f3f64736f6c63430008140033",
  "linkReferences": {},
  "deployedLinkReferences": {}
}