{
  "_format": "hh-sol-artifact-1",
  "contractName": "MarketPlace",
  "sourceName": "contracts/MarketPlace.sol",
  "abi": [
    {
      "inputs": [
        {
          "internalType": "address",
          "name": "_fractionalizedNFT",
          "type": "address"
        },
        {
          "internalType": "address",
          "name": "_matic",
          "type": "address"
        },
        {
          "internalType": "address",
          "name": "_priceConsumerV3",
          "type": "address"
        }
      ],
      "stateMutability": "nonpayable",
      "type": "constructor"
    },
    {
      "inputs": [
        {
          "internalType": "address",
          "name": "owner",
          "type": "address"
        }
      ],
      "name": "OwnableInvalidOwner",
      "type": "error"
    },
    {
      "inputs": [
        {
          "internalType": "address",
          "name": "account",
          "type": "address"
        }
      ],
      "name": "OwnableUnauthorizedAccount",
      "type": "error"
    },
    {
      "inputs": [],
      "name": "ReentrancyGuardReentrantCall",
      "type": "error"
    },
    {
      "anonymous": false,
      "inputs": [
        {
          "indexed": true,
          "internalType": "address",
          "name": "previousOwner",
          "type": "address"
        },
        {
          "indexed": true,
          "internalType": "address",
          "name": "newOwner",
          "type": "address"
        }
      ],
      "name": "OwnershipTransferred",
      "type": "event"
    },
    {
      "anonymous": false,
      "inputs": [
        {
          "indexed": true,
          "internalType": "uint256",
          "name": "orderId",
          "type": "uint256"
        },
        {
          "indexed": true,
          "internalType": "uint256",
          "name": "tokenId",
          "type": "uint256"
        },
        {
          "indexed": true,
          "internalType": "address",
          "name": "seller",
          "type": "address"
        },
        {
          "indexed": false,
          "internalType": "uint256",
          "name": "amount",
          "type": "uint256"
        },
        {
          "indexed": false,
          "internalType": "uint256",
          "name": "price",
          "type": "uint256"
        }
      ],
      "name": "TokenListed",
      "type": "event"
    },
    {
      "anonymous": false,
      "inputs": [
        {
          "indexed": true,
          "internalType": "uint256",
          "name": "orderId",
          "type": "uint256"
        }
      ],
      "name": "TokenRemovedFromSale",
      "type": "event"
    },
    {
      "anonymous": false,
      "inputs": [
        {
          "indexed": true,
          "internalType": "uint256",
          "name": "orderId",
          "type": "uint256"
        },
        {
          "indexed": true,
          "internalType": "uint256",
          "name": "tokenId",
          "type": "uint256"
        },
        {
          "indexed": true,
          "internalType": "address",
          "name": "from",
          "type": "address"
        },
        {
          "indexed": false,
          "internalType": "address",
          "name": "to",
          "type": "address"
        },
        {
          "indexed": false,
          "internalType": "uint256",
          "name": "amount",
          "type": "uint256"
        }
      ],
      "name": "TokenSold",
      "type": "event"
    },
    {
      "inputs": [
        {
          "internalType": "uint256",
          "name": "orderId",
          "type": "uint256"
        },
        {
          "internalType": "uint256",
          "name": "tokenId",
          "type": "uint256"
        },
        {
          "internalType": "uint256",
          "name": "amount",
          "type": "uint256"
        },
        {
          "internalType": "bytes",
          "name": "data",
          "type": "bytes"
        }
      ],
      "name": "buyToken",
      "outputs": [],
      "stateMutability": "nonpayable",
      "type": "function"
    },
    {
      "inputs": [
        {
          "internalType": "uint256",
          "name": "tokenId",
          "type": "uint256"
        }
      ],
      "name": "getReserverPricingMatic",
      "outputs": [
        {
          "internalType": "uint256",
          "name": "",
          "type": "uint256"
        }
      ],
      "stateMutability": "view",
      "type": "function"
    },
    {
      "inputs": [
        {
          "internalType": "uint256",
          "name": "tokenId",
          "type": "uint256"
        },
        {
          "internalType": "uint256",
          "name": "amount",
          "type": "uint256"
        },
        {
          "internalType": "uint256",
          "name": "price",
          "type": "uint256"
        }
      ],
      "name": "listTokenForSale",
      "outputs": [],
      "stateMutability": "nonpayable",
      "type": "function"
    },
    {
      "inputs": [
        {
          "internalType": "uint256",
          "name": "",
          "type": "uint256"
        }
      ],
      "name": "listedTokens",
      "outputs": [
        {
          "internalType": "address",
          "name": "seller",
          "type": "address"
        },
        {
          "internalType": "uint256",
          "name": "tokenId",
          "type": "uint256"
        },
        {
          "internalType": "uint256",
          "name": "amount",
          "type": "uint256"
        },
        {
          "internalType": "uint256",
          "name": "price",
          "type": "uint256"
        }
      ],
      "stateMutability": "view",
      "type": "function"
    },
    {
      "inputs": [],
      "name": "owner",
      "outputs": [
        {
          "internalType": "address",
          "name": "",
          "type": "address"
        }
      ],
      "stateMutability": "view",
      "type": "function"
    },
    {
      "inputs": [
        {
          "internalType": "uint256",
          "name": "orderId",
          "type": "uint256"
        }
      ],
      "name": "removeTokenFromSale",
      "outputs": [],
      "stateMutability": "nonpayable",
      "type": "function"
    },
    {
      "inputs": [],
      "name": "renounceOwnership",
      "outputs": [],
      "stateMutability": "nonpayable",
      "type": "function"
    },
    {
      "inputs": [
        {
          "internalType": "address",
          "name": "newOwner",
          "type": "address"
        }
      ],
      "name": "transferOwnership",
      "outputs": [],
      "stateMutability": "nonpayable",
      "type": "function"
    }
  ],
  "bytecode": "0x60806040523480156200001157600080fd5b5060405162001d2f38038062001d2f8339818101604052810190620000379190620002c0565b33600073ffffffffffffffffffffffffffffffffffffffff168173ffffffffffffffffffffffffffffffffffffffff1603620000ad5760006040517f1e4fbdf7000000000000000000000000000000000000000000000000000000008152600401620000a491906200032d565b60405180910390fd5b620000be816200019260201b60201c565b506001808190555082600260006101000a81548173ffffffffffffffffffffffffffffffffffffffff021916908373ffffffffffffffffffffffffffffffffffffffff16021790555081600360006101000a81548173ffffffffffffffffffffffffffffffffffffffff021916908373ffffffffffffffffffffffffffffffffffffffff16021790555080600460006101000a81548173ffffffffffffffffffffffffffffffffffffffff021916908373ffffffffffffffffffffffffffffffffffffffff1602179055505050506200034a565b60008060009054906101000a900473ffffffffffffffffffffffffffffffffffffffff169050816000806101000a81548173ffffffffffffffffffffffffffffffffffffffff021916908373ffffffffffffffffffffffffffffffffffffffff1602179055508173ffffffffffffffffffffffffffffffffffffffff168173ffffffffffffffffffffffffffffffffffffffff167f8be0079c531659141344cd1fd0a4f28419497f9722a3daafe3b4186f6b6457e060405160405180910390a35050565b600080fd5b600073ffffffffffffffffffffffffffffffffffffffff82169050919050565b600062000288826200025b565b9050919050565b6200029a816200027b565b8114620002a657600080fd5b50565b600081519050620002ba816200028f565b92915050565b600080600060608486031215620002dc57620002db62000256565b5b6000620002ec86828701620002a9565b9350506020620002ff86828701620002a9565b92505060406200031286828701620002a9565b9150509250925092565b62000327816200027b565b82525050565b60006020820190506200034460008301846200031c565b92915050565b6119d5806200035a6000396000f3fe608060405234801561001057600080fd5b50600436106100885760003560e01c80638da5cb5b1161005b5780638da5cb5b14610116578063bbec147714610134578063e8cdea1114610150578063f2fde38b1461016c57610088565b80630633dfd81461008d5780635a9d1ac3146100bd578063715018a6146100f05780637273cc02146100fa575b600080fd5b6100a760048036038101906100a29190610f2a565b610188565b6040516100b49190610f66565b60405180910390f35b6100d760048036038101906100d29190610f2a565b6102d6565b6040516100e79493929190610fc2565b60405180910390f35b6100f8610326565b005b610114600480360381019061010f9190611007565b61033a565b005b61011e610623565b60405161012b919061105a565b60405180910390f35b61014e600480360381019061014991906111bb565b61064c565b005b61016a60048036038101906101659190610f2a565b610ad5565b005b6101866004803603810190610181919061126a565b610c10565b005b600080600260009054906101000a900473ffffffffffffffffffffffffffffffffffffffff1673ffffffffffffffffffffffffffffffffffffffff16638b12937c846040518263ffffffff1660e01b81526004016101e69190610f66565b602060405180830381865afa158015610203573d6000803e3d6000fd5b505050506040513d601f19601f8201168201806040525081019061022791906112ac565b90506000600460009054906101000a900473ffffffffffffffffffffffffffffffffffffffff1673ffffffffffffffffffffffffffffffffffffffff16631cd617338360066040518363ffffffff1660e01b815260040161028992919061132b565b602060405180830381865afa1580156102a6573d6000803e3d6000fd5b505050506040513d601f19601f820116820180604052508101906102ca91906112ac565b90508092505050919050565b60066020528060005260406000206000915090508060000160009054906101000a900473ffffffffffffffffffffffffffffffffffffffff16908060010154908060020154908060030154905084565b61032e610c96565b6103386000610d1d565b565b610342610de1565b60008211610385576040517f08c379a000000000000000000000000000000000000000000000000000000000815260040161037c906113b1565b60405180910390fd5b600081116103c8576040517f08c379a00000000000000000000000000000000000000000000000000000000081526004016103bf9061141d565b60405180910390fd5b6103d183610e27565b610410576040517f08c379a000000000000000000000000000000000000000000000000000000000815260040161040790611489565b60405180910390fd5b81600260009054906101000a900473ffffffffffffffffffffffffffffffffffffffff1673ffffffffffffffffffffffffffffffffffffffff16632fecd4bb33866040518363ffffffff1660e01b815260040161046e9291906114a9565b602060405180830381865afa15801561048b573d6000803e3d6000fd5b505050506040513d601f19601f820116820180604052508101906104af91906112ac565b10156104f0576040517f08c379a00000000000000000000000000000000000000000000000000000000081526004016104e79061151e565b60405180910390fd5b6000600554905060405180608001604052803373ffffffffffffffffffffffffffffffffffffffff1681526020018581526020018481526020018381525060066000600554815260200190815260200160002060008201518160000160006101000a81548173ffffffffffffffffffffffffffffffffffffffff021916908373ffffffffffffffffffffffffffffffffffffffff160217905550602082015181600101556040820151816002015560608201518160030155905050600560008154809291906105be9061156d565b91905055503373ffffffffffffffffffffffffffffffffffffffff1684827fa92192e62483e02da647da87df5ee3ae3946b4d23bc8bcba4bedc399d746b61a868660405161060d9291906115b5565b60405180910390a45061061e610ecf565b505050565b60008060009054906101000a900473ffffffffffffffffffffffffffffffffffffffff16905090565b610654610de1565b60008211610697576040517f08c379a000000000000000000000000000000000000000000000000000000000815260040161068e906113b1565b60405180910390fd5b600060066000868152602001908152602001600020905082816002015410156106f5576040517f08c379a00000000000000000000000000000000000000000000000000000000081526004016106ec90611650565b60405180910390fd5b60008382600301546107079190611670565b905080600360009054906101000a900473ffffffffffffffffffffffffffffffffffffffff1673ffffffffffffffffffffffffffffffffffffffff166370a08231336040518263ffffffff1660e01b8152600401610765919061105a565b602060405180830381865afa158015610782573d6000803e3d6000fd5b505050506040513d601f19601f820116820180604052508101906107a691906112ac565b10156107e7576040517f08c379a00000000000000000000000000000000000000000000000000000000081526004016107de906116fe565b60405180910390fd5b600360009054906101000a900473ffffffffffffffffffffffffffffffffffffffff1673ffffffffffffffffffffffffffffffffffffffff166323b872dd338460000160009054906101000a900473ffffffffffffffffffffffffffffffffffffffff16846040518463ffffffff1660e01b815260040161086a9392919061171e565b6020604051808303816000875af1158015610889573d6000803e3d6000fd5b505050506040513d601f19601f820116820180604052508101906108ad919061178d565b6108ec576040517f08c379a00000000000000000000000000000000000000000000000000000000081526004016108e390611806565b60405180910390fd5b600260009054906101000a900473ffffffffffffffffffffffffffffffffffffffff1673ffffffffffffffffffffffffffffffffffffffff1663605105f08360000160009054906101000a900473ffffffffffffffffffffffffffffffffffffffff16338888886040518663ffffffff1660e01b81526004016109739594939291906118a5565b600060405180830381600087803b15801561098d57600080fd5b505af11580156109a1573d6000803e3d6000fd5b50505050838260020160008282546109b991906118ff565b925050819055508160000160009054906101000a900473ffffffffffffffffffffffffffffffffffffffff1673ffffffffffffffffffffffffffffffffffffffff1685877ffe622457aed7573c0622a010adec14ea75bfc79cb8d47c552fdcad34199067013388604051610a2e9291906114a9565b60405180910390a46000826002015403610ac55760066000878152602001908152602001600020600080820160006101000a81549073ffffffffffffffffffffffffffffffffffffffff02191690556001820160009055600282016000905560038201600090555050857fccd0b7af52bf5f08ec6781299e66283301e612d1ca1ffceab3579a6364073c3060405160405180910390a25b5050610acf610ecf565b50505050565b610add610de1565b803373ffffffffffffffffffffffffffffffffffffffff166006600083815260200190815260200160002060000160009054906101000a900473ffffffffffffffffffffffffffffffffffffffff1673ffffffffffffffffffffffffffffffffffffffff1614610b82576040517f08c379a0000000000000000000000000000000000000000000000000000000008152600401610b799061197f565b60405180910390fd5b60066000838152602001908152602001600020600080820160006101000a81549073ffffffffffffffffffffffffffffffffffffffff02191690556001820160009055600282016000905560038201600090555050817fccd0b7af52bf5f08ec6781299e66283301e612d1ca1ffceab3579a6364073c3060405160405180910390a250610c0d610ecf565b50565b610c18610c96565b600073ffffffffffffffffffffffffffffffffffffffff168173ffffffffffffffffffffffffffffffffffffffff1603610c8a5760006040517f1e4fbdf7000000000000000000000000000000000000000000000000000000008152600401610c81919061105a565b60405180910390fd5b610c9381610d1d565b50565b610c9e610ed8565b73ffffffffffffffffffffffffffffffffffffffff16610cbc610623565b73ffffffffffffffffffffffffffffffffffffffff1614610d1b57610cdf610ed8565b6040517f118cdaa7000000000000000000000000000000000000000000000000000000008152600401610d12919061105a565b60405180910390fd5b565b60008060009054906101000a900473ffffffffffffffffffffffffffffffffffffffff169050816000806101000a81548173ffffffffffffffffffffffffffffffffffffffff021916908373ffffffffffffffffffffffffffffffffffffffff1602179055508173ffffffffffffffffffffffffffffffffffffffff168173ffffffffffffffffffffffffffffffffffffffff167f8be0079c531659141344cd1fd0a4f28419497f9722a3daafe3b4186f6b6457e060405160405180910390a35050565b600260015403610e1d576040517f3ee5aeb500000000000000000000000000000000000000000000000000000000815260040160405180910390fd5b6002600181905550565b600080600260009054906101000a900473ffffffffffffffffffffffffffffffffffffffff1673ffffffffffffffffffffffffffffffffffffffff1662fdd58e33856040518363ffffffff1660e01b8152600401610e869291906114a9565b602060405180830381865afa158015610ea3573d6000803e3d6000fd5b505050506040513d601f19601f82011682018060405250810190610ec791906112ac565b119050919050565b60018081905550565b600033905090565b6000604051905090565b600080fd5b600080fd5b6000819050919050565b610f0781610ef4565b8114610f1257600080fd5b50565b600081359050610f2481610efe565b92915050565b600060208284031215610f4057610f3f610eea565b5b6000610f4e84828501610f15565b91505092915050565b610f6081610ef4565b82525050565b6000602082019050610f7b6000830184610f57565b92915050565b600073ffffffffffffffffffffffffffffffffffffffff82169050919050565b6000610fac82610f81565b9050919050565b610fbc81610fa1565b82525050565b6000608082019050610fd76000830187610fb3565b610fe46020830186610f57565b610ff16040830185610f57565b610ffe6060830184610f57565b95945050505050565b6000806000606084860312156110205761101f610eea565b5b600061102e86828701610f15565b935050602061103f86828701610f15565b925050604061105086828701610f15565b9150509250925092565b600060208201905061106f6000830184610fb3565b92915050565b600080fd5b600080fd5b6000601f19601f8301169050919050565b7f4e487b7100000000000000000000000000000000000000000000000000000000600052604160045260246000fd5b6110c88261107f565b810181811067ffffffffffffffff821117156110e7576110e6611090565b5b80604052505050565b60006110fa610ee0565b905061110682826110bf565b919050565b600067ffffffffffffffff82111561112657611125611090565b5b61112f8261107f565b9050602081019050919050565b82818337600083830152505050565b600061115e6111598461110b565b6110f0565b90508281526020810184848401111561117a5761117961107a565b5b61118584828561113c565b509392505050565b600082601f8301126111a2576111a1611075565b5b81356111b284826020860161114b565b91505092915050565b600080600080608085870312156111d5576111d4610eea565b5b60006111e387828801610f15565b94505060206111f487828801610f15565b935050604061120587828801610f15565b925050606085013567ffffffffffffffff81111561122657611225610eef565b5b6112328782880161118d565b91505092959194509250565b61124781610fa1565b811461125257600080fd5b50565b6000813590506112648161123e565b92915050565b6000602082840312156112805761127f610eea565b5b600061128e84828501611255565b91505092915050565b6000815190506112a681610efe565b92915050565b6000602082840312156112c2576112c1610eea565b5b60006112d084828501611297565b91505092915050565b6000819050919050565b600060ff82169050919050565b6000819050919050565b600061131561131061130b846112d9565b6112f0565b6112e3565b9050919050565b611325816112fa565b82525050565b60006040820190506113406000830185610f57565b61134d602083018461131c565b9392505050565b600082825260208201905092915050565b7f416d6f756e74206d7573742062652067726561746572207468616e207a65726f600082015250565b600061139b602083611354565b91506113a682611365565b602082019050919050565b600060208201905081810360008301526113ca8161138e565b9050919050565b7f5072696365206d7573742062652067726561746572207468616e207a65726f00600082015250565b6000611407601f83611354565b9150611412826113d1565b602082019050919050565b60006020820190508181036000830152611436816113fa565b9050919050565b7f546f6b656e206d757374206265206672616374696f6e616c697a656400000000600082015250565b6000611473601c83611354565b915061147e8261143d565b602082019050919050565b600060208201905081810360008301526114a281611466565b9050919050565b60006040820190506114be6000830185610fb3565b6114cb6020830184610f57565b9392505050565b7f496e73756666696369656e74206f776e65727368697000000000000000000000600082015250565b6000611508601683611354565b9150611513826114d2565b602082019050919050565b60006020820190508181036000830152611537816114fb565b9050919050565b7f4e487b7100000000000000000000000000000000000000000000000000000000600052601160045260246000fd5b600061157882610ef4565b91507fffffffffffffffffffffffffffffffffffffffffffffffffffffffffffffffff82036115aa576115a961153e565b5b600182019050919050565b60006040820190506115ca6000830185610f57565b6115d76020830184610f57565b9392505050565b7f4e6f7420656e6f75676820746f6b656e7320617661696c61626c6520666f722060008201527f73616c6500000000000000000000000000000000000000000000000000000000602082015250565b600061163a602483611354565b9150611645826115de565b604082019050919050565b600060208201905081810360008301526116698161162d565b9050919050565b600061167b82610ef4565b915061168683610ef4565b925082820261169481610ef4565b915082820484148315176116ab576116aa61153e565b5b5092915050565b7f496e73756666696369656e742062757965722062616c616e6365000000000000600082015250565b60006116e8601a83611354565b91506116f3826116b2565b602082019050919050565b60006020820190508181036000830152611717816116db565b9050919050565b60006060820190506117336000830186610fb3565b6117406020830185610fb3565b61174d6040830184610f57565b949350505050565b60008115159050919050565b61176a81611755565b811461177557600080fd5b50565b60008151905061178781611761565b92915050565b6000602082840312156117a3576117a2610eea565b5b60006117b184828501611778565b91505092915050565b7f546f6b656e207472616e73666572206661696c65640000000000000000000000600082015250565b60006117f0601583611354565b91506117fb826117ba565b602082019050919050565b6000602082019050818103600083015261181f816117e3565b9050919050565b600081519050919050565b600082825260208201905092915050565b60005b83811015611860578082015181840152602081019050611845565b60008484015250505050565b600061187782611826565b6118818185611831565b9350611891818560208601611842565b61189a8161107f565b840191505092915050565b600060a0820190506118ba6000830188610fb3565b6118c76020830187610fb3565b6118d46040830186610f57565b6118e16060830185610f57565b81810360808301526118f3818461186c565b90509695505050505050565b600061190a82610ef4565b915061191583610ef4565b925082820390508181111561192d5761192c61153e565b5b92915050565b7f4e6f74207468652073656c6c6572000000000000000000000000000000000000600082015250565b6000611969600e83611354565b915061197482611933565b602082019050919050565b600060208201905081810360008301526119988161195c565b905091905056fea26469706673582212204cd90c9c3ccc3a331c3d5320c95faaeb5d911549f452d1c480296a9a94682fe964736f6c63430008140033",
  "linkReferences": {},
  "deployedLinkReferences": {}
}