{
  "_format": "hh-sol-artifact-1",
  "contractName": "Reserver",
  "sourceName": "contracts/Reserver.sol",
  "abi": [
    {
      "inputs": [
        {
          "internalType": "uint256",
          "name": "tokenId",
          "type": "uint256"
        }
      ],
      "name": "isReserved",
      "outputs": [
        {
          "internalType": "bool",
          "name": "",
          "type": "bool"
        }
      ],
      "stateMutability": "nonpayable",
      "type": "function"
    }
  ],
  "bytecode": "0x608060405234801561001057600080fd5b50610124806100206000396000f3fe6080604052348015600f57600080fd5b506004361060285760003560e01c80632228adcc14602d575b600080fd5b60436004803603810190603f91906094565b6057565b604051604e919060d5565b60405180910390f35b6000919050565b600080fd5b6000819050919050565b6074816063565b8114607e57600080fd5b50565b600081359050608e81606d565b92915050565b60006020828403121560a75760a6605e565b5b600060b3848285016081565b91505092915050565b60008115159050919050565b60cf8160bc565b82525050565b600060208201905060e8600083018460c8565b9291505056fea2646970667358221220a7bc4e49d9f1123c4e11d151b55302acd8d21abdf2b5b1423664d91005e6f61e64736f6c63430008140033",
  "linkReferences": {},
  "deployedLinkReferences": {}
}