{
  "_format": "hh-sol-artifact-1",
  "contractName": "Reserver",
  "sourceName": "contracts/Reserver.sol",
  "abi": [
    {
      "inputs": [
        {
          "internalType": "address",
          "name": "contractWalletBalance",
          "type": "address"
        }
      ],
      "stateMutability": "nonpayable",
      "type": "constructor"
    },
    {
      "inputs": [
        {
          "internalType": "address",
          "name": "owner",
          "type": "address"
        }
      ],
      "name": "OwnableInvalidOwner",
      "type": "error"
    },
    {
      "inputs": [
        {
          "internalType": "address",
          "name": "account",
          "type": "address"
        }
      ],
      "name": "OwnableUnauthorizedAccount",
      "type": "error"
    },
    {
      "anonymous": false,
      "inputs": [
        {
          "indexed": true,
          "internalType": "bytes32",
          "name": "id",
          "type": "bytes32"
        }
      ],
      "name": "ChainlinkCancelled",
      "type": "event"
    },
    {
      "anonymous": false,
      "inputs": [
        {
          "indexed": true,
          "internalType": "bytes32",
          "name": "id",
          "type": "bytes32"
        }
      ],
      "name": "ChainlinkFulfilled",
      "type": "event"
    },
    {
      "anonymous": false,
      "inputs": [
        {
          "indexed": true,
          "internalType": "bytes32",
          "name": "id",
          "type": "bytes32"
        }
      ],
      "name": "ChainlinkRequested",
      "type": "event"
    },
    {
      "anonymous": false,
      "inputs": [
        {
          "indexed": true,
          "internalType": "address",
          "name": "previousOwner",
          "type": "address"
        },
        {
          "indexed": true,
          "internalType": "address",
          "name": "newOwner",
          "type": "address"
        }
      ],
      "name": "OwnershipTransferred",
      "type": "event"
    },
    {
      "inputs": [
        {
          "internalType": "uint256",
          "name": "",
          "type": "uint256"
        }
      ],
      "name": "assetPrice",
      "outputs": [
        {
          "internalType": "uint256",
          "name": "",
          "type": "uint256"
        }
      ],
      "stateMutability": "view",
      "type": "function"
    },
    {
      "inputs": [],
      "name": "fee",
      "outputs": [
        {
          "internalType": "uint256",
          "name": "",
          "type": "uint256"
        }
      ],
      "stateMutability": "view",
      "type": "function"
    },
    {
      "inputs": [
        {
          "internalType": "bytes32",
          "name": "requestId",
          "type": "bytes32"
        }
      ],
      "name": "fulfill",
      "outputs": [],
      "stateMutability": "nonpayable",
      "type": "function"
    },
    {
      "inputs": [],
      "name": "fulfills",
      "outputs": [
        {
          "internalType": "uint256",
          "name": "",
          "type": "uint256"
        }
      ],
      "stateMutability": "view",
      "type": "function"
    },
    {
      "inputs": [
        {
          "internalType": "uint256",
          "name": "tokenId",
          "type": "uint256"
        }
      ],
      "name": "getAssetPricing",
      "outputs": [
        {
          "internalType": "uint256",
          "name": "",
          "type": "uint256"
        }
      ],
      "stateMutability": "view",
      "type": "function"
    },
    {
      "inputs": [
        {
          "internalType": "uint256",
          "name": "tokenId",
          "type": "uint256"
        }
      ],
      "name": "isReserved",
      "outputs": [
        {
          "internalType": "bool",
          "name": "",
          "type": "bool"
        }
      ],
      "stateMutability": "view",
      "type": "function"
    },
    {
      "inputs": [],
      "name": "jobId",
      "outputs": [
        {
          "internalType": "bytes32",
          "name": "",
          "type": "bytes32"
        }
      ],
      "stateMutability": "view",
      "type": "function"
    },
    {
      "inputs": [],
      "name": "minBalance",
      "outputs": [
        {
          "internalType": "uint256",
          "name": "",
          "type": "uint256"
        }
      ],
      "stateMutability": "view",
      "type": "function"
    },
    {
      "inputs": [],
      "name": "oracle",
      "outputs": [
        {
          "internalType": "address",
          "name": "",
          "type": "address"
        }
      ],
      "stateMutability": "view",
      "type": "function"
    },
    {
      "inputs": [],
      "name": "owner",
      "outputs": [
        {
          "internalType": "address",
          "name": "",
          "type": "address"
        }
      ],
      "stateMutability": "view",
      "type": "function"
    },
    {
      "inputs": [
        {
          "internalType": "uint256",
          "name": "tokenId",
          "type": "uint256"
        }
      ],
      "name": "ownerOf",
      "outputs": [
        {
          "internalType": "address",
          "name": "",
          "type": "address"
        }
      ],
      "stateMutability": "view",
      "type": "function"
    },
    {
      "inputs": [
        {
          "internalType": "uint256",
          "name": "",
          "type": "uint256"
        }
      ],
      "name": "owners",
      "outputs": [
        {
          "internalType": "address",
          "name": "",
          "type": "address"
        }
      ],
      "stateMutability": "view",
      "type": "function"
    },
    {
      "inputs": [],
      "name": "renounceOwnership",
      "outputs": [],
      "stateMutability": "nonpayable",
      "type": "function"
    },
    {
      "inputs": [
        {
          "internalType": "address",
          "name": "",
          "type": "address"
        }
      ],
      "name": "requestPending",
      "outputs": [
        {
          "internalType": "bool",
          "name": "",
          "type": "bool"
        }
      ],
      "stateMutability": "view",
      "type": "function"
    },
    {
      "inputs": [
        {
          "internalType": "bytes32",
          "name": "",
          "type": "bytes32"
        }
      ],
      "name": "requests",
      "outputs": [
        {
          "internalType": "address",
          "name": "sender",
          "type": "address"
        },
        {
          "internalType": "uint256",
          "name": "tokenId",
          "type": "uint256"
        }
      ],
      "stateMutability": "view",
      "type": "function"
    },
    {
      "inputs": [
        {
          "internalType": "uint256",
          "name": "tokenId",
          "type": "uint256"
        }
      ],
      "name": "reserve",
      "outputs": [
        {
          "internalType": "bool",
          "name": "",
          "type": "bool"
        }
      ],
      "stateMutability": "nonpayable",
      "type": "function"
    },
    {
      "inputs": [
        {
          "internalType": "uint256",
          "name": "",
          "type": "uint256"
        }
      ],
      "name": "reserved",
      "outputs": [
        {
          "internalType": "bool",
          "name": "",
          "type": "bool"
        }
      ],
      "stateMutability": "view",
      "type": "function"
    },
    {
      "inputs": [
        {
          "internalType": "address",
          "name": "_link",
          "type": "address"
        },
        {
          "internalType": "address",
          "name": "_oracle",
          "type": "address"
        },
        {
          "internalType": "string",
          "name": "_jobId",
          "type": "string"
        },
        {
          "internalType": "uint256",
          "name": "_fee",
          "type": "uint256"
        }
      ],
      "name": "setJobConfig",
      "outputs": [],
      "stateMutability": "nonpayable",
      "type": "function"
    },
    {
      "inputs": [
        {
          "internalType": "uint256",
          "name": "_minBalance",
          "type": "uint256"
        }
      ],
      "name": "setMinBalance",
      "outputs": [],
      "stateMutability": "nonpayable",
      "type": "function"
    },
    {
      "inputs": [
        {
          "internalType": "address",
          "name": "newOwner",
          "type": "address"
        }
      ],
      "name": "transferOwnership",
      "outputs": [],
      "stateMutability": "nonpayable",
      "type": "function"
    },
    {
      "inputs": [
        {
          "internalType": "uint256",
          "name": "tokenId",
          "type": "uint256"
        }
      ],
      "name": "verify",
      "outputs": [
        {
          "internalType": "bytes32",
          "name": "",
          "type": "bytes32"
        }
      ],
      "stateMutability": "nonpayable",
      "type": "function"
    },
    {
      "inputs": [],
      "name": "walletBalance",
      "outputs": [
        {
          "internalType": "address",
          "name": "",
          "type": "address"
        }
      ],
      "stateMutability": "view",
      "type": "function"
    },
    {
      "inputs": [],
      "name": "walletbalance",
      "outputs": [
        {
          "internalType": "contract WalletBalance",
          "name": "",
          "type": "address"
        }
      ],
      "stateMutability": "view",
      "type": "function"
    }
  ],
  "bytecode": "0x6080604052600160045561046c600b553480156200001c57600080fd5b506040516200258338038062002583833981810160405281019062000042919062000242565b33600073ffffffffffffffffffffffffffffffffffffffff168173ffffffffffffffffffffffffffffffffffffffff1603620000b85760006040517f1e4fbdf7000000000000000000000000000000000000000000000000000000008152600401620000af919062000285565b60405180910390fd5b620000c9816200011260201b60201c565b5080601360006101000a81548173ffffffffffffffffffffffffffffffffffffffff021916908373ffffffffffffffffffffffffffffffffffffffff16021790555050620002a2565b6000600660009054906101000a900473ffffffffffffffffffffffffffffffffffffffff16905081600660006101000a81548173ffffffffffffffffffffffffffffffffffffffff021916908373ffffffffffffffffffffffffffffffffffffffff1602179055508173ffffffffffffffffffffffffffffffffffffffff168173ffffffffffffffffffffffffffffffffffffffff167f8be0079c531659141344cd1fd0a4f28419497f9722a3daafe3b4186f6b6457e060405160405180910390a35050565b600080fd5b600073ffffffffffffffffffffffffffffffffffffffff82169050919050565b60006200020a82620001dd565b9050919050565b6200021c81620001fd565b81146200022857600080fd5b50565b6000815190506200023c8162000211565b92915050565b6000602082840312156200025b576200025a620001d8565b5b60006200026b848285016200022b565b91505092915050565b6200027f81620001fd565b82525050565b60006020820190506200029c600083018462000274565b92915050565b6122d180620002b26000396000f3fe608060405234801561001057600080fd5b506004361061014d5760003560e01c80638da5cb5b116100c3578063c91d956c1161007c578063c91d956c146103c9578063cd0a314b146103e5578063d206ff1c14610403578063ddca3f4314610433578063f2fde38b14610451578063ffbb69891461046d5761014d565b80638da5cb5b146102f05780639d8669851461030e578063ad8066c81461033f578063c2939d971461035d578063c58784b81461037b578063c5bb8758146103ab5761014d565b8063715018a611610115578063715018a61461022e578063761ca3981461023857806376f3dc84146102565780637dc0d1d014610272578063819b25ba146102905780638753367f146102c05761014d565b8063025e7c27146101525780632228adcc1461018257806353f9195e146101b25780635508ff94146101e25780636352211e146101fe575b600080fd5b61016c600480360381019061016791906117f7565b61049d565b6040516101799190611865565b60405180910390f35b61019c600480360381019061019791906117f7565b6104d0565b6040516101a9919061189b565b60405180910390f35b6101cc60048036038101906101c791906117f7565b6104fa565b6040516101d9919061189b565b60405180910390f35b6101fc60048036038101906101f791906118ec565b61051a565b005b610218600480360381019061021391906117f7565b610618565b6040516102259190611865565b60405180910390f35b610236610655565b005b610240610669565b60405161024d9190611928565b60405180910390f35b610270600480360381019061026b9190611ab5565b61066f565b005b61027a6106dd565b6040516102879190611865565b60405180910390f35b6102aa60048036038101906102a591906117f7565b610703565b6040516102b7919061189b565b60405180910390f35b6102da60048036038101906102d591906117f7565b610765565b6040516102e79190611b47565b60405180910390f35b6102f861098a565b6040516103059190611865565b60405180910390f35b610328600480360381019061032391906118ec565b6109b4565b604051610336929190611b62565b60405180910390f35b6103476109f8565b6040516103549190611bea565b60405180910390f35b610365610a1e565b6040516103729190611b47565b60405180910390f35b610395600480360381019061039091906117f7565b610a24565b6040516103a29190611928565b60405180910390f35b6103b3610a41565b6040516103c09190611928565b60405180910390f35b6103e360048036038101906103de91906117f7565b610a47565b005b6103ed610a59565b6040516103fa9190611865565b60405180910390f35b61041d600480360381019061041891906117f7565b610a7f565b60405161042a9190611928565b60405180910390f35b61043b610a97565b6040516104489190611928565b60405180910390f35b61046b60048036038101906104669190611c05565b610a9d565b005b61048760048036038101906104829190611c05565b610b23565b604051610494919061189b565b60405180910390f35b600e6020528060005260406000206000915054906101000a900473ffffffffffffffffffffffffffffffffffffffff1681565b60006011600083815260200190815260200160002060009054906101000a900460ff169050919050565b60116020528060005260406000206000915054906101000a900460ff1681565b6000600d6000838152602001908152602001600020905033600e60008360010154815260200190815260200160002060006101000a81548173ffffffffffffffffffffffffffffffffffffffff021916908373ffffffffffffffffffffffffffffffffffffffff1602179055506001600f600082825461059a9190611c61565b92505081905550601060008260000160009054906101000a900473ffffffffffffffffffffffffffffffffffffffff1673ffffffffffffffffffffffffffffffffffffffff1673ffffffffffffffffffffffffffffffffffffffff16815260200190815260200160002060006101000a81549060ff02191690555050565b6000600e600083815260200190815260200160002060009054906101000a900473ffffffffffffffffffffffffffffffffffffffff169050919050565b61065d610b43565b6106676000610bca565b565b600f5481565b610677610b43565b61068084610c90565b82600760006101000a81548173ffffffffffffffffffffffffffffffffffffffff021916908373ffffffffffffffffffffffffffffffffffffffff1602179055506106ca82610cd4565b6008819055508060098190555050505050565b600760009054906101000a900473ffffffffffffffffffffffffffffffffffffffff1681565b6000806000801b90506107158161051a565b60016011600085815260200190815260200160002060006101000a81548160ff02191690831515021790555061271060126000858152602001908152602001600020819055506001915050919050565b600080309050601060008273ffffffffffffffffffffffffffffffffffffffff1673ffffffffffffffffffffffffffffffffffffffff16815260200190815260200160002060009054906101000a900460ff16156107f8576040517f08c379a00000000000000000000000000000000000000000000000000000000081526004016107ef90611d18565b60405180910390fd5b600061080e60085483635508ff9460e01b610cfd565b90506108626040518060400160405280600781526020017f746f6b656e49640000000000000000000000000000000000000000000000000081525061085286610d2e565b83610dfc9092919063ffffffff16565b6000610893600760009054906101000a900473ffffffffffffffffffffffffffffffffffffffff1683600954610e2f565b905060405180604001604052808473ffffffffffffffffffffffffffffffffffffffff16815260200186815250600d600083815260200190815260200160002060008201518160000160006101000a81548173ffffffffffffffffffffffffffffffffffffffff021916908373ffffffffffffffffffffffffffffffffffffffff160217905550602082015181600101559050506001601060008573ffffffffffffffffffffffffffffffffffffffff1673ffffffffffffffffffffffffffffffffffffffff16815260200190815260200160002060006101000a81548160ff021916908315150217905550809350505050919050565b6000600660009054906101000a900473ffffffffffffffffffffffffffffffffffffffff16905090565b600d6020528060005260406000206000915090508060000160009054906101000a900473ffffffffffffffffffffffffffffffffffffffff16908060010154905082565b600c60009054906101000a900473ffffffffffffffffffffffffffffffffffffffff1681565b60085481565b600060126000838152602001908152602001600020549050919050565b600a5481565b610a4f610b43565b80600a8190555050565b601360009054906101000a900473ffffffffffffffffffffffffffffffffffffffff1681565b60126020528060005260406000206000915090505481565b60095481565b610aa5610b43565b600073ffffffffffffffffffffffffffffffffffffffff168173ffffffffffffffffffffffffffffffffffffffff1603610b175760006040517f1e4fbdf7000000000000000000000000000000000000000000000000000000008152600401610b0e9190611865565b60405180910390fd5b610b2081610bca565b50565b60106020528060005260406000206000915054906101000a900460ff1681565b610b4b610efb565b73ffffffffffffffffffffffffffffffffffffffff16610b6961098a565b73ffffffffffffffffffffffffffffffffffffffff1614610bc857610b8c610efb565b6040517f118cdaa7000000000000000000000000000000000000000000000000000000008152600401610bbf9190611865565b60405180910390fd5b565b6000600660009054906101000a900473ffffffffffffffffffffffffffffffffffffffff16905081600660006101000a81548173ffffffffffffffffffffffffffffffffffffffff021916908373ffffffffffffffffffffffffffffffffffffffff1602179055508173ffffffffffffffffffffffffffffffffffffffff168173ffffffffffffffffffffffffffffffffffffffff167f8be0079c531659141344cd1fd0a4f28419497f9722a3daafe3b4186f6b6457e060405160405180910390a35050565b80600260006101000a81548173ffffffffffffffffffffffffffffffffffffffff021916908373ffffffffffffffffffffffffffffffffffffffff16021790555050565b6000808290506000815103610cef576000801b915050610cf8565b60208301519150505b919050565b610d05611726565b610d0d611726565b610d2485858584610f03909392919063ffffffff16565b9150509392505050565b606060006001610d3d84610fb3565b01905060008167ffffffffffffffff811115610d5c57610d5b61198a565b5b6040519080825280601f01601f191660200182016040528015610d8e5781602001600182028036833780820191505090505b509050600082602001820190505b600115610df1578080600190039150507f3031323334353637383961626364656600000000000000000000000000000000600a86061a8153600a8581610de557610de4611d38565b5b04945060008503610d9c575b819350505050919050565b610e1382846080015161110690919063ffffffff16565b610e2a81846080015161110690919063ffffffff16565b505050565b6000806004549050600181610e449190611c61565b6004819055506000634042994660e01b60008087600001513089604001518760018c6080015160000151604051602401610e85989796959493929190611e21565b604051602081830303815290604052907bffffffffffffffffffffffffffffffffffffffffffffffffffffffff19166020820180517bffffffffffffffffffffffffffffffffffffffffffffffffffffffff83818316178352505050509050610ef08683868461112b565b925050509392505050565b600033905090565b610f0b611726565b610f1b85608001516101006112c0565b508385600001818152505082856020019073ffffffffffffffffffffffffffffffffffffffff16908173ffffffffffffffffffffffffffffffffffffffff16815250508185604001907bffffffffffffffffffffffffffffffffffffffffffffffffffffffff191690817bffffffffffffffffffffffffffffffffffffffffffffffffffffffff191681525050849050949350505050565b600080600090507a184f03e93ff9f4daa797ed6e38ed64bf6a1f0100000000000000008310611011577a184f03e93ff9f4daa797ed6e38ed64bf6a1f010000000000000000838161100757611006611d38565b5b0492506040810190505b6d04ee2d6d415b85acef8100000000831061104e576d04ee2d6d415b85acef8100000000838161104457611043611d38565b5b0492506020810190505b662386f26fc10000831061107d57662386f26fc10000838161107357611072611d38565b5b0492506010810190505b6305f5e10083106110a6576305f5e100838161109c5761109b611d38565b5b0492506008810190505b61271083106110cb5761271083816110c1576110c0611d38565b5b0492506004810190505b606483106110ee57606483816110e4576110e3611d38565b5b0492506002810190505b600a83106110fd576001810190505b80915050919050565b611113826003835161132a565b61112681836114af90919063ffffffff16565b505050565b60003084604051602001611140929190611f21565b604051602081830303815290604052805190602001209050846005600083815260200190815260200160002060006101000a81548173ffffffffffffffffffffffffffffffffffffffff021916908373ffffffffffffffffffffffffffffffffffffffff160217905550807fb5e6e01e79f91267dc17b4e6314d5d4d03593d2ceee0fbb452b750bd70ea5af960405160405180910390a2600260009054906101000a900473ffffffffffffffffffffffffffffffffffffffff1673ffffffffffffffffffffffffffffffffffffffff16634000aea08685856040518463ffffffff1660e01b815260040161123693929190611f4d565b6020604051808303816000875af1158015611255573d6000803e3d6000fd5b505050506040513d601f19601f820116820180604052508101906112799190611fb7565b6112b8576040517f08c379a00000000000000000000000000000000000000000000000000000000081526004016112af90612056565b60405180910390fd5b949350505050565b6112c8611793565b60006020836112d79190612076565b14611303576020826112e99190612076565b60206112f591906120a7565b826113009190611c61565b91505b81836020018181525050604051808452600081528281016020016040525082905092915050565b60178167ffffffffffffffff16116113615761135b8160058460ff16901b60ff1617846114d190919063ffffffff16565b506114aa565b60ff8167ffffffffffffffff16116113b757611390601860058460ff16901b17846114d190919063ffffffff16565b506113b18167ffffffffffffffff166001856114f19092919063ffffffff16565b506114a9565b61ffff8167ffffffffffffffff161161140e576113e7601960058460ff16901b17846114d190919063ffffffff16565b506114088167ffffffffffffffff166002856114f19092919063ffffffff16565b506114a8565b63ffffffff8167ffffffffffffffff161161146757611440601a60058460ff16901b17846114d190919063ffffffff16565b506114618167ffffffffffffffff166004856114f19092919063ffffffff16565b506114a7565b611484601b60058460ff16901b17846114d190919063ffffffff16565b506114a58167ffffffffffffffff166008856114f19092919063ffffffff16565b505b5b5b5b505050565b6114b7611793565b6114c983846000015151848551611513565b905092915050565b6114d9611793565b6114e98384600001515184611602565b905092915050565b6114f9611793565b61150a848560000151518585611658565b90509392505050565b61151b611793565b825182111561152957600080fd5b8460200151828561153a9190611c61565b111561156f5761156e85600261155f8860200151888761155a9190611c61565b6116e6565b61156991906120db565b611702565b5b60008086518051876020830101935080888701111561158e5787860182525b60208701925050505b602084106115d557805182526020826115b09190611c61565b91506020816115bf9190611c61565b90506020846115ce91906120a7565b9350611597565b60006001856020036101000a03905080198251168184511681811785525050508692505050949350505050565b61160a611793565b836020015183106116305761162f846002866020015161162a91906120db565b611702565b5b8351805160208583010184815381860361164b576001820183525b5050508390509392505050565b611660611793565b846020015184836116719190611c61565b11156116995761169885600286856116899190611c61565b61169391906120db565b611702565b5b60006001836101006116ab9190612250565b6116b591906120a7565b905085518386820101858319825116178152815185880111156116d85784870182525b505085915050949350505050565b6000818311156116f8578290506116fc565b8190505b92915050565b60008260000151905061171583836112c0565b5061172083826114af565b50505050565b6040518060a0016040528060008019168152602001600073ffffffffffffffffffffffffffffffffffffffff16815260200160007bffffffffffffffffffffffffffffffffffffffffffffffffffffffff191681526020016000815260200161178d611793565b81525090565b604051806040016040528060608152602001600081525090565b6000604051905090565b600080fd5b600080fd5b6000819050919050565b6117d4816117c1565b81146117df57600080fd5b50565b6000813590506117f1816117cb565b92915050565b60006020828403121561180d5761180c6117b7565b5b600061181b848285016117e2565b91505092915050565b600073ffffffffffffffffffffffffffffffffffffffff82169050919050565b600061184f82611824565b9050919050565b61185f81611844565b82525050565b600060208201905061187a6000830184611856565b92915050565b60008115159050919050565b61189581611880565b82525050565b60006020820190506118b0600083018461188c565b92915050565b6000819050919050565b6118c9816118b6565b81146118d457600080fd5b50565b6000813590506118e6816118c0565b92915050565b600060208284031215611902576119016117b7565b5b6000611910848285016118d7565b91505092915050565b611922816117c1565b82525050565b600060208201905061193d6000830184611919565b92915050565b61194c81611844565b811461195757600080fd5b50565b60008135905061196981611943565b92915050565b600080fd5b600080fd5b6000601f19601f8301169050919050565b7f4e487b7100000000000000000000000000000000000000000000000000000000600052604160045260246000fd5b6119c282611979565b810181811067ffffffffffffffff821117156119e1576119e061198a565b5b80604052505050565b60006119f46117ad565b9050611a0082826119b9565b919050565b600067ffffffffffffffff821115611a2057611a1f61198a565b5b611a2982611979565b9050602081019050919050565b82818337600083830152505050565b6000611a58611a5384611a05565b6119ea565b905082815260208101848484011115611a7457611a73611974565b5b611a7f848285611a36565b509392505050565b600082601f830112611a9c57611a9b61196f565b5b8135611aac848260208601611a45565b91505092915050565b60008060008060808587031215611acf57611ace6117b7565b5b6000611add8782880161195a565b9450506020611aee8782880161195a565b935050604085013567ffffffffffffffff811115611b0f57611b0e6117bc565b5b611b1b87828801611a87565b9250506060611b2c878288016117e2565b91505092959194509250565b611b41816118b6565b82525050565b6000602082019050611b5c6000830184611b38565b92915050565b6000604082019050611b776000830185611856565b611b846020830184611919565b9392505050565b6000819050919050565b6000611bb0611bab611ba684611824565b611b8b565b611824565b9050919050565b6000611bc282611b95565b9050919050565b6000611bd482611bb7565b9050919050565b611be481611bc9565b82525050565b6000602082019050611bff6000830184611bdb565b92915050565b600060208284031215611c1b57611c1a6117b7565b5b6000611c298482850161195a565b91505092915050565b7f4e487b7100000000000000000000000000000000000000000000000000000000600052601160045260246000fd5b6000611c6c826117c1565b9150611c77836117c1565b9250828201905080821115611c8f57611c8e611c32565b5b92915050565b600082825260208201905092915050565b7f53656e64657220616c72656164792068617320612070656e64696e672072657160008201527f7565737400000000000000000000000000000000000000000000000000000000602082015250565b6000611d02602483611c95565b9150611d0d82611ca6565b604082019050919050565b60006020820190508181036000830152611d3181611cf5565b9050919050565b7f4e487b7100000000000000000000000000000000000000000000000000000000600052601260045260246000fd5b60007fffffffff0000000000000000000000000000000000000000000000000000000082169050919050565b611d9c81611d67565b82525050565b600081519050919050565b600082825260208201905092915050565b60005b83811015611ddc578082015181840152602081019050611dc1565b60008484015250505050565b6000611df382611da2565b611dfd8185611dad565b9350611e0d818560208601611dbe565b611e1681611979565b840191505092915050565b600061010082019050611e37600083018b611856565b611e44602083018a611919565b611e516040830189611b38565b611e5e6060830188611856565b611e6b6080830187611d93565b611e7860a0830186611919565b611e8560c0830185611919565b81810360e0830152611e978184611de8565b90509998505050505050505050565b6000611eb182611bb7565b9050919050565b60008160601b9050919050565b6000611ed082611eb8565b9050919050565b6000611ee282611ec5565b9050919050565b611efa611ef582611ea6565b611ed7565b82525050565b6000819050919050565b611f1b611f16826117c1565b611f00565b82525050565b6000611f2d8285611ee9565b601482019150611f3d8284611f0a565b6020820191508190509392505050565b6000606082019050611f626000830186611856565b611f6f6020830185611919565b8181036040830152611f818184611de8565b9050949350505050565b611f9481611880565b8114611f9f57600080fd5b50565b600081519050611fb181611f8b565b92915050565b600060208284031215611fcd57611fcc6117b7565b5b6000611fdb84828501611fa2565b91505092915050565b7f756e61626c6520746f207472616e73666572416e6443616c6c20746f206f726160008201527f636c650000000000000000000000000000000000000000000000000000000000602082015250565b6000612040602383611c95565b915061204b82611fe4565b604082019050919050565b6000602082019050818103600083015261206f81612033565b9050919050565b6000612081826117c1565b915061208c836117c1565b92508261209c5761209b611d38565b5b828206905092915050565b60006120b2826117c1565b91506120bd836117c1565b92508282039050818111156120d5576120d4611c32565b5b92915050565b60006120e6826117c1565b91506120f1836117c1565b92508282026120ff816117c1565b9150828204841483151761211657612115611c32565b5b5092915050565b60008160011c9050919050565b6000808291508390505b6001851115612174578086048111156121505761214f611c32565b5b600185161561215f5780820291505b808102905061216d8561211d565b9450612134565b94509492505050565b60008261218d5760019050612249565b8161219b5760009050612249565b81600181146121b157600281146121bb576121ea565b6001915050612249565b60ff8411156121cd576121cc611c32565b5b8360020a9150848211156121e4576121e3611c32565b5b50612249565b5060208310610133831016604e8410600b841016171561221f5782820a90508381111561221a57612219611c32565b5b612249565b61222c848484600161212a565b9250905081840481111561224357612242611c32565b5b81810290505b9392505050565b600061225b826117c1565b9150612266836117c1565b92506122937fffffffffffffffffffffffffffffffffffffffffffffffffffffffffffffffff848461217d565b90509291505056fea26469706673582212203986c9ca7d77cd2ddce8095b2b9be39449efe53ba80106c4999f85113aa3e88e64736f6c63430008140033",
  "linkReferences": {},
  "deployedLinkReferences": {}
}