{
  "_format": "hh-sol-artifact-1",
  "contractName": "Reserver",
  "sourceName": "contracts/Reserver.sol",
  "abi": [
    {
      "inputs": [],
      "stateMutability": "nonpayable",
      "type": "constructor"
    },
    {
      "inputs": [
        {
          "internalType": "address",
          "name": "owner",
          "type": "address"
        }
      ],
      "name": "OwnableInvalidOwner",
      "type": "error"
    },
    {
      "inputs": [
        {
          "internalType": "address",
          "name": "account",
          "type": "address"
        }
      ],
      "name": "OwnableUnauthorizedAccount",
      "type": "error"
    },
    {
      "anonymous": false,
      "inputs": [
        {
          "indexed": true,
          "internalType": "bytes32",
          "name": "id",
          "type": "bytes32"
        }
      ],
      "name": "ChainlinkCancelled",
      "type": "event"
    },
    {
      "anonymous": false,
      "inputs": [
        {
          "indexed": true,
          "internalType": "bytes32",
          "name": "id",
          "type": "bytes32"
        }
      ],
      "name": "ChainlinkFulfilled",
      "type": "event"
    },
    {
      "anonymous": false,
      "inputs": [
        {
          "indexed": true,
          "internalType": "bytes32",
          "name": "id",
          "type": "bytes32"
        }
      ],
      "name": "ChainlinkRequested",
      "type": "event"
    },
    {
      "anonymous": false,
      "inputs": [
        {
          "indexed": true,
          "internalType": "address",
          "name": "previousOwner",
          "type": "address"
        },
        {
          "indexed": true,
          "internalType": "address",
          "name": "newOwner",
          "type": "address"
        }
      ],
      "name": "OwnershipTransferred",
      "type": "event"
    },
    {
      "inputs": [
        {
          "internalType": "uint256",
          "name": "tokenId",
          "type": "uint256"
        }
      ],
      "name": "Reserve",
      "outputs": [
        {
          "internalType": "bool",
          "name": "",
          "type": "bool"
        }
      ],
      "stateMutability": "nonpayable",
      "type": "function"
    },
    {
      "inputs": [],
      "name": "fee",
      "outputs": [
        {
          "internalType": "uint256",
          "name": "",
          "type": "uint256"
        }
      ],
      "stateMutability": "view",
      "type": "function"
    },
    {
      "inputs": [
        {
          "internalType": "bytes32",
          "name": "requestId",
          "type": "bytes32"
        }
      ],
      "name": "fulfill",
      "outputs": [],
      "stateMutability": "nonpayable",
      "type": "function"
    },
    {
      "inputs": [],
      "name": "fulfills",
      "outputs": [
        {
          "internalType": "uint256",
          "name": "",
          "type": "uint256"
        }
      ],
      "stateMutability": "view",
      "type": "function"
    },
    {
      "inputs": [
        {
          "internalType": "uint256",
          "name": "tokenId",
          "type": "uint256"
        }
      ],
      "name": "isReserved",
      "outputs": [
        {
          "internalType": "bool",
          "name": "",
          "type": "bool"
        }
      ],
      "stateMutability": "view",
      "type": "function"
    },
    {
      "inputs": [],
      "name": "jobId",
      "outputs": [
        {
          "internalType": "bytes32",
          "name": "",
          "type": "bytes32"
        }
      ],
      "stateMutability": "view",
      "type": "function"
    },
    {
      "inputs": [],
      "name": "oracle",
      "outputs": [
        {
          "internalType": "address",
          "name": "",
          "type": "address"
        }
      ],
      "stateMutability": "view",
      "type": "function"
    },
    {
      "inputs": [],
      "name": "owner",
      "outputs": [
        {
          "internalType": "address",
          "name": "",
          "type": "address"
        }
      ],
      "stateMutability": "view",
      "type": "function"
    },
    {
      "inputs": [
        {
          "internalType": "uint256",
          "name": "tokenId",
          "type": "uint256"
        }
      ],
      "name": "ownerOf",
      "outputs": [
        {
          "internalType": "address",
          "name": "",
          "type": "address"
        }
      ],
      "stateMutability": "view",
      "type": "function"
    },
    {
      "inputs": [
        {
          "internalType": "uint256",
          "name": "",
          "type": "uint256"
        }
      ],
      "name": "owners",
      "outputs": [
        {
          "internalType": "address",
          "name": "",
          "type": "address"
        }
      ],
      "stateMutability": "view",
      "type": "function"
    },
    {
      "inputs": [],
      "name": "renounceOwnership",
      "outputs": [],
      "stateMutability": "nonpayable",
      "type": "function"
    },
    {
      "inputs": [
        {
          "internalType": "address",
          "name": "",
          "type": "address"
        }
      ],
      "name": "requestPending",
      "outputs": [
        {
          "internalType": "bool",
          "name": "",
          "type": "bool"
        }
      ],
      "stateMutability": "view",
      "type": "function"
    },
    {
      "inputs": [
        {
          "internalType": "bytes32",
          "name": "",
          "type": "bytes32"
        }
      ],
      "name": "requests",
      "outputs": [
        {
          "internalType": "address",
          "name": "sender",
          "type": "address"
        },
        {
          "internalType": "uint256",
          "name": "tokenId",
          "type": "uint256"
        }
      ],
      "stateMutability": "view",
      "type": "function"
    },
    {
      "inputs": [
        {
          "internalType": "uint256",
          "name": "",
          "type": "uint256"
        }
      ],
      "name": "reserved",
      "outputs": [
        {
          "internalType": "bool",
          "name": "",
          "type": "bool"
        }
      ],
      "stateMutability": "view",
      "type": "function"
    },
    {
      "inputs": [
        {
          "internalType": "address",
          "name": "_link",
          "type": "address"
        },
        {
          "internalType": "address",
          "name": "_oracle",
          "type": "address"
        },
        {
          "internalType": "string",
          "name": "_jobId",
          "type": "string"
        },
        {
          "internalType": "uint256",
          "name": "_fee",
          "type": "uint256"
        }
      ],
      "name": "setJobConfig",
      "outputs": [],
      "stateMutability": "nonpayable",
      "type": "function"
    },
    {
      "inputs": [
        {
          "internalType": "address",
          "name": "newOwner",
          "type": "address"
        }
      ],
      "name": "transferOwnership",
      "outputs": [],
      "stateMutability": "nonpayable",
      "type": "function"
    },
    {
      "inputs": [
        {
          "internalType": "uint256",
          "name": "tokenId",
          "type": "uint256"
        }
      ],
      "name": "verify",
      "outputs": [
        {
          "internalType": "bytes32",
          "name": "",
          "type": "bytes32"
        }
      ],
      "stateMutability": "nonpayable",
      "type": "function"
    }
  ],
  "bytecode": "0x608060405260016004553480156200001657600080fd5b5033600073ffffffffffffffffffffffffffffffffffffffff168173ffffffffffffffffffffffffffffffffffffffff16036200008d5760006040517f1e4fbdf7000000000000000000000000000000000000000000000000000000008152600401620000849190620001b0565b60405180910390fd5b6200009e81620000a560201b60201c565b50620001cd565b6000600660009054906101000a900473ffffffffffffffffffffffffffffffffffffffff16905081600660006101000a81548173ffffffffffffffffffffffffffffffffffffffff021916908373ffffffffffffffffffffffffffffffffffffffff1602179055508173ffffffffffffffffffffffffffffffffffffffff168173ffffffffffffffffffffffffffffffffffffffff167f8be0079c531659141344cd1fd0a4f28419497f9722a3daafe3b4186f6b6457e060405160405180910390a35050565b600073ffffffffffffffffffffffffffffffffffffffff82169050919050565b600062000198826200016b565b9050919050565b620001aa816200018b565b82525050565b6000602082019050620001c760008301846200019f565b92915050565b6120ca80620001dd6000396000f3fe608060405234801561001057600080fd5b506004361061010b5760003560e01c80637dc0d1d0116100a2578063c2939d9711610071578063c2939d97146102cd578063db7b64a8146102eb578063ddca3f431461031b578063f2fde38b14610339578063ffbb6989146103555761010b565b80637dc0d1d0146102305780638753367f1461024e5780638da5cb5b1461027e5780639d8669851461029c5761010b565b80636352211e116100de5780636352211e146101bc578063715018a6146101ec578063761ca398146101f657806376f3dc84146102145761010b565b8063025e7c27146101105780632228adcc1461014057806353f9195e146101705780635508ff94146101a0575b600080fd5b61012a6004803603810190610125919061162c565b610385565b604051610137919061169a565b60405180910390f35b61015a6004803603810190610155919061162c565b6103b8565b60405161016791906116d0565b60405180910390f35b61018a6004803603810190610185919061162c565b6103e2565b60405161019791906116d0565b60405180910390f35b6101ba60048036038101906101b59190611721565b610402565b005b6101d660048036038101906101d1919061162c565b610500565b6040516101e3919061169a565b60405180910390f35b6101f461053d565b005b6101fe610551565b60405161020b919061175d565b60405180910390f35b61022e600480360381019061022991906118ea565b610557565b005b6102386105c5565b604051610245919061169a565b60405180910390f35b6102686004803603810190610263919061162c565b6105eb565b604051610275919061197c565b60405180910390f35b610286610810565b604051610293919061169a565b60405180910390f35b6102b660048036038101906102b19190611721565b61083a565b6040516102c4929190611997565b60405180910390f35b6102d561087e565b6040516102e2919061197c565b60405180910390f35b6103056004803603810190610300919061162c565b610884565b60405161031291906116d0565b60405180910390f35b6103236108cc565b604051610330919061175d565b60405180910390f35b610353600480360381019061034e91906119c0565b6108d2565b005b61036f600480360381019061036a91906119c0565b610958565b60405161037c91906116d0565b60405180910390f35b600b6020528060005260406000206000915054906101000a900473ffffffffffffffffffffffffffffffffffffffff1681565b6000600e600083815260200190815260200160002060009054906101000a900460ff169050919050565b600e6020528060005260406000206000915054906101000a900460ff1681565b6000600a6000838152602001908152602001600020905033600b60008360010154815260200190815260200160002060006101000a81548173ffffffffffffffffffffffffffffffffffffffff021916908373ffffffffffffffffffffffffffffffffffffffff1602179055506001600c60008282546104829190611a1c565b92505081905550600d60008260000160009054906101000a900473ffffffffffffffffffffffffffffffffffffffff1673ffffffffffffffffffffffffffffffffffffffff1673ffffffffffffffffffffffffffffffffffffffff16815260200190815260200160002060006101000a81549060ff02191690555050565b6000600b600083815260200190815260200160002060009054906101000a900473ffffffffffffffffffffffffffffffffffffffff169050919050565b610545610978565b61054f60006109ff565b565b600c5481565b61055f610978565b61056884610ac5565b82600760006101000a81548173ffffffffffffffffffffffffffffffffffffffff021916908373ffffffffffffffffffffffffffffffffffffffff1602179055506105b282610b09565b6008819055508060098190555050505050565b600760009054906101000a900473ffffffffffffffffffffffffffffffffffffffff1681565b600080309050600d60008273ffffffffffffffffffffffffffffffffffffffff1673ffffffffffffffffffffffffffffffffffffffff16815260200190815260200160002060009054906101000a900460ff161561067e576040517f08c379a000000000000000000000000000000000000000000000000000000000815260040161067590611ad3565b60405180910390fd5b600061069460085483635508ff9460e01b610b32565b90506106e86040518060400160405280600781526020017f746f6b656e4964000000000000000000000000000000000000000000000000008152506106d886610b63565b83610c319092919063ffffffff16565b6000610719600760009054906101000a900473ffffffffffffffffffffffffffffffffffffffff1683600954610c64565b905060405180604001604052808473ffffffffffffffffffffffffffffffffffffffff16815260200186815250600a600083815260200190815260200160002060008201518160000160006101000a81548173ffffffffffffffffffffffffffffffffffffffff021916908373ffffffffffffffffffffffffffffffffffffffff160217905550602082015181600101559050506001600d60008573ffffffffffffffffffffffffffffffffffffffff1673ffffffffffffffffffffffffffffffffffffffff16815260200190815260200160002060006101000a81548160ff021916908315150217905550809350505050919050565b6000600660009054906101000a900473ffffffffffffffffffffffffffffffffffffffff16905090565b600a6020528060005260406000206000915090508060000160009054906101000a900473ffffffffffffffffffffffffffffffffffffffff16908060010154905082565b60085481565b6000806000801b905061089681610402565b6001600e600085815260200190815260200160002060006101000a81548160ff0219169083151502179055506001915050919050565b60095481565b6108da610978565b600073ffffffffffffffffffffffffffffffffffffffff168173ffffffffffffffffffffffffffffffffffffffff160361094c5760006040517f1e4fbdf7000000000000000000000000000000000000000000000000000000008152600401610943919061169a565b60405180910390fd5b610955816109ff565b50565b600d6020528060005260406000206000915054906101000a900460ff1681565b610980610d30565b73ffffffffffffffffffffffffffffffffffffffff1661099e610810565b73ffffffffffffffffffffffffffffffffffffffff16146109fd576109c1610d30565b6040517f118cdaa70000000000000000000000000000000000000000000000000000000081526004016109f4919061169a565b60405180910390fd5b565b6000600660009054906101000a900473ffffffffffffffffffffffffffffffffffffffff16905081600660006101000a81548173ffffffffffffffffffffffffffffffffffffffff021916908373ffffffffffffffffffffffffffffffffffffffff1602179055508173ffffffffffffffffffffffffffffffffffffffff168173ffffffffffffffffffffffffffffffffffffffff167f8be0079c531659141344cd1fd0a4f28419497f9722a3daafe3b4186f6b6457e060405160405180910390a35050565b80600260006101000a81548173ffffffffffffffffffffffffffffffffffffffff021916908373ffffffffffffffffffffffffffffffffffffffff16021790555050565b6000808290506000815103610b24576000801b915050610b2d565b60208301519150505b919050565b610b3a61155b565b610b4261155b565b610b5985858584610d38909392919063ffffffff16565b9150509392505050565b606060006001610b7284610de8565b01905060008167ffffffffffffffff811115610b9157610b906117bf565b5b6040519080825280601f01601f191660200182016040528015610bc35781602001600182028036833780820191505090505b509050600082602001820190505b600115610c26578080600190039150507f3031323334353637383961626364656600000000000000000000000000000000600a86061a8153600a8581610c1a57610c19611af3565b5b04945060008503610bd1575b819350505050919050565b610c48828460800151610f3b90919063ffffffff16565b610c5f818460800151610f3b90919063ffffffff16565b505050565b6000806004549050600181610c799190611a1c565b6004819055506000634042994660e01b60008087600001513089604001518760018c6080015160000151604051602401610cba989796959493929190611bdc565b604051602081830303815290604052907bffffffffffffffffffffffffffffffffffffffffffffffffffffffff19166020820180517bffffffffffffffffffffffffffffffffffffffffffffffffffffffff83818316178352505050509050610d2586838684610f60565b925050509392505050565b600033905090565b610d4061155b565b610d5085608001516101006110f5565b508385600001818152505082856020019073ffffffffffffffffffffffffffffffffffffffff16908173ffffffffffffffffffffffffffffffffffffffff16815250508185604001907bffffffffffffffffffffffffffffffffffffffffffffffffffffffff191690817bffffffffffffffffffffffffffffffffffffffffffffffffffffffff191681525050849050949350505050565b600080600090507a184f03e93ff9f4daa797ed6e38ed64bf6a1f0100000000000000008310610e46577a184f03e93ff9f4daa797ed6e38ed64bf6a1f0100000000000000008381610e3c57610e3b611af3565b5b0492506040810190505b6d04ee2d6d415b85acef81000000008310610e83576d04ee2d6d415b85acef81000000008381610e7957610e78611af3565b5b0492506020810190505b662386f26fc100008310610eb257662386f26fc100008381610ea857610ea7611af3565b5b0492506010810190505b6305f5e1008310610edb576305f5e1008381610ed157610ed0611af3565b5b0492506008810190505b6127108310610f00576127108381610ef657610ef5611af3565b5b0492506004810190505b60648310610f235760648381610f1957610f18611af3565b5b0492506002810190505b600a8310610f32576001810190505b80915050919050565b610f48826003835161115f565b610f5b81836112e490919063ffffffff16565b505050565b60003084604051602001610f75929190611d1a565b604051602081830303815290604052805190602001209050846005600083815260200190815260200160002060006101000a81548173ffffffffffffffffffffffffffffffffffffffff021916908373ffffffffffffffffffffffffffffffffffffffff160217905550807fb5e6e01e79f91267dc17b4e6314d5d4d03593d2ceee0fbb452b750bd70ea5af960405160405180910390a2600260009054906101000a900473ffffffffffffffffffffffffffffffffffffffff1673ffffffffffffffffffffffffffffffffffffffff16634000aea08685856040518463ffffffff1660e01b815260040161106b93929190611d46565b6020604051808303816000875af115801561108a573d6000803e3d6000fd5b505050506040513d601f19601f820116820180604052508101906110ae9190611db0565b6110ed576040517f08c379a00000000000000000000000000000000000000000000000000000000081526004016110e490611e4f565b60405180910390fd5b949350505050565b6110fd6115c8565b600060208361110c9190611e6f565b146111385760208261111e9190611e6f565b602061112a9190611ea0565b826111359190611a1c565b91505b81836020018181525050604051808452600081528281016020016040525082905092915050565b60178167ffffffffffffffff1611611196576111908160058460ff16901b60ff16178461130690919063ffffffff16565b506112df565b60ff8167ffffffffffffffff16116111ec576111c5601860058460ff16901b178461130690919063ffffffff16565b506111e68167ffffffffffffffff166001856113269092919063ffffffff16565b506112de565b61ffff8167ffffffffffffffff16116112435761121c601960058460ff16901b178461130690919063ffffffff16565b5061123d8167ffffffffffffffff166002856113269092919063ffffffff16565b506112dd565b63ffffffff8167ffffffffffffffff161161129c57611275601a60058460ff16901b178461130690919063ffffffff16565b506112968167ffffffffffffffff166004856113269092919063ffffffff16565b506112dc565b6112b9601b60058460ff16901b178461130690919063ffffffff16565b506112da8167ffffffffffffffff166008856113269092919063ffffffff16565b505b5b5b5b505050565b6112ec6115c8565b6112fe83846000015151848551611348565b905092915050565b61130e6115c8565b61131e8384600001515184611437565b905092915050565b61132e6115c8565b61133f84856000015151858561148d565b90509392505050565b6113506115c8565b825182111561135e57600080fd5b8460200151828561136f9190611a1c565b11156113a4576113a38560026113948860200151888761138f9190611a1c565b61151b565b61139e9190611ed4565b611537565b5b6000808651805187602083010193508088870111156113c35787860182525b60208701925050505b6020841061140a57805182526020826113e59190611a1c565b91506020816113f49190611a1c565b90506020846114039190611ea0565b93506113cc565b60006001856020036101000a03905080198251168184511681811785525050508692505050949350505050565b61143f6115c8565b8360200151831061146557611464846002866020015161145f9190611ed4565b611537565b5b83518051602085830101848153818603611480576001820183525b5050508390509392505050565b6114956115c8565b846020015184836114a69190611a1c565b11156114ce576114cd85600286856114be9190611a1c565b6114c89190611ed4565b611537565b5b60006001836101006114e09190612049565b6114ea9190611ea0565b9050855183868201018583198251161781528151858801111561150d5784870182525b505085915050949350505050565b60008183111561152d57829050611531565b8190505b92915050565b60008260000151905061154a83836110f5565b5061155583826112e4565b50505050565b6040518060a0016040528060008019168152602001600073ffffffffffffffffffffffffffffffffffffffff16815260200160007bffffffffffffffffffffffffffffffffffffffffffffffffffffffff19168152602001600081526020016115c26115c8565b81525090565b604051806040016040528060608152602001600081525090565b6000604051905090565b600080fd5b600080fd5b6000819050919050565b611609816115f6565b811461161457600080fd5b50565b60008135905061162681611600565b92915050565b600060208284031215611642576116416115ec565b5b600061165084828501611617565b91505092915050565b600073ffffffffffffffffffffffffffffffffffffffff82169050919050565b600061168482611659565b9050919050565b61169481611679565b82525050565b60006020820190506116af600083018461168b565b92915050565b60008115159050919050565b6116ca816116b5565b82525050565b60006020820190506116e560008301846116c1565b92915050565b6000819050919050565b6116fe816116eb565b811461170957600080fd5b50565b60008135905061171b816116f5565b92915050565b600060208284031215611737576117366115ec565b5b60006117458482850161170c565b91505092915050565b611757816115f6565b82525050565b6000602082019050611772600083018461174e565b92915050565b61178181611679565b811461178c57600080fd5b50565b60008135905061179e81611778565b92915050565b600080fd5b600080fd5b6000601f19601f8301169050919050565b7f4e487b7100000000000000000000000000000000000000000000000000000000600052604160045260246000fd5b6117f7826117ae565b810181811067ffffffffffffffff82111715611816576118156117bf565b5b80604052505050565b60006118296115e2565b905061183582826117ee565b919050565b600067ffffffffffffffff821115611855576118546117bf565b5b61185e826117ae565b9050602081019050919050565b82818337600083830152505050565b600061188d6118888461183a565b61181f565b9050828152602081018484840111156118a9576118a86117a9565b5b6118b484828561186b565b509392505050565b600082601f8301126118d1576118d06117a4565b5b81356118e184826020860161187a565b91505092915050565b60008060008060808587031215611904576119036115ec565b5b60006119128782880161178f565b94505060206119238782880161178f565b935050604085013567ffffffffffffffff811115611944576119436115f1565b5b611950878288016118bc565b925050606061196187828801611617565b91505092959194509250565b611976816116eb565b82525050565b6000602082019050611991600083018461196d565b92915050565b60006040820190506119ac600083018561168b565b6119b9602083018461174e565b9392505050565b6000602082840312156119d6576119d56115ec565b5b60006119e48482850161178f565b91505092915050565b7f4e487b7100000000000000000000000000000000000000000000000000000000600052601160045260246000fd5b6000611a27826115f6565b9150611a32836115f6565b9250828201905080821115611a4a57611a496119ed565b5b92915050565b600082825260208201905092915050565b7f53656e64657220616c72656164792068617320612070656e64696e672072657160008201527f7565737400000000000000000000000000000000000000000000000000000000602082015250565b6000611abd602483611a50565b9150611ac882611a61565b604082019050919050565b60006020820190508181036000830152611aec81611ab0565b9050919050565b7f4e487b7100000000000000000000000000000000000000000000000000000000600052601260045260246000fd5b60007fffffffff0000000000000000000000000000000000000000000000000000000082169050919050565b611b5781611b22565b82525050565b600081519050919050565b600082825260208201905092915050565b60005b83811015611b97578082015181840152602081019050611b7c565b60008484015250505050565b6000611bae82611b5d565b611bb88185611b68565b9350611bc8818560208601611b79565b611bd1816117ae565b840191505092915050565b600061010082019050611bf2600083018b61168b565b611bff602083018a61174e565b611c0c604083018961196d565b611c19606083018861168b565b611c266080830187611b4e565b611c3360a083018661174e565b611c4060c083018561174e565b81810360e0830152611c528184611ba3565b90509998505050505050505050565b6000819050919050565b6000611c86611c81611c7c84611659565b611c61565b611659565b9050919050565b6000611c9882611c6b565b9050919050565b6000611caa82611c8d565b9050919050565b60008160601b9050919050565b6000611cc982611cb1565b9050919050565b6000611cdb82611cbe565b9050919050565b611cf3611cee82611c9f565b611cd0565b82525050565b6000819050919050565b611d14611d0f826115f6565b611cf9565b82525050565b6000611d268285611ce2565b601482019150611d368284611d03565b6020820191508190509392505050565b6000606082019050611d5b600083018661168b565b611d68602083018561174e565b8181036040830152611d7a8184611ba3565b9050949350505050565b611d8d816116b5565b8114611d9857600080fd5b50565b600081519050611daa81611d84565b92915050565b600060208284031215611dc657611dc56115ec565b5b6000611dd484828501611d9b565b91505092915050565b7f756e61626c6520746f207472616e73666572416e6443616c6c20746f206f726160008201527f636c650000000000000000000000000000000000000000000000000000000000602082015250565b6000611e39602383611a50565b9150611e4482611ddd565b604082019050919050565b60006020820190508181036000830152611e6881611e2c565b9050919050565b6000611e7a826115f6565b9150611e85836115f6565b925082611e9557611e94611af3565b5b828206905092915050565b6000611eab826115f6565b9150611eb6836115f6565b9250828203905081811115611ece57611ecd6119ed565b5b92915050565b6000611edf826115f6565b9150611eea836115f6565b9250828202611ef8816115f6565b91508282048414831517611f0f57611f0e6119ed565b5b5092915050565b60008160011c9050919050565b6000808291508390505b6001851115611f6d57808604811115611f4957611f486119ed565b5b6001851615611f585780820291505b8081029050611f6685611f16565b9450611f2d565b94509492505050565b600082611f865760019050612042565b81611f945760009050612042565b8160018114611faa5760028114611fb457611fe3565b6001915050612042565b60ff841115611fc657611fc56119ed565b5b8360020a915084821115611fdd57611fdc6119ed565b5b50612042565b5060208310610133831016604e8410600b84101617156120185782820a905083811115612013576120126119ed565b5b612042565b6120258484846001611f23565b9250905081840481111561203c5761203b6119ed565b5b81810290505b9392505050565b6000612054826115f6565b915061205f836115f6565b925061208c7fffffffffffffffffffffffffffffffffffffffffffffffffffffffffffffffff8484611f76565b90509291505056fea264697066735822122081a3c3aca2ec52ec459268340c16503a18692cc69c79723f1bab2f57589683ad64736f6c63430008140033",
  "linkReferences": {},
  "deployedLinkReferences": {}
}